:020000040808EA
:10000000000008087CC30808000006000A0005017B
:0800100004021F0C00000000B7
:040018001CAF080809
:1000200008B5024B1B689B6D019308BD2C000608A8
:1000300008B5024B1B685B6E019308BD2C000608D7
:1000400009480A4908B5884205D0094A824202D0C7
:10005000121A0AF09BFD0748074A0021121A0AF0FB
:10006000BDFD064808BD00BF0000002024C20808EE
:100070003001002030010020E4090020E4090020C4
:1000800070B506F079FF0025054E064CA41BA408A8
:10009000A54200D170BD56F8043B98470135F7E7FB
:1000A000B8BF0808F4BF080801F096BA08B501F017
:1000B00079F8BDE8084006F017BF05F005B805F06F
:1000C00003B805F009B8000000210C2008B5024A69
:1000D00004F0B2FEFEE700BF394A08080078B0FA23
:1000E00080F0400970470123037070477047006A31
:1000F0000368DB6818470000014802F041BF00BFF9
:1001000078020020436913B183690C3018477047A7
:1001100030B585B00446089860B1406850B1856834
:1001200045B1CDE90241CDE90023C4686A4601AB7F
:1001300002A9A04705B030BD08B500680AF010FD5F
:10014000014B186008BD00BF0000002008B5006822
:100150000AF006FD014B186008BD00BF0C0000202E
:1001600008B500680AF0FCFC014B186008BD00BF30
:100170000400002008B500680AF0F2FC014B18608A
:1001800008BD00BF0800002008B500680AF0E8FCC0
:10019000014B186008BD00BF1400002008B50248DC
:1001A00002F0FAFE012008BD7802002010B50446D6
:1001B000006808B104F090FF204610BD13B500217F
:1001C0000446084604F098FC0023204601A9019348
:1001D00004F0AAFC019C0CB1012323710021012031
:1001E00004F08AFC2CB1236820469B6898470023C2
:1001F000237102B010BD000010B50D49044605F092
:1002000080FA38B100220B4B0B481A70BDE8104041
:1002100002F092BE2046094905F073FA38B1012276
:10022000044B05481A70BDE8104002F097BE10BD9F
:1002300030AF0808100000207802002039AF08080D
:10024000012A02D1016000207047022A04BF0B6816
:100250000360F8E71FB50468684605F0DDF96846F5
:10026000A0470446684605F05DF9204604B010BD7D
:10027000012A02D1016000207047022A04BF0B68E6
:100280000360F8E703681268D1E900011847012A02
:1002900002D1016000207047022A04BF0B6803608E
:1002A000F8E70368184730B51368006885B0019314
:1002B0008368D1E90045CDE902450BB908F0C9F8DA
:1002C000C36801AA02A9984705B030BD70B50546BC
:1002D0000C46164642B90368C9B29B68984728463F
:1002E000BDE8704005F0DDBA00290ADA0A2A08D113
:1002F0002D2105F0D3FA61422846F2B205F0E7FA63
:10030000EDE72146F8E710B504463AB903689B6863
:1003100098472046BDE8104005F0C3BAD2B205F0B8
:10032000D6FAF6E70246014806F0D5BE677008081F
:100330000023022204F070BE10B50446094B03608E
:1003400005F05EFD214605F0BCFF07F003FA07F05B
:10035000E7F92046044B40F8043B05F04FFE2046E9
:1003600010BD00BF8CB5080874B5080810B5044668
:10037000FFF7E2FF2046242108F065F8204610BD73
:100380002DE9F04FC94C93B0204602F0C9FD8346D9
:10039000204602F02BFD8246204602F02DFD8146CC
:1003A000204602F02FFD8046204602F03DFD074624
:1003B000204602F03FFD0646204602F02FFD05468E
:1003C000204602F025FD0090204602F0BFFC01907F
:1003D000204602F0C1FC0290204602F0C3FC0390CC
:1003E000204602F0C5FC0490204602F03BFD05903B
:1003F000204602F03DFD0690204602F02DFD0790BC
:10040000204602F023FD0F90204602F019FD1090C7
:10041000204602F0BBFC0890204602F0BDFC09908B
:10042000204602F0BFFC0A90204602F0C1FC0B906F
:10043000204602F0C3FC0C90204602F0D1FC0D9047
:10044000204602F0C1FC0E90204602F0C3FC044698
:1004500007F080F9964905F01DFA07F07BF90A22AA
:100460005946119005F033FA119B184605F019FA18
:1004700007F070F98F4905F00DFA07F06BF90A22C1
:100480005146FFF740FF07F065F98B4905F002FA86
:1004900007F060F90A224946FFF735FF07F05AF9DD
:1004A000864905F0F7F907F055F90A224146FFF7AA
:1004B0002AFF07F04FF9824905F0ECF907F04AF9F5
:1004C0000A223946FFF71FFF07F044F97D4905F07E
:1004D000E1F907F03FF90A223146FFF714FF07F070
:1004E00039F9794905F0D6F907F034F906460A22B8
:1004F000294605F0ECF9304605F0D3F907F02AF962
:10050000724905F0C7F907F025F905460A22BDF83A
:10051000001005F0DCF9284605F0C3F907F01AF9D8
:100520006B4905F0B7F907F015F90222019905F0BA
:10053000BBFA07F00FF9674905F0ACF907F00AF9C3
:100540000222029905F0B0FA07F004F9624905F0B9
:10055000A1F907F0FFF80222039905F0A5FA07F0C8
:10056000F9F85E4905F096F907F0F4F802220499CB
:1005700005F09AFA07F0EEF8594905F08BF907F003
:10058000E9F80222059905F08FFA07F0E3F85549DA
:1005900005F080F907F0DEF80222069905F084FAEA
:1005A00007F0D8F8504905F075F907F0D3F80222A2
:1005B000079905F079FA07F0CDF84C4905F06AF98A
:1005C00007F0C8F80A220F99FFF79DFE07F0C2F85E
:1005D000474905F05FF907F0BDF80A221099FFF7C7
:1005E00092FE07F0B7F8434905F054F907F0B2F866
:1005F00005460A22089905F06AF9284605F051F9DE
:1006000007F0A8F83C4905F045F907F0A3F80546BE
:100610000A22099905F05BF9284605F042F907F02E
:1006200099F8364905F036F907F094F80A220A9944
:10063000FFF74CFE07F08EF8314905F02BF907F073
:1006400089F80A220B99FFF741FE07F083F82D493C
:1006500005F020F907F07EF80A220C99FFF736FE24
:1006600007F078F8284905F015F907F073F80A2221
:100670000D99FFF72BFE07F06DF8244905F00AF9F4
:1006800007F068F80A220E99FFF720FE07F062F8DB
:100690001F4905F0FFF807F05DF80A222146FFF731
:1006A00015FE012013B0BDE8F08F00BF78020020D6
:1006B00042AF080851AF080858AF08087BAF0808D8
:1006C00061AF080869AF08086FAF080876AF08087F
:1006D00085AF080890AF08089CAF0808AEAF0808BF
:1006E000C1AF0808CFAF0808DAAF0808E2AF0808C2
:1006F000EFAF0808FCAF080806B0080810B00808FB
:1007000017B008081EB0080825B008082EB0080861
:1007100038B008087FB5044600680AF021FA2021A5
:1007200086B2204605F037F821460246684605F0B5
:1007300057F800980AF014FA0446684604F0F2FEEE
:10074000164B1B68DB001FD507F004F8144905F0B1
:10075000A1F806F0FFFF0A22314605F0B8F806F0CE
:10076000F9FF104905F096F806F0F4FF002C054655
:1007700012DA2D2105F092F861420A22284605F08E
:10078000A6F8284605F08DF822463146064802F0C4
:10079000FDFB012004B070BD2146EEE714000020EF
:1007A00043B008084AB00808780200200EB403B528
:1007B00003AB53F8042B0121019305F083F902B038
:1007C0005DF804EB03B0704738B50A4C1546236852
:1007D000D90106D506F0BEFF074905F00F02FFF765
:1007E000E5FF23681A0154BF43F07F4323F07F43A2
:1007F000236038BD1400002051B0080810B583688C
:10080000044613B1032201469847204610BD00005C
:1008100037B5134B044603608068C8B100256FF0FC
:1008200000430221CDE900352A462B4604F084F925
:100830002946A06804F0B0F9237903F0FF0513B14D
:1008400004F042F9F8E72946A06804F065F9A560CC
:1008500004F10C00FFF7D2FF204603B030BD00BF0B
:1008600060B5080810B50446FFF7D2FF20461C21EA
:1008700007F0E9FD204610BD012108B5084604F047
:1008800003F9BDE808400121042004F0FDB838B5A3
:10089000002383608B6804460D462BB102229847E3
:1008A000EB68E360AB68A360204638BD012A70B5F1
:1008B000044603D10B680360002070BD022A0CD0EF
:1008C000032AF9D10468002CF6D02046FFF796FFE2
:1008D0001021204607F0B7FDEEE710200E68FFF765
:1008E000ECFB054610B13146FFF7D1FF2560E3E789
:1008F00038B5046805467CB16368013B63605BB949
:10090000236820469B689847A368013BA3601BB9F6
:1009100023682046DB689847284638BD2DE9F0411A
:100920002E4892B002F002FB002854D006F0B3F932
:1009300005462A4802F016FA0446284802F018FA3A
:100940000646264802F094FA0746244802F016FAB2
:10095000234B2A461B688046224900930EA8EB17BA
:1009600006F03AF9204609F025FA0E9B04460D469A
:1009700040461D49069309F07FFF09F01BFACDE9B7
:1009800004011949384609F077FF09F013FACDE957
:100990000201304609F00EFA2246CDE900012B464D
:1009A00012490AA804F028FF114B0A9A1B78114932
:1009B0008DF8003008A83C2306F09EFC09A8FFF73C
:1009C00097FF0AA804F0AEFD0EA804F0ABFD0120CD
:1009D00012B0BDE8F0810220FAE700BF78020020E3
:1009E000C40000203004002000007A446DB00808E4
:1009F0004001002099B0080830B51B488BB002F0C8
:100A000089F90446194806F0E5F90546174806F045
:100A1000FFF909F0CFF9CDE90201284609F0CAF93A
:100A20002246CDE9000106A8114904F0E5FE114B6C
:100A3000069A1B7810498DF8003004A83C2306F074
:100A40005BFC05A8FFF754FF06A804F06BFD074800
:100A500006F0DEF909490AF017F8002814BF012052
:100A600002200BB030BD00BF1C020020E4010020BA
:100A7000A2B0080840010020C5B0080800002041CD
:100A8000F0B5164C89B0204602F08CFA0546204697
:100A900002F092FA0646204602F098FA07462046EF
:100AA00002F09EFA33462A46CDE900700C4904A8AC
:100AB00004F0A2FE0B4B049A1B780B498DF8003012
:100AC00002A83C2306F018FC03A8FFF711FF04A8B6
:100AD00004F028FD012009B0F0BD00BF780200201D
:100AE000CFB0080840010020EDB00808F0B54FF481
:100AF000FA6089B006F0EAF8204803F046FD0646A1
:100B00001E4803F065FD04461C4803F07DFD0546C4
:100B10000146204609F0C2FF00B92EB1184B1B68F0
:100B2000002B24DB022020E0284609F043F906468A
:100B300020460F4609F03EF93246CDE900013B461A
:100B4000104904A804F058FE0F4B049A1B780F4973
:100B50008DF8003002A83C2306F0CEFB03A8FFF777
:100B6000C7FE04A804F0DEFC012009B0F0BD06F0C9
:100B7000F1FD074904F0A1FED4E700BF8801002081
:100B800014000020F6B00808400100200AB108084F
:100B900012B1080830B5274989B0054604F0B1FD07
:100BA00068B1294604A804F051FD04A8FFF724FF0A
:100BB000044604A804F0B6FC204609B030BD28461F
:100BC0001D4904F09EFD38B1294604A804F03EFDFD
:100BD00004A8FFF7A3FEEBE72846184904F091FDAF
:100BE00038B1294604A804F031FD04A8FFF748FFF6
:100BF000DEE72846124904F084FD044638B1294650
:100C000004A804F023FD04A8FFF770FFD0E72A68CA
:100C100004A80C4904F0F0FD0B4B02A81B78049AC1
:100C20008DF8003009493C2306F066FB03A8FFF766
:100C30005FFEBEE732B1080836B108083AB10808CD
:100C40003EB1080842B10808400100204FB1080831
:100C500070B51B488AB002F05DF81A4E044633782E
:100C6000834229D0184B1B685B0725D5174806F02F
:100C7000B1F80546154806F0CBF809F09BF8CDE928
:100C80000201284609F096F82246CDE900011049F4
:100C900006A804F0B1FD0F4B069A1B780E498DF89B
:100CA000003004A83C2306F027FB05A8FFF720FE30
:100CB00006A804F037FC347001200AB070BD00BFF4
:100CC0001C0200201100002014000020E40100207C
:100CD00058B1080840010020C5B008082DE9F04FC0
:100CE00095B003F0B9FE4EF66022DFF81CA1DAF8E9
:100CF0000030C01A454B1B685343984240F2818034
:100D0000434802F013F900287BD0DFF80891D9F8A6
:100D10000030DA0763D505F0BEFFDFF8FCB0C3177B
:100D2000DBF800203D4904460092024610A80993D2
:100D300005F052FF10A804F0F5FB354802F012F858
:100D40000546334802F014F80646314802F090F8A0
:100D500007462F4802F012F8DBF80020099B804676
:100D60002E49009210A8224605F036FF284609F0C9
:100D700021F8109B04460D4640462949069309F088
:100D80007BFD09F017F8CDE904012549384609F043
:100D900073FD09F00FF8CDE90201304609F00AF8B9
:100DA0002246CDE900012B461E490CA804F024FD83
:100DB0001D4B0C9A1B781D498DF800300AA83C2366
:100DC00006F09AFA0BA8FFF793FD0CA804F0AAFB13
:100DD00010A804F0A7FB03F03FFECAF80000D9F802
:100DE0000030DB000DD506F0B5FC0446084910A81C
:100DF00002F044F82046109904F05FFD10A804F0BA
:100E000091FB15B0BDE8F08FF40100200C0000202C
:100E10007802002014000020C400002030040020CC
:100E200000007A446DB008084001002099B008081D
:100E300070B5334886B002F0D3F8324B04461B68D5
:100E4000834223DA2E4802F0ADF805462C4802F022
:100E5000B3F806462A4802F0B9F8CDE900042A4C56
:100E600033462A46294902A804F0C6FC02A92046B6
:100E700004F0F7FB02A804F055FB254B1B689A0011
:100E800004D506F067FC216804F017FD03F0E4FDCB
:100E90004EF660221F4D2B68C01A1F4B1B68534330
:100EA00098422AD91A4B1B689B0726D5164C1B491A
:100EB000204604F026FC00BB194B1A491B7802A8F7
:100EC0008DF8003022683C2306F016FA03A8FFF7DD
:100ED0000FFD124902A804F06FFB02A8FFF71EFDE8
:100EE00002A804F01FFB03F0B7FD286020460B4961
:100EF00006B0BDE8704004F0BCBB06B070BD00BFDA
:100F0000780200200000002028020020CFB008084E
:100F100014000020EC0100200400002050B6080856
:100F200040010020EDB00808F0B589B003F094FD51
:100F3000814F3B68C01AB0F5FA6FC0F0D3807F4D87
:100F40002B786BB97E4B1B68002B04DA06F002FC91
:100F50007C4904F0B2FC7C4803F032FA01232B7088
:100F6000794803F0F9FA002840F0AE80764803F0A3
:100F70000CFB734E04463368002B66DA06F0EAFB7E
:100F8000724904F087FCE31D072B00F29980DFE82B
:100F900003F0938F8B87837F7B0406F0DBFB6C4928
:100FA00004F08BFC3368002B4FDA06F0D3FB0646C7
:100FB000654803F00DFB08F0FDFE02460B46304687
:100FC0006449FFF7F3FB06F0C5FB06465E4803F0F5
:100FD000E3FA08F0EFFE02460B4630465E49FFF7A3
:100FE000E5FB06F0B7FB0646574803F00DFB08F09B
:100FF000E1FE02460B4630465849FFF7D7FB06F0A4
:10100000A9FB0646504803F02BFB08F0D3FE02462E
:101010000B4630465249FFF7C9FB06F09BFB0646DC
:10102000494803F049FB02460B4630464D49FFF75D
:10103000BDFB06F08FFB0646434803F0A5FB0246C6
:101040000B4630464849FFF7B1FB00232B7003F0F5
:1010500003FD38603C4803F0BBFA05463A4803F00C
:10106000D3FA06460146284609F018FD00B96CB3CC
:10107000334B1B68002B35DA06F06CFB3B4909B09B
:10108000BDE8F04004F019BC06F064FB384987E77E
:1010900006F060FB374983E706F05CFB36497FE7E3
:1010A00006F058FB35497BE706F054FB344977E7F7
:1010B00006F050FB334973E706F04CFB32496FE70B
:1010C00006F048FB31496BE70024C3E703F0C4FC9A
:1010D0004EF660222E4C2368C01A2E4B1B685343D9
:1010E000984201D809B0F0BD154B1B681B07F9D514
:1010F000304608F05FFE064628460F4608F05AFEC6
:101100003246CDE900013B46234904A804F074FBB4
:10111000224B049A1B7822498DF8003002A83C2308
:1011200006F0EAF803A8FFF7E3FB04A804F0FAF9D5
:1011300003F092FC2060D5E7440100204801002024
:10114000140000207BB1080888010020A6B108081F
:10115000B4B1080875B2080889B20808A0B2080836
:10116000B7B20808CDB20808E2B2080812B1080800
:10117000B7B10808CEB10808E9B1080809B20808F3
:1011800025B2080837B2080853B2080867B2080841
:10119000F001002008000020F6B0080840010020FF
:1011A0000AB1080808B5114800F0BAFD104801F06E
:1011B000EDFA104801F096F80F4801F08BFC0F484B
:1011C00000F0B6FFFFF734FEFFF788FDFFF740FDA4
:1011D000FFF7AAFE0A4B1B681B0106D506F0BAFAF8
:1011E000BDE80840074904F068BB08BD4C01002079
:1011F000380200205C0100207C0100207C020020DD
:1012000014000020FCB208082DE9F04FA1B018AE80
:10121000A6490546304604F0CFF9A54801F080FE06
:101220001590A34801F0E2FD8346A14801F0E4FDDA
:1012300082469F4801F0E6FD81469D4801F0F4FD9D
:1012400080469B4801F0F6FD0746994801F0E6FD0F
:101250001490974801F0DCFD0290954801F076FD6E
:101260000590934801F078FD0690914801F07AFDD1
:1012700007908F4801F07CFD08908D4801F0F2FD49
:1012800009908B4801F0F4FD0A90894801F0E4FDD3
:101290000B90874801F0DAFD0C90854801F0D0FDF5
:1012A0000D90834801F072FD0E90814801F074FDAD
:1012B0000F907F4801F076FD10907D4801F078FD99
:1012C00003907B4801F07AFD0490794801F088FD95
:1012D0001190774801F078FD1290754801F07AFD81
:1012E00074491390284604F00CFA1CAC68B3159AA4
:1012F0002046714904F080FA2146304604F0B1F9E5
:10130000204604F00FF92946204604F09FF92046B4
:101310006A4904F0E2F9314604F0D3F9684B0268F7
:101320001B7868498DF8003016A83C2305F0E4FFCF
:1013300017A8FFF7DDFA204604F0F4F8304604F071
:10134000F1F8012021B0BDE8F08F28465E4904F095
:10135000D8F908B15A46CBE728465C4904F0D1F9E0
:1013600008B15246C4E72846594904F0CAF908B101
:101370004A46BDE72846574904F0C3F908B142463A
:10138000B6E72846544904F0BCF908B13A46AFE73D
:101390002846524904F0B5F908B1149AA8E728463E
:1013A0004F4904F0AEF910B1BDF80820A0E7284677
:1013B0004C4904F0A6F948B1059808F0FBFC024638
:1013C0000B462046484904F017FA95E72846474956
:1013D00004F097F9B046274608B10698EDE728468D
:1013E000434904F08EF970B1079808F0E3FC024617
:1013F0000B4638463C4904F0FFF93946404604F0B4
:1014000030F938467DE728463A4904F07AF90DF17B
:10141000600808B10898E8E72846374904F071F9F0
:101420001CAF08B10998E0E72846344904F069F98F
:1014300008B10A98D9E72846314904F062F908B1A1
:101440000B98D2E728462F4904F05BF9C246B9460B
:1014500028B10C9A1849384604F0CEF9CDE7284651
:10146000294904F04EF908B10D9AF3E728462749B7
:1014700004F047F910B10E9A2549ECE728462549B2
:1014800004F03FF908B10F9AF6E72846224904F024
:1014900038F9002844D0109A2049484604F0ACF9A5
:1014A0004946504604F0DDF848462AE750B6080899
:1014B0007802002013B30808A7B7080826BB08085D
:1014C0004001002011B4080820B3080825B308081B
:1014D00040B308082CB3080832B3080836B308082C
:1014E0003BB3080848B30808FBB7080851B308081D
:1014F0005BB308086BB308087CB3080888B3080816
:1015000091B3080897B30808A2B30808ADB3080858
:10151000B5B30808B9B30808C1B30808C6B30808CA
:101520002846144904F0EDF808B1039AB4E72846B8
:10153000114904F0E6F808B1049AADE728460F49CE
:1015400004F0DFF810B1119A0D49A6E728460D49BD
:1015500004F0D7F808B1129AF6E728460A4904F0D1
:10156000D0F808B1139AEFE74046084904F081F833
:10157000C9E600BFCAB30808CFB30808D4B3080847
:10158000B5B30808DBB30808E3B30808ECB30808F0
:1015900070B51426D0E90053044606FB0356AE424C
:1015A00004D0284603F0BEFF1435F8E7206803F0A6
:1015B00093FD204670BD13B56C460B46024603C82A
:1015C00084E8030093E8030082E8030094E8030042
:1015D00083E8030002B010BD30B595B006F0BAF84C
:1015E0004FF4165106F098F842F2107005F06EFBB9
:1015F000924801F065FB924802F0C2FE914801F06A
:1016000093FB904801F054FC8F4910A803F0D4FFDD
:1016100010A8FEF7F1FD10A803F084FF8B4801F03D
:10162000ABFA8B4800F07AFB8A4801F07DF98A48D2
:1016300000F0F6FD894800F007FC89498948FEF76B
:1016400071FE894B10201093884B1393884B129393
:10165000FEF733FD044678B100238360129B33B15B
:10166000022210A99847139BE360129BA3602146B6
:10167000804A814805F02FFD002510A8FFF7BEF82D
:101680007E497F48FEF74EFE7E497F48FEF74AFEC0
:101690007E497F48FEF746FE7E497F48FEF742FEC0
:1016A0007E497F48FEF73EFE7E497F48FEF73AFEC0
:1016B0007E497F48FEF736FE7E497F48FEF732FEC0
:1016C0007E497F48FEF72EFE7E497F48FEF72AFEC0
:1016D0007E497F48FEF726FE7E497F48FEF722FEC0
:1016E0007E497F48FEF71EFE002301227D497E4889
:1016F00003F092FC7D497E48FEF71AFE0023022289
:101700007C497D4803F088FC002302227B497C4809
:1017100003F082FC002302227A497B4803F07CFC20
:101720000023022279497A4803F076FC79497A4805
:10173000FEF7FEFD79497A48FEF7FAFD79497A48C5
:10174000FEF7F6FD012200237849794803F064FC96
:10175000784B04A90493784B08A80793774B06931A
:10176000FFF795F808A910A8FFF791F810200E953B
:10177000FEF7A3FC044660B10146856010A8FFF7A0
:101780001AFF129BA268A3601292139BE268E360A7
:1017900013926B4B10200F936A4B0C940E93FEF731
:1017A0008CFC0446A0B1002383600E9B33B102225F
:1017B0000CA998470F9BE3600E9BA360624B4FF40C
:1017C0008050CDE902340021604A02AB03F074FB83
:1017D0000CA8FFF713F810A8FFF710F85C4C08A846
:1017E000FFF70CF804A8FFF709F803F02DFCA06838
:1017F00030B1002302211A46CDE9003303F09CF9F1
:10180000A06840B100236FF000421946CDE90023E3
:101810001A4603F091F94FF4FA6005F057FA354B88
:101820001B685B0107D505F095FF4A4915B0BDE877
:10183000304004F042B815B030BD00BF1C0200209B
:10184000880100207802002039AF08087C010020C0
:101850004C010020380200205C0100207C020020A6
:1018600089010808B9B40808F901080855020808F0
:101870004102080828B5080893700808950B080865
:101880001AB408083901080821B408084D010808ED
:101890002BB408086101080835B408087501080868
:1018A0003FB408081507080849B408089D0108084E
:1018B00051B40808810308085AB408080912080836
:1018C00062B408085D3F08086CB40808E53F0808E2
:1018D00078B40808AD40080885B408083541080800
:1018E00090B40808110000209CB4080800000020F3
:1018F000A6B4080814000020B2B40808F4010020BF
:10190000BFB40808EC010020CAB40808F0010020A8
:10191000D5B408080C000020E0B40808040000203A
:10192000ECB4080808000020F8B4080810000020F3
:1019300004B50808C90708088502080871020808E4
:10194000A7020808AD0808080100080011010808EE
:101950009802002010B508088842F8B504460D46E4
:10196000164616D9904215D2A2F11406751AA1F1A5
:1019700014072C44B7421CD02CB13146204603F04A
:101980004BFE337C2374304603F0CCFD143E143CF4
:10199000F0E70ED0B5420CD02CB12946204603F01A
:1019A0003BFE2B7C2374284603F0BCFD1435143415
:1019B000F0E7F8BD00232DE9F041C0E90033836072
:1019C0004F6804469F420E4624DD4FF0140808FB82
:1019D00007F003F079FB0546E0B1D4E9001208FBFB
:1019E0000212FFF7B9FF206803F076FB2560A760BD
:1019F000D6E9007308FB0378B84509D03946284674
:101A000003F024FE3B7C143505F8043C1437F3E75F
:101A1000736863602046BDE8F08100002DE9F04165
:101A20004FF001080024754B90B083F80080CDE999
:101A30000344059405F08EFE714D06462F4603A91A
:101A400006A8FFF7B7FF06A909A8FFF7B3FF6D4B7C
:101A500009A947F8043B0CA8FFF7ACFF0CAA1E210C
:101A6000384604F00AFD0CA8FFF792FD09A8FFF71D
:101A70008FFD654B2E622B6006A8FFF789FD634B37
:101A8000634E2B6005F066FE4FF4165105F044FEE0
:101A900004F0B6F9294604F0CFFB03A8FFF778FD60
:101AA00032465C49284606F0C9FCFEF7E5FE2146B1
:101AB000404603F009FA584D584BC5E90044AB6065
:101AC000022003F0E1F92846554D3246554906F00B
:101AD000B5FC2846544900F0F1FF324653492846E8
:101AE00006F0ACFC524D534B4FF461620093284614
:101AF000002300F00BFE28464F4D32464F4906F0BA
:101B00009DFC284600F068FB28464D4D32464D4965
:101B100006F094FC022228464B4900F087F928463B
:101B20004A4D32464A4906F089FC4FF46162284624
:101B3000484900F0BFF82846474D3246474906F06D
:101B40007DFC4EF66021284600F00AFD32464449ED
:101B50002846444D06F072FC434801F0E3F8214664
:101B6000284605F0E3F82846404D3246404906F045
:101B700065FC284601F094F8324628463D493E4D22
:101B800006F05CFC2346162203213C4802F0F5FBDC
:101B900028463B4903F010FD32462846394906F0F5
:101BA0004DFC394B394D0C93394B05F10C010F931A
:101BB000384B0CA80E93384B2C712B60AC606C61C9
:101BC000FFF7F9FC6A690E9B0E926B61AA690F9B85
:101BD0003221AB610F922B46304ACDE9004405F12A
:101BE000080002F091FF0CA8FEF708FE32462846D6
:101BF0002B4910B0BDE8F04106F020BC40010020A8
:101C0000F801002074B5080874BB08088CB50808F2
:101C10003001002039030808340100200000FFFFD4
:101C20007C010020AD01080832B50808C529080864
:101C30003802002041B508085C0100207926080818
:101C40007C020020992108084EB508084C010020AC
:101C5000991D080800007041B4020020A51C080866
:101C600095240808E4010020780200201C020020CE
:101C70004B6D0808F92B0808280200208801002075
:101C800050B6080825550808F900080898020020F1
:101C9000A30208088F02080860B50808BD010808FB
:101CA00011080808704710B50446102106F0CBFB58
:101CB000204610BD8260002210B5024C41600460D5
:101CC000C26010BDA4B5080837B50446104805F039
:101CD0009FF80021054608F0AFFEB0B929466068BC
:101CE00008F0D2FE88B10B4803F09BFA68B9284689
:101CF00008F0EAFE01460D2000F06CFF064B0121C2
:101D000068461B68A26803F07BFB03B030BD00BFD0
:101D1000D4020020DC020020D0020020FFF7D4BF54
:101D200010B5044602F098FEE368C01A4EF65F2331
:101D3000984207D902F090FEE0602046BDE81040CE
:101D4000FFF7C2BF10BD000070B500240C4B0D4D55
:101D50001C6021460C4E284604F0E8FF28460B4D37
:101D600032460B4906F06AFB2146284603F00BFA7F
:101D700032462846BDE87040064906F05FBB00BF0A
:101D8000D0020020D402002030010020DC0200201C
:101D90004B6D0808A5510808704710B504461C2172
:101DA00006F051FB204610BD10B50446086808F047
:101DB00075FFE060002010BD7FB502685368906831
:101DC0005E1000EB6305DB07146848BF8359684663
:101DD00048BF1C5903F020FC69462846A04704462A
:101DE000684603F09FFB204604B070BD012A38B559
:101DF000044602D10B68236003E0022A03D0032AC1
:101E00000DD0002038BD0C200D68FEF756F90346B2
:101E10000028F0D095E8070083E80700EBE70068AA
:101E20000028EED00C2106F00EFBEAE782600022CB
:101E300010B5044CC0E90322C0E90041C0E9052205
:101E400010BD00BF34B608087FB5002405464668BB
:101E50000C200294FEF731F918B1184B8560C0E9E7
:101E60000034174B00900393164B10200293FEF79B
:101E700024F9044678B100238360029B33B1022227
:101E800069469847039BE360029BA3603246214664
:101E90000D4805F020F9029B1BB169460322084654
:101EA0009847A868002806DB022180B204B0BDE88C
:101EB000704006F07BB904B070BD00BFA91D0808D2
:101EC000B91D0808ED1D080893700808F0B505460F
:101ED0008DB00846834908F03FFF0024814F07AECC
:101EE00048B1052C09D046F8040B394600200134CE
:101EF00008F032FFF4E7002C4AD04FF4FA7004F0F7
:101F0000E5FE079E7849304608F0B5FE40B900214D
:101F10000A2000F05FFE0DB0BDE8F04003F061BAAA
:101F20007249304608F0A7FE014660B9704C23683C
:101F3000002BECD0112000F04DFE20680DB0BDE864
:101F4000F04000F08FB96B49304608F094FE01462E
:101F500000BB102000F03EFE674B684A1B786849C2
:101F60008DF8003005A83C2305F0C6F9069C7CB12D
:101F70006368013B63605BB9236820469B689847B0
:101F8000A368013BA3601BB923682046DB68984720
:101F90000DB0F0BD30465B4908F06DFE074648B90C
:101FA0000146132000F016FE38460DB0BDE8F040A3
:101FB00003F01ABA5449304608F05DFE014618B9DC
:101FC0000B2000F007FEFEE73046504908F053FEB4
:101FD000002864D1012C62D0022C12D11E2421468B
:101FE0000C2000F0F7FD089E4949304608F043FEFA
:101FF00070B9484B224601211B6805A803F000FA7E
:10200000C6E7099808F0ACFD04460028E6D0E6E7EC
:102010003046414908F02FFE08B9404BEAE7304608
:102020003F4908F028FE0746D8B9AB68002BAFDB64
:10203000384AADF8123012680223CDE9014201227C
:102040008DF811300DF1120100920DF1110305A868
:1020500003F012FA394615200DB0BDE8F04000F04B
:10206000B9BD30462F4908F006FE064600288FD13C
:10207000AB68002B8CDB294AADF8123012680223C2
:10208000CDE9014201228DF811300DF112010092CB
:102090000DF1110305A803F0EFF93146DBE73046F7
:1020A000214908F0E8FD00287FF472AF012C3FF4CD
:1020B0006FAF089E1D49304608F0DDFD48B9022C7F
:1020C00004D0099808F04CFD686161E71E236B613C
:1020D0005EE73046124908F0CEFD00287FF458AF85
:1020E000F2E700BF22BB0808ACB50808B2B5080883
:1020F000F0020020BDB50808E802002050B608082C
:10210000CAB50808E3B50808ECB50808F8B508082A
:10211000FEB50808E002002003B60808E40200202B
:102120000FB6080814B6080820B6080825B608082F
:1021300010B5C168044631B1FFF7C8FEE06802F08F
:10214000CBFF0023E3606369002B14DD02F084FC05
:102150004FF47A722369C01A6369534398420AD3D1
:1021600002F07AFCA16920610131A1611420BDE86F
:10217000104000F02FBD10BD0022044B1A60012357
:10218000034A1360034A1370704700BFE002002047
:10219000E4020020E8020020704710B50446202128
:1021A00006F051F9204610BD0EB44FF0200C00236C
:1021B00000B58CB00DAA52F8041BCDE904C3CDE9DB
:1021C00000120392016804AA1E2002F03DFE0CB02A
:1021D0005DF804EB03B0704747F230520B4B42F20C
:1021E000107103600A4B10B5C0E901230023094AAE
:1021F000C0E903131060084A08491468C0E90633AF
:102200008C4218BFC2E90013838210BDD4B60808FF
:1022100020BF0200F00200200040024094C54E2E74
:1022200070470000002110B50C4BC26804460846F8
:1022300002F0BAFD0146072000F0CCFC0021E26864
:10224000074B084602F0B0FD04460146082000F0A6
:10225000C1FCA01C18BF012010BD00BF3CB608087F
:1022600051B6080830B51B4985B01B48FFF79CFFE5
:102270000021042000F0AEFC002301A8CDE90133C9
:10228000ADF80C3004F038FF02F0E6FB43F697257A
:10229000044602F0E1FE40B102F0DEFB001BA84262
:1022A00003D8642004F012FDF3E7002147F2305216
:1022B00008460A4B02F078FD4FF47A7004F006FDF0
:1022C000074B0A2201211B6801A803F099F805B009
:1022D00030BD00BF6EB60808040400207EB60808B2
:1022E000EC02002037B50022454D044611466868CF
:1022F00002F04AFE237D014683420DD02075012065
:1023000000F068FC217D3F4A3F4B4048002908BF50
:102310001A463F49FFF748FF02F09EFE637D0146E3
:1023200083422BD06075022000F054FC617D364B57
:10233000344A3648002908BF1A463649FFF734FFA9
:10234000637DC3B10022344B5A6000226868114695
:1023500002F03AFE68B1A569002D3CD102F07CFB89
:102360002946A061032000F035FC2C492748FFF7DF
:102370001BFF03B030BD02F06FFBE061637D002BFB
:10238000E3D1A368002BE0D002F066FBE369C01A3A
:10239000A3689842D9D3237D13B12046FFF742FFAB
:1023A0001D4A536801335360226962B1012B0AD977
:1023B0000021162000F00EFC194B012168461B6815
:1023C000226903F01DF80021062000F003FC2046DE
:1023D000FFF748FFB9E76368002BCAD002F03CFB67
:1023E000A369C01A63689842C3D30021052000F096
:1023F000F1FB204603B0BDE83040FFF733BF00BF1C
:10240000500800208BB608088EB608080404002087
:1024100093B608089FB6080800400240B3B6080803
:10242000EC0200200022014B1A607047EC020020F1
:10243000012310B503748368044643B1C06898470C
:10244000012300206374BDE8104002F09DBB0068CA
:102450000028F5D083680BB905F0FBFFC368EEE7F1
:1024600008B50021092000F0B5FBBDE8084002F0E6
:10247000B8BF38B50568044635B12846FEF7BEF941
:102480001021284605F0DFFF2046BDE83840142122
:1024900005F0D9BF10B5114B0446036083699BB1A9
:1024A000586802F009FB78B9A3695A7C12B95868D8
:1024B00002F012FBA369586802F016FB0023A06922
:1024C000A36108B1FFF7D5FFA06908B1FFF7D1FFFD
:1024D00004F10800FEF792F9204610BDECB608089A
:1024E00010B50446FFF7D6FF20461C2105F0ABFFD0
:1024F000204610BD2DE9F34104460E46142016492E
:1025000090461F4605F0A1FF30B10025C0E90055F7
:10251000C0E9025505744574206098B1099BC0E973
:1025200002873146CDE900039DF820200B4B043093
:1025300002F0BAFA30B923681B7C4BB9012002F0D3
:1025400073FAF8E700232068236008B1FFF791FFD2
:10255000204602B0BDE8F08131BD080831240808EA
:1025600030B5164B87B00360154B04460293154BEC
:1025700041600593144B051D0493002302A90361D8
:1025800002220830FDF783FE059B4FF4E162636190
:10259000049B0E492361092304F11800CDE90032A0
:1025A0002B460B4AFFF7A6FF02F056FA094B1860BC
:1025B00002A8FEF723F9204607B030BDECB60808A4
:1025C00061240808A30208088F020808DCB608087E
:1025D00019830808A8090020012380F824307047D7
:1025E00070B4036809685C689D68661005EB640058
:1025F000E40748BFAC591B68126848BFE35870BC79
:102600001847012A38B5044602D10B68236003E05D
:10261000022A03D0032A0DD0002038BD0C200D68FB
:10262000FDF74BFD03460028F0D095E8070083E84E
:102630000700EBE700680028EED00C2105F003FF4F
:10264000EAE7034610B442681B68541001EB6200CD
:10265000D20748BF0A5910BC48BFD3581847012AAF
:1026600002D1016000207047022A04BFD1E9002393
:10267000C0E90023F6E7000010B50446054B40F81A
:102680002C3BFEF7BBF804F1100002F04BFF204694
:1026900010BD00BF20B7080810B50446FFF7ECFFD7
:1026A0002046402105F0CFFE204610BD10B5034660
:1026B000D1E90002002186B0049108B9D10705D5FF
:1026C000CDE902020F4A05920F4A04926C4602AA13
:1026D00092E8030084E8030093E8030082E8030023
:1026E00094E8030083E803000499986899600490D3
:1026F0000599D868D96005901046FEF77FF806B0B6
:1027000010BD00BF432608085F26080830B51949E8
:1027100000F1100589B00446C0E9022301601649A2
:10272000284602F049FF0023144A2362C4E90B2320
:1027300084F82430A362124B04A8A363114B636393
:1027400002F092FC04A9684602F080FF68460E4938
:1027500002F0C3FF0C9902F0C0FF0146284602F0C8
:1027600066FF684602F0DEFE04A802F0DBFE2046AB
:1027700009B030BD20B7080850B60808012808087D
:10278000432608085F260808F4B6080810B5436B0E
:1027900001460BB905F05DFE836BBDE810402C309F
:1027A000184700001FB50023104A044680F8243063
:1027B00002A92C30CDE90223FFF778FF02F04CF993
:1027C000226920620A490B48FFF7EEFC0A4B0B4ACC
:1027D0001B7821698DF8003002A83C2304F08CFDA1
:1027E00003A8FEF785F804B010BD00BF5D280808F7
:1027F000F6B6080804040020F402002050B60808C9
:10280000F8B5044602F028F9236AC01A47F22F539C
:10281000984220D902F020F9206204F01FFAD0B1CA
:1028200002F01AFCB8B104F036FAD4E902760A4B89
:10283000C517D3E90221821A65EB0101BA4271EB97
:10284000060208DBC3E9020500232046A362BDE8B7
:10285000F840FFF7A7BFF8BD084002401FB590F849
:102860002430044653B1234B02A9029300232C3099
:102870000393FFF71BFF02F0EFF8206202F0ECF881
:10288000236AC01A4AF6C773984230D900210E2035
:1028900000F0A0F9A36A0133012BA36205DC2046F6
:1028A00004B0BDE81040FFF77DBF00210F2000F00D
:1028B00091F9114B114A1B7811498DF8003002A88B
:1028C0003C2304F019FD03A8FEF712F84FF4FA6058
:1028D00004F0FCF90B4B186820B104B0BDE81040BF
:1028E000FFF7C0BC04B0BDE8104002F07ABD04B0F0
:1028F00010BD00BF01280808F402002050B60808E7
:10290000CAB50808F002002038B5002383608B6840
:1029100004460D462BB102229847EB68E360AB6892
:10292000A360204638BD000070B51D4B1D4A1968D4
:10293000044691428AB004D000200021C3E902017C
:102940001A6000250C2026690495FDF7B6FB18B126
:10295000154B8460C0E90035144B02900593144B6D
:1029600002A906A80493FFF7CFFF089B7BB11020B4
:10297000FDF7A3FB044650B106A9FFF7C5FF0023EE
:1029800022463046CDE900330A4902F07DFB06A815
:10299000FDF734FF02A8FDF731FF0AB070BD00BF9C
:1029A00008400240FE49684AD9250808E125080880
:1029B00003260808BB7008080122014B1A707047F3
:1029C000F4020020704710B504460C2105F03BFDD1
:1029D000204610BD2DE9F0474FF00008304D074666
:1029E00046462C46DFF8BCA0D4B06368B3421BD97E
:1029F0006B69524602932B6940210193EB6804A84E
:102A00000093AB6802F080FB00EB0809B9F1FF0FFF
:102A100005F1100508D814AB03EB080004A908F071
:102A200034F9C8460136E0E76268921B6260002A0A
:102A30002FD01D491D48FFF7B7FB4FF402726368A2
:102A400004EB06115A431A48083108F0ADF8194B47
:102A500079681B7814AA8DF8003004A83C2304F090
:102A60004BFC059C7CB16368013B63605BB92368E8
:102A700020469B689847A368013BA3601BB9236865
:102A80002046DB68984701F0E7FFB86054B0BDE826
:102A9000F087324608490548FFF786FBD7E700BFB5
:102AA0001840024028B7080837B708080404002077
:102AB00020400240F502002065B70808034AC0E93B
:102AC000002100228260024A10607047E0B70808C7
:102AD000F802002010B50A4B04465B687BB102F097
:102AE000BBFA60B101F0B8FFA368C01A40F2F1333D
:102AF000984204D92046BDE81040FFF76BBF10BDD7
:102B0000184002402DE9F041174C0F46636890468B
:102B10001F2B0FD915491648FFF746FB4FF40272D9
:102B2000636804F11801013B5A4304F10800636033
:102B300008F03AF86668751C656004F0ACF804EBC0
:102B40000616B06001F088FF2B0104EB0515F0605C
:102B5000E7503A46434607490548C5F80480FFF761
:102B600023FBBDE8F08100BF1840024074B708089D
:102B70000404002089B7080873B5124D124E2B6863
:102B80000446B34202D16B68202B04D90F49104888
:102B9000FFF70AFB2E60002220461146FFF7B2FF26
:102BA000002201A81146019201F076FF019A32B18C
:102BB0001221204602B0BDE87040FFF7A3BF02B06B
:102BC00070BD00BF1840024016D4395CAAB708088F
:102BD000040400200A4604490346086810B1194657
:102BE000FFF790BF704700BFF80200200122014BA1
:102BF0001A707047F502002010B50446034B40F8E8
:102C0000043B02F0CFFA204610BD00BFF0B7080821
:102C100010B50446FFF7F0FF20460C2105F013FC29
:102C2000204610BD10B5044601F016FFA368C01A77
:102C3000632894BF00230123637101F00DFFA0609E
:102C400010BD10B403685A689968541001EB620013
:102C5000D20748BF0A591B6810BC48BFD358184751
:102C6000012A38B5044602D10B68236003E0022A2A
:102C700003D0032A0DD0002038BD0C200D68FDF7CD
:102C80001CFA03460028F0D095E8070083E8070007
:102C9000EBE700680028EED00C2105F0D4FBEAE752
:102CA000064B10B50021044640F8043B02F06BFAD5
:102CB0000123637100232046A36010BDF0B708080C
:102CC00030B5002587B004460C200495FDF7F5F9D2
:102CD00018B10D4B8460C0E900350C4B0290059390
:102CE0000B4B0222049300232E20009302A94FF0E5
:102CF000FF3304F0E5FD049B1BB102A90322084643
:102D0000984707B030BD00BF252C0808432C0808A1
:102D1000612C080808B5043002F08AFAC0F380007C
:102D200008BD70477047000010B5074C18212046B9
:102D300000F0AFFB2046092100F0C0FA2046BDE8B4
:102D40001040012100F0A2BAFC020020014B58699A
:102D5000704700BF28030020014B9869704700BFEF
:102D600028030020014BD869704700BF28030020CA
:102D7000014B186A704700BF2803002008B5024BBA
:102D8000D86B07F06DFC08BD28030020014BD86B01
:102D9000704700BF28030020014B186C704700BF2C
:102DA00028030020014B586C704700BF2803002007
:102DB000014B986C704700BF28030020014BD86C72
:102DC000704700BF28030020014B586D704700BFBB
:102DD00028030020014B986D704700BF2803002096
:102DE000014B186D704700BF28030020014B587835
:102DF000704700BF28030020014B9878704700BF40
:102E000028030020014BD878704700BF280300201A
:102E1000014B9868704700BF28030020014BD888F9
:102E2000704700BF28030020014B1879704700BF8E
:102E300028030020014B5879704700BF2803002069
:102E4000014B93F83B00704728030020014B93F897
:102E50003A00704728030020014BD86A704700BF32
:102E600028030020014B586A704700BF2803002048
:102E7000014B986A704700BF28030020F7B50A4D40
:102E80000446E86906F096FF0646286A0F4606F0F3
:102E900091FF3246CDE900013B462046034902F04E
:102EA000ABFC204603B0F0BD28030020F8B70808AB
:102EB00038B50121062005F079F90021062005F03A
:102EC00086F904F0F5FD4FF4165104F0EBFD0A20ED
:102ED00003F0FCFE0F4D284600F0F8FF044630B921
:102EE00004F038FCBDE838400B4902F0E6BC012C88
:102EF000F1D004F02FFC094902F0CCFC04F02AFCCC
:102F0000054621460A2202F0E2FC2846BDE8384088
:102F100002F0C7BC2803002011B80808FEB7080853
:102F2000014B1878704700BF28030020014B93F82D
:102F3000390070472803002038B50C24064D04F0F2
:102F4000B7FD036815F8011B9B68013C984714F016
:102F5000FF04F4D1012038BD2400002038B50C2432
:102F6000064D04F0A5FD036815F8011B9B68013CA4
:102F7000984714F0FF04F4D1012038BD1800002058
:102F8000014800F06BBE00BF28030020014800F09C
:102F900031BF00BF28030020014800F025BF00BF5B
:102FA0002803002010B5034C204600F099F9B4F92D
:102FB000060010BDFC02002010B5034C204600F0B6
:102FC0008FF9B4F9080010BDFC02002010B5034CC5
:102FD000204600F085F9B4F90A0010BDFC0200207B
:102FE00010B50B4C204600F07BF9B4F90820B4F979
:102FF0000630524303FB0323B4F90A0000FB003000
:1030000006F0C6FE05F05CFB07F0DCF910BD00BF62
:10301000FC02002010B504462C2105F014FA2046CD
:1030200010BD000010B5074C074800F0C6FA0C218F
:10303000204600F02FF82046BDE81040034A04491E
:1030400005F0FCB9FC02002028030020300100201C
:10305000232D0808704710B50446806808B101F0B8
:103060007BFD204610BD000038B50C4605462022E9
:10307000002104F1080007F0B1FD0B2220460449AD
:1030800007F043FE0123E360AA69C4E9042338BDC5
:103090001DB80808064A417702604FF0FF3282618E
:1030A000C2834FF6FF7280F82020112242627047DF
:1030B0002CB8080838B50C4D2978BFF35B8F11F098
:1030C00001040FD12846FDF709F858B121460748F9
:1030D00002F0B5F82846FDF706F8054A0549034809
:1030E00005F0ACF9014838BD8C03002090030020A6
:1030F000300100205730080808B5FFF7DBFF012139
:1031000002F0BBF8FFF7D6FF0549012202F0EAF80A
:10311000FFF7D0FFBDE80840002102F0BDB800BFB6
:1031200020A107002DE9F04190F920300546013338
:103130000F4606D1FFF7BEFF3946BDE8F04102F069
:10314000FDB8002407264FF0010895F92000002162
:1031500080B205F03CF895F91E0008FA06F13940F6
:1031600080B205F034F895F92000012180B205F015
:103170002EF895F91F00640080B2E4B205F040F823
:1031800008B144F00104013EDFD22046BDE8F081E1
:1031900070B590F91D30044601330E46154616D120
:1031A00005F0FCF8217F04F02FFD05F0F7F8036827
:1031B00031469B68984705F0F1F8036829469B68FB
:1031C000984705F0EBF8BDE8704004F040BD90F979
:1031D0002030013301D1FFF78FFF94F91D0000214A
:1031E00080B204F0F4FF06F07F012046FFF79AFF5B
:1031F00029462046FFF796FF94F91D000121BDE8FE
:10320000704080B204F0E3BF38B590F91D30044639
:1032100001330D461DD105F0C1F894F91C1004F0DE
:10322000F7FC05F0BBF8036829469B68984705F052
:10323000B5F804F00CFD05F0B1F80122217F04F08F
:10324000E0FC05F0ABF803685B699847C5B2284617
:1032500038BD90F92030013301D1FFF74DFF94F9CB
:103260001D00002180B204F0B2FF45F0800120462D
:10327000FFF758FF00212046FFF754FF054694F959
:103280001D00012180B204F0A2FFE0E738B50D4631
:1032900023210446FFF7B8FF20F0300242EA05126E
:1032A0002046BDE838402321D2B2FFF771BF232169
:1032B00008B5FFF7A9FFC0F3011008BD38B50D46EA
:1032C00020210446FFF7A0FF00F00F0242EA05129A
:1032D0002046BDE838402021D2B2FFF759BF000098
:1032E00038B590F91D300446013370D105F056F819
:1032F00094F91C1004F08CFC05F050F80368A82128
:103300009B68984705F04AF804F0A1FC05F046F8E0
:103310000622217F04F075FC05F040F803684F4D4C
:103320005B699847E08005F039F803685B69984766
:10333000E38805EA00201843E08005F02FF80368D1
:103340005B699847208105F029F803685B69984715
:10335000238905EA00201843208105F01FF803683F
:103360005B699847608105F019F803685B699847C5
:1033700005EA00256089054365812046FFF797FF30
:10338000032862D0022863D0012864D0002843F6C5
:10339000FC7018BF012007F067F90546B4F9060074
:1033A00007F062F9294607F067FAE060B4F908000F
:1033B00007F05AF9294607F05FFA2061B4F90A00CC
:1033C00007F052F9294607F057FA606138BD90F9C5
:1033D0002030013301D1FFF78FFE94F91D00002149
:1033E00080B204F0F4FEE8212046FFF79BFEFF21A7
:1033F0002046FFF797FEFF21E0802046FFF792FE70
:10340000E388FF2143EA0023E3802046FFF78AFE9A
:10341000FF2120812046FFF785FE2389FF2143EA13
:10342000002323812046FFF77DFEFF216081204697
:10343000FFF778FE6389012143EA002394F91D0018
:10344000638180B204F0C3FE97E74FF40060A2E707
:103450004FF480509FE741F6FE709CE700FFFF00AD
:1034600070B50C46054620220021201D07F0B6FB52
:10347000242301262360AB6928466360A660FFF71A
:103480002FFFEB68304663612B69A3616B69E361D1
:1034900070BD10B50446017790F91D00421C23D180
:1034A00004F07CFF04F07EFB0F212046FFF7ACFE0A
:1034B00033283DD1072220212046FFF769FE07214E
:1034C0002046FFF7FBFE882223212046FFF760FEFF
:1034D000102222212046FFF75BFE204680221F217A
:1034E000FFF756FE012010BD012180B204F06FFEEF
:1034F00094F91D00012180B204F058FE94F92000D7
:10350000431C04D1FFF7D6FD01F0A8FECCE7012152
:1035100080B204F04BFE94F91E00012180B204F049
:1035200045FE94F91F00002180B204F03FFEBBE786
:103530000020D8E78378C27803EB02224378007832
:1035400003EB022300EB0320704770B505460C46E1
:10355000164642B90368C9B29B6898472846BDE839
:10356000704002F09EB900290ADA0A2A08D12D21FA
:1035700002F094F961422846F2B202F0A8F9EDE7B0
:103580002146F8E7002200234261C0E90033C0E988
:103590000233C0E90E33C0E91033C0E91233C0E989
:1035A0001433C0E9163303828261C261026242624F
:1035B0008262C26202634263704708B5FFF7E2FFAE
:1035C00008BD002030B5107018704D7908794C1C7A
:1035D00000EB05200531084414F8015F1178A04282
:1035E0002944C9B211701D7829441970F4D130BD35
:1035F0002DE9F7436F4E814635780C4690461F46BD
:10360000032D24D8DFE805F0024B839B6A4D2B780D
:103610002BB101F021FA694B186000232B7004F0E4
:1036200047FA03681B69984768B104F041FA0368D8
:103630005B699847C0B2B52820700AD10123604A5F
:10364000337013602B7001F007FA34786CB10125E8
:1036500051E004F07FF85B4902F01CF904F07AF8BD
:103660001022217802F033F9EDE7544B1B68C01AA1
:10367000554B1B689842EAD904F06CF8534902F0A4
:103680001CF94FF4FA6003F021FB0121062004F03D
:103690009EFD4FF4FA6003F019FBA047D7E704F052
:1036A00007FA0368DFF818911B69984750B104F0D6
:1036B000FFF903685B699847D9F80030E05401339B
:1036C000C9F80030D9F80030062BC0D162792379CF
:1036D00003EB0223F82B3B6011DD04F03BF83C497F
:1036E00002F0D8F804F036F80A223968FFF72DFF07
:1036F000002302253370284603B0BDE8F0836388B9
:103700005BBA9BB2C8F8003002233370F3E704F0D1
:10371000CFF903682A4D1B69984740B104F0C8F9F6
:1037200003685B6998472B68E05401332B603B6862
:103730002A68063393428AD10323337087E704F063
:10374000B7F90368DFF878801B69984750B104F037
:10375000AFF903685B699847D8F80030E05401334B
:10376000C8F800303F68D8F8003008379F427FF42F
:103770006EAF4FF0000821460DF107030DF1060270
:1037800048463C4486F80080FFF71BFF14F8022CE3
:103790009DF806309A4205D114F8012C9DF80730A7
:1037A0009A4205D003F0D6FF0A4902F086F8A2E754
:1037B0004546A0E7A003002030000020A40300201D
:1037C0009C03002040B80808B400002042B8080854
:1037D00082B808089AB808080A4610B44B790C79E0
:1037E00004EB0324E31D063422440B4410BCFFF712
:1037F000E8BE0000F8B50D4600264B790C790C4F59
:1038000004EB0324073403F0A5FFA95D102202F0A6
:103810005EF8013603F09EFF394602F03BF8B442F1
:10382000F1DA03F097FFBDE8F840024902F045B82D
:10383000B4B8080822BB0808CB78887800EB0320CE
:103840004B7803EB0023087800EB0320704700005F
:1038500038B5044601F10A00FFF76CFE0D4606F08C
:1038600003FF06F0A7FA1CA3D3E9002306F0FAFA37
:1038700006F0F0FD2062A06105F10E00FFF75AFE90
:1038800006F0F2FE06F096FA13A3D3E9002306F041
:10389000E9FA06F0DFFDE061606105F11200FFF773
:1038A00049FE06F0E1FE05F1160160622046FFF7D1
:1038B000C3FF06F0D5FE05F11A01A0622046FFF70E
:1038C000BBFF05F11E01E0632046FFF7B5FF206452
:1038D00038BD00BFAFF3008048AFBC9AF2D77A3E44
:1038E000F8B50D4606310446FFF7A6FFE060EB7E13
:1038F000DB0740F1AF806B7C13F0010200F0AB807E
:1039000001222274E97AAA7A02EB0122E2802A7B60
:1039100022716A7B627113F0020300F09E80012322
:103920006374AB7B6370EB7BA3702B7CE37005F15E
:103930001600FFF7FFFD0028CABF4FF47A7300207E
:1039400090FBF3F0A060AB7E05F11E0084F83A30E6
:10395000023B012B8CBF0023012384F839306B7F9D
:1039600005F1460784F83B30FFF7E4FD06F07CFEE6
:1039700006F020FA3AA3D3E9002306F073FA06F022
:1039800069FD2062A06105F12200FFF7D3FD06F07A
:103990006BFE06F00FFA32A3D3E9002306F062FAB9
:1039A00006F058FDE061606105F12600FFF7C2FDF9
:1039B00006F05AFE05F12A0160622046FFF73CFF3F
:1039C00006F04EFE05F12E01A0622046FFF734FFFF
:1039D00005F13201E0632046FFF72EFF206405F178
:1039E0003600FFF7A7FD606405F13A00FFF7A2FD7E
:1039F000A06405F13E00FFF79DFDE06405F1420083
:103A0000FFF798FD064620653846FFF793FD06F060
:103A1000BFF915A3D3E9002306F04EFB06F01AFD0B
:103A200020633846FFF786FD06F0B2F90EA3D3E90E
:103A3000002306F041FB06F00DFD6063EB7E30468F
:103A4000C3F3401384F8383006F00EFE084906F040
:103A500013FFE062F8BD22745DE7637467E700BF9F
:103A600048AFBC9AF2D77A3E00000000006AF840E6
:103A700000007A4410B50C460E310246FFF7DCFE1A
:103A800004F1120150651046FFF7D6FE04F116014D
:103A900090651046FFF7D0FED06510BD38B5002503
:103AA00004F006F803681B69984760B9092DF7DD33
:103AB00003F0FEFF0B4901F0EDFEBDE838404FF486
:103AC000FA6003F003B903F0F3FF03685B699847FA
:103AD000C4B20A2C08BF013503F03CFE214601F0B8
:103AE000DDFEDDE7B6B8080870B50C46154603F0F4
:103AF00031FE114901F0CEFE03F02CFE002C0646EB
:103B000018DA2D2101F0CAFE61420A22304601F086
:103B1000DEFE03F01FFE094901F0BCFE03F01AFEB1
:103B2000044629460A2201F0D2FE2046BDE8704034
:103B300001F0B7BE2146E8E7D1B80808E7B80808A1
:103B400010B504462822002107F048F8204610BD91
:103B50000246002352F8230010B942F823107047A0
:103B600001330A2BF6D14FF0FF307047002210B519
:103B7000031F243053F8044F8C4208BF1A6083425D
:103B8000F8D110BD40F209139A4270B506460D46B1
:103B9000144652D0B2F5857F17DAB2F5817F44D052
:103BA00040F207139A4244D003F0D4FD254901F0B6
:103BB00071FE03F0CFFD21461022FFF7C6FC294617
:103BC0003046BDE87040FFF715BEB2F5A06F1CD0BF
:103BD00040F201539A42E7D1CC881B4864BAA4B2A0
:103BE0002146FFF7B5FF03F0B5FD184901F052FE7D
:103BF00003F0B0FD164901F04DFE03F0ABFD214688
:103C0000BDE870401022FFF7A0BCCC880E4864BA13
:103C1000A4B22146FFF7AAFF03F09CFD0D4901F075
:103C200039FE03F097FD0C49E5E7BDE87040FFF76A
:103C30000FBEBDE87040FFF753BEBDE87040FFF710
:103C400019BF00BF34B90808C0030020F0B8080845
:103C500002B9080812B9080824B90808F0B590F8A4
:103C600060300446C1B02BB3134D144E144F03F013
:103C70001FFF03681B699847E0B12B466946204641
:103C80000E4AFFF7B5FC022805D103F063FD0D498C
:103C900001F013FEEBE7032808D00028E7D16946BE
:103CA00020462B683268FFF76DFFDFE703F052FD17
:103CB0003946EDE741B0F0BDAC030020A803002079
:103CC00065B908084AB90808031F243053F8042FBF
:103CD0008A4203D08342F9D1002070470120704707
:103CE0002DE9F041284E074635780C46DFF89C80D8
:103CF00085BB4988264849BA89B2C8F80010FFF741
:103D000035FF21463846FFF767FD03F023FD2149C3
:103D100001F0C0FD03F01EFD1022D8F80010FFF7DF
:103D200014FC38462146FFF765FD6379277907EBD8
:103D30000327073703F0BCFE0368615D9B6801350C
:103D40009847AF42F6DA00F087FE134B1860012067
:103D5000307012E0FFF782FFD8F800100C48FFF730
:103D6000B3FF044658B900F077FE0B4B1B68C01A2E
:103D7000B0F5FA6F05D904203470BDE8F081002059
:103D8000E6E70120F9E700BFB8030020BC030020EC
:103D9000C003002083B90808B403002038B50446E6
:103DA0000D4629462046FFF79BFF0128F9D002283F
:103DB00006D103F0CFFC0949BDE8384001F07DBDD4
:103DC000032805D0042807D103F0C4FC0449F3E715
:103DD00003F0C0FC0349EFE738BD00BF94B9080801
:103DE000DBB90808B6B908080149FFF7D7BF00BF1B
:103DF000AB00002009292DE9F04106460C46154686
:103E000005D803F0A7FC294901F057FD0A24002D2D
:103E100043DC03F09FFC264901F04FFD012505FB23
:103E200004F3DFF8908003EB8303C8F8003003F05D
:103E300091FC214901F02EFD03F08CFC07460A227B
:103E4000214601F044FD384601F02BFD03F082FCD1
:103E50001A4901F01FFD03F07DFC0A222946FFF7F5
:103E600074FB03F077FC164901F014FD03F072FCBB
:103E70000746D8F800100A2201F029FD384601F063
:103E800010FD00230F4930468C71240ACC710D724D
:103E90004B72BDE8F041FFF781BF7F2DBFDD03F01E
:103EA00059FC094901F009FD7F25B8E7F9B908086F
:103EB00027BA0808B400002081BA080898BA080890
:103EC000B1BA08089D00002053BA080870B51A4D11
:103ED00006462B68052B29D8DFE803F0030B191BD6
:103EE0001D1FFFF7DBFD012386F860302B680133CF
:103EF0002B6012493046FFF7F3FE0128044603D039
:103F0000296860B9013129600124204670BD0C493F
:103F1000F0E70C49EEE70C49ECE70C49EAE702460A
:103F20003046FFF7E1FD00232B60EEE7012300247C
:103F300003702C60E9E700BFB00300207900002087
:103F400092000020310000205D000020870000204A
:103F50000148FFF7F5BD00BFC0030020F0B5012107
:103F600085B0064601F007FCA0F13005072D044698
:103F70002CD81A49684601F01FFB6946304601F00B
:103F8000E8FB0746684601F0CDFA57B1ADB22846C6
:103F9000032104F00BF9284605B0BDE8F04004F019
:103FA0002FB90F49684601F007FB6946304601F01A
:103FB000D0FB0546684601F0B5FA5DB1263CA4B2D7
:103FC0002046032104F0F2F82046E5E74FF0FF30E9
:103FD00005B0F0BD6FF00100FAE700BFD2B30808EA
:103FE000C8BA0808F0B5012185B0064601F0C3FB48
:103FF000A0F13004072C47D8072303223146684636
:1040000001F0CCFB6846254901F07BFB054668467C
:1040100001F088FA3DBB062303223146684601F0D1
:10402000BDFB68461E4901F06CFB0746684601F07F
:1040300079FA67B31B49684601F0BEFA6946304613
:1040400001F087FB0746684601F06CFA6FB1A4B235
:104050000121204604F0AAF82046294604F0B7F8CA
:10406000012005B0F0BD0125E4E70F49684601F0E5
:10407000A3FA3046694601F06CFB0646684601F03B
:1040800051FA3EB10A34E2E74FF0FF30E9E76FF052
:104090000100E6E76FF00200E3E700BFCABA0808D4
:1040A000CFBA0808D2B30808C8BA0808F0B5012189
:1040B00085B0074601F05FFBA0F13005072D0446EF
:1040C0002CD81A49684601F077FA6946384601F05B
:1040D00040FB0646684601F025FA56B1ADB22846C7
:1040E000002104F063F8284605B0BDE8F04004F074
:1040F0009AB80F49684601F05FFA6946384601F000
:1041000028FB0546684601F00DFA5DB1263CA4B2D5
:104110002046314604F04AF82046E5E74FF0FF30EC
:1041200005B0F0BD6FF00100FAE700BFD2B3080898
:10413000C8BA0808F0B5012189B0054601F01BFB9B
:10414000A0F13006072E044640D8032229466846CF
:1041500001F046FB1F4904A801F02EFA284604A9E5
:1041600001F0F7FA074604A801F0DCF997B1B6B2FE
:104170000121304604F01AF8684601F038FB014688
:10418000304604F067F80124684601F0CBF9204678
:1041900009B0F0BD104904A801F00EFA284604A9A0
:1041A00001F0D7FA054604A801F0BCF95DB1263C40
:1041B000A4B20121204603F0F9FF684601F017FB85
:1041C00001462046DDE76FF00104DDE74FF0FF34E4
:1041D000DDE700BFD2B30808C8BA0808F8B590F800
:1041E000293004468BB900F02FFC41F27071A26BAC
:1041F000A063831A8B4209D96FF00103E3620323A2
:1042000084F82A30012384F82930F8BD94F82A5024
:1042100005F0FF01002D48D00129F6D1A3F13D02A0
:104220005D2A70D894F836106E2B214491F8302016
:104230004FEA4202D2B281F8302008D994F83620F1
:10424000224492F8301041F0010182F83010226CC3
:10425000DBB2511C2164137094F8353003F0FF0574
:10426000002B49D1072384F8353094F836300133D8
:10427000DBB2052B84F83630C7D1012084F8290041
:1042800094F8301094F8317094F83220394494F84E
:1042900033300A4494F834601344DBB2B34224D080
:1042A0004FF0FF33E362032311E0402B04D8A36BEC
:1042B0001A44121AA263A8E7226CD9B27E3B5D2B86
:1042C00002F101004FF0010304D82064117084F85A
:1042D0002A309AE784F829306FF00203E36203235F
:1042E000206484F82A3011708FE70223E56284F895
:1042F0002A3084F83C0088E794F83530013BDBB283
:1043000084F8353081E7092B94BF6FF005026FF018
:10431000030284F829100323E262D8E710B403688B
:104320005A689968541001EB6200D20748BF0A59D5
:104330001B6810BC48BFD3581847012A38B504463B
:1043400002D10B68236003E0022A03D0032A0DD0B8
:10435000002038BD0C200D68FBF7AFFE0346002897
:10436000F0D095E8070083E80700EBE70068002835
:10437000EED00C2104F067F8EAE7C0E911127047AB
:10438000032238B5002380F82A2001256FF00602A9
:104390000446C364C262294680F8293080F8505030
:1043A000B0F8440003F002FFB4F84400294603F0DB
:1043B0000EFFBDE838404FF47A7002F087BC000071
:1043C00070B5044686B000F047FB94F8503023B92E
:1043D000E36CC31AB3F5FA6F67D394F82A30032B52
:1043E00003D094F82A30022B61D100231A4684F8B6
:1043F0005030E06484F82A30E2540133292BFBD199
:10440000072384F8302084F8312084F8322084F89F
:10441000332084F8342084F835300023012163658B
:10442000A365B4F8440084F83620246403F0BEFE8B
:104430000021B4F8440003F0CAFEA36C0B2B2FD16B
:10444000122002F043FC0021B4F84400002503F0E0
:10445000ADFE00F0F9FAA0630C2084F82950B4F8FE
:1044600044600495FBF729FE18B1124B8460C0E943
:104470000035114B02900593104B02220493002348
:104480003046009302A94FF0FF3303F019FA049B62
:104490001BB102A9032208469847012006B070BD4F
:1044A00040F2DC5000F0C8FACDE70220F6E76FF0EA
:1044B0000400F3E7DD4108081D4308083B430808F2
:1044C00010B5836C04460B2B2AD0153B012B31D839
:1044D00090F8303090F8310000EB032080B205F006
:1044E00057FC1BA3D3E9002305F0BCFC05F0B2FF89
:1044F00094F8323060651B0620D594F8323094F879
:10450000330003F07F0300EB0320404205F040FC42
:104510000FA3D3E9002305F0A5FC05F09BFF08E0FD
:1045200090F8300006F09CF8606594F8320006F0D0
:1045300097F8A065002384F83C3010BD94F8323021
:1045400094F8330000EB032080B2DFE7AFF3008084
:104550009A9999999999B93F90F82A30022B05D0E8
:1045600090F82A00033818BF0120704700207047D8
:1045700010B590F82930044633B1B0F8440003F088
:1045800059F9002384F8293010BD10B50446FFF70F
:10459000EFFFE06A10BD000010B50446FFF7E8FF2A
:1045A00094F82A30032B03D1E06A06F05DF810BDC1
:1045B00094F82A30022B07D194F83C3013B12046EE
:1045C000FFF77EFFA06DF2E70048F0E70000A0C013
:1045D00010B50446FFF7CCFF94F82A30032B03D123
:1045E000E06A06F041F810BD94F82A30022B07D19A
:1045F00094F83C3013B12046FFF762FF606DF2E79C
:104600000048F0E70000A0C010B50446FFF7B0FF77
:1046100094F82A30032B03D1E06A06F025F810BD88
:1046200094F82A30022B11D194F83C3013B1204673
:10463000FFF746FF0649A06D06F06AF8054906F047
:104640001BF94FF0844105F05BFFE8E70248E6E71D
:10465000000010410000A0400000A0C000000000C9
:1046600010B50446FFF784FF94F82A30032B03D1DA
:10467000E06A05F0F9FF10BD94F82A30022B10D142
:1046800094F83C3013B12046FFF71AFFA06D05F0F7
:1046900091FB05A3D3E9002305F02EFA05F0DAFE1D
:1046A000E9E70348E7E700BF6666666666127140A1
:1046B0000000A0C0000000002DE9F8430446FFF709
:1046C00057FF94F82A30032B04D1E06A05F060FB11
:1046D000BDE8F88394F82A30022B46D194F83C3098
:1046E00013B12046FFF7ECFEA06D05F063FB064614
:1046F000606D0F4605F05EFB0022214B05F0DCFCEF
:1047000003F0AAFE1AA3D3E9002304460D4630465F
:10471000394605F0A7FB18A3D3E900238046894654
:104720003046394605F0E8F902460B464046494610
:1047300005F0C2FC22462B4605F0DEF90EA3D3E9B4
:10474000002306460F4605F08DFB324604460D4613
:1047500007A1D1E900013B4605F0CCF902460B4622
:104760002046294605F0A8FCB2E700200549AFE73E
:104770004C378941604531406666666666B66D4075
:1047800000005940000014C02DE9F84F0446FFF71F
:10479000EFFE94F82A30032B04D1E06A05F0F8FA12
:1047A000BDE8F88F94F82A30022B40F0A98094F8E5
:1047B0003C3013B12046FFF783FEA06D05F0FAFAF6
:1047C00051A3D3E9002305F097F902460B4650A107
:1047D000D1E9000105F070FC0022634B06460F464C
:1047E00005F088F94CA3D3E9002382468B4605F0F7
:1047F00039FB804689463046394603F067FE48A3B8
:10480000D3E9002305F02EFB42464B4605F074F930
:104810003246804689463B460020534905F04CFC11
:1048200002460B460020504905F064F93EA3D3E947
:10483000002305F017FB02460B4600204B4903F00E
:104840007FFE0022484B05F055F939A3D3E9002338
:1048500005F008FB42464B4605F04EF936A3D3E976
:10486000002306460F465046594605F0FBFA02461D
:104870000B4600203D4903F063FE00223A4B05F051
:1048800039F92FA3D3E9002305F0ECFA32463B4671
:1048900005F032F92CA3D3E9002305F02DF900220D
:1048A000334B05F027F902460B4600202F4903F051
:1048B00047FE06460F46606D05F07CFA32463B46E1
:1048C00005F0D0FA22A3D3E9002305F0F5FB03F0AD
:1048D000C3FD21A3D3E9002306460F4605F0C2FA23
:1048E000324604460D461EA1D1E900013B4605F0C3
:1048F00001F902460B462046294605F0DDFB4FE74D
:1049000000201C494CE700BF66666666661271406F
:104910006666666666527740B1C403CAA69C1FC02D
:10492000CDAFE600C11C1440E3A59BC420B02640D7
:10493000B13D4236248B82BE037D224F92EE0BC0E6
:10494000630333F0EDA7803F1B549E40B40B084037
:10495000CFA0A17F828BE33F5C8FC2F5283C6E40E5
:10496000022B8716D98E31400000F03F0000244012
:1049700000000840000014C008B5024B1B685B68CB
:10498000019308BDB001040808B5024B1B689B6881
:10499000019308BDB001040808B5024B1B68DB6831
:1049A000019308BDB001040808B5024B1B681B69E0
:1049B000019308BDB001040808B5024B1B685B6990
:1049C000019308BDB001040808B5024B1B689B6940
:1049D000019308BDB001040808B5024B1B68DB69F0
:1049E000019308BDB001040808B5024B1B689B6A1F
:1049F000019308BDB001040808B5024B1B681B6B8E
:104A0000019308BDB001040808B5024B1B689B6FF9
:104A1000019308BDB001040808B5024B1B685B6830
:104A2000019308BD9C01040808B5024B1B689B68F4
:104A3000019308BD9C01040808B5024B1B68DB68A4
:104A4000019308BD9C01040808B5024B1B681B6953
:104A5000019308BD9C01040808B5024B1B685B6903
:104A6000019308BD9C01040808B5024B1B689B6DAF
:104A7000019308BD9C01040808B5024B1B685B6EDE
:104A8000019308BD9C01040808B5024B1B685B6ECE
:104A9000019308BDB801040808B5024B1B68DB6E22
:104AA000019308BDB801040808B5024B1B685B6898
:104AB000019308BDD001040808B5024B1B689B6830
:104AC000019308BDD001040808B5024B1B68DB68E0
:104AD000019308BDD001040808B5024B1B681B698F
:104AE000019308BDD001040808B5024B1B685B693F
:104AF000019308BDD001040808B5024B1B68DB69AF
:104B0000019308BDD001040808B5024B1B681B6A5D
:104B1000019308BDD001040808B5024B1B685B6A0D
:104B2000019308BDD001040808B5024B1B689B6ABD
:104B3000019308BDD001040808B5024B1B68DB6A6D
:104B4000019308BDD001040808B5024B1B685B6CDB
:104B5000019308BDD001040808B5024B1B689B6C8B
:104B6000019308BDD001040808B5024B1B68DB6C3B
:104B7000019308BDD001040808B5024B1B685B6DAA
:104B8000019308BDD001040808B5024B1B68DB6E19
:104B9000019308BDD001040808B5024B1B681B6FC8
:104BA000019308BDD001040808B5024B1B689B693E
:104BB000019308BDC401040808B5024B1B681B6AB9
:104BC000019308BDC401040808B5024B1B685B6A69
:104BD000019308BDC401040808B5024B1B689B6A19
:104BE000019308BDC401040808B5024B1B68DB6AC9
:104BF000019308BDC401040808B5024B1B681B6B78
:104C0000019308BDC401040808B5024B1B685B6B27
:104C1000019308BDC401040808B5024B1B689B6BD7
:104C2000019308BDC401040808B5024B1B681B6C46
:104C3000019308BDC401040808B5024B1B68DB6C76
:104C4000019308BDC401040808B5024B1B68DB686A
:104C5000019308BDAC01040808B5024B1B689B69B1
:104C6000019308BDAC01040808B5024B1B68DB6961
:104C7000019308BDAC01040808B5024B1B681B6A10
:104C8000019308BDAC01040808B5024B1B685B6AC0
:104C9000019308BDAC01040808B5024B1B689B6A70
:104CA000019308BDAC01040808B5024B1B68DB6A20
:104CB000019308BDAC01040808B5024B1B681B6BCF
:104CC000019308BDAC01040808B5024B1B685B6B7F
:104CD000019308BDAC01040808B5024B1B681B6CAE
:104CE000019308BDAC01040808B5024B1B689B6C1E
:104CF000019308BDAC01040808B5024B1B68DB6CCE
:104D0000019308BDAC01040808B5024B1B681B6D7C
:104D1000019308BDAC01040808B5024B1B681B6871
:104D2000019308BDB401040808B5024B1B689B68D9
:104D3000019308BDB401040808B5024B1B68DB6889
:104D4000019308BDB401040808B5024B1B681B6938
:104D5000019308BDB401040808B5024B1B685B69E8
:104D6000019308BDB401040808B5024B1B68DB6958
:104D7000019308BDB401040808B5024B1B681B6A07
:104D8000019308BDB401040808B5024B1B685B6AB7
:104D9000019308BDB401040808B5024B1B68DB6B26
:104DA000019308BD2000060808B5024B1B689B6CE8
:104DB000019308BD2000060808B5024B1B681B685C
:104DC000019308BD1C00060808B5024B1B685B6810
:104DD000019308BD1C00060808B5024B1B689B68C0
:104DE000019308BD1C00060808B5024B1B681B692F
:104DF000019308BD1C00060808B5024B1B685B69DF
:104E0000019308BD1C00060808B5024B1B689B698E
:104E1000019308BD1C00060808B5024B1B68DB693E
:104E2000019308BD1C00060808B5024B1B681B6AED
:104E3000019308BD1C00060808B5024B1B685B6B9C
:104E4000019308BDA001020808B5024B1B685B6D09
:104E5000019308BDA001020808B5024B1B68DB6E78
:104E6000019308BDA001020808B5024B1B681B6F27
:104E7000019308BDA001020808B5024B1B681B681E
:104E8000019308BDA401040808B5024B1B685B68C8
:104E9000019308BDA401040808B5024B1B685B69B7
:104EA000019308BDA401040808B5024B1B689B6967
:104EB000019308BDA401040808B5024B1B681B6AD6
:104EC000019308BDA401040808B5024B1B68DB6A06
:104ED000019308BDA401040808B5024B1B68DB6CF4
:104EE000019308BDA401040808B5024B1B685B6D63
:104EF000019308BDA401040808B5024B1B689B6D13
:104F0000019308BDA401040808B5034B1B68D3F83E
:104F10009030019308BD0000A401040808B5034BBC
:104F20001B68D3F89C30019308BD0000A40104085D
:104F300008B5034B1B68D3F8A830019308BD0000E7
:104F4000A401040808B5034B1B68D3F8B8300193DB
:104F500008BD0000A401040808B5024B1B685B688B
:104F6000019308BDC801040808B5024B1B689B6883
:104F7000019308BDC801040808B5024B1B68DB6833
:104F8000019308BDC801040808B5024B1B681B69E2
:104F9000019308BDC801040808B5024B1B685B6992
:104FA000019308BDC801040808B5024B1B689B6942
:104FB000019308BDC801040808B5024B1B68DB69F2
:104FC000019308BDC801040808B5024B1B681B6AA1
:104FD000019308BDC801040808B5024B1B681B6B90
:104FE000019308BDC801040808B5024B1B685B6B40
:104FF000019308BDC801040808B5024B1B681B6C6F
:10500000019308BDC801040808B5024B1B685B6C1E
:10501000019308BDC801040808B5024B1B681B6852
:10502000019308BDCC01040808B5024B1B685B68FE
:10503000019308BDCC01040808B5024B1B689B68AE
:10504000019308BDCC01040808B5024B1B68DB685E
:10505000019308BDCC01040808B5024B1B685B69CD
:10506000019308BDCC01040808B5024B1B68DB693D
:10507000019308BDCC01040808B5024B1B681B6AEC
:10508000019308BDCC01040808B5024B1B685B6A9C
:10509000019308BDCC01040808B5024B1B681B6BCB
:1050A000019308BDCC01040808B5024B1B68DB6BFB
:1050B000019308BDCC01040808B5024B1B685B6C6A
:1050C000019308BDCC01040808B5024B1B681B689E
:1050D000019308BDA001040808B5024B1B685B687A
:1050E000019308BDA001040808B5024B1B689B682A
:1050F000019308BDA001040808B5024B1B681B6999
:10510000019308BDA001040808B5024B1B68DB69C8
:10511000019308BDA001040808B5024B1B685B6A37
:10512000019308BDA001040808B5024B1B68DB6AA7
:10513000019308BDA001040808B5024B1B681B6B56
:10514000019308BDA001040808B5024B1B68DB6B86
:10515000019308BDA001040808B5024B1B681B6C35
:10516000019308BDA001040808B5024B1B685B6CE5
:10517000019308BDA001040808B503F037F9BDE8A4
:10518000084002F067BD10B50446017009B1FFF791
:10519000F3FF204610BD08B503F028F9BDE808402C
:1051A00002F061BD10B5037804460BB1FFF7F3FFC1
:1051B000204610BD10B504460068FFF7ECFF2046FE
:1051C00010BD30B587B00D460190FFF7D5FF6B22BB
:1051D00000230124CDE902230A23CDE9044303F08F
:1051E00005F902A902F017FD03F000F9036829464A
:1051F0009B68984703F0FAF8214602F024FD0394D7
:1052000003F0F4F802A902F0D3FC03F0EFF803680E
:105210005B699847044601A8FFF7CCFFE0B207B0EE
:1052200030BD082108B5FFF7CCFFC0F3800008BDF2
:105230000821FFF7C6BFFFF79FBCFFF795BC70B50D
:10524000002604460D4640F8086FFFF77DFC28460F
:105250002570FFF789FD2046666070BD10B50446D5
:105260008068FFF7EAFF20784FF6FF71FFF754FDE3
:10527000A068BDE81040FFF7DEBF38B504460D4614
:105280008068FFF7DAFF20782946FFF74DFDA06818
:10529000BDE83840FFF7CFBF38B504460D468068FB
:1052A000FFF7CBFF20782946FFF746FDA068BDE851
:1052B0003840FFF7C0BF000030B500244008186038
:1052C0001868E5B2884206D90134082C02D040089B
:1052D0001860F5E70725024B5B5D137030BD00BF1A
:1052E000D3BA0808F0B50025044689B0806802FBEF
:1052F00001F60295FFF7A1FF2946142203A827789B
:1053000005F06CFC0B232A46384603A9ADF80C3097
:10531000FFF73AFD02AB0DF10702314604988DF814
:105320000750FFF7C9FF9DF807102078FFF70CFD25
:10533000A068FFF780FF029809B0F0BD08B50078BB
:10534000FFF70AFDC0B208BDB1F9043010B50A6814
:1053500033B932B9D1F8063003604B89838010BD70
:1053600022B19488012C03D0042C06D0042205E03D
:1053700092898C710B814A81ECE702220B814FF6F6
:10538000FF738A714B81E5E710B50446006818B1D8
:10539000FFF7A2FE0023236010BD38B50C46B1F91B
:1053A000043005468380D1F80630C0F806304B89BA
:1053B0004381FFF7E9FF236813B12B6000232360CB
:1053C00038BD07B50B4600210246009101208C2113
:1053D000FFF7B8FD03B05DF804FB01460020FFF7BE
:1053E000F0BF0020FFF7F9BF07B5002203461146C2
:1053F00000920320FFF7A6FD03B05DF804FB000058
:1054000030B5044685B0084611461A460023FFF71A
:105410004BFD0023CDE901334FF6FF73094D01A980
:10542000ADF80C002846ADF80E30FFF7B6FF01A826
:10543000FFF7AAFF20462946FFF786FF204605B062
:1054400030BD00BFE803002010B500240470448084
:105450004FF6FF740029848008DD01398B4204D99E
:1054600032F8113083800123037010BD01D1022373
:10547000FAE74180F9E70000F0B50D46164600272F
:105480008BB01A46129B04460193119B3146009340
:105490002846109B0297FFF74BFD334601462A46EC
:1054A00005A8FFF7D1FF0F4D9DF81410BDF9162088
:1054B000BDF8183028468DF8221007A9ADF8242031
:1054C000ADF826300797ADF82070FFF766FF07A804
:1054D000FFF75AFF20462946FFF736FF20460BB05C
:1054E000F0BD00BFE80300200222002010B5084BE9
:1054F000084C1A60084BC4E90000A360FFF7C4FC25
:105500002046BDE81040054A054902F097BF00BF9C
:10551000F4030020E80300200000FFFF300100201A
:10552000AD01080810B504460068FFF7D5FD204618
:1055300010BD10B50446006808B1FFF7CDFD00238B
:10554000C4E90133236010BD38B504460D46006838
:105550000131FFF7C9FD10B1C4E90005012038BDD4
:1055600010B50368044623B143688B4201D3012080
:1055700010BD2046FFF7E8FF0028F9D0A368002BF4
:10558000F5D122681370F2E770B50E461146044655
:105590001546FFF7E5FF20B92046FFF7CAFF204672
:1055A00070BD2A4631462068A56005F0EFFA00215B
:1055B0002268A368D154F2E738B5002304460D46AB
:1055C000C0E900338360037339B1084605F081FBFD
:1055D000294602462046FFF7D7FF204638BD38B59A
:1055E000054600680C4668B16A688B689A4207D322
:1055F000096805F04AFBA368AB600023A36038BDCF
:10560000FFF76AFD23682B6063686B60A368AB607B
:105610000023C4E90033F1E7002310B50446C0E9D4
:10562000003383600373FFF7DAFF204610BD884222
:1056300010B50B46044604D0096821B19A68FFF7FB
:10564000A3FF204610BDFFF774FFFAE7002310B553
:105650000446C0E9003383600373FFF7E8FF204688
:1056600010BD884210B5044601D0FFF7B8FF2046B0
:1056700010BD38B505460C4649B1084605F029FB72
:10568000214602462846FFF77FFF284638BDFFF730
:1056900050FFFAE770B505460E4609B9002070BD07
:1056A0006AB1846814442146FFF75AFF0028F5D0F8
:1056B0002868AB683146184405F0E7FAAC60012071
:1056C000EDE710B58A6809680446FFF7E3FF10B9F3
:1056D0002046FFF72EFF204610BD38B504460D4684
:1056E00021B92046FFF725FF204638BD084605F0C2
:1056F000F0FA294602462046FFF7CCFF0028F0D0FA
:10570000F2E708B582683AB921B10878B0FA80F0BA
:10571000400900E0012008BD006809B90078F5E7FC
:1057200005F0A9FAF2E7134610B58A688468A41A4E
:105730009C420AD3006838B1096841B1184405F0A9
:10574000D0FAB0FA80F0400910BD0020FCE708460E
:10575000FAE782688B689A4202D30022FFF7E3BF20
:105760000020704783688B4203D9006810B1405C09
:10577000704700207047FFF7F5BF10B5836893426C
:1057800006D90468A01805F05FFA08B1001B10BD27
:105790004FF0FF30FBE70022FFF7EFBFF8B51D46E3
:1057A0009A4288BF13460F46144688BF2C460B49C1
:1057B00088BF1D460646FFF7FFFEBB68A3420AD31B
:1057C0003968AB4294BFC4EB0302C4EB0502304618
:1057D0002144FFF7D9FE3046F8BD00BF50B6080897
:1057E00010B504468B68FFF7D9FF204610BD00684E
:1057F00008B105F0B9B970470EB4FFB509AD55F859
:10580000047B04462B463A46052102A80195FFF782
:1058100083FC06460B492046FFF7CEFE3146204664
:10582000FFF79EFE206830B12B463A46711C019569
:10583000FFF772FCA060204604B0BDE8F04003B062
:10584000704700BF50B60808F8B506460D4600245C
:105850008F18BD420CD0336830469B6815F8011B89
:105860009847031E01DB1C44F3E7002C08BF1C46CD
:105870002046F8BD70B505460C46084649B105F00E
:1058800028FA2B68024621462846BDE87040DB68AE
:10589000184770BD08B5FFF7EDFF08BD03689B68AA
:1058A000184738B50D210546FFF7F8FF0A210446D1
:1058B0002846FFF7F3FF204438BD38B50546FFF70B
:1058C000D9FF04462846FFF7ECFF204438BD0023EB
:1058D000012A98BF0A2230B58BB00C468DF82430CF
:1058E00009A92546B4FBF2F404FB1253DBB2092BE1
:1058F00094BF30333733DBB2AA4201F8013DF0D90F
:10590000FFF7B8FF0BB030BD2DE9F74F054619463C
:10591000104692461F469DF8306004F03DFD40B1B0
:1059200051492846FFF7A6FF0446204603B0BDE8CC
:10593000F08F27F000444FF0FF32504621464B4B8A
:1059400004F02AFD48B94FF0FF3250462146474B3C
:1059500004F004FD08B94649E3E74FF060425046C1
:105960003946444B04F00EFD08B14349D9E74FF0E6
:10597000604250463946414B04F0E6FC0028F4D121
:10598000002200235046394604F0DEFC044630B1C4
:105990002D212846FFF782FF044607F100474FF00C
:1059A000000B00204FF000083549DFF8D8905FFA6F
:1059B0008BF39E4206D942464B4604F07DFB0BF129
:1059C000010BF4E73B46524604F096F889468046C0
:1059D00004F020FD074604F0CBF902460B46404692
:1059E000494604F087F80A22804689462846394607
:1059F000FFF76DFF0444002E97D028462249FFF799
:105A000039FF4FF0000ADFF87CB00444002E8CD040
:105A100052465B464046494604F024FA8046894691
:105A200004F0D0FC071E1BDA2D212846FFF736FFB5
:105A3000034679420A2228460193FFF748FF019B5B
:105A4000013E034438461C4404F0A2F902460B46CA
:105A50004046494604F04EF8F6B280468946D5E7FE
:105A600039460023E6E700BFDBBA0808FFFFEF7FF7
:105A7000DFBA0808FFFFEF41E3BA0808FFFFEFC1F4
:105A80000000E03F000024400FB4080837B59DF83F
:105A9000181005460091FFF737FF04462846FFF728
:105AA00000FF204403B030BD37B504460846154614
:105AB00004F080F9009502460B462046FFF7E6FF0A
:105AC00003B030BD2DE9F04186B000AF05460E466B
:105AD000381D142114463B60FFF71EFB13280ED817
