:020000040808EA
:1000000000000808FCC30808000006000A000501FB
:0800100004021F0C00000000B7
:0400180094AF080891
:1000200008B5024B1B689B6D019308BD2C000608A8
:1000300008B5024B1B685B6E019308BD2C000608D7
:1000400009480A4908B5884205D0094A824202D0C7
:10005000121A0AF0D7FD0748074A0021121A0AF0BF
:10006000F9FD064808BD00BF00000020A4C2080832
:100070003001002030010020F4090020F4090020A4
:1000800070B506F0B5FF0025054E064CA41BA4086C
:10009000A54200D170BD56F8043B98470135F7E7FB
:1000A00038C0080878C0080801F09CBA08B501F00B
:1000B0007FF8BDE8084006F053BF05F041B805F0F1
:1000C0003FB805F045B8000000210C2008B5024AF1
:1000D00004F0F6FEFEE700BFC14A08080078B0FA57
:1000E00080F0400970470123037070477047006A31
:1000F0000368DB6818470000014802F05BBF00BFDF
:1001000078020020436913B183690C3018477047A7
:1001100030B585B00446089860B1406850B1856834
:1001200045B1CDE90241CDE90023C4686A4601AB7F
:1001300002A9A04705B030BD08B500680AF04CFD23
:10014000014B186008BD00BF0000002008B5006822
:100150000AF042FD014B186008BD00BF0C000020F2
:1001600008B500680AF038FD014B186008BD00BFF3
:100170000400002008B500680AF02EFD014B18604D
:1001800008BD00BF0800002008B500680AF024FD83
:10019000014B186008BD00BF1400002008B50248DC
:1001A00002F014FF012008BD7802002010B50446BB
:1001B000006808B104F0CCFF204610BD13B5002143
:1001C0000446084604F0DCFC0023204601A9019304
:1001D00004F0EEFC019C0CB10123237100210120ED
:1001E00004F0CEFC2CB1236820469B68984700237E
:1001F000237102B010BD000010B50D49044605F092
:10020000BCFA38B100220B4B0B481A70BDE8104005
:1002100002F0ACBE2046094905F0AFFA38B1012220
:10022000044B05481A70BDE8104002F0B1BE10BD85
:10023000A8AF08081000002078020020B1AF08081D
:10024000012A02D1016000207047022A04BF0B6816
:100250000360F8E71FB50468684605F019FA6846B8
:10026000A0470446684605F099F9204604B010BD41
:10027000012A02D1016000207047022A04BF0B68E6
:100280000360F8E703681268D1E900011847012A02
:1002900002D1016000207047022A04BF0B6803608E
:1002A000F8E70368184730B51368006885B0019314
:1002B0008368D1E90045CDE902450BB908F005F99D
:1002C000C36801AA02A9984705B030BD70B50546BC
:1002D0000C46164642B90368C9B29B68984728463F
:1002E000BDE8704005F019BB00290ADA0A2A08D1D6
:1002F0002D2105F00FFB61422846F2B205F023FBE9
:10030000EDE72146F8E710B504463AB903689B6863
:1003100098472046BDE8104005F0FFBAD2B205F07C
:1003200012FBF6E70246014806F011BFDF7008082D
:100330000023022204F0B4BE10B50446094B03604A
:1003400005F09AFD214605F0F8FF07F03FFA07F0A7
:1003500023FA2046044B40F8043B05F08BFE204670
:1003600010BD00BF04B60808ECB5080810B5044677
:10037000FFF7E2FF2046242108F0A1F8204610BD37
:100380002DE9F04FC94C93B0204602F0E3FD8346BF
:10039000204602F045FD8246204602F047FD814698
:1003A000204602F049FD8046204602F057FD0746F0
:1003B000204602F059FD0646204602F049FD05465A
:1003C000204602F03FFD0090204602F0D9FC01904B
:1003D000204602F0DBFC0290204602F0DDFC039098
:1003E000204602F0DFFC0490204602F055FD059007
:1003F000204602F057FD0690204602F047FD079088
:10040000204602F03DFD0F90204602F033FD109093
:10041000204602F0D5FC0890204602F0D7FC099057
:10042000204602F0D9FC0A90204602F0DBFC0B903B
:10043000204602F0DDFC0C90204602F0EBFC0D9013
:10044000204602F0DBFC0E90204602F0DDFC044664
:1004500007F0BCF9964905F059FA07F0B7F90A22F6
:100460005946119005F06FFA119B184605F055FAA0
:1004700007F0ACF98F4905F049FA07F0A7F90A220D
:100480005146FFF740FF07F0A1F98B4905F03EFA0E
:1004900007F09CF90A224946FFF735FF07F096F965
:1004A000864905F033FA07F091F90A224146FFF731
:1004B0002AFF07F08BF9824905F028FA07F086F940
:1004C0000A223946FFF71FFF07F080F97D4905F042
:1004D0001DFA07F07BF90A223146FFF714FF07F0F7
:1004E00075F9794905F012FA07F070F906460A2203
:1004F000294605F028FA304605F00FFA07F066F9AC
:10050000724905F003FA07F061F905460A22BDF8C1
:10051000001005F018FA284605F0FFF907F056F923
:100520006B4905F0F3F907F051F90222019905F042
:10053000F7FA07F04BF9674905F0E8F907F046F9D3
:100540000222029905F0ECFA07F040F9624905F041
:10055000DDF907F03BF90222039905F0E1FA07F013
:1005600035F95E4905F0D2F907F030F90222049915
:1005700005F0D6FA07F02AF9594905F0C7F907F04E
:1005800025F90222059905F0CBFA07F01FF9554924
:1005900005F0BCF907F01AF90222069905F0C0FA35
:1005A00007F014F9504905F0B1F907F00FF90222EC
:1005B000079905F0B5FA07F009F94C4905F0A6F9D5
:1005C00007F004F90A220F99FFF79DFE07F0FEF8E5
:1005D000474905F09BF907F0F9F80A221099FFF74F
:1005E00092FE07F0F3F8434905F090F907F0EEF8B2
:1005F00005460A22089905F0A6F9284605F08DF966
:1006000007F0E4F83C4905F081F907F0DFF805460A
:100610000A22099905F097F9284605F07EF907F0B6
:10062000D5F8364905F072F907F0D0F80A220A9990
:10063000FFF74CFE07F0CAF8314905F067F907F0FB
:10064000C5F80A220B99FFF741FE07F0BFF82D49C4
:1006500005F05CF907F0BAF80A220C99FFF736FEAC
:1006600007F0B4F8284905F051F907F0AFF80A226D
:100670000D99FFF72BFE07F0A9F8244905F046F97C
:1006800007F0A4F80A220E99FFF720FE07F09EF863
:100690001F4905F03BF907F099F80A222146FFF7B8
:1006A00015FE012013B0BDE8F08F00BF78020020D6
:1006B000BAAF0808C9AF0808D0AF0808F3AF0808F8
:1006C000D9AF0808E1AF0808E7AF0808EEAF08089F
:1006D000FDAF080808B0080814B0080826B00808DC
:1006E00039B0080847B0080852B008085AB00808DE
:1006F00067B0080874B008087EB0080888B0080819
:100700008FB0080896B008089DB00808A6B0080881
:10071000B0B008087FB5044600680AF05DFA2021F1
:1007200086B2204605F073F821460246684605F079
:1007300093F800980AF050FA0446684604F02EFF39
:10074000164B1B68DB001FD507F040F8144905F075
:10075000DDF807F03BF80A22314605F0F4F807F01F
:1007600035F8104905F0D2F807F030F8002C0546AE
:1007700012DA2D2105F0CEF861420A22284605F052
:10078000E2F8284605F0C9F822463146064802F04C
:1007900017FC012004B070BD2146EEE714000020D4
:1007A000BBB00808C2B00808780200200EB403B538
:1007B00003AB53F8042B0121019305F0BFF902B0FC
:1007C0005DF804EB03B0704738B50A4C1546236852
:1007D000D90106D506F0FAFF074905F00F02FFF729
:1007E000E5FF23681A0154BF43F07F4323F07F43A2
:1007F000236038BD14000020C9B0080810B5836814
:10080000044613B1032201469847204610BD00005C
:1008100037B5134B044603608068C8B100256FF0FC
:1008200000430221CDE900352A462B4604F0C8F9E1
:100830002946A06804F0F4F9237903F0FF0513B109
:1008400004F086F9F8E72946A06804F0A9F9A56044
:1008500004F10C00FFF7D2FF204603B030BD00BF0B
:10086000D8B5080810B50446FFF7D2FF20461C2172
:1008700007F025FE204610BD012108B5084604F00A
:1008800047F9BDE808400121042004F041B938B51A
:10089000002383608B6804460D462BB102229847E3
:1008A000EB68E360AB68A360204638BD012A70B5F1
:1008B000044603D10B680360002070BD022A0CD0EF
:1008C000032AF9D10468002CF6D02046FFF796FFE2
:1008D0001021204607F0F3FDEEE710200E68FFF729
:1008E000ECFB054610B13146FFF7D1FF2560E3E789
:1008F00038B5046805467CB16368013B63605BB949
:10090000236820469B689847A368013BA3601BB9F6
:1009100023682046DB689847284638BD2DE9F0411A
:100920002E4892B002F01CFB002854D006F0EFF9DC
:1009300005462A4802F030FA0446284802F032FA06
:100940000646264802F0AEFA0746244802F030FA7E
:10095000234B2A461B688046224900930EA8EB17BA
:1009600006F076F9204609F061FA0E9B04460D4622
:1009700040461D49069309F0BBFF09F057FACDE93F
:1009800004011949384609F0B3FF09F04FFACDE9DF
:100990000201304609F04AFA2246CDE900012B4611
:1009A00012490AA804F064FF114B0A9A1B781149F6
:1009B0008DF8003008A83C2306F0DAFC09A8FFF700
:1009C00097FF0AA804F0EAFD0EA804F0E7FD012055
:1009D00012B0BDE8F0810220FAE700BF78020020E3
:1009E000C40000203C04002000007A44E5B0080860
:1009F0004001002011B1080830B51B488BB002F04F
:100A0000A3F90446194806F021FA0546174806F0EE
:100A10003BFA09F00BFACDE90201284609F006FA83
:100A20002246CDE9000106A8114904F021FF114B2F
:100A3000069A1B7810498DF8003004A83C2306F074
:100A400097FC05A8FFF754FF06A804F0A7FD074888
:100A500006F01AFA09490AF053F8002814BF0120D9
:100A600002200BB030BD00BF1C020020E4010020BA
:100A70001AB10808400100203DB1080800002041DB
:100A8000F0B5164C89B0204602F0A6FA054620467D
:100A900002F0ACFA0646204602F0B2FA07462046BB
:100AA00002F0B8FA33462A46CDE900700C4904A892
:100AB00004F0DEFE0B4B049A1B780B498DF80030D6
:100AC00002A83C2306F054FC03A8FFF711FF04A87A
:100AD00004F064FD012009B0F0BD00BF78020020E1
:100AE00047B108084001002065B10808F0B54FF48F
:100AF000FA6189B0204803F05BFF06461E4803F008
:100B000083FD04461C4803F09BFD05460146204634
:100B10000AF000F800B92EB1184B1B68002B24DB3B
:100B2000022020E0284609F081F9064620460F46BB
:100B300009F07CF93246CDE900013B46104904A892
:100B400004F096FE0F4B049A1B780F498DF8003085
:100B500002A83C2306F00CFC03A8FFF7C9FE04A87A
:100B600004F01CFD012009B0F0BD06F02FFE07497E
:100B700004F0DFFED4E700BF88010020140000204D
:100B80006EB108084001002082B108088AB1080847
:100B900030B5274989B0054604F0EFFD68B1294614
:100BA00004A804F08FFD04A8FFF726FF044604A85C
:100BB00004F0F4FC204609B030BD28461D4904F07D
:100BC000DCFD38B1294604A804F07CFD04A8FFF739
:100BD000A5FEEBE72846184904F0CFFD38B12946B9
:100BE00004A804F06FFD04A8FFF74AFFDEE72846DB
:100BF000124904F0C2FD044638B1294604A804F0A5
:100C000061FD04A8FFF772FFD0E72A6804A80C4929
:100C100004F02EFE0B4B02A81B78049A8DF80030CE
:100C200009493C2306F0A4FB03A8FFF761FEBEE7D9
:100C3000AAB10808AEB10808B2B10808B6B10808F0
:100C4000BAB1080840010020C7B1080870B51B48B8
:100C50008AB002F079F81A4E04463378834229D0DC
:100C6000184B1B685B0725D5174806F0EFF80546BB
:100C7000154806F009F909F0D9F8CDE9020128462E
:100C800009F0D4F82246CDE90001104906A804F085
:100C9000EFFD0F4B069A1B780E498DF8003004A823
:100CA0003C2306F065FB05A8FFF722FE06A804F02A
:100CB00075FC347001200AB070BD00BF1C0200201A
:100CC0001100002014000020E4010020D0B1080829
:100CD000400100203DB108082DE9F04F95B003F028
:100CE000FFFE4EF66022DFF81CA1DAF80030C01AD1
:100CF000454B1B685343984240F28180434802F0C1
:100D00002FF900287BD0DFF80891D9F80030DA07F6
:100D100063D505F0FCFFDFF8FCB0C317DBF800205B
:100D20003D4904460092024610A8099305F090FF41
:100D300010A804F033FC354802F02EF8054633487D
:100D400002F030F80646314802F0ACF807462F486A
:100D500002F02EF8DBF80020099B80462E49009215
:100D600010A8224605F074FF284609F05FF8109B92
:100D700004460D4640462949069309F0B9FD09F09D
:100D800055F8CDE904012549384609F0B1FD09F0CF
:100D90004DF8CDE90201304609F048F82246CDE988
:100DA00000012B461E490CA804F062FD1D4B0C9A55
:100DB0001B781D498DF800300AA83C2306F0D8FAAC
:100DC0000BA8FFF795FD0CA804F0E8FB10A804F0B1
:100DD000E5FB03F085FECAF80000D9F80030DB001F
:100DE0000DD506F0F3FC0446084910A802F060F89F
:100DF0002046109904F09DFD10A804F0CFFB15B01B
:100E0000BDE8F08FF40100200C00002078020020E3
:100E100014000020C40000203C04002000007A449C
:100E2000E5B008084001002011B1080870B533484A
:100E300086B002F0EFF8324B04461B68834223DA97
:100E40002E4802F0C9F805462C4802F0CFF80646B5
:100E50002A4802F0D5F8CDE900042A4C33462A4648
:100E6000294902A804F004FD02A9204604F035FC3B
:100E700002A804F093FB254B1B689A0004D506F0EA
:100E8000A5FC216804F055FD03F02AFE4EF6602211
:100E90001F4D2B68C01A1F4B1B68534398422AD919
:100EA0001A4B1B689B0726D5164C1B49204604F09D
:100EB00064FC00BB194B1A491B7802A88DF800305E
:100EC00022683C2306F054FA03A8FFF711FD1249EB
:100ED00002A804F0ADFB02A8FFF720FD02A804F071
:100EE0005DFB03F0FDFD286020460B4906B0BDE820
:100EF000704004F0FABB06B070BD00BF780200205D
:100F0000000000202802002047B10808140000203B
:100F1000EC01002004000020CCB6080840010020AD
:100F200065B108082DE9F04788B003F0D9FDDFF876
:100F30001492D9F80030C01AB0F5FA6FC0F0D7801B
:100F4000DFF8048298F8003073B9804B1B68002BDF
:100F500004DA06F03BFC7E4904F0EBFC7D4803F02C
:100F60004BFA012388F800307A4803F011FB00287F
:100F700040F0BD80774803F024FB744C074623689B
:100F8000002B12DA06F022FC734904F0BFFCFB1DB3
:100F9000072B40D8DFE803F03B37332F2B27230400
:100FA00006F014FC6D4904F0C4FC6A4803F02CFB05
:100FB0000546684803F044FB06460146284609F00A
:100FC000A9FD00B95FB32368002B80F2908006F082
:100FD000FDFB634908B0BDE8F04704F0AABC06F089
:100FE000F5FB6049DFE706F0F1FB5F49DBE706F060
:100FF000EDFB5E49D7E706F0E9FB5D49D3E706F074
:10100000E5FB5C49CFE706F0E1FB5B49CBE706F087
:10101000DDFB5A49C7E706F0D9FB5949C3E703F09E
:101020005FFD4EF66022DFF85CA1DAF80030C01AEE
:10103000554B1B68534398425CD82368002B4FDA0A
:1010400006F0C4FB0446434803F0DEFA08F0EEFE67
:1010500002460B4620464D49FFF7A8FB06F0B6FBBB
:1010600004463C4803F0B4FA08F0E0FE02460B46A2
:1010700020464749FFF79AFB06F0A8FB044635488F
:1010800003F0DEFA08F0D2FE02460B462046414944
:10109000FFF78CFB06F09AFB04462E4803F0FCFA9F
:1010A00008F0C4FE02460B4620463B49FFF77EFB94
:1010B00006F08CFB0446274803F01AFB02460B4659
:1010C00020463649FFF772FB06F080FB04462148B4
:1010D00003F076FB02460B4620463149FFF766FBDC
:1010E000002388F8003003F0FBFCC9F8000008B0CA
:1010F000BDE8F08723681B079FD5304608F096FEB1
:10110000064628460F4608F091FE3246CDE900011A
:101110003B46244904A804F0ABFB234B049A1B78FC
:1011200022498DF8003002A83C2306F021F903A8DB
:10113000FFF7DEFB04A804F031FA03F0D1FCCAF893
:1011400000007AE74401002048010020140000203C
:10115000F3B10808880100201EB208082CB2080864
:101160008AB108082FB2080846B2080861B2080818
:1011700081B208089DB20808AFB20808CBB20808CF
:10118000DFB20808F001002008000020EDB20808D6
:1011900001B3080818B308082FB3080845B30808B6
:1011A0005AB308086EB108084001002082B108084F
:1011B00008B5114800F0BEFD104801F001FB1048D1
:1011C00001F0B0F80F4801F09FFC0F4800F0CCFF91
:1011D000FFF72CFEFFF780FDFFF738FDFFF7A2FEBB
:1011E0000A4B1B681B0106D506F0F0FABDE8084063
:1011F000074904F09EBB08BD4C01002038020020C6
:101200005C0100207C0100207C02002014000020F2
:1012100074B308082DE9F04FA1B018AEA6490546F1
:10122000304604F005FAA54801F094FE1590A34855
:1012300001F0F6FD8346A14801F0F8FD82469F4883
:1012400001F0FAFD81469D4801F008FE80469B486A
:1012500001F00AFE0746994801F0FAFD14909748FC
:1012600001F0F0FD0290954801F08AFD0590934849
:1012700001F08CFD0690914801F08EFD07908F489B
:1012800001F090FD08908D4801F006FE09908B4812
:1012900001F008FE0A90894801F0F8FD0B9087489C
:1012A00001F0EEFD0C90854801F0E4FD0D908348BF
:1012B00001F086FD0E90814801F088FD0F907F4877
:1012C00001F08AFD10907D4801F08CFD03907B4871
:1012D00001F08EFD0490794801F09CFD1190774853
:1012E00001F08CFD1290754801F08EFD7449139049
:1012F000284604F042FA1CAC68B3159A204671499E
:1013000004F0B6FA2146304604F0E7F9204604F02E
:1013100045F92946204604F0D5F920466A4904F0EB
:1013200018FA314604F009FA684B02681B786849DC
:101330008DF8003016A83C2306F01AF817A8FFF71E
:10134000D7FA204604F02AF9304604F027F90120A4
:1013500021B0BDE8F08F28465E4904F00EFA08B1CE
:101360005A46CBE728465C4904F007FA08B15246D2
:10137000C4E72846594904F000FA08B14A46BDE7D7
:101380002846574904F0F9F908B14246B6E728461D
:10139000544904F0F2F908B13A46AFE728465249F9
:1013A00004F0EBF908B1149AA8E728464F4904F075
:1013B000E4F910B1BDF80820A0E728464C4904F034
:1013C000DCF948B1059808F031FD02460B4620468D
:1013D000484904F04DFA95E72846474904F0CDF90D
:1013E000B046274608B10698EDE72846434904F081
:1013F000C4F970B1079808F019FD02460B4638464B
:101400003C4904F035FA3946404604F066F938465E
:101410007DE728463A4904F0B0F90DF1600808B1BB
:101420000898E8E72846374904F0A7F91CAF08B147
:101430000998E0E72846344904F09FF908B10A9872
:10144000D9E72846314904F098F908B10B98D2E75A
:1014500028462F4904F091F9C246B94628B10C9AA2
:101460001849384604F004FACDE72846294904F023
:1014700084F908B10D9AF3E72846274904F07DF96D
:1014800010B10E9A2549ECE72846254904F075F974
:1014900008B10F9AF6E72846224904F06EF90028B1
:1014A00044D0109A2049484604F0E2F94946504693
:1014B00004F013F948462AE7CCB608087802002061
:1014C0008BB3080823B80808A2BB08084001002015
:1014D00089B4080898B308089DB30808B8B3080889
:1014E000A4B30808AAB30808AEB30808B3B3080841
:1014F000C0B3080877B80808C9B30808D3B3080808
:10150000E3B30808F4B3080800B4080809B40808ED
:101510000FB408081AB4080825B408082DB4080840
:1015200031B4080839B408083EB4080828461449FC
:1015300004F023F908B1039AB4E72846114904F0EE
:101540001CF908B1049AADE728460F4904F015F9D3
:1015500010B1119A0D49A6E728460D4904F00DF97E
:1015600008B1129AF6E728460A4904F006F908B1CC
:10157000139AEFE74046084904F0B7F8C9E600BF00
:1015800042B4080847B408084CB408082DB4080849
:1015900053B408085BB4080864B4080870B514268E
:1015A000D0E90053044606FB0356AE4204D0284659
:1015B00003F0F4FF1435F8E7206803F0C9FD204676
:1015C00070BD13B56C460B46024603C884E80300A1
:1015D00093E8030082E8030094E8030083E8030033
:1015E00002B010BD30B595B006F0F0F84FF41651CA
:1015F00006F0CEF842F2107005F0A4FB944801F01A
:1016000079FB944802F0D8FE934801F0A7FB92487A
:1016100001F068FC914910A804F00AF8904C10A859
:10162000FEF7EAFD10A803F0B9FF204600F018FE0F
:101630004FF496738B48236101F0B8FA8A4800F0A2
:1016400077FB8A4801F08AF9894800F007FC89494C
:101650008948FEF767FE894B10201093884B13933F
:10166000884B1293FEF729FD044678B1002383606E
:10167000129B33B1022210A99847139BE360129B7F
:10168000A3602146804A814805F061FD002510A82D
:10169000FFF7B4F87E497F48FEF744FE7E497F4855
:1016A000FEF740FE7E497F48FEF73CFE7E497F48BC
:1016B000FEF738FE7E497F48FEF734FE7E497F48BC
:1016C000FEF730FE7E497F48FEF72CFE7E497F48BC
:1016D000FEF728FE7E497F48FEF724FE7E497F48BC
:1016E000FEF720FE7E497F48FEF71CFE7E497F48BC
:1016F000FEF718FE7E497F48FEF714FE0023012204
:101700007D497E4803F0CCFC7D497E48FEF710FE03
:10171000002302227C497D4803F0C2FC0023022200
:101720007B497C4803F0BCFC002302227A497B48B9
:1017300003F0B6FC0023022279497A4803F0B0FC9A
:1017400079497A48FEF7F4FD79497A48FEF7F0FDC9
:1017500079497A48FEF7ECFD01220023784979485F
:1017600003F09EFC784B04A90493784B08A80793D8
:10177000774B0693FFF78BF808A910A8FFF787F8B7
:1017800010200E95FEF799FC044660B10146856075
:1017900010A8FFF716FF129BA268A3601292139B7A
:1017A000E268E36013926B4B10200F936A4B0C942A
:1017B0000E93FEF782FC0446A0B1002383600E9BCB
:1017C00033B102220CA998470F9BE3600E9BA360E4
:1017D000624B4FF48050CDE902340021604A02ABE5
:1017E00003F0AEFB0CA8FFF709F810A8FFF706F806
:1017F0005C4C08A8FFF702F804A8FEF7FFFF03F00F
:1018000067FCA06830B1002302211A46CDE90033FD
:1018100003F0D6F9A06840B100236FF000421946EA
:10182000CDE900231A4603F0CBF94FF4FA6005F036
:1018300089FA354B1B685B0107D505F0C7FF4A499C
:1018400015B0BDE8304004F074B815B030BD00BF2D
:101850001C0200208801002078020020B1AF080897
:101860005C0100207C0100204C0100203802002097
:101870007C0200208901080831B50808F901080830
:101880005502080841020808A0B508080B710808AD
:10189000910B080892B408083901080899B408089F
:1018A0004D010808A3B4080861010808ADB4080890
:1018B00075010808B7B4080815070808C1B4080876
:1018C0009D010808C9B4080881030808D2B40808B3
:1018D00015120808DAB40808953F0808E4B40808A7
:1018E0001D400808F0B40808E5400808FDB40808E1
:1018F0006D41080808B508081100002014B5080853
:10190000000000201EB50808140000202AB50808B1
:10191000F401002037B50808EC01002042B50808A2
:10192000F00100204DB508080C00002058B508084B
:101930000400002064B508080800002070B50808FD
:10194000100000207CB50808C907080885020808AF
:1019500071020808A7020808AD080808010008007D
:10196000110108089802002088B508088842F8B5D7
:1019700004460D46164616D9904215D2A2F1140619
:10198000751AA1F114072C44B7421CD02CB1314672
:10199000204603F07DFE337C2374304603F0FEFDC9
:1019A000143E143CF0E70ED0B5420CD02CB12946C1
:1019B000204603F06DFE2B7C2374284603F0EEFDD9
:1019C00014351434F0E7F8BD00232DE9F041C0E9E7
:1019D000003383604F6804469F420E4624DD4FF07B
:1019E000140808FB07F003F0ABFB0546E0B1D4E9AF
:1019F000001208FB0212FFF7B9FF206803F0A8FBF2
:101A00002560A760D6E9007308FB0378B84509D0C4
:101A10003946284603F056FE3B7C143505F8043C55
:101A20001437F3E7736863602046BDE8F081000077
:101A30002DE9F0414FF001080024754B90B083F878
:101A40000080CDE90344059405F0C0FE714D0646C3
:101A50002F4603A906A8FFF7B7FF06A909A8FFF7B5
:101A6000B3FF6D4B09A947F8043B0CA8FFF7ACFF87
:101A70000CAA1E21384604F03CFD0CA8FFF78EFD91
:101A800009A8FFF78BFD654B2E622B6006A8FFF7B8
:101A900085FD634B634E2B6005F098FE4FF41651A5
:101AA00005F076FE04F0E8F9294604F001FC03A8ED
:101AB000FFF774FD32465C49284606F0FBFCFEF752
:101AC000DBFE2146404603F043FA584D584BC5E92A
:101AD0000044AB60022003F01BFA2846554D324605
:101AE000554906F0E7FC2846544901F001F8324612
:101AF0005349284606F0DEFC524D534B4FF46162C9
:101B000000932846002300F033FE28464F4D32460E
:101B10004F4906F0CFFC284600F07EFB28464D4D8D
:101B200032464D4906F0C6FC022228464B4900F0D9
:101B300087F928464A4D32464A4906F0BBFC4FF425
:101B400061622846484900F0BFF82846474D3246B2
:101B5000474906F0AFFC4EF66021284600F02CFD08
:101B6000324644492846444D06F0A4FC434801F05F
:101B7000F3F82146284605F015F92846404D32462F
:101B8000404906F097FC284601F0A4F83246284662
:101B90003D493E4D06F08EFC2346162203213C486B
:101BA00002F007FC28463B4903F042FD3246284636
:101BB000394906F07FFC394B394D0C93394B05F10F
:101BC0000C010F93384B0CA80E93384B2C712B60E3
:101BD000AC606C61FFF7F5FC6A690E9B0E926B615D
:101BE000AA690F9B3221AB610F922B46304ACDE997
:101BF000004405F1080002F0CBFF0CA8FEF7FEFD43
:101C0000324628462B4910B0BDE8F04106F052BCE0
:101C100040010020F8010020ECB50808F0BB0808DE
:101C200004B60808300100203903080834010020F8
:101C30000000FFFF7C010020AD010808AAB50808DC
:101C4000F929080838020020B9B508085C0100200D
:101C5000DD2608087C020020D9210808C6B508083E
:101C60004C010020AD1D080800007041B4020020A6
:101C7000B91C0808ED240808E401002078020020BF
:101C80001C020020C36D08082D2C08082802002023
:101C900088010020CCB608089D550808F9000808FE
:101CA00098020020A30208088F020808D8B5080887
:101CB000BD01080811080808704710B50446102136
:101CC00006F0FDFB204610BD8260002210B5024CDC
:101CD00041600460C26010BD1CB6080837B50446F8
:101CE000104805F0D1F80021054608F0E1FEB0B932
:101CF0002946606808F004FF88B10B4803F0CDFA6C
:101D000068B9284608F01CFF01460D2000F07CFF52
:101D1000064B012168461B68A26803F0ADFB03B0C7
:101D200030BD00BFD4020020DC020020D002002021
:101D3000FFF7D4BF10B5044602F0D2FEE368C01A24
:101D40004EF65F23984207D902F0CAFEE0602046B3
:101D5000BDE81040FFF7C2BF10BD000070B5002401
:101D60000C4B0D4D1C6021460C4E284605F01AF810
:101D700028460B4D32460B4906F09CFB214628466F
:101D800003F03DFA32462846BDE87040064906F0A9
:101D900091BB00BFD0020020D402002030010020FF
:101DA000DC020020C36D08081D520808704710B5FA
:101DB00004461C2106F083FB204610BD10B50446E6
:101DC000086808F0A7FFE060002010BD7FB502683A
:101DD000536890685E1000EB6305DB07146848BF2A
:101DE0008359684648BF1C5903F052FC694628468F
:101DF000A0470446684603F0D1FB204604B070BDFE
:101E0000012A38B5044602D10B68236003E0022A98
:101E100003D0032A0DD0002038BD0C200D68FEF73A
:101E20004CF903460028F0D095E8070083E8070046
:101E3000EBE700680028EED00C2106F040FBEAE753
:101E40008260002210B5044CC0E90322C0E90041C1
:101E5000C0E9052210BD00BFB0B608087FB5002458
:101E6000054646680C200294FEF727F918B1184B76
:101E70008560C0E90034174B00900393164B102087
:101E80000293FEF71AF9044678B100238360029B9F
:101E900033B1022269469847039BE360029BA3602B
:101EA000324621460D4805F052F9029B1BB16946A6
:101EB000032208469847A868002806DB022180B262
:101EC00004B0BDE8704006F0ADB904B070BD00BF0D
:101ED000BD1D0808CD1D0808011E08080B71080863
:101EE000F0B505468DB008468A4908F071FF002418
:101EF000884F07AE48B1052C09D046F8040B394687
:101F00000020013408F064FFF4E7002C4AD04FF4BD
:101F1000FA7004F017FF079E7F49304608F0E7FE8D
:101F200040B900210A2000F06FFE0DB0BDE8F0407E
:101F300003F093BA7949304608F0D9FE014660B9FA
:101F4000774C2368002BECD0112000F05DFE206858
:101F50000DB0BDE8F04000F0A5B97249304608F078
:101F6000C6FE014600BB102000F04EFE6E4B6F4ACD
:101F70001B786F498DF8003005A83C2305F0F8F96F
:101F8000069C7CB16368013B63605BB923682046B3
:101F90009B689847A368013BA3601BB92368204650
:101FA000DB6898470DB0F0BD3046624908F09FFEEF
:101FB000074648B90146132000F026FE38460DB00A
:101FC000BDE8F04003F04CBA5B49304608F08FFEA4
:101FD000014618B90B2000F017FEFEE730465749BE
:101FE00008F085FE002873D1012C71D0022C12D18B
:101FF0001E2421460C2000F007FE089E5049304662
:1020000008F075FE014668B922464E4B1B6805A8CC
:1020100003F032FAC6E7099808F0DEFD044600280E
:10202000E6D0E6E73046484908F061FE20B9454B66
:102030001B6822460121EAE73046444908F057FE72
:1020400028B9404B1A68424B1B681343F1E73046EE
:10205000404908F04CFE0746D8B9AB68002BA1DB1D
:102060003D4AADF8123012680223CDE90142012247
:102070008DF811300DF1120100920DF1110305A838
:1020800003F036FA394615200DB0BDE8F04000F0F7
:10209000BBBD3046314908F02AFE0646002881D1F2
:1020A000AB68002BFFF67EAF294AADF812301268FC
:1020B0000223CDE9014201228DF811300DF1120108
:1020C00000920DF1110305A803F012FA3146DAE788
:1020D0003046234908F00BFE00287FF463AF012C43
:1020E0003FF460AF089E1F49304608F000FE48B933
:1020F000022C04D0099808F06FFD686152E71E2396
:102100006B614FE73046134908F0F1FD00287FF47A
:1021100049AFF2E79EBB080824B608082AB60808AB
:10212000F802002035B60808EC020020CCB60808FA
:1021300042B608085BB6080864B6080870B6080816
:1021400076B60808E40200207BB6080880B60808C6
:10215000E80200208CB60808E002002091B60808CA
:102160009DB60808A2B6080810B5C168044631B18A
:10217000FFF7B6FEE06802F0EBFF0023E36063695F
:10218000002B14DD02F0ACFC4FF47A722369C01A04
:102190006369534398420AD302F0A2FCA16920610B
:1021A0000131A1611420BDE8104000F02DBD10BD2B
:1021B0000022054B02211A600123044A1360044ADD
:1021C0001160044A13707047E0020020E80200200A
:1021D000E4020020EC020020704710B504462021E4
:1021E00006F06DF9204610BD0EB44FF0200C002310
:1021F00000B58CB00DAA52F8041BCDE904C3CDE99B
:1022000000120392016804AA1E2002F061FE0CB0C5
:102210005DF804EB03B0704747F230520B4B42F2CB
:10222000107103600A4B10B5C0E901230023094A6D
:10223000C0E903131060084A08491468C0E906336E
:102240008C4218BFC2E90013838210BD50B7080842
:1022500020BF0200F80200200040024094C54E2E2C
:1022600070470000002110B50C4BC26804460846B8
:1022700002F0DEFD0146072000F0C6FC0021E26806
:10228000074B084602F0D4FD04460146082000F042
:10229000BBFCA01C18BF012010BD00BFB8B60808C9
:1022A000CDB6080830B51B4985B01B48FFF79CFF29
:1022B0000021042000F0A8FC002301A8CDE901338F
:1022C000ADF80C3004F054FF02F00AFC43F69725F9
:1022D000044602F005FF40B102F002FC001BA842D8
:1022E00003D8642004F02EFDF3E7002147F23052BA
:1022F00008460A4B02F09CFD4FF47A7004F022FD70
:10230000074B0A2201211B6801A803F0B5F805B0AC
:1023100030BD00BFEAB6080810040020FAB608086D
:10232000F002002037B50022454D0446114668688A
:1023300002F06EFE237D014683420DD02075012000
:1023400000F062FC217D3F4A3F4B4048002908BF16
:102350001A463F49FFF748FF02F0C2FE637D01467F
:1023600083422BD06075022000F04EFC617D364B1D
:10237000344A3648002908BF1A463649FFF734FF69
:10238000637DC3B10022344B5A6000226868114655
:1023900002F05EFE68B1A569002D3CD102F0A0FB01
:1023A0002946A061032000F02FFC2C492748FFF7A5
:1023B0001BFF03B030BD02F093FBE061637D002B97
:1023C000E3D1A368002BE0D002F08AFBE369C01AD6
:1023D000A3689842D9D3237D13B12046FFF742FF6B
:1023E0001D4A536801335360226962B1012B0AD937
:1023F0000021162000F008FC194B012168461B68DB
:10240000226903F039F80021062000F0FDFB204688
:10241000FFF748FFB9E76368002BCAD002F060FB02
:10242000A369C01A63689842C3D30021052000F055
:10243000EBFB204603B0BDE83040FFF733BF00BFE1
:102440006008002007B708080AB708081004002031
:102450000FB708081BB70808004002402FB708084C
:10246000F40200200022034B1A600222024B1A6081
:10247000704700BFF0020020F4020020012310B5D5
:1024800003748368044643B1C06898470123002061
:102490006374BDE8104002F0BBBB00680028F5D0B3
:1024A00083680BB906F011F8C368EEE708B5092098
:1024B000002100F0A9FB034B1868BDE8084002F0BA
:1024C000C8BF00BFFC02002038B50568044635B11E
:1024D0002846FEF793F91021284605F0F0FF204624
:1024E000BDE83840142105F0EABF000010B5114BDB
:1024F0000446036083699BB1586802F021FB78B9F8
:10250000A3695A7C12B9586802F02AFBA36958687B
:1025100002F02EFB0023A069A36108B1FFF7D4FFEE
:10252000A06908B1FFF7D0FF04F10800FEF766F9D3
:10253000204610BD68B7080810B50446FFF7D6FF5F
:1025400020461C2105F0BBFF204610BD2DE9F341BC
:1025500004460E461420164990461F4605F0B1FF6A
:1025600030B10025C0E90055C0E902550574457435
:10257000206098B1099BC0E902873146CDE900038C
:102580009DF820200B4B043002F0D2FA30B92368BA
:102590001B7C4BB9012002F08BFAF8E7002320687E
:1025A000236008B1FFF790FF204602B0BDE8F0813C
:1025B000ADBD08087D24080830B5164B87B0036010
:1025C000154B04460293154B41600593144B051DB2
:1025D0000493002302A9036102220830FDF757FE8D
:1025E000059B4FF4E1626361049B0E49236109235B
:1025F00004F11800CDE900322B460B4AFFF7A6FF85
:1026000002F06EFA094B186002A8FEF7F7F82046B0
:1026100007B030BD68B70808AD240808A302080851
:102620008F02080858B7080891830808B8090020E5
:102630000122014B1A607047FC020020012380F840
:102640002430704770B4036809685C689D68661040
:1026500005EB6400E40748BFAC591B68126848BF2B
:10266000E35870BC1847012A38B5044602D10B68FC
:10267000236003E0022A03D0032A0DD0002038BDD6
:102680000C200D68FDF719FD03460028F0D095E8F1
:10269000070083E80700EBE700680028EED00C2174
:1026A00005F00DFFEAE7034610B442681B685410BA
:1026B00001EB6200D20748BF0A5910BC48BFD3588B
:1026C0001847012A02D1016000207047022A04BF86
:1026D000D1E90023C0E90023F6E7000010B5044665
:1026E000054B40F82C3BFEF789F804F1100002F08E
:1026F00055FF204610BD00BF9CB7080810B5044622
:10270000FFF7ECFF2046402105F0D9FE204610BD22
:1027100010B50346D1E90002002186B0049108B942
:10272000D10705D5CDE902020F4A05920F4A04925E
:102730006C4602AA92E8030084E8030093E80300D1
:1027400082E8030094E8030083E803000499986892
:10275000996004900599D868D96005901046FEF7F5
:102760004DF806B010BD00BFA7260808C32608080C
:102770000E4938B500F110050446C0E90223016096
:1027800028460B4902F054FF00230A4A2362C4E999
:102790000B2384F82430A362074B2846A363074B1E
:1027A0000499636302F0A1FF204638BD9CB7080876
:1027B000CCB6080835280808A7260808C326080844
:1027C00010B5436B01460BB905F07FFE836BBDE886
:1027D00010402C30184700001FB50023104A044653
:1027E00080F8243002A92C30CDE90223FFF790FFB6
:1027F00002F076F9226920620A490B48FFF7F4FCDF
:102800000A4B0B4A1B7821698DF8003002A83C2343
:1028100004F0AEFD03A8FEF76BF804B010BD00BFD6
:102820009128080870B70808100400200003002051
:10283000CCB60808F8B5044602F052F9236AC01A6B
:1028400047F22F53984220D902F04AF9206204F04F
:1028500041FAD0B102F044FCB8B104F058FAD4E91E
:1028600002760A4BC517D3E90221821A65EB0101F2
:10287000BA4271EB060208DBC3E9020500232046D9
:10288000A362BDE8F840FFF7A7BFF8BD08400240CB
:102890001FB590F82430044653B1234B02A902938C
:1028A00000232C300393FFF733FF02F019F9206265
:1028B00002F016F9236AC01A4AF6C773984230D953
:1028C00000210E2000F0A0F9A36A0133012BA362BE
:1028D00005DC204604B0BDE81040FFF77DBF0021B5
:1028E0000F2000F091F9114B114A1B7811498DF816
:1028F000003002A83C2304F03BFD03A8FDF7F8FFDD
:102900004FF4FA6004F01EFA0B4B186820B104B0C3
:10291000BDE81040FFF7C6BC04B0BDE8104002F0AF
:102920009CBD04B010BD00BF35280808000300207E
:10293000CCB6080842B60808F802002038B50023D3
:1029400083608B6804460D462BB102229847EB68E2
:10295000E360AB68A360204638BD000070B51D4B36
:102960001D4A1968044691428AB004D00020002113
:10297000C3E902011A6000250C2026690495FDF7C1
:102980009CFB18B1154B8460C0E90035144B0290D4
:102990000593144B02A906A80493FFF7CFFF089BE9
:1029A0007BB11020FDF789FB044650B106A9FFF763
:1029B000C5FF002322463046CDE900330A4902F024
:1029C0009FFB06A8FDF71AFF02A8FDF717FF0AB044
:1029D00070BD00BF08400240FE49684A3D26080815
:1029E0004526080867260808337108080122014BAC
:1029F0001A70704700030020704710B504460C2180
:102A000005F05DFD204610BD2DE9F0474FF00008B0
:102A1000304D074646462C46DFF8BCA0D4B063686C
:102A2000B3421BD96B69524602932B694021019333
:102A3000EB6804A80093AB6802F0A2FB00EB080966
:102A4000B9F1FF0F05F1100508D814AB03EB08002E
:102A500004A908F056F9C8460136E0E76268921BFF
:102A60006260002A2FD01D491D48FFF7BDFB4FF4BF
:102A70000272636804EB06115A431A48083108F0E1
:102A8000CFF8194B79681B7814AA8DF8003004A888
:102A90003C2304F06DFC059C7CB16368013B6360E2
:102AA0005BB9236820469B689847A368013BA360F5
:102AB0001BB923682046DB68984702F011F8B8601C
:102AC00054B0BDE8F087324608490548FFF78CFB53
:102AD000D7E700BF18400240A4B70808B3B70808FA
:102AE000100400202040024001030020E1B7080844
:102AF000034AC0E9002100228260024A1060704748
:102B00005CB808080403002010B50A4B04465B6853
:102B10007BB102F0E5FA60B101F0E2FFA368C01AF0
:102B200040F2F133984204D92046BDE81040FFF747
:102B30006BBF10BD184002402DE9F041174C0F4605
:102B4000636890461F2B0FD915491648FFF74CFBB9
:102B50004FF40272636804F11801013B5A4304F117
:102B60000800636008F05CF86668751C656004F036
:102B7000CEF804EB0616B06001F0B2FF2B0104EBB7
:102B80000515F060E7503A46434607490548C5F841
:102B90000480FFF729FBBDE8F08100BF1840024028
:102BA000F0B708081004002005B8080873B5124DE6
:102BB000124E2B680446B34202D16B68202B04D915
:102BC0000F491048FFF710FB2E60002220461146E7
:102BD000FFF7B2FF002201A81146019201F0A0FF09
:102BE000019A32B11221204602B0BDE87040FFF7D1
:102BF000A3BF02B070BD00BF1840024016D4395CBC
:102C000026B80808100400200A460449034608684C
:102C100010B11946FFF790BF704700BF04030020B2
:102C20000122014B1A7070470103002010B50446C1
:102C3000034B40F8043B02F0F1FA204610BD00BF00
:102C40006CB8080810B50446FFF7F0FF20460C21C9
:102C500005F035FC204610BD10B5044601F040FFDC
:102C6000A368C01A632894BF00230123637101F095
:102C700037FFA06010BD10B403685A6899685410FB
:102C800001EB6200D20748BF0A591B6810BC48BF5D
:102C9000D3581847012A38B5044602D10B6823607F
:102CA00003E0022A03D0032A0DD0002038BD0C20F7
:102CB0000D68FDF702FA03460028F0D095E80700FA
:102CC00083E80700EBE700680028EED00C2105F050
:102CD000F6FBEAE7064B10B50021044640F8043B3A
:102CE00002F08DFA0123637100232046A36010BD1A
:102CF0006CB8080830B5002587B004460C20049550
:102D0000FDF7DBF918B10D4B8460C0E900350C4BC1
:102D1000029005930B4B0222049300232E20009374
:102D200002A94FF0FF3304F007FE049B1BB102A978
:102D300003220846984707B030BD00BF592C080849
:102D4000772C0808952C080808B5043002F0ACFA76
:102D5000C0F3800008BD70477047000010B5074CF5
:102D60001821204600F0AFFB2046092100F0C0FAF0
:102D70002046BDE81040012100F0A2BA080300205F
:102D8000014B5869704700BF34030020014B98691C
:102D9000704700BF34030020014BD869704700BF63
:102DA00034030020014B186A704700BF3403002031
:102DB00008B5024BD86B07F08FFC08BD3403002028
:102DC000014BD86B704700BF34030020014B186CD7
:102DD000704700BF34030020014B586C704700BFA0
:102DE00034030020014B986C704700BF340300206F
:102DF000014BD86C704700BF34030020014B586D65
:102E0000704700BF34030020014B986D704700BF2E
:102E100034030020014B186D704700BF34030020BD
:102E2000014B5878704700BF34030020014B98785D
:102E3000704700BF34030020014BD878704700BFB3
:102E400034030020014B9868704700BF3403002012
:102E5000014BD888704700BF34030020014B18791C
:102E6000704700BF34030020014B5879704700BF02
:102E700034030020014B93F83B00704734030020DB
:102E8000014B93F83A00704734030020014BD86A95
:102E9000704700BF34030020014B586A704700BFE1
:102EA00034030020014B986A704700BF34030020B0
:102EB000F7B50A4D0446E86906F0B8FF0646286AE9
:102EC0000F4606F0B3FF3246CDE900013B462046EF
:102ED000034902F0CDFC204603B0F0BD34030020CE
:102EE00074B8080838B50121062005F09BF90021C7
:102EF000062005F0A8F904F017FE4FF4165104F06F
:102F00000DFE0A2003F01EFF0F4D284600F0FAFFC9
:102F1000044630B904F05AFCBDE838400B4902F0D1
:102F200008BD012CF1D004F051FC094902F0EEFC7F
:102F300004F04CFC054621460A2202F004FD284616
:102F4000BDE8384002F0E9BC340300208DB8080821
:102F50007AB80808014B1878704700BF3403002086
:102F6000014B93F8390070473403002038B50C2426
:102F7000064D04F0D9FD036815F8011B9B68013C60
:102F8000984714F0FF04F4D1012038BD240000203C
:102F900038B50C24064D04F0C7FD036815F8011B75
:102FA0009B68013C984714F0FF04F4D1012038BD20
:102FB00018000020014800F06DBE00BF340300205F
:102FC000014800F033BF00BF34030020014800F087
:102FD00027BF00BF3403002010B5034C204600F08B
:102FE00099F9B4F9060010BD0803002010B5034C90
:102FF000204600F08FF9B4F9080010BD0803002046
:1030000010B5034C204600F085F9B4F90A0010BD54
:103010000803002010B50B4C204600F07BF9B4F9F2
:103020000820B4F90630524303FB0323B4F90A0025
:1030300000FB003006F0E8FE05F07EFB07F0FEF92D
:1030400010BD00BF0803002010B504462C2105F078
:1030500036FA204610BD000010B5074C074800F0B6
:10306000C6FA0C21204600F02FF82046BDE810409B
:10307000034A044905F01EBA080300203403002067
:1030800030010020572D0808704710B504468068AD
:1030900008B101F0A5FD204610BD000038B50C4672
:1030A00005462022002104F1080007F0D3FD0B2281
:1030B0002046044907F065FE0123E360AA69C4E9DC
:1030C000042338BD99B80808064A417702604FF0DA
:1030D000FF328261C2834FF6FF7280F820201122F6
:1030E00042627047A8B8080838B50C4D2978BFF37C
:1030F0005B8F11F001040FD12846FCF7EFFF58B1A8
:103100002146074802F0D7F82846FCF7ECFF054AAD
:103110000549034805F0CEF9014838BD9803002061
:103120009C030020300100208B30080808B5FFF711
:10313000DBFF012102F0DDF8FFF7D6FF0549012290
:1031400002F00CF9FFF7D0FFBDE80840002102F0C3
:10315000DFB800BF20A107002DE9F04190F9203031
:10316000054601330F4606D1FFF7BEFF3946BDE8DD
:10317000F04102F01FB9002407264FF0010895F92D
:103180002000002180B205F05EF895F91E0008FAD3
:1031900006F1394080B205F056F895F9200001217A
:1031A00080B205F050F895F91F00640080B2E4B2D7
:1031B00005F062F808B144F00104013EDFD2204678
:1031C000BDE8F08170B590F91D30044601330E461C
:1031D000154616D105F01EF9217F04F051FD05F0CA
:1031E00019F9036831469B68984705F013F903689D
:1031F00029469B68984705F00DF9BDE8704004F03A
:1032000062BD90F92030013301D1FFF78FFF94F9AF
:103210001D00002180B205F016F806F07F0120465F
:10322000FFF79AFF29462046FFF796FF94F91D0005
:103230000121BDE8704080B205F005B838B590F9BD
:103240001D30044601330D461DD105F0E3F894F915
:103250001C1004F019FD05F0DDF8036829469B6891
:10326000984705F0D7F804F02EFD05F0D3F80122B9
:10327000217F04F002FD05F0CDF803685B699847F3
:10328000C5B2284638BD90F92030013301D1FFF78F
:103290004DFF94F91D00002180B204F0D4FF45F0E9
:1032A00080012046FFF758FF00212046FFF754FF1A
:1032B000054694F91D00012180B204F0C4FFE0E747
:1032C00038B50D4623210446FFF7B8FF20F0300241
:1032D00042EA05122046BDE838402321D2B2FFF76A
:1032E00071BF232108B5FFF7A9FFC0F3011008BD86
:1032F00038B50D4620210446FFF7A0FF00F00F026D
:1033000042EA05122046BDE838402021D2B2FFF73C
:1033100059BF000038B590F91D300446013370D113
:1033200005F078F894F91C1004F0AEFC05F072F882
:103330000368A8219B68984705F06CF804F0C3FC6B
:1033400005F068F80622217F04F097FC05F062F88A
:1033500003684F4D5B699847E08005F05BF80368B0
:103360005B699847E38805EA00201843E08005F090
:1033700051F803685B699847208105F04BF80368B2
:103380005B699847238905EA00201843208105F0EE
:1033900041F803685B699847608105F03BF8036872
:1033A0005B69984705EA00256089054365812046E9
:1033B000FFF797FF032862D0022863D0012864D06A
:1033C000002843F6FC7018BF012007F089F9054674
:1033D000B4F9060007F084F9294607F089FAE0609D
:1033E000B4F9080007F07CF9294607F081FA20615A
:1033F000B4F90A0007F074F9294607F079FA606118
:1034000038BD90F92030013301D1FFF78FFE94F9D8
:103410001D00002180B204F016FFE8212046FFF7CE
:103420009BFEFF212046FFF797FEFF21E08020460C
:10343000FFF792FEE388FF2143EA0023E380204662
:10344000FFF78AFEFF2120812046FFF785FE2389B2
:10345000FF2143EA002323812046FFF77DFEFF2161
:1034600060812046FFF778FE6389012143EA00234B
:1034700094F91D00638180B204F0E5FE97E74FF4F4
:103480000060A2E74FF480509FE741F6FE709CE792
:1034900000FFFF0070B50C46054620220021201DCC
:1034A00007F0D8FB242301262360AB69284663601C
:1034B000A660FFF72FFFEB68304663612B69A361BD
:1034C0006B69E36170BD10B50446017790F91D008A
:1034D000421C23D104F09EFF04F0A0FB0F212046E4
:1034E000FFF7ACFE33283DD1072220212046FFF70D
:1034F00069FE07212046FFF7FBFE88222321204694
:10350000FFF760FE102222212046FFF75BFE2046D7
:1035100080221F21FFF756FE012010BD012180B23D
:1035200004F091FE94F91D00012180B204F07AFEAE
:1035300094F92000431C04D1FFF7D6FD01F0CAFE28
:10354000CCE7012180B204F06DFE94F91E00012148
:1035500080B204F067FE94F91F00002180B204F0ED
:1035600061FEBBE70020D8E78378C27803EB022234
:103570004378007803EB022300EB0320704770B51B
:1035800005460C46164642B90368C9B29B6898477F
:103590002846BDE8704002F0C0B900290ADA0A2ABC
:1035A00008D12D2102F0B6F961422846F2B202F0AC
:1035B000CAF9EDE72146F8E7002200234261C0E99D
:1035C0000033C0E90233C0E90E33C0E91033C0E96B
:1035D0001233C0E91433C0E9163303828261C26139
:1035E000026242628262C26202634263704708B54D
:1035F000FFF7E2FF08BD002030B5107018704D795C
:1036000008794C1C00EB05200531084414F8015FD3
:103610001178A0422944C9B211701D78294419704B
:10362000F4D130BD2DE9F7436F4E814635780C4615
:1036300090461F46032D24D8DFE805F0024B839BFC
:103640006A4D2B782BB101F04BFA694B18600023BF
:103650002B7004F069FA03681B69984768B104F09D
:1036600063FA03685B699847C0B2B52820700AD135
:103670000123604A337013602B7001F031FA347803
:103680006CB1012551E004F0A1F85B4902F03EF96C
:1036900004F09CF81022217802F055F9EDE7544B24
:1036A0001B68C01A554B1B689842EAD904F08EF883
:1036B000534902F03EF94FF4FA6003F043FB012155
:1036C000062004F0C0FD4FF4FA6003F03BFBA04776
:1036D000D7E704F029FA0368DFF818911B699847C7
:1036E00050B104F021FA03685B699847D9F80030BB
:1036F000E0540133C9F80030D9F80030062BC0D1AE
:103700006279237903EB0223F82B3B6011DD04F08F
:103710005DF83C4902F0FAF804F058F80A223968DA
:10372000FFF72DFF002302253370284603B0BDE8C4
:10373000F08363885BBA9BB2C8F800300223337011
:10374000F3E704F0F1F903682A4D1B69984740B18B
:1037500004F0EAF903685B6998472B68E054013389
:103760002B603B682A68063393428AD10323337067
:1037700087E704F0D9F90368DFF878801B69984778
:1037800050B104F0D1F903685B699847D8F800306C
:10379000E0540133C8F800303F68D8F800300837EB
:1037A0009F427FF46EAF4FF0000821460DF10703F2
:1037B0000DF1060248463C4486F80080FFF71BFFE7
:1037C00014F8022C9DF806309A4205D114F8012C09
:1037D0009DF807309A4205D003F0F8FF0A4902F03D
:1037E000A8F8A2E74546A0E7AC030020300000207F
:1037F000B0030020A8030020BCB80808B4000020D3
:10380000BEB80808FEB8080816B908080A4610B479
:103810004B790C7904EB0324E31D063422440B445A
:1038200010BCFFF7E8BE0000F8B50D4600264B7946
:103830000C790C4F04EB0324073403F0C7FFA95D98
:10384000102202F080F8013603F0C0FF394602F082
:103850005DF8B442F1DA03F0B9FFBDE8F84002497F
:1038600002F067B830B908089EBB0808CB788878A2
:1038700000EB03204B7803EB0023087800EB0320D8
:10388000704700000000000038B5044601F10A004E
:10389000FFF76AFE0D4606F023FF06F0C7FA1CA3E9
:1038A000D3E9002306F01AFB06F010FE2062A061A7
:1038B00005F10E00FFF758FE06F012FF06F0B6FA0B
:1038C00013A3D3E9002306F009FB06F0FFFDE06136
:1038D000606105F11200FFF747FE06F001FF05F1F8
:1038E000160160622046FFF7C1FF06F0F5FE05F104
:1038F0001A01A0622046FFF7B9FF05F11E01E0633F
:103900002046FFF7B3FF206438BD00BFAFF300804F
:1039100048AFBC9AF2D77A3EF8B50D460631044658
:10392000FFF7A4FFE060EB7EDB0740F1AF806B7C2C
:1039300013F0010200F0AB8001222274E97AAA7A26
:1039400002EB0122E2802A7B22716A7B627113F012
:10395000020300F09E8001236374AB7B6370EB7BFA
:10396000A3702B7CE37005F11600FFF7FDFD002826
:10397000CABF4FF47A73002090FBF3F0A060AB7ED7
:1039800005F11E0084F83A30023B012B8CBF002366
:10399000012384F839306B7F05F1460784F83B300A
:1039A000FFF7E2FD06F09CFE06F040FA3AA3D3E9E9
:1039B000002306F093FA06F089FD2062A06105F16C
:1039C0002200FFF7D1FD06F08BFE06F02FFA32A39E
:1039D000D3E9002306F082FA06F078FDE061606129
:1039E00005F12600FFF7C0FD06F07AFE05F12A0179
:1039F00060622046FFF73AFF06F06EFE05F12E01E9
:103A0000A0622046FFF732FF05F13201E063204655
:103A1000FFF72CFF206405F13600FFF7A5FD606479
:103A200005F13A00FFF7A0FDA06405F13E00FFF7A5
:103A30009BFDE06405F14200FFF796FD0646206518
:103A40003846FFF791FD06F0DFF915A3D3E900230F
:103A500006F06EFB06F03AFD20633846FFF784FD62
:103A600006F0D2F90EA3D3E9002306F061FB06F0BD
:103A70002DFD6063EB7E3046C3F3401384F838308D
:103A800006F02EFE084906F033FFE062F8BD22740E
:103A90005DE7637467E700BF48AFBC9AF2D77A3E30
:103AA00000000000006AF84000007A4410B50C469F
:103AB0000E310246FFF7DAFE04F11201506510469E
:103AC000FFF7D4FE04F1160190651046FFF7CEFE15
:103AD000D06510BD38B5002504F026F803681B69D1
:103AE000984760B9092DF7DD04F01EF80B4901F085
:103AF0000DFFBDE838404FF4FA6003F023B904F03D
:103B000013F803685B699847C4B20A2C08BF0135F3
:103B100003F05CFE214601F0FDFEDDE732B9080846
:103B200070B50C46154603F051FE114901F0EEFE4A
:103B300003F04CFE002C064618DA2D2101F0EAFEB7
:103B400061420A22304601F0FEFE03F03FFE0949C1
:103B500001F0DCFE03F03AFE044629460A2201F099
:103B6000F2FE2046BDE8704001F0D7BE2146E8E7EE
:103B70004DB9080863B9080810B504462822002189
:103B800007F068F8204610BD0246002352F82300D3
:103B900010B942F82310704701330A2BF6D14FF0C9
:103BA000FF307047002210B5031F243053F8044F34
:103BB0008C4208BF1A608342F8D110BD40F209134D
:103BC0009A4270B506460D46144652D0B2F5857F2E
:103BD00017DAB2F5817F44D040F207139A4244D0FD
:103BE00003F0F4FD254901F091FE03F0EFFD2146BD
:103BF0001022FFF7C4FC29463046BDE87040FFF7AD
:103C000013BEB2F5A06F1CD040F201539A42E7D127
:103C1000CC881B4864BAA4B22146FFF7B5FF03F075
:103C2000D5FD184901F072FE03F0D0FD164901F0F0
:103C30006DFE03F0CBFD2146BDE870401022FFF77A
:103C40009EBCCC880E4864BAA4B22146FFF7AAFFF6
:103C500003F0BCFD0D4901F059FE03F0B7FD0C491E
:103C6000E5E7BDE87040FFF70FBEBDE87040FFF725
:103C700053BEBDE87040FFF719BF00BFB0B90808D8
:103C8000CC0300206CB908087EB908088EB9080872
:103C9000A0B90808F0B590F860300446C1B02BB365
:103CA000134D144E144F03F03FFF03681B699847F0
:103CB000E0B12B46694620460E4AFFF7B3FC0228C6
:103CC00005D103F083FD0D4901F033FEEBE7032836
:103CD00008D00028E7D1694620462B683268FFF7F4
:103CE0006DFFDFE703F072FD3946EDE741B0F0BD4F
:103CF000B8030020B4030020E1B90808C6B90808D9
:103D0000031F243053F8042F8A4203D08342F9D191
:103D100000207047012070472DE9F041284E0746EA
:103D200035780C46DFF89C8085BB4988264849BA1F
:103D300089B2C8F80010FFF735FF21463846FFF773
:103D400065FD03F043FD214901F0E0FD03F03EFD78
:103D50001022D8F80010FFF712FC38462146FFF772
:103D600063FD6379277907EB0327073703F0DCFE50
:103D70000368615D9B6801359847AF42F6DA00F051
:103D8000AFFE134B18600120307012E0FFF782FF86
:103D9000D8F800100C48FFF7B3FF044658B900F0FC
:103DA0009FFE0B4B1B68C01AB0F5FA6F05D90420B3
:103DB0003470BDE8F0810020E6E70120F9E700BF9C
:103DC000C4030020C8030020CC030020FFB908086A
:103DD000C003002038B504460D4629462046FFF7AB
:103DE0009BFF0128F9D0022806D103F0EFFC094916
:103DF000BDE8384001F09DBD032805D0042807D157
:103E000003F0E4FC0449F3E703F0E0FC0349EFE7C7
:103E100038BD00BF10BA080857BA080832BA0808F7
:103E20000149FFF7D7BF00BFAB00002009292DE9EA
:103E3000F04106460C46154605D803F0C7FC294953
:103E400001F077FD0A24002D43DC03F0BFFC264976
:103E500001F06FFD012505FB04F3DFF8908003EB13
:103E60008303C8F8003003F0B1FC214901F04EFD96
:103E700003F0ACFC07460A22214601F064FD3846F7
:103E800001F04BFD03F0A2FC1A4901F03FFD03F0E5
:103E90009DFC0A222946FFF772FB03F097FC1649A6
:103EA00001F034FD03F092FC0746D8F800100A2216
:103EB00001F049FD384601F030FD00230F4930463E
:103EC0008C71240ACC710D724B72BDE8F041FFF782
:103ED00081BF7F2DBFDD03F079FC094901F029FD89
:103EE0007F25B8E775BA0808A3BA0808B40000200F
:103EF000FDBA080814BB08082DBB08089D00002067
:103F0000CFBA080870B51A4D06462B68052B29D87C
:103F1000DFE803F0030B191B1D1FFFF7DBFD012377
:103F200086F860302B6801332B6012493046FFF76A
:103F3000F3FE0128044603D0296860B901312960E5
:103F40000124204670BD0C49F0E70C49EEE70C490E
:103F5000ECE70C49EAE702463046FFF7E1FD0023B3
:103F60002B60EEE70123002403702C60E9E700BF1B
:103F7000BC030020790000209200002031000020C6
:103F80005D000020870000200148FFF7F5BD00BF5D
:103F9000CC030020F0B5012185B0064601F027FCD6
:103FA000A0F13005072D04462CD81A49684601F0C7
:103FB0003FFB6946304601F008FC0746684601F0C1
:103FC000EDFA57B1ADB22846032104F02BF928468B
:103FD00005B0BDE8F04004F04FB90F49684601F064
:103FE00027FB6946304601F0F0FB0546684601F0C4
:103FF000D5FA5DB1263CA4B22046032104F012F9A3
:104000002046E5E74FF0FF3005B0F0BD6FF001004E
:10401000FAE700BF4AB4080844BB0808F0B501211C
:1040200085B0064601F0E3FBA0F13004072C47D829
:10403000072303223146684601F0ECFB6846254918
:1040400001F09BFB0546684601F0A8FA3DBB06233C
:1040500003223146684601F0DDFB68461E4901F047
:104060008CFB0746684601F099FA67B31B4968461E
:1040700001F0DEFA6946304601F0A7FB07466846C4
:1040800001F08CFA6FB1A4B20121204604F0CAF805
:104090002046294604F0D7F8012005B0F0BD0125DF
:1040A000E4E70F49684601F0C3FA3046694601F07B
:1040B0008CFB0646684601F071FA3EB10A34E2E72D
:1040C0004FF0FF30E9E76FF00100E6E76FF0020024
:1040D000E3E700BF46BB08084BBB08084AB4080822
:1040E00044BB0808F0B5012185B0074601F07FFB0D
:1040F000A0F13005072D04462CD81A49684601F076
:1041000097FA6946384601F060FB0646684601F0BA
:1041100045FA56B1ADB22846002104F083F828468E
:1041200005B0BDE8F04004F0BAB80F49684601F0A8
:104130007FFA6946384601F048FB0546684601F0BB
:104140002DFA5DB1263CA4B22046314604F06AF84F
:104150002046E5E74FF0FF3005B0F0BD6FF00100FD
:10416000FAE700BF4AB4080844BB0808F0B50121CB
:1041700089B0054601F03BFBA0F13006072E04464E
:1041800040D803222946684601F066FB1F4904A86F
:1041900001F04EFA284604A901F017FB074604A8CF
:1041A00001F0FCF997B1B6B20121304604F03AF8BB
:1041B000684601F058FB0146304604F087F80124B8
:1041C000684601F0EBF9204609B0F0BD104904A89B
:1041D00001F02EFA284604A901F0F7FA054604A8D2
:1041E00001F0DCF95DB1263CA4B20121204604F0C7
:1041F00019F8684601F037FB01462046DDE76FF00D
:104200000104DDE74FF0FF34DDE700BF4AB40808E2
:1042100044BB0808F8B590F8293004468BB900F083
:1042200057FC41F27071A26BA063831A8B4209D9CB
:104230006FF00103E362032384F82A30012384F83A
:104240002930F8BD94F82A5005F0FF01002D48D020
:104250000129F6D1A3F13D025D2A70D894F83610F9
:104260006E2B214491F830204FEA4202D2B281F8FD
:10427000302008D994F83620224492F8301041F0CA
:10428000010182F83010226CDBB2511C21641370E2
:1042900094F8353003F0FF05002B49D1072384F84B
:1042A000353094F836300133DBB2052B84F83630E4
:1042B000C7D1012084F8290094F8301094F83170A7
:1042C00094F83220394494F833300A4494F8346036
:1042D0001344DBB2B34224D04FF0FF33E362032335
:1042E00011E0402B04D8A36B1A44121AA263A8E76A
:1042F000226CD9B27E3B5D2B02F101004FF001032D
:1043000004D82064117084F82A309AE784F82930A0
:104310006FF00203E3620323206484F82A301170F3
:104320008FE70223E56284F82A3084F83C0088E7AE
:1043300094F83530013BDBB284F8353081E7092B46
:1043400094BF6FF005026FF0030284F82910032375
:10435000E262D8E710B403685A689968541001EB18
:104360006200D20748BF0A591B6810BC48BFD35827
:104370001847012A38B5044602D10B68236003E0D0
:10438000022A03D0032A0DD0002038BD0C200D686E
:10439000FBF793FE03460028F0D095E8070083E87A
:1043A0000700EBE700680028EED00C2104F087F846
:1043B000EAE7C0E911127047032238B5002380F8FC
:1043C0002A2001256FF006020446C364C262294612
:1043D00080F8293080F85050B0F8440003F022FFF4
:1043E000B4F84400294603F02EFFBDE838404FF4EE
:1043F0007A7002F0A7BC000070B5044686B000F0E9
:104400006FFB94F8503023B9E36CC31AB3F5FA6F1D
:1044100067D394F82A30032B03D094F82A30022B68
:1044200061D100231A4684F85030E06484F82A30C1
:10443000E2540133292BFBD1072384F8302084F880
:10444000312084F8322084F8332084F8342084F832
:104450003530002301216365A365B4F8440084F876
:104460003620246403F0DEFE0021B4F8440003F09B
:10447000EAFEA36C0B2B2FD1122002F063FC00216B
:10448000B4F84400002503F0CDFE00F021FBA0634A
:104490000C2084F82950B4F844600495FBF70DFE15
:1044A00018B1124B8460C0E90035114B029005939E
:1044B000104B0222049300233046009302A94FF0D0
:1044C000FF3303F039FA049B1BB102A9032208460B
:1044D0009847012006B070BD40F2DC5000F0F0FAC1
:1044E000CDE70220F6E76FF00400F3E71542080875
:1044F000554308087343080810B5836C04460B2B1A
:104500002AD0153B012B31D890F8303090F831008B
:1045100000EB032080B205F077FC1BA3D3E9002356
:1045200005F0DCFC05F0D2FF94F8323060651B0624
:1045300020D594F8323094F8330003F07F0300EB79
:104540000320404205F060FC0FA3D3E9002305F0EF
:10455000C5FC05F0BBFF08E090F8300006F0BCF8A1
:10456000606594F8320006F0B7F8A065002384F87F
:104570003C3010BD94F8323094F8330000EB032047
:1045800080B2DFE7AFF300809A9999999999B93F82
:1045900090F82A30022B05D090F82A00033818BF73
:1045A000012070470020704710B590F8293004466C
:1045B00033B1B0F8440003F079F9002384F82930CE
:1045C00010BD10B50446FFF7EFFFE06A10BD000014
:1045D00010B50446FFF7E8FF94F82A30032B03D107
:1045E000E06A06F07DF810BD94F82A30022B07D15E
:1045F00094F83C3013B12046FFF77EFFA06DF2E740
:104600000048F0E70000A0C010B50446FFF7CCFF5B
:1046100094F82A30032B03D1E06A06F061F810BD4C
:1046200094F82A30022B07D194F83C3013B120467D
:10463000FFF762FF606DF2E70048F0E70000A0C0FE
:1046400010B50446FFF7B0FF94F82A30032B03D1CE
:10465000E06A06F045F810BD94F82A30022B11D11B
:1046600094F83C3013B12046FFF746FF0649A06D91
:1046700006F08AF8054906F03BF94FF0844105F051
:104680007BFFE8E70248E6E7000010410000A04099
:104690000000A0C00000000010B50446FFF784FF32
:1046A00094F82A30032B03D1E06A06F019F810BD04
:1046B00094F82A30022B10D194F83C3013B12046E4
:1046C000FFF71AFFA06D05F0B1FB05A3D3E90023A6
:1046D00005F04EFA05F0FAFEE9E70348E7E700BF08
:1046E00066666666661271400000A0C000000000A9
:1046F0002DE9F8430446FFF757FF94F82A30032BBF
:1047000004D1E06A05F080FBBDE8F88394F82A3014
:10471000022B46D194F83C3013B12046FFF7ECFE53
:10472000A06D05F083FB0646606D0F4605F07EFB2D
:104730000022214B05F0FCFC03F0CAFE1AA3D3E9CA
:10474000002304460D463046394605F0C7FB18A342
:10475000D3E90023804689463046394605F008FAF9
:1047600002460B464046494605F0E2FC22462B46EF
:1047700005F0FEF90EA3D3E9002306460F4605F027
:10478000ADFB324604460D4607A1D1E900013B4688
:1047900005F0ECF902460B462046294605F0C8FC18
:1047A000B2E700200549AFE74C3789416045314009
:1047B0006666666666B66D4000005940000014C02B
:1047C0002DE9F84F0446FFF7EFFE94F82A30032B4B
:1047D00004D1E06A05F018FBBDE8F88F94F82A30A0
:1047E000022B40F0A98094F83C3013B12046FFF72B
:1047F00083FEA06D05F01AFB51A3D3E9002305F059
:10480000B7F902460B4650A1D1E9000105F090FC32
:104810000022634B06460F4605F0A8F94CA3D3E9E6
:10482000002382468B4605F059FB80468946304678
:10483000394603F087FE48A3D3E9002305F04EFB79
:1048400042464B4605F094F93246804689463B463F
:104850000020534905F06CFC02460B4600205049ED
:1048600005F084F93EA3D3E9002305F037FB0246A7
:104870000B4600204B4903F09FFE0022484B05F0F9
:1048800075F939A3D3E9002305F028FB42464B46CE
:1048900005F06EF936A3D3E9002306460F465046CD
:1048A000594605F01BFB02460B4600203D4903F02C
:1048B00083FE00223A4B05F059F92FA3D3E90023D8
:1048C00005F00CFB32463B4605F052F92CA3D3E928
:1048D000002305F04DF90022334B05F047F902465D
:1048E0000B4600202F4903F067FE06460F46606D19
:1048F00005F09CFA32463B4605F0F0FA22A3D3E9D4
:10490000002305F015FC03F0E3FD21A3D3E9002308
:1049100006460F4605F0E2FA324604460D461EA151
:10492000D1E900013B4605F021F902460B4620463D
:10493000294605F0FDFB4FE700201C494CE700BF6E
:10494000666666666612714066666666665277409F
:10495000B1C403CAA69C1FC0CDAFE600C11C144061
:10496000E3A59BC420B02640B13D4236248B82BED5
:10497000037D224F92EE0BC0630333F0EDA7803F1F
:104980001B549E40B40B0840CFA0A17F828BE33F15
:104990005C8FC2F5283C6E40022B8716D98E3140C1
:1049A0000000F03F0000244000000840000014C058
:1049B000F8B50D460446FFF71FFD00F091F80646D6
:1049C0000E4F2046FFF7E4FD58B12DB900F088F8EE
:1049D000386000F075FBF4E700F082F8831BAB420F
:1049E000F4D32046FFF7D4FD10B16FF00203E36269
:1049F0002046FFF7D9FDE06AF8BD00BFB8090020E6
:104A000008B5024B1B685B68019308BDB001040840
:104A100008B5024B1B689B68019308BDB0010408F0
:104A200008B5024B1B68DB68019308BDB0010408A0
:104A300008B5024B1B681B69019308BDB00104084F
:104A400008B5024B1B685B69019308BDB0010408FF
:104A500008B5024B1B689B69019308BDB0010408AF
:104A600008B5024B1B68DB69019308BDB00104085F
:104A700008B5024B1B689B6A019308BDB00104088E
:104A800008B5024B1B681B6B019308BDB0010408FD
:104A900008B5024B1B689B6F019308BDB001040869
:104AA00008B5024B1B685B68019308BD9C010408B4
:104AB00008B5024B1B689B68019308BD9C01040864
:104AC00008B5024B1B68DB68019308BD9C01040814
:104AD00008B5024B1B681B69019308BD9C010408C3
:104AE00008B5024B1B685B69019308BD9C01040873
:104AF00008B5024B1B689B6D019308BD9C0104081F
:104B000008B5024B1B685B6E019308BD9C0104084D
:104B100008B5024B1B685B6E019308BDB801040821
:104B200008B5024B1B68DB6E019308BDB801040891
:104B300008B5024B1B685B68019308BDD0010408EF
:104B400008B5024B1B689B68019308BDD00104089F
:104B500008B5024B1B68DB68019308BDD00104084F
:104B600008B5024B1B681B69019308BDD0010408FE
:104B700008B5024B1B685B69019308BDD0010408AE
:104B800008B5024B1B68DB69019308BDD00104081E
:104B900008B5024B1B681B6A019308BDD0010408CD
:104BA00008B5024B1B685B6A019308BDD00104087D
:104BB00008B5024B1B689B6A019308BDD00104082D
:104BC00008B5024B1B68DB6A019308BDD0010408DD
:104BD00008B5024B1B685B6C019308BDD00104084B
:104BE00008B5024B1B689B6C019308BDD0010408FB
:104BF00008B5024B1B68DB6C019308BDD0010408AB
:104C000008B5024B1B685B6D019308BDD001040819
:104C100008B5024B1B68DB6E019308BDD001040888
:104C200008B5024B1B681B6F019308BDD001040837
:104C300008B5024B1B689B69019308BDC4010408B9
:104C400008B5024B1B681B6A019308BDC401040828
:104C500008B5024B1B685B6A019308BDC4010408D8
:104C600008B5024B1B689B6A019308BDC401040888
:104C700008B5024B1B68DB6A019308BDC401040838
:104C800008B5024B1B681B6B019308BDC4010408E7
:104C900008B5024B1B685B6B019308BDC401040897
:104CA00008B5024B1B689B6B019308BDC401040847
:104CB00008B5024B1B681B6C019308BDC4010408B6
:104CC00008B5024B1B68DB6C019308BDC4010408E6
:104CD00008B5024B1B68DB68019308BDAC010408F2
:104CE00008B5024B1B689B69019308BDAC01040821
:104CF00008B5024B1B68DB69019308BDAC010408D1
:104D000008B5024B1B681B6A019308BDAC0104087F
:104D100008B5024B1B685B6A019308BDAC0104082F
:104D200008B5024B1B689B6A019308BDAC010408DF
:104D300008B5024B1B68DB6A019308BDAC0104088F
:104D400008B5024B1B681B6B019308BDAC0104083E
:104D500008B5024B1B685B6B019308BDAC010408EE
:104D600008B5024B1B681B6C019308BDAC0104081D
:104D700008B5024B1B689B6C019308BDAC0104088D
:104D800008B5024B1B68DB6C019308BDAC0104083D
:104D900008B5024B1B681B6D019308BDAC010408EC
:104DA00008B5024B1B681B68019308BDB4010408D9
:104DB00008B5024B1B689B68019308BDB401040849
:104DC00008B5024B1B68DB68019308BDB4010408F9
:104DD00008B5024B1B681B69019308BDB4010408A8
:104DE00008B5024B1B685B69019308BDB401040858
:104DF00008B5024B1B68DB69019308BDB4010408C8
:104E000008B5024B1B681B6A019308BDB401040876
:104E100008B5024B1B685B6A019308BDB401040826
:104E200008B5024B1B68DB6B019308BD2000060828
:104E300008B5024B1B689B6C019308BD2000060857
:104E400008B5024B1B681B68019308BD1C000608CF
:104E500008B5024B1B685B68019308BD1C0006087F
:104E600008B5024B1B689B68019308BD1C0006082F
:104E700008B5024B1B681B69019308BD1C0006089E
:104E800008B5024B1B685B69019308BD1C0006084E
:104E900008B5024B1B689B69019308BD1C000608FE
:104EA00008B5024B1B68DB69019308BD1C000608AE
:104EB00008B5024B1B681B6A019308BD1C0006085D
:104EC00008B5024B1B685B6B019308BDA00102088B
:104ED00008B5024B1B685B6D019308BDA001020879
:104EE00008B5024B1B68DB6E019308BDA0010208E8
:104EF00008B5024B1B681B6F019308BDA001020897
:104F000008B5024B1B681B68019308BDA401040887
:104F100008B5024B1B685B68019308BDA401040837
:104F200008B5024B1B685B69019308BDA401040826
:104F300008B5024B1B689B69019308BDA4010408D6
:104F400008B5024B1B681B6A019308BDA401040845
:104F500008B5024B1B68DB6A019308BDA401040875
:104F600008B5024B1B68DB6C019308BDA401040863
:104F700008B5024B1B685B6D019308BDA4010408D2
:104F800008B5024B1B689B6D019308BDA401040882
:104F900008B5034B1B68D3F89030019308BD00009F
:104FA000A401040808B5034B1B68D3F89C30019397
:104FB00008BD0000A401040808B5034B1B68D3F822
:104FC000A830019308BD0000A401040808B5034BF4
:104FD0001B68D3F8B830019308BD0000A401040891
:104FE00008B5024B1B685B68019308BDC801040843
:104FF00008B5024B1B689B68019308BDC8010408F3
:1050000008B5024B1B68DB68019308BDC8010408A2
:1050100008B5024B1B681B69019308BDC801040851
:1050200008B5024B1B685B69019308BDC801040801
:1050300008B5024B1B689B69019308BDC8010408B1
:1050400008B5024B1B68DB69019308BDC801040861
:1050500008B5024B1B681B6A019308BDC801040810
:1050600008B5024B1B681B6B019308BDC8010408FF
:1050700008B5024B1B685B6B019308BDC8010408AF
:1050800008B5024B1B681B6C019308BDC8010408DE
:1050900008B5024B1B685B6C019308BDC80104088E
:1050A00008B5024B1B681B68019308BDCC010408BE
:1050B00008B5024B1B685B68019308BDCC0104086E
:1050C00008B5024B1B689B68019308BDCC0104081E
:1050D00008B5024B1B68DB68019308BDCC010408CE
:1050E00008B5024B1B685B69019308BDCC0104083D
:1050F00008B5024B1B681B6A019308BDCC0104086C
:1051000008B5024B1B685B6A019308BDCC0104081B
:1051100008B5024B1B681B6B019308BDCC0104084A
:1051200008B5024B1B68DB6B019308BDCC0104087A
:1051300008B5024B1B685B6C019308BDCC010408E9
:1051400008B5024B1B681B68019308BDA001040849
:1051500008B5024B1B685B68019308BDA0010408F9
:1051600008B5024B1B689B68019308BDA0010408A9
:1051700008B5024B1B681B69019308BDA001040818
:1051800008B5024B1B68DB69019308BDA001040848
:1051900008B5024B1B685B6A019308BDA0010408B7
:1051A00008B5024B1B68DB6A019308BDA001040827
:1051B00008B5024B1B681B6B019308BDA0010408D6
:1051C00008B5024B1B68DB6B019308BDA001040806
:1051D00008B5024B1B681B6C019308BDA0010408B5
:1051E00008B5024B1B685B6C019308BDA001040865
:1051F00008B503F037F9BDE8084002F067BD10B507
:105200000446017009B1FFF7F3FF204610BD08B551
:1052100003F028F9BDE8084002F061BD10B503783D
:1052200004460BB1FFF7F3FF204610BD10B504464E
:105230000068FFF7ECFF204610BD30B587B00D4683
:105240000190FFF7D5FF6B2200230124CDE9022353
:105250000A23CDE9044303F005F902A902F017FD82
:1052600003F000F9036829469B68984703F0FAF8B1
:10527000214602F024FD039403F0F4F802A902F0A1
:10528000D3FC03F0EFF803685B699847044601A874
:10529000FFF7CCFFE0B207B030BD082108B5FFF73B
:1052A000CCFFC0F3800008BD0821FFF7C6BFFFF7A1
:1052B000A7BCFFF79DBC70B5002604460D4640F81C
:1052C000086FFFF785FC28462570FFF791FD204603
:1052D000666070BD10B504468068FFF7EAFF20786D
:1052E0004FF6FF71FFF75CFDA068BDE81040FFF7C7
:1052F000DEBF38B504460D468068FFF7DAFF207838
:105300002946FFF755FDA068BDE83840FFF7CFBF3D
:1053100038B504460D468068FFF7CBFF2078294654
:10532000FFF74EFDA068BDE83840FFF7C0BF0000A2
:1053300030B50024400818601868E5B2884206D9E4
:105340000134082C02D040081860F5E70725024B0D
:105350005B5D137030BD00BF4FBB0808F0B5002582
:10536000044689B0806802FB01F60295FFF7A1FFB1
:105370002946142203A8277805F06CFC0B232A4643
:10538000384603A9ADF80C30FFF742FD02AB0DF132
:105390000702314604988DF80750FFF7C9FF9DF8C2
:1053A00007102078FFF714FDA068FFF780FF029830
:1053B00009B0F0BD08B50078FFF712FDC0B208BD16
:1053C000B1F9043010B50A6833B932B9D1F80630F2
:1053D00003604B89838010BD22B19488012C03D0D7
:1053E000042C06D0042205E092898C710B814A813D
:1053F000ECE702220B814FF6FF738A714B81E5E7E0
:1054000010B50446006818B1FFF7A2FE0023236020
:1054100010BD38B50C46B1F9043005468380D1F88B
:105420000630C0F806304B894381FFF7E9FF236857
:1054300013B12B600023236038BD07B50B46002154
:105440000246009101208C21FFF7C0FD03B05DF8FA
:1054500004FB01460020FFF7F0BF0020FFF7F9BF73
:1054600007B500220346114600920320FFF7AEFD68
:1054700003B05DF804FB000030B5044685B0084673
:1054800011461A460023FFF753FD0023CDE90133EF
:105490004FF6FF73094D01A9ADF80C002846ADF891
:1054A0000E30FFF7B6FF01A8FFF7AAFF20462946F6
:1054B000FFF786FF204605B030BD00BFF403002093
:1054C00010B50024047044804FF6FF7400298480D6
:1054D00008DD01398B4204D932F811308380012371
:1054E000037010BD01D10223FAE74180F9E7000003
:1054F000F0B50D46164600278BB01A46129B04469F
:105500000193119B314600932846109B0297FFF7A9
:1055100053FD334601462A4605A8FFF7D1FF0F4D3C
:105520009DF81410BDF91620BDF8183028468DF8E6
:10553000221007A9ADF82420ADF826300797ADF862
:105540002070FFF766FF07A8FFF75AFF204629469D
:10555000FFF736FF20460BB0F0BD00BFF40300207C
:105560000222002010B5084B084C1A60084BC4E911
:105570000000A360FFF7CCFC2046BDE81040054AC0
:10558000054902F097BF00BF00040020F40300208B
:105590000000FFFF30010020AD01080810B50446EF
:1055A0000068FFF7D5FD204610BD10B50446006821
:1055B00008B1FFF7CDFD0023C4E90133236010BD1E
:1055C00038B504460D4600680131FFF7C9FD10B13A
:1055D000C4E90005012038BD10B50368044623B1B5
:1055E00043688B4201D3012010BD2046FFF7E8FF3E
:1055F0000028F9D0A368002BF5D122681370F2E7D8
:1056000070B50E46114604461546FFF7E5FF20B972
:105610002046FFF7CAFF204670BD2A463146206863
:10562000A56005F0EFFA00212268A368D154F2E7E3
:1056300038B5002304460D46C0E900338360037388
:1056400039B1084605F081FB294602462046FFF79E
:10565000D7FF204638BD38B5054600680C4668B10E
:105660006A688B689A4207D3096805F04AFBA36809
:10567000AB600023A36038BDFFF76AFD23682B6091
:1056800063686B60A368AB600023C4E90033F1E793
:10569000002310B50446C0E9003383600373FFF7AD
:1056A000DAFF204610BD884210B50B46044604D0F0
:1056B000096821B19A68FFF7A3FF204610BDFFF7E4
:1056C00074FFFAE7002310B50446C0E90033836095
:1056D0000373FFF7E8FF204610BD884210B504466B
:1056E00001D0FFF7B8FF204610BD38B505460C467F
:1056F00049B1084605F029FB214602462846FFF736
:105700007FFF284638BDFFF750FFFAE770B5054622
:105710000E4609B9002070BD6AB184681444214660
:10572000FFF75AFF0028F5D02868AB6831461844C7
:1057300005F0E7FAAC600120EDE710B58A6809686A
:105740000446FFF7E3FF10B92046FFF72EFF20467F
:1057500010BD38B504460D4621B92046FFF725FF98
:10576000204638BD084605F0F0FA29460246204694
:10577000FFF7CCFF0028F0D0F2E708B582683AB90D
:1057800021B10878B0FA80F0400900E0012008BD9E
:10579000006809B90078F5E705F0A9FAF2E71346C1
:1057A00010B58A688468A41A9C420AD3006838B18C
:1057B000096841B1184405F0D0FAB0FA80F0400908
:1057C00010BD0020FCE70846FAE782688B689A4221
:1057D00002D30022FFF7E3BF0020704783688B42AB
:1057E00003D9006810B1405C704700207047FFF794
:1057F000F5BF10B58368934206D90468A01805F078
:105800005FFA08B1001B10BD4FF0FF30FBE700222C
:10581000FFF7EFBFF8B51D469A4288BF13460F4603
:10582000144688BF2C460B4988BF1D460646FFF725
:10583000FFFEBB68A3420AD33968AB4294BFC4EBF6
:105840000302C4EB050230462144FFF7D9FE30467F
:10585000F8BD00BFCCB6080810B504468B68FFF74A
:10586000D9FF204610BD006808B105F0B9B97047EE
:105870000EB4FFB509AD55F8047B04462B463A46F5
:10588000052102A80195FFF783FC06460B49204637
:10589000FFF7CEFE31462046FFF79EFE206830B16E
:1058A0002B463A46711C0195FFF772FCA06020461A
:1058B00004B0BDE8F04003B0704700BFCCB60808A4
:1058C000F8B506460D4600248F18BD420CD033684B
:1058D00030469B6815F8011B9847031E01DB1C44EA
:1058E000F3E7002C08BF1C462046F8BD70B50546FE
:1058F0000C46084649B105F028FA2B6802462146B5
:105900002846BDE87040DB68184770BD08B5FFF752
:10591000EDFF08BD03689B68184738B50D210546A3
:10592000FFF7F8FF0A2104462846FFF7F3FF20445B
:1059300038BD38B50546FFF7D9FF04462846FFF7BE
:10594000ECFF204438BD0023012A98BF0A2230B55D
:105950008BB00C468DF8243009A92546B4FBF2F42F
:1059600004FB1253DBB2092B94BF30333733DBB265
:10597000AA4201F8013DF0D9FFF7B8FF0BB030BDE6
:105980002DE9F74F05461946104692461F469DF8E9
:10599000306004F03DFD40B151492846FFF7A6FFB5
:1059A0000446204603B0BDE8F08F27F000444FF0D6
:1059B000FF32504621464B4B04F02AFD48B94FF0C8
:1059C000FF3250462146474B04F004FD08B94649D2
:1059D000E3E74FF0604250463946444B04F00EFD79
:1059E00008B14349D9E74FF0604250463946414B30
:1059F00004F0E6FC0028F4D100220023504639468A
:105A000004F0DEFC044630B12D212846FFF782FF6A
:105A1000044607F100474FF0000B00204FF000084C
:105A20003549DFF8D8905FFA8BF39E4206D942469B
:105A30004B4604F07DFB0BF1010BF4E73B4652466D
:105A400004F096F88946804604F020FD074604F0ED
:105A5000CBF902460B464046494604F087F80A2235
:105A60008046894628463946FFF76DFF0444002EDC
:105A700097D028462249FFF739FF4FF0000ADFF898
:105A80007CB00444002E8CD052465B4640464946CA
:105A900004F024FA8046894604F0D0FC071E1BDA85
:105AA0002D212846FFF736FF034679420A22284671
:105AB0000193FFF748FF019B013E034438461C4415
:105AC00004F0A2F902460B464046494604F04EF85F
:105AD000F6B280468946D5E739460023E6E700BF9F
