:020000040808EA
:1000000000000808DCC30808000006000A0005011B
:0800100004021F0C00000000B7
:040018007CAF0808A9
:1000200008B5024B1B689B6D019308BD2C000608A8
:1000300008B5024B1B685B6E019308BD2C000608D7
:1000400009480A4908B5884205D0094A824202D0C7
:10005000121A0AF0CBFD0748074A0021121A0AF0CB
:10006000EDFD064808BD00BF0000002084C208085E
:100070003001002030010020E4090020E4090020C4
:1000800070B506F0A9FF0025054E064CA41BA40878
:10009000A54200D170BD56F8043B98470135F7E7FB
:1000A00018C0080854C0080801F09CBA08B501F04F
:1000B0007FF8BDE8084006F047BF05F035B805F009
:1000C00033B805F039B8000000210C2008B5024A09
:1000D00004F0E2FEFEE700BF994A08080078B0FA93
:1000E00080F0400970470123037070477047006A31
:1000F0000368DB6818470000014802F047BF00BFF3
:1001000078020020436913B183690C3018477047A7
:1001100030B585B00446089860B1406850B1856834
:1001200045B1CDE90241CDE90023C4686A4601AB7F
:1001300002A9A04705B030BD08B500680AF040FD2F
:10014000014B186008BD00BF0000002008B5006822
:100150000AF036FD014B186008BD00BF0C000020FE
:1001600008B500680AF02CFD014B186008BD00BFFF
:100170000400002008B500680AF022FD014B186059
:1001800008BD00BF0800002008B500680AF018FD8F
:10019000014B186008BD00BF1400002008B50248DC
:1001A00002F000FF012008BD7802002010B50446CF
:1001B000006808B104F0C0FF204610BD13B500214F
:1001C0000446084604F0C8FC0023204601A9019318
:1001D00004F0DAFC019C0CB1012323710021012001
:1001E00004F0BAFC2CB1236820469B689847002392
:1001F000237102B010BD000010B50D49044605F092
:10020000B0FA38B100220B4B0B481A70BDE8104011
:1002100002F098BE2046094905F0A3FA38B1012240
:10022000044B05481A70BDE8104002F09DBE10BD99
:1002300090AF0808100000207802002099AF08084D
:10024000012A02D1016000207047022A04BF0B6816
:100250000360F8E71FB50468684605F00DFA6846C4
:10026000A0470446684605F08DF9204604B010BD4D
:10027000012A02D1016000207047022A04BF0B68E6
:100280000360F8E703681268D1E900011847012A02
:1002900002D1016000207047022A04BF0B6803608E
:1002A000F8E70368184730B51368006885B0019314
:1002B0008368D1E90045CDE902450BB908F0F9F8AA
:1002C000C36801AA02A9984705B030BD70B50546BC
:1002D0000C46164642B90368C9B29B68984728463F
:1002E000BDE8704005F00DBB00290ADA0A2A08D1E2
:1002F0002D2105F003FB61422846F2B205F017FB01
:10030000EDE72146F8E710B504463AB903689B6863
:1003100098472046BDE8104005F0F3BAD2B205F088
:1003200006FBF6E70246014806F005BFC77008085D
:100330000023022204F0A0BE10B50446094B03605E
:1003400005F08EFD214605F0ECFF07F033FA07F0CB
:1003500017FA2046044B40F8043B05F07FFE204688
:1003600010BD00BFECB50808D4B5080810B50446A8
:10037000FFF7E2FF2046242108F095F8204610BD43
:100380002DE9F04FC94C93B0204602F0CFFD8346D3
:10039000204602F031FD8246204602F033FD8146C0
:1003A000204602F035FD8046204602F043FD074618
:1003B000204602F045FD0646204602F035FD054682
:1003C000204602F02BFD0090204602F0C5FC019073
:1003D000204602F0C7FC0290204602F0C9FC0390C0
:1003E000204602F0CBFC0490204602F041FD05902F
:1003F000204602F043FD0690204602F033FD0790B0
:10040000204602F029FD0F90204602F01FFD1090BB
:10041000204602F0C1FC0890204602F0C3FC09907F
:10042000204602F0C5FC0A90204602F0C7FC0B9063
:10043000204602F0C9FC0C90204602F0D7FC0D903B
:10044000204602F0C7FC0E90204602F0C9FC04468C
:1004500007F0B0F9964905F04DFA07F0ABF90A221A
:100460005946119005F063FA119B184605F049FAB8
:1004700007F0A0F98F4905F03DFA07F09BF90A2231
:100480005146FFF740FF07F095F98B4905F032FA26
:1004900007F090F90A224946FFF735FF07F08AF97D
:1004A000864905F027FA07F085F90A224146FFF749
:1004B0002AFF07F07FF9824905F01CFA07F07AF964
:1004C0000A223946FFF71FFF07F074F97D4905F04E
:1004D00011FA07F06FF90A223146FFF714FF07F00F
:1004E00069F9794905F006FA07F064F906460A2227
:1004F000294605F01CFA304605F003FA07F05AF9D0
:10050000724905F0F7F907F055F905460A22BDF8DA
:10051000001005F00CFA284605F0F3F907F04AF947
:100520006B4905F0E7F907F045F90222019905F05A
:10053000EBFA07F03FF9674905F0DCF907F03AF903
:100540000222029905F0E0FA07F034F9624905F059
:10055000D1F907F02FF90222039905F0D5FA07F037
:1005600029F95E4905F0C6F907F024F90222049939
:1005700005F0CAFA07F01EF9594905F0BBF907F072
:1005800019F90222059905F0BFFA07F013F9554948
:1005900005F0B0F907F00EF90222069905F0B4FA59
:1005A00007F008F9504905F0A5F907F003F9022210
:1005B000079905F0A9FA07F0FDF84C4905F09AF9FA
:1005C00007F0F8F80A220F99FFF79DFE07F0F2F8FE
:1005D000474905F08FF907F0EDF80A221099FFF767
:1005E00092FE07F0E7F8434905F084F907F0E2F8D6
:1005F00005460A22089905F09AF9284605F081F97E
:1006000007F0D8F83C4905F075F907F0D3F805462E
:100610000A22099905F08BF9284605F072F907F0CE
:10062000C9F8364905F066F907F0C4F80A220A99B4
:10063000FFF74CFE07F0BEF8314905F05BF907F013
:10064000B9F80A220B99FFF741FE07F0B3F82D49DC
:1006500005F050F907F0AEF80A220C99FFF736FEC4
:1006600007F0A8F8284905F045F907F0A3F80A2291
:100670000D99FFF72BFE07F09DF8244905F03AF994
:1006800007F098F80A220E99FFF720FE07F092F87B
:100690001F4905F02FF907F08DF80A222146FFF7D0
:1006A00015FE012013B0BDE8F08F00BF78020020D6
:1006B000A2AF0808B1AF0808B8AF0808DBAF080858
:1006C000C1AF0808C9AF0808CFAF0808D6AF0808FF
:1006D000E5AF0808F0AF0808FCAF08080EB008083E
:1006E00021B008082FB008083AB0080842B008083E
:1006F0004FB008085CB0080866B0080870B0080879
:1007000077B008087EB0080885B008088EB00808E1
:1007100098B008087FB5044600680AF051FA202115
:1007200086B2204605F067F821460246684605F085
:1007300087F800980AF044FA0446684604F022FF5D
:10074000164B1B68DB001FD507F034F8144905F081
:10075000D1F807F02FF80A22314605F0E8F807F043
:1007600029F8104905F0C6F807F024F8002C0546D2
:1007700012DA2D2105F0C2F861420A22284605F05E
:10078000D6F8284605F0BDF822463146064802F064
:1007900003FC012004B070BD2146EEE714000020E8
:1007A000A3B00808AAB00808780200200EB403B568
:1007B00003AB53F8042B0121019305F0B3F902B008
:1007C0005DF804EB03B0704738B50A4C1546236852
:1007D000D90106D506F0EEFF074905F00F02FFF735
:1007E000E5FF23681A0154BF43F07F4323F07F43A2
:1007F000236038BD14000020B1B0080810B583682C
:10080000044613B1032201469847204610BD00005C
:1008100037B5134B044603608068C8B100256FF0FC
:1008200000430221CDE900352A462B4604F0B4F9F5
:100830002946A06804F0E0F9237903F0FF0513B11D
:1008400004F072F9F8E72946A06804F095F9A5606C
:1008500004F10C00FFF7D2FF204603B030BD00BF0B
:10086000C0B5080810B50446FFF7D2FF20461C218A
:1008700007F019FE204610BD012108B5084604F016
:1008800033F9BDE808400121042004F02DB938B542
:10089000002383608B6804460D462BB102229847E3
:1008A000EB68E360AB68A360204638BD012A70B5F1
:1008B000044603D10B680360002070BD022A0CD0EF
:1008C000032AF9D10468002CF6D02046FFF796FFE2
:1008D0001021204607F0E7FDEEE710200E68FFF735
:1008E000ECFB054610B13146FFF7D1FF2560E3E789
:1008F00038B5046805467CB16368013B63605BB949
:10090000236820469B689847A368013BA3601BB9F6
:1009100023682046DB689847284638BD2DE9F0411A
:100920002E4892B002F008FB002854D006F0E3F9FC
:1009300005462A4802F01CFA0446284802F01EFA2E
:100940000646264802F09AFA0746244802F01CFAA6
:10095000234B2A461B688046224900930EA8EB17BA
:1009600006F06AF9204609F055FA0E9B04460D463A
:1009700040461D49069309F0AFFF09F04BFACDE957
:1009800004011949384609F0A7FF09F043FACDE9F7
:100990000201304609F03EFA2246CDE900012B461D
:1009A00012490AA804F058FF114B0A9A1B78114902
:1009B0008DF8003008A83C2306F0CEFC09A8FFF70C
:1009C00097FF0AA804F0DEFD0EA804F0DBFD01206D
:1009D00012B0BDE8F0810220FAE700BF78020020E3
:1009E000C40000203004002000007A44CDB0080884
:1009F00040010020F9B0080830B51B488BB002F068
:100A00008FF90446194806F015FA0546174806F00E
:100A10002FFA09F0FFF9CDE90201284609F0FAF9A9
:100A20002246CDE9000106A8114904F015FF114B3B
:100A3000069A1B7810498DF8003004A83C2306F074
:100A40008BFC05A8FFF754FF06A804F09BFD0748A0
:100A500006F00EFA09490AF047F8002814BF0120F1
:100A600002200BB030BD00BF1C020020E4010020BA
:100A700002B108084001002025B10808000020410B
:100A8000F0B5164C89B0204602F092FA0546204691
:100A900002F098FA0646204602F09EFA07462046E3
:100AA00002F0A4FA33462A46CDE900700C4904A8A6
:100AB00004F0D2FE0B4B049A1B780B498DF80030E2
:100AC00002A83C2306F048FC03A8FFF711FF04A886
:100AD00004F058FD012009B0F0BD00BF78020020ED
:100AE0002FB10808400100204DB10808F0B54FF4BF
:100AF000FA6189B0204803F047FF06461E4803F01C
:100B00006FFD04461C4803F087FD0546014620465C
:100B100009F0F4FF00B92EB1184B1B68002B24DB41
:100B2000022020E0284609F075F9064620460F46C7
:100B300009F070F93246CDE900013B46104904A89E
:100B400004F08AFE0F4B049A1B780F498DF8003091
:100B500002A83C2306F000FC03A8FFF7C9FE04A886
:100B600004F010FD012009B0F0BD06F023FE074996
:100B700004F0D3FED4E700BF880100201400002059
:100B800056B10808400100206AB1080872B108088F
:100B900030B5274989B0054604F0E3FD68B1294620
:100BA00004A804F083FD04A8FFF726FF044604A868
:100BB00004F0E8FC204609B030BD28461D4904F089
:100BC000D0FD38B1294604A804F070FD04A8FFF751
:100BD000A5FEEBE72846184904F0C3FD38B12946C5
:100BE00004A804F063FD04A8FFF74AFFDEE72846E7
:100BF000124904F0B6FD044638B1294604A804F0B1
:100C000055FD04A8FFF772FFD0E72A6804A80C4935
:100C100004F022FE0B4B02A81B78049A8DF80030DA
:100C200009493C2306F098FB03A8FFF761FEBEE7E5
:100C300092B1080896B108089AB108089EB1080850
:100C4000A2B1080840010020AFB1080870B51B48E8
:100C50008AB002F065F81A4E04463378834229D0F0
:100C6000184B1B685B0725D5174806F0E3F80546C7
:100C7000154806F0FDF809F0CDF8CDE90201284647
:100C800009F0C8F82246CDE90001104906A804F091
:100C9000E3FD0F4B069A1B780E498DF8003004A82F
:100CA0003C2306F059FB05A8FFF722FE06A804F036
:100CB00069FC347001200AB070BD00BF1C02002026
:100CC0001100002014000020E4010020B8B1080841
:100CD0004001002025B108082DE9F04F95B003F040
:100CE000EBFE4EF66022DFF81CA1DAF80030C01AE5
:100CF000454B1B685343984240F28180434802F0C1
:100D00001BF900287BD0DFF80891D9F80030DA070A
:100D100063D505F0F0FFDFF8FCB0C317DBF8002067
:100D20003D4904460092024610A8099305F084FF4D
:100D300010A804F027FC354802F01AF8054633489D
:100D400002F01CF80646314802F098F807462F4892
:100D500002F01AF8DBF80020099B80462E49009229
:100D600010A8224605F068FF284609F053F8109BAA
:100D700004460D4640462949069309F0ADFD09F0A9
:100D800049F8CDE904012549384609F0A5FD09F0E7
:100D900041F8CDE90201304609F03CF82246CDE9A0
:100DA00000012B461E490CA804F056FD1D4B0C9A61
:100DB0001B781D498DF800300AA83C2306F0CCFAB8
:100DC0000BA8FFF795FD0CA804F0DCFB10A804F0BD
:100DD000D9FB03F071FECAF80000D9F80030DB003F
:100DE0000DD506F0E7FC0446084910A802F04CF8BF
:100DF0002046109904F091FD10A804F0C3FB15B033
:100E0000BDE8F08FF40100200C00002078020020E3
:100E100014000020C40000203004002000007A44A8
:100E2000CDB0080840010020F9B0080870B533487B
:100E300086B002F0DBF8324B04461B68834223DAAB
:100E40002E4802F0B5F805462C4802F0BBF80646DD
:100E50002A4802F0C1F8CDE900042A4C33462A465C
:100E6000294902A804F0F8FC02A9204604F029FC54
:100E700002A804F087FB254B1B689A0004D506F0F6
:100E800099FC216804F049FD03F016FE4EF660223D
:100E90001F4D2B68C01A1F4B1B68534398422AD919
:100EA0001A4B1B689B0726D5164C1B49204604F09D
:100EB00058FC00BB194B1A491B7802A88DF800306A
:100EC00022683C2306F048FA03A8FFF711FD1249F7
:100ED00002A804F0A1FB02A8FFF720FD02A804F07D
:100EE00051FB03F0E9FD286020460B4906B0BDE840
:100EF000704004F0EEBB06B070BD00BF7802002069
:100F000000000020280200202FB108081400002053
:100F1000EC01002004000020B0B6080840010020C9
:100F20004DB108082DE9F04788B003F0C5FDDFF8A2
:100F30001492D9F80030C01AB0F5FA6FC0F0D7801B
:100F4000DFF8048298F8003073B9804B1B68002BDF
:100F500004DA06F02FFC7E4904F0DFFC7D4803F044
:100F600037FA012388F800307A4803F0FDFA0028A8
:100F700040F0BD80774803F010FB744C07462368AF
:100F8000002B12DA06F016FC734904F0B3FCFB1DCB
:100F9000072B40D8DFE803F03B37332F2B27230400
:100FA00006F008FC6D4904F0B8FC6A4803F018FB31
:100FB0000546684803F030FB06460146284609F01E
:100FC0009DFD00B95FB32368002B80F2908006F08E
:100FD000F1FB634908B0BDE8F04704F09EBC06F0A1
:100FE000E9FB6049DFE706F0E5FB5F49DBE706F078
:100FF000E1FB5E49D7E706F0DDFB5D49D3E706F08C
:10100000D9FB5C49CFE706F0D5FB5B49CBE706F09F
:10101000D1FB5A49C7E706F0CDFB5949C3E703F0B6
:101020004BFD4EF66022DFF85CA1DAF80030C01A02
:10103000554B1B68534398425CD82368002B4FDA0A
:1010400006F0B8FB0446434803F0CAFA08F0E2FE93
:1010500002460B4620464D49FFF7A8FB06F0AAFBC7
:1010600004463C4803F0A0FA08F0D4FE02460B46C2
:1010700020464749FFF79AFB06F09CFB044635489B
:1010800003F0CAFA08F0C6FE02460B462046414964
:10109000FFF78CFB06F08EFB04462E4803F0E8FABF
:1010A00008F0B8FE02460B4620463B49FFF77EFBA0
:1010B00006F080FB0446274803F006FB02460B4679
:1010C00020463649FFF772FB06F074FB04462148C0
:1010D00003F062FB02460B4620463149FFF766FBF0
:1010E000002388F8003003F0E7FCC9F8000008B0DE
:1010F000BDE8F08723681B079FD5304608F08AFEBD
:10110000064628460F4608F085FE3246CDE9000126
:101110003B46244904A804F09FFB234B049A1B7808
:1011200022498DF8003002A83C2306F015F903A8E7
:10113000FFF7DEFB04A804F025FA03F0BDFCCAF8B3
:1011400000007AE74401002048010020140000203C
:10115000DBB108088801002006B2080814B20808AC
:1011600072B1080817B208082EB2080849B2080878
:1011700069B2080885B2080897B20808B3B208082F
:10118000C7B20808F001002008000020D5B2080806
:10119000E9B2080800B3080817B308082DB3080817
:1011A00042B3080856B10808400100206AB1080897
:1011B00008B5114800F0BAFD104801F0EDFA1048EA
:1011C00001F096F80F4801F08BFC0F4800F0B6FFD5
:1011D000FFF72CFEFFF780FDFFF738FDFFF7A2FEBB
:1011E0000A4B1B681B0106D506F0E4FABDE808406F
:1011F000074904F092BB08BD4C01002038020020D2
:101200005C0100207C0100207C02002014000020F2
:101210005CB308082DE9F04FA1B018AEA649054609
:10122000304604F0F9F9A54801F080FE1590A34876
:1012300001F0E2FD8346A14801F0E4FD82469F48AB
:1012400001F0E6FD81469D4801F0F4FD80469B4893
:1012500001F0F6FD0746994801F0E6FD1490974825
:1012600001F0DCFD0290954801F076FD0590934871
:1012700001F078FD0690914801F07AFD07908F48C3
:1012800001F07CFD08908D4801F0F2FD09908B483B
:1012900001F0F4FD0A90894801F0E4FD0B908748C5
:1012A00001F0DAFD0C90854801F0D0FD0D908348E7
:1012B00001F072FD0E90814801F074FD0F907F489F
:1012C00001F076FD10907D4801F078FD03907B4899
:1012D00001F07AFD0490794801F088FD119077487B
:1012E00001F078FD1290754801F07AFD7449139071
:1012F000284604F036FA1CAC68B3159A20467149AA
:1013000004F0AAFA2146304604F0DBF9204604F046
:1013100039F92946204604F0C9F920466A4904F003
:101320000CFA314604F0FDF9684B02681B786849F5
:101330008DF8003016A83C2306F00EF817A8FFF72A
:10134000D7FA204604F01EF9304604F01BF90120BC
:1013500021B0BDE8F08F28465E4904F002FA08B1DA
:101360005A46CBE728465C4904F0FBF908B15246DF
:10137000C4E72846594904F0F4F908B14A46BDE7E4
:101380002846574904F0EDF908B14246B6E7284629
:10139000544904F0E6F908B13A46AFE72846524905
:1013A00004F0DFF908B1149AA8E728464F4904F081
:1013B000D8F910B1BDF80820A0E728464C4904F040
:1013C000D0F948B1059808F025FD02460B462046A5
:1013D000484904F041FA95E72846474904F0C1F925
:1013E000B046274608B10698EDE72846434904F081
:1013F000B8F970B1079808F00DFD02460B46384663
:101400003C4904F029FA3946404604F05AF9384676
:101410007DE728463A4904F0A4F90DF1600808B1C7
:101420000898E8E72846374904F09BF91CAF08B153
:101430000998E0E72846344904F093F908B10A987E
:10144000D9E72846314904F08CF908B10B98D2E766
:1014500028462F4904F085F9C246B94628B10C9AAE
:101460001849384604F0F8F9CDE72846294904F030
:1014700078F908B10D9AF3E72846274904F071F985
:1014800010B10E9A2549ECE72846254904F069F980
:1014900008B10F9AF6E72846224904F062F90028BD
:1014A00044D0109A2049484604F0D6F9494650469F
:1014B00004F007F948462AE7B0B608087802002089
:1014C00073B3080807B8080886BB08084001002065
:1014D00071B4080880B3080885B30808A0B30808E9
:1014E0008CB3080892B3080896B308089BB30808A1
:1014F000A8B308085BB80808B1B30808BBB308086C
:10150000CBB30808DCB30808E8B30808F1B308084F
:10151000F7B3080802B408080DB4080815B40808A1
:1015200019B4080821B4080826B408082846144944
:1015300004F017F908B1039AB4E72846114904F0FA
:1015400010F908B1049AADE728460F4904F009F9EB
:1015500010B1119A0D49A6E728460D4904F001F98A
:1015600008B1129AF6E728460A4904F0FAF808B1D9
:10157000139AEFE74046084904F0ABF8C9E600BF0C
:101580002AB408082FB4080834B4080815B40808A9
:101590003BB4080843B408084CB4080870B51426D6
:1015A000D0E90053044606FB0356AE4204D0284659
:1015B00003F0E8FF1435F8E7206803F0BDFD20468E
:1015C00070BD13B56C460B46024603C884E80300A1
:1015D00093E8030082E8030094E8030083E8030033
:1015E00002B010BD30B595B006F0E4F84FF41651D6
:1015F00006F0C2F842F2107005F098FB924801F034
:1016000065FB924802F0C4FE914801F093FB9048BC
:1016100001F054FC8F4910A803F0FEFF10A8FEF75C
:10162000EBFD10A803F0AEFF8B4801F0ABFA8B483E
:1016300000F07AFB8A4801F07DF98A4800F0F6FD57
:10164000894800F007FC89498948FEF76BFE894B01
:1016500010201093884B1393884B1293FEF72DFDA7
:10166000044678B100238360129B33B1022210A993
:101670009847139BE360129BA3602146804A8148F0
:1016800005F059FD002510A8FFF7B8F87E497F48FE
:10169000FEF748FE7E497F48FEF744FE7E497F48BC
:1016A000FEF740FE7E497F48FEF73CFE7E497F48BC
:1016B000FEF738FE7E497F48FEF734FE7E497F48BC
:1016C000FEF730FE7E497F48FEF72CFE7E497F48BC
:1016D000FEF728FE7E497F48FEF724FE7E497F48BC
:1016E000FEF720FE7E497F48FEF71CFE7E497F48BC
:1016F000FEF718FE002301227D497E4803F0BCFC62
:101700007D497E48FEF714FE002302227C497D4875
:1017100003F0B2FC002302227B497C4803F0ACFCBE
:10172000002302227A497B4803F0A6FC0023022210
:1017300079497A4803F0A0FC79497A48FEF7F8FD28
:1017400079497A48FEF7F4FD79497A48FEF7F0FDC9
:10175000012200237849794803F08EFC784B04A9D4
:101760000493784B08A80793774B0693FFF78FF8FD
:1017700008A910A8FFF78BF810200E95FEF79DFC26
:10178000044660B10146856010A8FFF71AFF129B5E
:10179000A268A3601292139BE268E36013926B4B02
:1017A00010200F936A4B0C940E93FEF786FC0446B0
:1017B000A0B1002383600E9B33B102220CA998478D
:1017C0000F9BE3600E9BA360624B4FF48050CDE90A
:1017D00002340021604A02AB03F09EFB0CA8FFF725
:1017E0000DF810A8FFF70AF85C4C08A8FFF706F8F8
:1017F00004A8FFF703F803F057FCA06830B10023FA
:1018000002211A46CDE9003303F0C6F9A06840B1C1
:1018100000236FF000421946CDE900231A4603F079
:10182000BBF94FF4FA6005F081FA354B1B685B0198
:1018300007D505F0BFFF4A4915B0BDE8304004F0B8
:101840006CB815B030BD00BF1C020020880100201C
:101850007802002099AF08087C0100204C0100208C
:10186000380200205C0100207C0200208901080869
:1018700019B50808F90108085502080841020808C6
:1018800088B50808F3700808910B08087AB40808AE
:101890003901080881B408084D0108088BB408080C
:1018A0006101080895B40808750108089FB4080884
:1018B00015070808A9B408089D010808B1B408086C
:1018C00081030808BAB4080815120808C2B4080849
:1018D0006D3F0808CCB40808F53F0808D8B40808DC
:1018E000BD400808E5B4080845410808F0B40808F8
:1018F00011000020FCB408080000002006B508080C
:101900001400002012B50808F40100201FB50808D3
:10191000EC0100202AB50808F001002035B50808C0
:101920000C00002040B50808040000204CB5080851
:101930000800002058B508081000002064B5080809
:10194000C90708088502080871020808A7020808E4
:10195000AD080808010008001101080898020020DD
:1019600070B508088842F8B504460D46164616D9E3
:10197000904215D2A2F11406751AA1F114072C4455
:10198000B7421CD02CB13146204603F075FE337CA3
:101990002374304603F0F6FD143E143CF0E70ED0FD
:1019A000B5420CD02CB12946204603F065FE2B7CB5
:1019B0002374284603F0E6FD14351434F0E7F8BD2F
:1019C00000232DE9F041C0E9003383604F680446ED
:1019D0009F420E4624DD4FF0140808FB07F003F089
:1019E000A3FB0546E0B1D4E9001208FB0212FFF7A1
:1019F000B9FF206803F0A0FB2560A760D6E900735B
:101A000008FB0378B84509D03946284603F04EFE56
:101A10003B7C143505F8043C1437F3E773686360C6
:101A20002046BDE8F08100002DE9F0414FF00108AB
:101A30000024754B90B083F80080CDE903440594F1
:101A400005F0B8FE714D06462F4603A906A8FFF71C
:101A5000B7FF06A909A8FFF7B3FF6D4B09A947F81F
:101A6000043B0CA8FFF7ACFF0CAA1E21384604F07B
:101A700034FD0CA8FFF792FD09A8FFF78FFD654B19
:101A80002E622B6006A8FFF789FD634B634E2B6027
:101A900005F090FE4FF4165105F06EFE04F0E0F9EB
:101AA000294604F0F9FB03A8FFF778FD32465C49AC
:101AB000284606F0F3FCFEF7DFFE2146404603F021
:101AC00033FA584D584BC5E90044AB60022003F08F
:101AD0000BFA2846554D3246554906F0DFFC28469C
:101AE000544900F0F1FF32465349284606F0D6FC2F
:101AF000524D534B4FF4616200932846002300F08F
:101B00000BFE28464F4D32464F4906F0C7FC28468B
:101B100000F068FB28464D4D32464D4906F0BEFCAC
:101B2000022228464B4900F087F928464A4D3246A2
:101B30004A4906F0B3FC4FF461622846484900F078
:101B4000BFF82846474D3246474906F0A7FC4EF6F7
:101B50006021284600F00AFD324644492846444D9B
:101B600006F09CFC434801F0E3F82146284605F0C6
:101B70000DF92846404D3246404906F08FFC284674
:101B800001F094F8324628463D493E4D06F086FC69
:101B90002346162203213C4802F0F7FB28463B4926
:101BA00003F03AFD32462846394906F077FC394BB6
:101BB000394D0C93394B05F10C010F93384B0CA8A0
:101BC0000E93384B2C712B60AC606C61FFF7F9FC05
:101BD0006A690E9B0E926B61AA690F9B3221AB6101
:101BE0000F922B46304ACDE9004405F1080002F07F
:101BF000BBFF0CA8FEF702FE324628462B4910B068
:101C0000BDE8F04106F04ABC40010020F801002088
:101C1000D4B50808D4BB0808ECB50808300100208A
:101C200039030808340100200000FFFF7C01002078
:101C3000AD01080892B50808D1290808380200202B
:101C4000A1B508085C010020852608087C02002058
:101C5000A5210808AEB508084C010020A51D0808FC
:101C600000007041B4020020B11C0808A12408083B
:101C7000E4010020780200201C020020AB6D08085F
:101C8000052C08082802002088010020B0B60808AA
:101C900085550808F900080898020020A3020808E2
:101CA0008F020808C0B50808BD0108081108080817
:101CB000704710B50446102106F0F5FB204610BD14
:101CC0008260002210B5024C41600460C26010BD09
:101CD00004B6080837B50446104805F0C9F80021D5
:101CE000054608F0D9FEB0B92946606808F0FCFE48
:101CF00088B10B4803F0C5FA68B9284608F014FF0C
:101D000001460D2000F06CFF064B012168461B6860
:101D1000A26803F0A5FB03B030BD00BFD4020020D1
:101D2000DC020020D0020020FFF7D4BF10B504462B
:101D300002F0C2FEE368C01A4EF65F23984207D94C
:101D400002F0BAFEE0602046BDE81040FFF7C2BFD7
:101D500010BD000070B500240C4B0D4D1C602146D9
:101D60000C4E284605F012F828460B4D32460B491A
:101D700006F094FB2146284603F035FA3246284601
:101D8000BDE87040064906F089BB00BFD0020020C4
:101D9000D402002030010020DC020020AB6D0808D6
:101DA00005520808704710B504461C2106F07BFB5D
:101DB000204610BD10B50446086808F09FFFE0609B
:101DC000002010BD7FB50268536890685E1000EB7C
:101DD0006305DB07146848BF8359684648BF1C5930
:101DE00003F04AFC69462846A0470446684603F0CB
:101DF000C9FB204604B070BD012A38B5044602D1A3
:101E00000B68236003E0022A03D0032A0DD00020D0
:101E100038BD0C200D68FEF750F903460028F0D0BD
:101E200095E8070083E80700EBE700680028EED09C
:101E30000C2106F038FBEAE78260002210B5044C62
:101E4000C0E90322C0E90041C0E9052210BD00BF7E
:101E500094B608087FB50024054646680C20029415
:101E6000FEF72BF918B1184B8560C0E90034174B09
:101E700000900393164B10200293FEF71EF90446C0
:101E800078B100238360029B33B1022269469847F0
:101E9000039BE360029BA360324621460D4805F098
:101EA0004AF9029B1BB16946032208469847A86875
:101EB000002806DB022180B204B0BDE8704006F0C5
:101EC000A5B904B070BD00BFB51D0808C51D080840
:101ED000F91D0808F3700808F0B505468DB00846EE
:101EE000834908F069FF0024814F07AE48B1052CF3
:101EF00009D046F8040B39460020013408F05CFF95
:101F0000F4E7002C4AD04FF4FA7004F00FFF079E5C
:101F10007849304608F0DFFE40B900210A2000F081
:101F20005FFE0DB0BDE8F04003F08BBA7249304659
:101F300008F0D1FE014660B9704C2368002BECD04C
:101F4000112000F04DFE20680DB0BDE8F04000F01B
:101F50008FB96B49304608F0BEFE014600BB102029
:101F600000F03EFE674B684A1B7868498DF80030E8
:101F700005A83C2305F0F0F9069C7CB16368013BA1
:101F800063605BB9236820469B689847A368013B60
:101F9000A3601BB923682046DB6898470DB0F0BDED
:101FA00030465B4908F097FE074648B901461320C2
:101FB00000F016FE38460DB0BDE8F04003F044BA1C
:101FC0005449304608F087FE014618B90B2000F04E
:101FD00007FEFEE73046504908F07DFE002864D138
:101FE000012C62D0022C12D11E2421460C2000F0BC
:101FF000F7FD089E4949304608F06DFE70B9484B20
:10200000224601211B6805A803F02AFAC6E70998B1
:1020100008F0D6FD04460028E6D0E6E73046414900
:1020200008F059FE08B9404BEAE730463F4908F04E
:1020300052FE0746D8B9AB68002BAFDB384AADF883
:10204000123012680223CDE9014201228DF81130CD
:102050000DF1120100920DF1110305A803F03CFAF5
:10206000394615200DB0BDE8F04000F0B9BD30464E
:102070002F4908F030FE064600288FD1AB68002BB0
:102080008CDB294AADF8123012680223CDE90142F7
:1020900001228DF811300DF1120100920DF11103A2
:1020A00005A803F019FA3146DBE73046214908F06C
:1020B00012FE00287FF472AF012C3FF46FAF089E30
:1020C0001D49304608F007FE48B9022C04D0099893
:1020D00008F076FD686161E71E236B615EE73046BC
:1020E000124908F0F8FD00287FF458AFF2E700BF6E
:1020F00082BB08080CB6080812B60808F0020020D7
:102100001DB60808E8020020B0B608082AB608087C
:1021100043B608084CB6080858B608085EB6080862
:10212000E002002063B60808E40200206FB6080849
:1021300074B6080880B6080885B6080810B5C168E6
:10214000044631B1FFF7C8FEE06802F0F5FF002356
:10215000E3606369002B14DD02F0AEFC4FF47A7289
:102160002369C01A6369534398420AD302F0A4FC5E
:10217000A16920610131A1611420BDE8104000F087
:102180002FBD10BD0022044B1A600123034A1360C7
:10219000034A1370704700BFE0020020E4020020F1
:1021A000E8020020704710B50446202106F07BF9B4
:1021B000204610BD0EB44FF0200C002300B58CB0AB
:1021C0000DAA52F8041BCDE904C3CDE90012039215
:1021D000016804AA1E2002F067FE0CB05DF804EB53
:1021E00003B0704747F230520B4B42F2107103605C
:1021F0000A4B10B5C0E901230023094AC0E90313C3
:102200001060084A08491468C0E906338C4218BFB8
:10221000C2E90013838210BD34B7080820BF020052
:10222000F00200200040024094C54E2E704700008E
:10223000002110B50C4BC2680446084602F0E4FDCC
:102240000146072000F0CCFC0021E268074B08465D
:1022500002F0DAFD04460146082000F0C1FCA01C93
:1022600018BF012010BD00BF9CB60808B1B6080811
:1022700030B51B4985B01B48FFF79CFF00210420A7
:1022800000F0AEFC002301A8CDE90133ADF80C301D
:1022900004F062FF02F010FC43F69725044602F0BA
:1022A0000BFF40B102F008FC001BA84203D86420D9
:1022B00004F03CFDF3E7002147F2305208460A4B98
:1022C00002F0A2FD4FF47A7004F030FD074B0A22B1
:1022D00001211B6801A803F0C3F805B030BD00BFA1
:1022E000CEB6080804040020DEB60808EC02002080
:1022F00037B50022454D04461146686802F074FE69
:10230000237D014683420DD02075012000F068FC3A
:10231000217D3F4A3F4B4048002908BF1A463F49AC
:10232000FFF748FF02F0C8FE637D014683422BD0D1
:102330006075022000F054FC617D364B344A36480B
:10234000002908BF1A463649FFF734FF637DC3B141
:102350000022344B5A6000226868114602F064FE85
:1023600068B1A569002D3CD102F0A6FB2946A06109
:10237000032000F035FC2C492748FFF71BFF03B072
:1023800030BD02F099FBE061637D002BE3D1A368CF
:10239000002BE0D002F090FBE369C01AA3689842DA
:1023A000D9D3237D13B12046FFF742FF1D4A53685E
:1023B00001335360226962B1012B0AD90021162032
:1023C00000F00EFC194B012168461B68226903F0DE
:1023D00047F80021062000F003FC2046FFF748FFE5
:1023E000B9E76368002BCAD002F066FBA369C01A84
:1023F00063689842C3D30021052000F0F1FB20461A
:1024000003B0BDE83040FFF733BF00BF50080020E5
:10241000EBB60808EEB6080804040020F3B6080876
:10242000FFB608080040024013B70808EC0200207D
:102430000022014B1A607047EC020020012310B506
:1024400003748368044643B1C068984701230020A1
:102450006374BDE8104002F0C7BB00680028F5D0E7
:1024600083680BB906F025F8C368EEE708B50021CC
:10247000092000F0B5FBBDE8084002F0E2BF38B526
:102480000568044635B12846FEF7B8F910212846FC
:1024900006F009F82046BDE83840142106F003B8DC
:1024A00010B5114B0446036083699BB1586802F074
:1024B00033FB78B9A3695A7C12B9586802F03CFB27
:1024C000A369586802F040FB0023A069A36108B12A
:1024D000FFF7D5FFA06908B1FFF7D1FF04F10800AD
:1024E000FEF78CF9204610BD4CB7080810B504461D
:1024F000FFF7D6FF20461C2105F0D5FF204610BD72
:102500002DE9F34104460E461420164990461F4615
:1025100005F0CBFF30B10025C0E90055C0E90255F8
:1025200005744574206098B1099BC0E90287314663
:10253000CDE900039DF820200B4B043002F0E4FAB3
:1025400030B923681B7C4BB9012002F09DFAF8E7F3
:1025500000232068236008B1FFF791FF204602B0F6
:10256000BDE8F08191BD08083D24080830B5164B40
:1025700087B00360154B04460293154B41600593E9
:10258000144B051D0493002302A9036102220830A5
:10259000FDF77DFE059B4FF4E1626361049B0E49EC
:1025A0002361092304F11800CDE900322B460B4AC0
:1025B000FFF7A6FF02F080FA094B186002A8FEF7A9
:1025C0001DF9204607B030BD4CB708086D24080837
:1025D000A30208088F0208083CB708087983080896
:1025E000A8090020012380F82430704770B40368E4
:1025F00009685C689D68661005EB6400E40748BFE5
:10260000AC591B68126848BFE35870BC1847012AD0
:1026100038B5044602D10B68236003E0022A03D0D8
:10262000032A0DD0002038BD0C200D68FDF745FDB4
:1026300003460028F0D095E8070083E80700EBE7A1
:1026400000680028EED00C2105F02DFFEAE70346D4
:1026500010B442681B68541001EB6200D20748BFF7
:102660000A5910BC48BFD3581847012A02D101604B
:1026700000207047022A04BFD1E90023C0E90023EB
:10268000F6E7000010B50446054B40F82C3BFEF77A
:10269000B5F804F1100002F075FF204610BD00BF30
:1026A00080B7080810B50446FFF7ECFF204640212C
:1026B00005F0F9FE204610BD10B50346D1E9000231
:1026C000002186B0049108B9D10705D5CDE90202F1
:1026D0000F4A05920F4A04926C4602AA92E8030040
:1026E00084E8030093E8030082E8030094E8030011
:1026F00083E8030004999868996004900599D86864
:10270000D96005901046FEF779F806B010BD00BFFD
:102710004F2608086B26080830B5194900F1100546
:1027200089B00446C0E9022301601649284602F038
:1027300073FF0023144A2362C4E90B2384F8243076
:10274000A362124B04A8A363114B636302F0BCFCA9
:1027500004A9684602F0AAFF68460E4902F0EDFFA0
:102760000C9902F0EAFF0146284602F090FF684605
:1027700002F008FF04A802F005FF204609B030BDB2
:1027800080B70808B0B608080D2808084F260808C2
:102790006B26080854B7080810B5436B01460BB9FF
:1027A00005F087FE836BBDE810402C301847000011
:1027B0001FB50023104A044680F8243002A92C30AB
:1027C000CDE90223FFF778FF02F076F92269206253
:1027D0000A490B48FFF7EEFC0A4B0B4A1B782169AC
:1027E0008DF8003002A83C2304F0B6FD03A8FEF7E4
:1027F0007FF804B010BD00BF6928080856B7080864
:1028000004040020F4020020B0B60808F8B504461D
:1028100002F052F9236AC01A47F22F53984220D986
:1028200002F04AF9206204F049FAD0B102F044FC07
:10283000B8B104F060FAD4E902760A4BC517D3E9BF
:102840000221821A65EB0101BA4271EB060208DB34
:10285000C3E9020500232046A362BDE8F840FFF764
:10286000A7BFF8BD084002401FB590F824300446C9
:1028700053B1234B02A9029300232C300393FFF79B
:102880001BFF02F019F9206202F016F9236AC01A40
:102890004AF6C773984230D900210E2000F0A0F903
:1028A000A36A0133012BA36205DC204604B0BDE816
:1028B0001040FFF77DBF00210F2000F091F9114B70
:1028C000114A1B7811498DF8003002A83C2304F00E
:1028D00043FD03A8FEF70CF84FF4FA6004F026FA63
:1028E0000B4B186820B104B0BDE81040FFF7C0BC26
:1028F00004B0BDE8104002F0A4BD04B010BD00BF9C
:102900000D280808F4020020B0B608082AB6080806
:10291000F002002038B5002383608B6804460D4622
:102920002BB102229847EB68E360AB68A3602046B6
:1029300038BD000070B51D4B1D4A19680446914210
:102940008AB004D000200021C3E902011A600025EA
:102950000C2026690495FDF7B0FB18B1154B846077
:10296000C0E90035144B02900593144B02A906A848
:102970000493FFF7CFFF089B7BB11020FDF79DFB71
:10298000044650B106A9FFF7C5FF00232246304692
:10299000CDE900330A4902F0A7FB06A8FDF72EFF98
:1029A00002A8FDF72BFF0AB070BD00BF084002402F
:1029B000FE49684AE5250808ED2508080F2608089D
:1029C0001B7108080122014B1A707047F4020020A5
:1029D000704710B504460C2105F065FD204610BD7A
:1029E0002DE9F0474FF00008304D074646462C468B
:1029F000DFF8BCA0D4B06368B3421BD96B69524600
:102A000002932B6940210193EB6804A80093AB6803
:102A100002F0AAFB00EB0809B9F1FF0F05F1100560
:102A200008D814AB03EB080004A908F05EF9C84607
:102A30000136E0E76268921B6260002A2FD01D49D0
:102A40001D48FFF7B7FB4FF40272636804EB0611F1
:102A50005A431A48083108F0D7F8194B79681B789F
:102A600014AA8DF8003004A83C2304F075FC059CE2
:102A70007CB16368013B63605BB9236820469B6857
:102A80009847A368013BA3601BB923682046DB6815
:102A9000984702F011F8B86054B0BDE8F0873246AC
:102AA00008490548FFF786FBD7E700BF18400240FA
:102AB00088B7080897B7080804040020204002409F
:102AC000F5020020C5B70808034AC0E9002100222A
:102AD0008260024A1060704740B80808F80200207F
:102AE00010B50A4B04465B687BB102F0E5FA60B1B1
:102AF00001F0E2FFA368C01A40F2F133984204D912
:102B00002046BDE81040FFF76BBF10BD18400240E3
:102B10002DE9F041174C0F46636890461F2B0FD9E3
:102B200015491648FFF746FB4FF40272636804F13B
:102B30001801013B5A4304F10800636008F064F88F
:102B40006668751C656004F0D6F804EB0616B06084
:102B500001F0B2FF2B0104EB0515F060E7503A4697
:102B6000434607490548C5F80480FFF723FBBDE845
:102B7000F08100BF18400240D4B7080804040020C8
:102B8000E9B7080873B5124D124E2B680446B342DC
:102B900002D16B68202B04D90F491048FFF70AFBBC
:102BA0002E60002220461146FFF7B2FF002201A846
:102BB0001146019201F0A0FF019A32B11221204684
:102BC00002B0BDE87040FFF7A3BF02B070BD00BF08
:102BD0001840024016D4395C0AB8080804040020E2
:102BE0000A4604490346086810B11946FFF790BF2A
:102BF000704700BFF80200200122014B1A70704795
:102C0000F502002010B50446034B40F8043B02F0E7
:102C1000F9FA204610BD00BF50B8080810B50446A8
:102C2000FFF7F0FF20460C2105F03DFC204610BDCB
:102C300010B5044601F040FFA368C01A632894BF92
:102C400000230123637101F037FFA06010BD10B4B1
:102C500003685A689968541001EB6200D20748BFB4
:102C60000A591B6810BC48BFD3581847012A38B509
:102C7000044602D10B68236003E0022A03D0032A32
:102C80000DD0002038BD0C200D68FDF716FA034664
:102C90000028F0D095E8070083E80700EBE700681C
:102CA0000028EED00C2105F0FEFBEAE7064B10B53C
:102CB0000021044640F8043B02F095FA01236371B9
:102CC00000232046A36010BD50B8080830B5002589
:102CD00087B004460C200495FDF7EFF918B10D4BB1
:102CE0008460C0E900350C4B029005930B4B022227
:102CF000049300232E20009302A94FF0FF3304F029
:102D00000FFE049B1BB102A903220846984707B097
:102D100030BD00BF312C08084F2C08086D2C080866
:102D200008B5043002F0B4FAC0F3800008BD704763
:102D30007047000010B5074C1821204600F0AFFB8B
:102D40002046092100F0C0FA2046BDE810400121CC
:102D500000F0A2BAFC020020014B5869704700BF86
:102D600028030020014B9869704700BF280300200A
:102D7000014BD869704700BF28030020014B186A37
:102D8000704700BF2803002008B5024BD86B07F03E
:102D900097FC08BD28030020014BD86B704700BF8B
:102DA00028030020014B186C704700BF2803002047
:102DB000014B586C704700BF28030020014B986CF2
:102DC000704700BF28030020014BD86C704700BF3C
:102DD00028030020014B586D704700BF28030020D6
:102DE000014B986D704700BF28030020014B186D00
:102DF000704700BF28030020014B5878704700BF80
:102E000028030020014B9878704700BF280300205A
:102E1000014BD878704700BF28030020014B986809
:102E2000704700BF28030020014BD888704700BFBF
:102E300028030020014B1879704700BF28030020A9
:102E4000014B5879704700BF28030020014B93F8CD
:102E50003B00704728030020014B93F83A0070476D
:102E600028030020014BD86A704700BF28030020C8
:102E7000014B586A704700BF28030020014B986A35
:102E8000704700BF28030020F7B50A4D0446E869E3
:102E900006F0C0FF0646286A0F4606F0BBFF324622
:102EA000CDE900013B462046034902F0D5FC20460F
:102EB00003B0F0BD2803002058B8080838B5012138
:102EC000062005F0A3F90021062005F0B0F904F072
:102ED0001FFE4FF4165104F015FE0A2003F026FFE2
:102EE0000F4D284600F0FAFF044630B904F062FCAA
:102EF000BDE838400B4902F010BD012CF1D004F0C0
:102F000059FC094902F0F6FC04F054FC0546214640
:102F10000A2202F00CFD2846BDE8384002F0F1BC60
:102F20002803002071B808085EB80808014B18781B
:102F3000704700BF28030020014B93F83900704709
:102F40002803002038B50C24064D04F0E1FD036889
:102F500015F8011B9B68013C984714F0FF04F4D15D
:102F6000012038BD2400002038B50C24064D04F0A3
:102F7000CFFD036815F8011B9B68013C984714F0CE
:102F8000FF04F4D1012038BD18000020014800F0F2
:102F90006DBE00BF28030020014800F033BF00BF12
:102FA00028030020014800F027BF00BF28030020AD
:102FB00010B5034C204600F099F9B4F9060010BD95
:102FC000FC02002010B5034C204600F08FF9B4F944
:102FD000080010BDFC02002010B5034C204600F094
:102FE00085F9B4F90A0010BDFC02002010B50B4CA5
:102FF000204600F07BF9B4F90820B4F906305243BA
:1030000003FB0323B4F90A0000FB003006F0F0FED6
:1030100005F086FB07F006FA10BD00BFFC02002099
:1030200010B504462C2105F03EFA204610BD0000E4
:1030300010B5074C074800F0C6FA0C21204600F0F6
:103040002FF82046BDE81040034A044905F026BA8F
:10305000FC02002028030020300100202F2D08084A
:10306000704710B50446806808B101F0A5FD204600
:1030700010BD000038B50C4605462022002104F1A1
:10308000080007F0DBFD0B222046044907F06DFE27
:103090000123E360AA69C4E9042338BD7DB80808A8
:1030A000064A417702604FF0FF328261C2834FF6D9
:1030B000FF7280F820201122426270478CB8080805
:1030C00038B50C4D2978BFF35B8F11F001040FD197
:1030D0002846FDF703F858B12146074802F0DFF80B
:1030E0002846FDF700F8054A0549034805F0D6F9DA
:1030F000014838BD8C0300209003002030010020DF
:103100006330080808B5FFF7DBFF012102F0E5F89E
:10311000FFF7D6FF0549012202F014F9FFF7D0FFAF
:10312000BDE80840002102F0E7B800BF20A1070079
:103130002DE9F04190F92030054601330F4606D1C4
:10314000FFF7BEFF3946BDE8F04102F027B9002481
:1031500007264FF0010895F92000002180B205F004
:1031600066F895F91E0008FA06F1394080B205F0BC
:103170005EF895F92000012180B205F058F895F924
:103180001F00640080B2E4B205F06AF808B144F0B0
:103190000104013EDFD22046BDE8F08170B590F910
:1031A0001D30044601330E46154616D105F026F9AA
:1031B000217F04F059FD05F021F9036831469B6831
:1031C000984705F01BF9036829469B68984705F066
:1031D00015F9BDE8704004F06ABD90F92030013364
:1031E00001D1FFF78FFF94F91D00002180B205F097
:1031F0001EF806F07F012046FFF79AFF2946204679
:10320000FFF796FF94F91D000121BDE8704080B2E0
:1032100005F00DB838B590F91D30044601330D4660
:103220001DD105F0EBF894F91C1004F021FD05F018
:10323000E5F8036829469B68984705F0DFF804F035
:1032400036FD05F0DBF80122217F04F00AFD05F0D0
:10325000D5F803685B699847C5B2284638BD90F930
:103260002030013301D1FFF74DFF94F91D000021FB
:1032700080B204F0DCFF45F080012046FFF758FFE4
:1032800000212046FFF754FF054694F91D00012157
:1032900080B204F0CCFFE0E738B50D4623210446A8
:1032A000FFF7B8FF20F0300242EA05122046BDE8E1
:1032B00038402321D2B2FFF771BF232108B5FFF7B1
:1032C000A9FFC0F3011008BD38B50D462021044602
:1032D000FFF7A0FF00F00F0242EA05122046BDE80A
:1032E00038402021D2B2FFF759BF000038B590F91D
:1032F0001D300446013370D105F080F894F91C109C
:1033000004F0B6FC05F07AF80368A8219B6898479A
:1033100005F074F804F0CBFC05F070F80622217F6C
:1033200004F09FFC05F06AF803684F4D5B6998470D
:10333000E08005F063F803685B699847E38805EA75
:1033400000201843E08005F059F803685B6998474E
:10335000208105F053F803685B699847238905EAE3
:1033600000201843208105F049F803685B699847FD
:10337000608105F043F803685B69984705EA00251A
:103380006089054365812046FFF797FF032862D0D7
:10339000022863D0012864D0002843F6FC7018BFCF
:1033A000012007F091F90546B4F9060007F08CF901
:1033B000294607F091FAE060B4F9080007F084F9B3
:1033C000294607F089FA2061B4F90A0007F07CF970
:1033D000294607F081FA606138BD90F92030013349
:1033E00001D1FFF78FFE94F91D00002180B204F097
:1033F0001EFFE8212046FFF79BFEFF212046FFF736
:1034000097FEFF21E0802046FFF792FEE388FF2130
:1034100043EA0023E3802046FFF78AFEFF21208154
:103420002046FFF785FE2389FF2143EA00232381FD
:103430002046FFF77DFEFF2160812046FFF778FEE2
:103440006389012143EA002394F91D00638180B25E
:1034500004F0EDFE97E74FF40060A2E74FF48050D0
:103460009FE741F6FE709CE700FFFF0070B50C4639
:10347000054620220021201D07F0E0FB2423012621
:103480002360AB6928466360A660FFF72FFFEB68F7
:10349000304663612B69A3616B69E36170BD10B550
:1034A0000446017790F91D00421C23D104F0A6FFC9
:1034B00004F0A8FB0F212046FFF7ACFE33283DD1D6
:1034C000072220212046FFF769FE07212046FFF74B
:1034D000FBFE882223212046FFF760FE10222221D6
:1034E0002046FFF75BFE204680221F21FFF756FE95
:1034F000012010BD012180B204F099FE94F91D0055
:10350000012180B204F082FE94F92000431C04D112
:10351000FFF7D6FD01F0D2FECCE7012180B204F026
:1035200075FE94F91E00012180B204F06FFE94F93B
:103530001F00002180B204F069FEBBE70020D8E73D
:103540008378C27803EB02224378007803EB0223EE
:1035500000EB0320704770B505460C46164642B98D
:103560000368C9B29B6898472846BDE8704002F0DE
:10357000C8B900290ADA0A2A08D12D2102F0BEF9B9
:1035800061422846F2B202F0D2F9EDE72146F8E7AF
:10359000002200234261C0E90033C0E90233C0E9E0
:1035A0000E33C0E91033C0E91233C0E91433C0E967
:1035B000163303828261C261026242628262C26227
:1035C00002634263704708B5FFF7E2FF08BD0020C1
:1035D00030B5107018704D7908794C1C00EB05203F
:1035E0000531084414F8015F1178A0422944C9B29A
:1035F00011701D7829441970F4D130BD2DE9F743BD
:103600006F4E814635780C4690461F46032D24D8D0
:10361000DFE805F0024B839B6A4D2B782BB101F05C
:103620004BFA694B186000232B7004F071FA0368A1
:103630001B69984768B104F06BFA03685B699847A7
:10364000C0B2B52820700AD10123604A33701360DC
:103650002B7001F031FA34786CB1012551E004F09F
:10366000A9F85B4902F046F904F0A4F81022217889
:1036700002F05DF9EDE7544B1B68C01A554B1B680F
:103680009842EAD904F096F8534902F046F94FF40B
:10369000FA6003F04BFB0121062004F0C8FD4FF453
:1036A000FA6003F043FBA047D7E704F031FA036860
:1036B000DFF818911B69984750B104F029FA0368A4
:1036C0005B699847D9F80030E0540133C9F80030FD
:1036D000D9F80030062BC0D16279237903EB02239D
:1036E000F82B3B6011DD04F065F83C4902F002F96B
:1036F00004F060F80A223968FFF72DFF0023022545
:103700003370284603B0BDE8F08363885BBA9BB290
:10371000C8F8003002233370F3E704F0F9F90368C6
:103720002A4D1B69984740B104F0F2F903685B69C0
:1037300098472B68E05401332B603B682A680633B6
:1037400093428AD10323337087E704F0E1F90368D9
:10375000DFF878801B69984750B104F0D9F9036805
:103760005B699847D8F80030E0540133C8F800305E
:103770003F68D8F8003008379F427FF46EAF4FF0B3
:10378000000821460DF107030DF1060248463C44AE
:1037900086F80080FFF71BFF14F8022C9DF8063016
:1037A0009A4205D114F8012C9DF807309A4205D0B1
:1037B00004F000F80A4902F0B0F8A2E74546A0E795
:1037C000A003002030000020A40300209C03002060
:1037D000A0B80808B4000020A2B80808E2B8080899
:1037E000FAB808080A4610B44B790C7904EB0324A4
:1037F000E31D063422440B4410BCFFF7E8BE000072
:10380000F8B50D4600264B790C790C4F04EB0324D8
:10381000073403F0CFFFA95D102202F088F80136CB
:1038200003F0C8FF394602F065F8B442F1DA03F05C
:10383000C1FFBDE8F840024902F06FB814B90808AA
:1038400082BB0808CB78887800EB03204B7803EB29
:103850000023087800EB0320704700000000000000
:1038600038B5044601F10A00FFF76AFE0D4606F07E
:103870002BFF06F0CFFA1CA3D3E9002306F022FBAE
:1038800006F018FE2062A06105F10E00FFF758FE59
:1038900006F01AFF06F0BEFA13A3D3E9002306F0E0
:1038A00011FB06F007FEE061606105F11200FFF711
:1038B00047FE06F009FF05F1160160622046FFF79A
:1038C000C1FF06F0FDFE05F11A01A0622046FFF7D8
:1038D000B9FF05F11E01E0632046FFF7B3FF206446
:1038E00038BD00BFAFF3008048AFBC9AF2D77A3E34
:1038F000F8B50D4606310446FFF7A4FFE060EB7E05
:10390000DB0740F1AF806B7C13F0010200F0AB806D
:1039100001222274E97AAA7A02EB0122E2802A7B50
:1039200022716A7B627113F0020300F09E80012312
:103930006374AB7B6370EB7BA3702B7CE37005F14E
:103940001600FFF7FDFD0028CABF4FF47A73002070
:1039500090FBF3F0A060AB7E05F11E0084F83A30D6
:10396000023B012B8CBF0023012384F839306B7F8D
:1039700005F1460784F83B30FFF7E2FD06F0A4FEB0
:1039800006F048FA3AA3D3E9002306F09BFA06F0C2
:1039900091FD2062A06105F12200FFF7D1FD06F044
:1039A00093FE06F037FA32A3D3E9002306F08AFA31
:1039B00006F080FDE061606105F12600FFF7C0FDC3
:1039C00006F082FE05F12A0160622046FFF73AFF09
:1039D00006F076FE05F12E01A0622046FFF732FFC9
:1039E00005F13201E0632046FFF72CFF206405F16A
:1039F0003600FFF7A5FD606405F13A00FFF7A0FD72
:103A0000A06405F13E00FFF79BFDE06405F1420074
:103A1000FFF796FD064620653846FFF791FD06F054
:103A2000E7F915A3D3E9002306F076FB06F042FD83
:103A300020633846FFF784FD06F0DAF90EA3D3E9D8
:103A4000002306F069FB06F035FD6063EB7E30462F
:103A5000C3F3401384F8383006F036FE084906F008
:103A60003BFFE062F8BD22745DE7637467E700BF67
:103A700048AFBC9AF2D77A3E00000000006AF840D6
:103A800000007A4410B50C460E310246FFF7DAFE0C
:103A900004F1120150651046FFF7D4FE04F116013F
:103AA00090651046FFF7CEFED06510BD38B50025F5
:103AB00004F02EF803681B69984760B9092DF7DDFB
:103AC00004F026F80B4901F015FFBDE838404FF42B
:103AD000FA6003F02BB904F01BF803685B699847A0
:103AE000C4B20A2C08BF013503F064FE214601F080
:103AF00005FFDDE716B9080870B50C46154603F05A
:103B000059FE114901F0F6FE03F054FE002C064662
:103B100018DA2D2101F0F2FE61420A22304601F04E
:103B200006FF03F047FE094901F0E4FE03F042FE00
:103B3000044629460A2201F0FAFE2046BDE87040FC
:103B400001F0DFBE2146E8E731B9080847B90808A7
:103B500010B504462822002107F070F8204610BD59
:103B60000246002352F8230010B942F82310704790
:103B700001330A2BF6D14FF0FF307047002210B509
:103B8000031F243053F8044F8C4208BF1A6083424D
:103B9000F8D110BD40F209139A4270B506460D46A1
:103BA000144652D0B2F5857F17DAB2F5817F44D042
:103BB00040F207139A4244D003F0FCFD254901F07E
:103BC00099FE03F0F7FD21461022FFF7C4FC2946B9
:103BD0003046BDE87040FFF713BEB2F5A06F1CD0B1
:103BE00040F201539A42E7D1CC881B4864BAA4B290
:103BF0002146FFF7B5FF03F0DDFD184901F07AFE1D
:103C000003F0D8FD164901F075FE03F0D3FD2146FF
:103C1000BDE870401022FFF79EBCCC880E4864BA05
:103C2000A4B22146FFF7AAFF03F0C4FD0D4901F03D
:103C300061FE03F0BFFD0C49E5E7BDE87040FFF70A
:103C40000FBEBDE87040FFF753BEBDE87040FFF700
:103C500019BF00BF94B90808C003002050B9080874
:103C600062B9080872B9080884B90808F0B590F874
:103C700060300446C1B02BB3134D144E144F03F003
:103C800047FF03681B699847E0B12B466946204609
:103C90000E4AFFF7B3FC022805D103F08BFD0D4956
:103CA00001F03BFEEBE7032808D00028E7D1694686
:103CB00020462B683268FFF76DFFDFE703F07AFDDF
:103CC0003946EDE741B0F0BDAC030020A803002069
:103CD000C5B90808AAB90808031F243053F8042FEF
:103CE0008A4203D08342F9D10020704701207047F7
:103CF0002DE9F041284E074635780C46DFF89C80C8
:103D000085BB4988264849BA89B2C8F80010FFF730
:103D100035FF21463846FFF765FD03F04BFD21498D
:103D200001F0E8FD03F046FD1022D8F80010FFF77F
:103D300012FC38462146FFF763FD6379277907EBCC
:103D40000327073703F0E4FE0368615D9B680135D4
:103D50009847AF42F6DA00F0AFFE134B186001202F
:103D6000307012E0FFF782FFD8F800100C48FFF720
:103D7000B3FF044658B900F09FFE0B4B1B68C01AF6
:103D8000B0F5FA6F05D904203470BDE8F081002049
:103D9000E6E70120F9E700BFB8030020BC030020DC
:103DA000C0030020E3B90808B403002038B5044676
:103DB0000D4629462046FFF79BFF0128F9D002282F
:103DC00006D103F0F7FC0949BDE8384001F0A5BD74
:103DD000032805D0042807D103F0ECFC0449F3E7DD
:103DE00003F0E8FC0349EFE738BD00BFF4B9080869
:103DF0003BBA080816BA08080149FFF7D7BF00BF49
:103E0000AB00002009292DE9F04106460C46154675
:103E100005D803F0CFFC294901F07FFD0A24002DCD
:103E200043DC03F0C7FC264901F077FD012505FBC3
:103E300004F3DFF8908003EB8303C8F8003003F04D
:103E4000B9FC214901F056FD03F0B4FC07460A22F3
:103E5000214601F06CFD384601F053FD03F0AAFC49
:103E60001A4901F047FD03F0A5FC0A222946FFF795
:103E700072FB03F09FFC164901F03CFD03F09AFC35
:103E80000746D8F800100A2201F051FD384601F02B
:103E900038FD00230F4930468C71240ACC710D7215
:103EA0004B72BDE8F041FFF781BF7F2DBFDD03F00E
:103EB00081FC094901F031FD7F25B8E759BA0808AE
:103EC00087BA0808B4000020E1BA0808F8BA080860
:103ED00011BB08089D000020B3BA080870B51A4D40
:103EE00006462B68052B29D8DFE803F0030B191BC6
:103EF0001D1FFFF7DBFD012386F860302B680133BF
:103F00002B6012493046FFF7F3FE0128044603D028
:103F1000296860B9013129600124204670BD0C492F
:103F2000F0E70C49EEE70C49ECE70C49EAE70246FA
:103F30003046FFF7E1FD00232B60EEE7012300246C
:103F400003702C60E9E700BFB00300207900002077
:103F500092000020310000205D000020870000203A
:103F60000148FFF7F5BD00BFC0030020F0B50121F7
:103F700085B0064601F02FFCA0F13005072D044660
:103F80002CD81A49684601F047FB6946304601F0D3
:103F900010FC0746684601F0F5FA57B1ADB2284665
:103FA000032104F033F9284605B0BDE8F04004F0E1
:103FB00057B90F49684601F02FFB6946304601F0BA
:103FC000F8FB0546684601F0DDFA5DB1263CA4B277
:103FD0002046032104F01AF92046E5E74FF0FF30B0
:103FE00005B0F0BD6FF00100FAE700BF32B4080879
:103FF00028BB0808F0B5012185B0064601F0EBFBAF
:10400000A0F13004072C47D8072303223146684625
:1040100001F0F4FB6846254901F0A3FB054668461C
:1040200001F0B0FA3DBB062303223146684601F099
:10403000E5FB68461E4901F094FB0746684601F01F
:10404000A1FA67B31B49684601F0E6FA69463046B3
:1040500001F0AFFB0746684601F094FA6FB1A4B2D5
:104060000121204604F0D2F82046294604F0DFF86A
:10407000012005B0F0BD0125E4E70F49684601F0D5
:10408000CBFA3046694601F094FB0646684601F0DB
:1040900079FA3EB10A34E2E74FF0FF30E9E76FF01A
:1040A0000100E6E76FF00200E3E700BF2ABB080863
:1040B0002FBB080832B4080828BB0808F0B5012156
:1040C00085B0074601F087FBA0F13005072D0446B7
:1040D0002CD81A49684601F09FFA6946384601F023
:1040E00068FB0646684601F04DFA56B1ADB2284667
:1040F000002104F08BF8284605B0BDE8F04004F03C
:10410000C2B80F49684601F087FA6946384601F09F
:1041100050FB0546684601F035FA5DB1263CA4B275
:104120002046314604F072F82046E5E74FF0FF30B4
:1041300005B0F0BD6FF00100FAE700BF32B4080827
:1041400028BB0808F0B5012189B0054601F043FB02
:10415000A0F13006072E044640D8032229466846BF
:1041600001F06EFB1F4904A801F056FA284604A985
:1041700001F01FFB074604A801F004FA97B1B6B29C
:104180000121304604F042F8684601F060FB014628
:10419000304604F08FF80124684601F0F3F9204618
:1041A00009B0F0BD104904A801F036FA284604A968
:1041B00001F0FFFA054604A801F0E4F95DB1263CE0
:1041C000A4B20121204604F021F8684601F03FFB2B
:1041D00001462046DDE76FF00104DDE74FF0FF34D4
:1041E000DDE700BF32B4080828BB0808F8B590F82E
:1041F000293004468BB900F057FC41F27071A26B74
:10420000A063831A8B4209D96FF00103E362032391
:1042100084F82A30012384F82930F8BD94F82A5014
:1042200005F0FF01002D48D00129F6D1A3F13D0290
:104230005D2A70D894F836106E2B214491F8302006
:104240004FEA4202D2B281F8302008D994F83620E1
:10425000224492F8301041F0010182F83010226CB3
:10426000DBB2511C2164137094F8353003F0FF0564
:10427000002B49D1072384F8353094F836300133C8
:10428000DBB2052B84F83630C7D1012084F8290031
:1042900094F8301094F8317094F83220394494F83E
:1042A00033300A4494F834601344DBB2B34224D070
:1042B0004FF0FF33E362032311E0402B04D8A36BDC
:1042C0001A44121AA263A8E7226CD9B27E3B5D2B76
:1042D00002F101004FF0010304D82064117084F84A
:1042E0002A309AE784F829306FF00203E36203234F
:1042F000206484F82A3011708FE70223E56284F885
:104300002A3084F83C0088E794F83530013BDBB272
:1043100084F8353081E7092B94BF6FF005026FF008
:10432000030284F829100323E262D8E710B403687B
:104330005A689968541001EB6200D20748BF0A59C5
:104340001B6810BC48BFD3581847012A38B504462B
:1043500002D10B68236003E0022A03D0032A0DD0A8
:10436000002038BD0C200D68FBF7A7FE034600288F
:10437000F0D095E8070083E80700EBE70068002825
:10438000EED00C2104F08FF8EAE7C0E91112704773
:10439000032238B5002380F82A2001256FF0060299
:1043A0000446C364C262294680F8293080F8505020
:1043B000B0F8440003F02AFFB4F84400294603F0A3
:1043C00036FFBDE838404FF47A7002F0AFBC000011
:1043D00070B5044686B000F06FFB94F8503023B9F6
:1043E000E36CC31AB3F5FA6F67D394F82A30032B42
:1043F00003D094F82A30022B61D100231A4684F8A6
:104400005030E06484F82A30E2540133292BFBD188
:10441000072384F8302084F8312084F8322084F88F
:10442000332084F8342084F835300023012163657B
:10443000A365B4F8440084F83620246403F0E6FE53
:104440000021B4F8440003F0F2FEA36C0B2B2FD133
:10445000122002F06BFC0021B4F84400002503F0A8
:10446000D5FE00F021FBA0630C2084F82950B4F89D
:1044700044600495FBF721FE18B1124B8460C0E93B
:104480000035114B02900593104B02220493002338
:104490003046009302A94FF0FF3303F041FA049B2A
:1044A0001BB102A9032208469847012006B070BD3F
:1044B00040F2DC5000F0F0FACDE70220F6E76FF0B2
:1044C0000400F3E7ED4108082D4308084B430808B2
:1044D00010B5836C04460B2B2AD0153B012B31D829
:1044E00090F8303090F8310000EB032080B205F0F6
:1044F0007FFC1BA3D3E9002305F0E4FC05F0DAFF01
:1045000094F8323060651B0620D594F8323094F868
:10451000330003F07F0300EB0320404205F068FC0A
:104520000FA3D3E9002305F0CDFC05F0C3FF08E09D
:1045300090F8300006F0C4F8606594F8320006F098
:10454000BFF8A065002384F83C3010BD94F83230E9
:1045500094F8330000EB032080B2DFE7AFF3008074
:104560009A9999999999B93F90F82A30022B05D0D8
:1045700090F82A00033818BF0120704700207047C8
:1045800010B590F82930044633B1B0F8440003F078
:1045900081F9002384F8293010BD10B50446FFF7D7
:1045A000EFFFE06A10BD000010B50446FFF7E8FF1A
:1045B00094F82A30032B03D1E06A06F085F810BD89
:1045C00094F82A30022B07D194F83C3013B12046DE
:1045D000FFF77EFFA06DF2E70048F0E70000A0C003
:1045E00010B50446FFF7CCFF94F82A30032B03D113
:1045F000E06A06F069F810BD94F82A30022B07D162
:1046000094F83C3013B12046FFF762FF606DF2E78B
:104610000048F0E70000A0C010B50446FFF7B0FF67
:1046200094F82A30032B03D1E06A06F04DF810BD50
:1046300094F82A30022B11D194F83C3013B1204663
:10464000FFF746FF0649A06D06F092F8054906F00F
:1046500043F94FF0844105F083FFE8E70248E6E7BD
:10466000000010410000A0400000A0C000000000B9
:1046700010B50446FFF784FF94F82A30032B03D1CA
:10468000E06A06F021F810BD94F82A30022B10D110
:1046900094F83C3013B12046FFF71AFFA06D05F0E7
:1046A000B9FB05A3D3E9002305F056FA05F002FF94
:1046B000E9E70348E7E700BF666666666612714091
:1046C0000000A0C0000000002DE9F8430446FFF7F9
:1046D00057FF94F82A30032B04D1E06A05F088FBD9
:1046E000BDE8F88394F82A30022B46D194F83C3088
:1046F00013B12046FFF7ECFEA06D05F08BFB0646DC
:10470000606D0F4605F086FB0022214B05F004FD8D
:1047100003F0D2FE1AA3D3E9002304460D46304627
:10472000394605F0CFFB18A3D3E90023804689461C
:104730003046394605F010FA02460B4640464946D7
:1047400005F0EAFC22462B4605F006FA0EA3D3E953
:10475000002306460F4605F0B5FB324604460D46DB
:1047600007A1D1E900013B4605F0F4F902460B46EA
:104770002046294605F0D0FCB2E700200549AFE706
:104780004C378941604531406666666666B66D4065
:1047900000005940000014C02DE9F84F0446FFF70F
:1047A000EFFE94F82A30032B04D1E06A05F020FBD9
:1047B000BDE8F88F94F82A30022B40F0A98094F8D5
:1047C0003C3013B12046FFF783FEA06D05F022FBBD
:1047D00051A3D3E9002305F0BFF902460B4650A1CF
:1047E000D1E9000105F098FC0022634B06460F4614
:1047F00005F0B0F94CA3D3E9002382468B4605F0BF
:1048000061FB804689463046394603F08FFE48A357
:10481000D3E9002305F056FB42464B4605F09CF9D0
:104820003246804689463B460020534905F074FCD9
:1048300002460B460020504905F08CF93EA3D3E90F
:10484000002305F03FFB02460B4600204B4903F0D6
:10485000A7FE0022484B05F07DF939A3D3E90023D8
:1048600005F030FB42464B4605F076F936A3D3E916
:10487000002306460F465046594605F023FB0246E4
:104880000B4600203D4903F08BFE00223A4B05F019
:1048900061F92FA3D3E9002305F014FB32463B4610
:1048A00005F05AF92CA3D3E9002305F055F90022AD
:1048B000334B05F04FF902460B4600202F4903F019
:1048C0006FFE06460F46606D05F0A4FA32463B4681
:1048D00005F0F8FA22A3D3E9002305F01DFC03F04C
:1048E000EBFD21A3D3E9002306460F4605F0EAFAC3
:1048F000324604460D461EA1D1E900013B4605F0B3
:1049000029F902460B462046294605F005FC4FE7EB
:1049100000201C494CE700BF66666666661271405F
:104920006666666666527740B1C403CAA69C1FC01D
:10493000CDAFE600C11C1440E3A59BC420B02640C7
:10494000B13D4236248B82BE037D224F92EE0BC0D6
:10495000630333F0EDA7803F1B549E40B40B084027
:10496000CFA0A17F828BE33F5C8FC2F5283C6E40D5
:10497000022B8716D98E31400000F03F0000244002
:1049800000000840000014C0F8B50D460446FFF7CB
:104990001FFD00F091F806460E4F2046FFF7E4FD9C
:1049A00058B12DB900F088F8386000F075FBF4E7D5
:1049B00000F082F8831BAB42F4D32046FFF7D4FD0E
:1049C00010B16FF00203E3622046FFF7D9FDE06A01
:1049D000F8BD00BFA809002008B5024B1B685B6842
:1049E000019308BDB001040808B5024B1B689B6821
:1049F000019308BDB001040808B5024B1B68DB68D1
:104A0000019308BDB001040808B5024B1B681B697F
:104A1000019308BDB001040808B5024B1B685B692F
:104A2000019308BDB001040808B5024B1B689B69DF
:104A3000019308BDB001040808B5024B1B68DB698F
:104A4000019308BDB001040808B5024B1B689B6ABE
:104A5000019308BDB001040808B5024B1B681B6B2D
:104A6000019308BDB001040808B5024B1B689B6F99
:104A7000019308BDB001040808B5024B1B685B68D0
:104A8000019308BD9C01040808B5024B1B689B6894
:104A9000019308BD9C01040808B5024B1B68DB6844
:104AA000019308BD9C01040808B5024B1B681B69F3
:104AB000019308BD9C01040808B5024B1B685B69A3
:104AC000019308BD9C01040808B5024B1B689B6D4F
:104AD000019308BD9C01040808B5024B1B685B6E7E
:104AE000019308BD9C01040808B5024B1B685B6E6E
:104AF000019308BDB801040808B5024B1B68DB6EC2
:104B0000019308BDB801040808B5024B1B685B6837
:104B1000019308BDD001040808B5024B1B689B68CF
:104B2000019308BDD001040808B5024B1B68DB687F
:104B3000019308BDD001040808B5024B1B681B692E
:104B4000019308BDD001040808B5024B1B685B69DE
:104B5000019308BDD001040808B5024B1B68DB694E
:104B6000019308BDD001040808B5024B1B681B6AFD
:104B7000019308BDD001040808B5024B1B685B6AAD
:104B8000019308BDD001040808B5024B1B689B6A5D
:104B9000019308BDD001040808B5024B1B68DB6A0D
:104BA000019308BDD001040808B5024B1B685B6C7B
:104BB000019308BDD001040808B5024B1B689B6C2B
:104BC000019308BDD001040808B5024B1B68DB6CDB
:104BD000019308BDD001040808B5024B1B685B6D4A
:104BE000019308BDD001040808B5024B1B68DB6EB9
:104BF000019308BDD001040808B5024B1B681B6F68
:104C0000019308BDD001040808B5024B1B689B69DD
:104C1000019308BDC401040808B5024B1B681B6A58
:104C2000019308BDC401040808B5024B1B685B6A08
:104C3000019308BDC401040808B5024B1B689B6AB8
:104C4000019308BDC401040808B5024B1B68DB6A68
:104C5000019308BDC401040808B5024B1B681B6B17
:104C6000019308BDC401040808B5024B1B685B6BC7
:104C7000019308BDC401040808B5024B1B689B6B77
:104C8000019308BDC401040808B5024B1B681B6CE6
:104C9000019308BDC401040808B5024B1B68DB6C16
:104CA000019308BDC401040808B5024B1B68DB680A
:104CB000019308BDAC01040808B5024B1B689B6951
:104CC000019308BDAC01040808B5024B1B68DB6901
:104CD000019308BDAC01040808B5024B1B681B6AB0
:104CE000019308BDAC01040808B5024B1B685B6A60
:104CF000019308BDAC01040808B5024B1B689B6A10
:104D0000019308BDAC01040808B5024B1B68DB6ABF
:104D1000019308BDAC01040808B5024B1B681B6B6E
:104D2000019308BDAC01040808B5024B1B685B6B1E
:104D3000019308BDAC01040808B5024B1B681B6C4D
:104D4000019308BDAC01040808B5024B1B689B6CBD
:104D5000019308BDAC01040808B5024B1B68DB6C6D
:104D6000019308BDAC01040808B5024B1B681B6D1C
:104D7000019308BDAC01040808B5024B1B681B6811
:104D8000019308BDB401040808B5024B1B689B6879
:104D9000019308BDB401040808B5024B1B68DB6829
:104DA000019308BDB401040808B5024B1B681B69D8
:104DB000019308BDB401040808B5024B1B685B6988
:104DC000019308BDB401040808B5024B1B68DB69F8
:104DD000019308BDB401040808B5024B1B681B6AA7
:104DE000019308BDB401040808B5024B1B685B6A57
:104DF000019308BDB401040808B5024B1B68DB6BC6
:104E0000019308BD2000060808B5024B1B689B6C87
:104E1000019308BD2000060808B5024B1B681B68FB
:104E2000019308BD1C00060808B5024B1B685B68AF
:104E3000019308BD1C00060808B5024B1B689B685F
:104E4000019308BD1C00060808B5024B1B681B69CE
:104E5000019308BD1C00060808B5024B1B685B697E
:104E6000019308BD1C00060808B5024B1B689B692E
:104E7000019308BD1C00060808B5024B1B68DB69DE
:104E8000019308BD1C00060808B5024B1B681B6A8D
:104E9000019308BD1C00060808B5024B1B685B6B3C
:104EA000019308BDA001020808B5024B1B685B6DA9
:104EB000019308BDA001020808B5024B1B68DB6E18
:104EC000019308BDA001020808B5024B1B681B6FC7
:104ED000019308BDA001020808B5024B1B681B68BE
:104EE000019308BDA401040808B5024B1B685B6868
:104EF000019308BDA401040808B5024B1B685B6957
:104F0000019308BDA401040808B5024B1B689B6906
:104F1000019308BDA401040808B5024B1B681B6A75
:104F2000019308BDA401040808B5024B1B68DB6AA5
:104F3000019308BDA401040808B5024B1B68DB6C93
:104F4000019308BDA401040808B5024B1B685B6D02
:104F5000019308BDA401040808B5024B1B689B6DB2
:104F6000019308BDA401040808B5034B1B68D3F8DE
:104F70009030019308BD0000A401040808B5034B5C
:104F80001B68D3F89C30019308BD0000A4010408FD
:104F900008B5034B1B68D3F8A830019308BD000087
:104FA000A401040808B5034B1B68D3F8B83001937B
:104FB00008BD0000A401040808B5024B1B685B682B
:104FC000019308BDC801040808B5024B1B689B6823
:104FD000019308BDC801040808B5024B1B68DB68D3
:104FE000019308BDC801040808B5024B1B681B6982
:104FF000019308BDC801040808B5024B1B685B6932
:10500000019308BDC801040808B5024B1B689B69E1
:10501000019308BDC801040808B5024B1B68DB6991
:10502000019308BDC801040808B5024B1B681B6A40
:10503000019308BDC801040808B5024B1B681B6B2F
:10504000019308BDC801040808B5024B1B685B6BDF
:10505000019308BDC801040808B5024B1B681B6C0E
:10506000019308BDC801040808B5024B1B685B6CBE
:10507000019308BDC801040808B5024B1B681B68F2
:10508000019308BDCC01040808B5024B1B685B689E
:10509000019308BDCC01040808B5024B1B689B684E
:1050A000019308BDCC01040808B5024B1B68DB68FE
:1050B000019308BDCC01040808B5024B1B685B696D
:1050C000019308BDCC01040808B5024B1B68DB69DD
:1050D000019308BDCC01040808B5024B1B681B6A8C
:1050E000019308BDCC01040808B5024B1B685B6A3C
:1050F000019308BDCC01040808B5024B1B681B6B6B
:10510000019308BDCC01040808B5024B1B68DB6B9A
:10511000019308BDCC01040808B5024B1B685B6C09
:10512000019308BDCC01040808B5024B1B681B683D
:10513000019308BDA001040808B5024B1B685B6819
:10514000019308BDA001040808B5024B1B689B68C9
:10515000019308BDA001040808B5024B1B681B6938
:10516000019308BDA001040808B5024B1B68DB6968
:10517000019308BDA001040808B5024B1B685B6AD7
:10518000019308BDA001040808B5024B1B68DB6A47
:10519000019308BDA001040808B5024B1B681B6BF6
:1051A000019308BDA001040808B5024B1B68DB6B26
:1051B000019308BDA001040808B5024B1B681B6CD5
:1051C000019308BDA001040808B5024B1B685B6C85
:1051D000019308BDA001040808B503F037F9BDE844
:1051E000084002F067BD10B50446017009B1FFF731
:1051F000F3FF204610BD08B503F028F9BDE80840CC
:1052000002F061BD10B5037804460BB1FFF7F3FF60
:10521000204610BD10B504460068FFF7ECFF20469D
:1052200010BD30B587B00D460190FFF7D5FF6B225A
:1052300000230124CDE902230A23CDE9044303F02E
:1052400005F902A902F017FD03F000F903682946E9
:105250009B68984703F0FAF8214602F024FD039476
:1052600003F0F4F802A902F0D3FC03F0EFF80368AE
:105270005B699847044601A8FFF7CCFFE0B207B08E
:1052800030BD082108B5FFF7CCFFC0F3800008BD92
:105290000821FFF7C6BFFFF79FBCFFF795BC70B5AD
:1052A000002604460D4640F8086FFFF77DFC2846AF
:1052B0002570FFF789FD2046666070BD10B5044675
:1052C0008068FFF7EAFF20784FF6FF71FFF754FD83
:1052D000A068BDE81040FFF7DEBF38B504460D46B4
:1052E0008068FFF7DAFF20782946FFF74DFDA068B8
:1052F000BDE83840FFF7CFBF38B504460D4680689B
:10530000FFF7CBFF20782946FFF746FDA068BDE8F0
:105310003840FFF7C0BF000030B5002440081860D7
:105320001868E5B2884206D90134082C02D040083A
:105330001860F5E70725024B5B5D137030BD00BFB9
:1053400033BB0808F0B50025044689B0806802FB2D
:1053500001F60295FFF7A1FF2946142203A827783A
:1053600005F06CFC0B232A46384603A9ADF80C3037
:10537000FFF73AFD02AB0DF10702314604988DF8B4
:105380000750FFF7C9FF9DF807102078FFF70CFDC5
:10539000A068FFF780FF029809B0F0BD08B500785B
:1053A000FFF70AFDC0B208BDB1F9043010B50A68B4
:1053B00033B932B9D1F8063003604B89838010BD10
:1053C00022B19488012C03D0042C06D0042205E0DD
:1053D00092898C710B814A81ECE702220B814FF696
:1053E000FF738A714B81E5E710B50446006818B178
:1053F000FFF7A2FE0023236010BD38B50C46B1F9BB
:10540000043005468380D1F80630C0F806304B8959
:105410004381FFF7E9FF236813B12B60002323606A
:1054200038BD07B50B4600210246009101208C21B2
:10543000FFF7B8FD03B05DF804FB01460020FFF75D
:10544000F0BF0020FFF7F9BF07B500220346114661
:1054500000920320FFF7A6FD03B05DF804FB0000F7
:1054600030B5044685B0084611461A460023FFF7BA
:105470004BFD0023CDE901334FF6FF73094D01A920
:10548000ADF80C002846ADF80E30FFF7B6FF01A8C6
:10549000FFF7AAFF20462946FFF786FF204605B002
:1054A00030BD00BFE803002010B500240470448024
:1054B0004FF6FF740029848008DD01398B4204D93E
:1054C00032F8113083800123037010BD01D1022313
:1054D000FAE74180F9E70000F0B50D4616460027CF
:1054E0008BB01A46129B04460193119B31460093E0
:1054F0002846109B0297FFF74BFD334601462A468C
:1055000005A8FFF7D1FF0F4D9DF81410BDF9162027
:10551000BDF8183028468DF8221007A9ADF82420D0
:10552000ADF826300797ADF82070FFF766FF07A8A3
:10553000FFF75AFF20462946FFF736FF20460BB0FB
:10554000F0BD00BFE80300200222002010B5084B88
:10555000084C1A60084BC4E90000A360FFF7C4FCC4
:105560002046BDE81040054A054902F097BF00BF3C
:10557000F4030020E80300200000FFFF30010020BA
:10558000AD01080810B504460068FFF7D5FD2046B8
:1055900010BD10B50446006808B1FFF7CDFD00232B
:1055A000C4E90133236010BD38B504460D460068D8
:1055B0000131FFF7C9FD10B1C4E90005012038BD74
:1055C00010B50368044623B143688B4201D3012020
:1055D00010BD2046FFF7E8FF0028F9D0A368002B94
:1055E000F5D122681370F2E770B50E4611460446F5
:1055F0001546FFF7E5FF20B92046FFF7CAFF204612
:1056000070BD2A4631462068A56005F0EFFA0021FA
:105610002268A368D154F2E738B5002304460D464A
:10562000C0E900338360037339B1084605F081FB9C
:10563000294602462046FFF7D7FF204638BD38B539
:10564000054600680C4668B16A688B689A4207D3C1
:10565000096805F04AFBA368AB600023A36038BD6E
:10566000FFF76AFD23682B6063686B60A368AB601B
:105670000023C4E90033F1E7002310B50446C0E974
:10568000003383600373FFF7DAFF204610BD8842C2
:1056900010B50B46044604D0096821B19A68FFF79B
:1056A000A3FF204610BDFFF774FFFAE7002310B5F3
:1056B0000446C0E9003383600373FFF7E8FF204628
:1056C00010BD884210B5044601D0FFF7B8FF204650
:1056D00010BD38B505460C4649B1084605F029FB12
:1056E000214602462846FFF77FFF284638BDFFF7D0
:1056F00050FFFAE770B505460E4609B9002070BDA7
:105700006AB1846814442146FFF75AFF0028F5D097
:105710002868AB683146184405F0E7FAAC60012010
:10572000EDE710B58A6809680446FFF7E3FF10B992
:105730002046FFF72EFF204610BD38B504460D4623
:1057400021B92046FFF725FF204638BD084605F061
:10575000F0FA294602462046FFF7CCFF0028F0D099
:10576000F2E708B582683AB921B10878B0FA80F05A
:10577000400900E0012008BD006809B90078F5E79C
:1057800005F0A9FAF2E7134610B58A688468A41AEE
:105790009C420AD3006838B1096841B1184405F049
:1057A000D0FAB0FA80F0400910BD0020FCE70846AE
:1057B000FAE782688B689A4202D30022FFF7E3BFC0
:1057C0000020704783688B4203D9006810B1405CA9
:1057D000704700207047FFF7F5BF10B5836893420C
:1057E00006D90468A01805F05FFA08B1001B10BDC7
:1057F0004FF0FF30FBE70022FFF7EFBFF8B51D4683
:105800009A4288BF13460F46144688BF2C460B4960
:1058100088BF1D460646FFF7FFFEBB68A3420AD3BA
:105820003968AB4294BFC4EB0302C4EB05023046B7
:105830002144FFF7D9FE3046F8BD00BFB0B60808D6
:1058400010B504468B68FFF7D9FF204610BD0068ED
:1058500008B105F0B9B970470EB4FFB509AD55F8F8
:10586000047B04462B463A46052102A80195FFF722
:1058700083FC06460B492046FFF7CEFE3146204604
:10588000FFF79EFE206830B12B463A46711C019509
:10589000FFF772FCA060204604B0BDE8F04003B002
:1058A000704700BFB0B60808F8B506460D4600249C
:1058B0008F18BD420CD0336830469B6815F8011B29
:1058C0009847031E01DB1C44F3E7002C08BF1C466D
:1058D0002046F8BD70B505460C46084649B105F0AE
:1058E00028FA2B68024621462846BDE87040DB684E
:1058F000184770BD08B5FFF7EDFF08BD03689B684A
:10590000184738B50D210546FFF7F8FF0A21044670
:105910002846FFF7F3FF204438BD38B50546FFF7AA
:10592000D9FF04462846FFF7ECFF204438BD00238A
:10593000012A98BF0A2230B58BB00C468DF824306E
:1059400009A92546B4FBF2F404FB1253DBB2092B80
:1059500094BF30333733DBB2AA4201F8013DF0D9AE
:10596000FFF7B8FF0BB030BD2DE9F74F05461946DC
:10597000104692461F469DF8306004F03DFD40B150
:1059800051492846FFF7A6FF0446204603B0BDE86C
:10599000F08F27F000444FF0FF32504621464B4B2A
:1059A00004F02AFD48B94FF0FF3250462146474BDC
:1059B00004F004FD08B94649E3E74FF06042504661
:1059C0003946444B04F00EFD08B14349D9E74FF086
:1059D000604250463946414B04F0E6FC0028F4D1C1
:1059E000002200235046394604F0DEFC044630B164
:1059F0002D212846FFF782FF044607F100474FF0AC
:105A0000000B00204FF000083549DFF8D8905FFA0E
:105A10008BF39E4206D942464B4604F07DFB0BF1C8
:105A2000010BF4E73B46524604F096F8894680465F
:105A300004F020FD074604F0CBF902460B46404631
:105A4000494604F087F80A228046894628463946A6
:105A5000FFF76DFF0444002E97D028462249FFF738
:105A600039FF4FF0000ADFF87CB00444002E8CD0E0
:105A700052465B464046494604F024FA8046894631
:105A800004F0D0FC071E1BDA2D212846FFF736FF55
:105A9000034679420A2228460193FFF748FF019BFB
:105AA000013E034438461C4404F0A2F902460B466A
:105AB0004046494604F04EF8F6B280468946D5E79E
:105AC00039460023E6E700BF3BBB0808FFFFEF7F36
:105AD0003FBB0808FFFFEF4143BB0808FFFFEFC1D2
