:020000040808EA
:1000000000000808DCC30808000006000A0005011B
:0800100004021F0C00000000B7
:040018007CAF0808A9
:1000200008B5024B1B689B6D019308BD2C000608A8
:1000300008B5024B1B685B6E019308BD2C000608D7
:1000400009480A4908B5884205D0094A824202D0C7
:10005000121A0AF0CBFD0748074A0021121A0AF0CB
:10006000EDFD064808BD00BF0000002084C208085E
:100070003001002030010020E8050020E8050020C4
:1000800070B506F0ADFF0025054E064CA41BA40874
:10009000A54200D170BD56F8043B98470135F7E7FB
:1000A00020C0080860C0080801F09CBA08B501F03B
:1000B0007FF8BDE8084006F04BBF05F039B805F001
:1000C00037B805F03DB8000000210C2008B5024A01
:1000D00004F0EEFEFEE700BFB14A08080078B0FA6F
:1000E00080F0400970470123037070477047006A31
:1000F0000368DB6818470000014802F053BF00BFE7
:1001000078020020436913B183690C3018477047A7
:1001100030B585B00446089860B1406850B1856834
:1001200045B1CDE90241CDE90023C4686A4601AB7F
:1001300002A9A04705B030BD08B500680AF040FD2F
:10014000014B186008BD00BF0000002008B5006822
:100150000AF036FD014B186008BD00BF0C000020FE
:1001600008B500680AF02CFD014B186008BD00BFFF
:100170000400002008B500680AF022FD014B186059
:1001800008BD00BF0800002008B500680AF018FD8F
:10019000014B186008BD00BF1400002008B50248DC
:1001A00002F00CFF012008BD7802002010B50446C3
:1001B000006808B104F0C4FF204610BD13B500214B
:1001C0000446084604F0D4FC0023204601A901930C
:1001D00004F0E6FC019C0CB10123237100210120F5
:1001E00004F0C6FC2CB1236820469B689847002386
:1001F000237102B010BD000010B50D49044605F092
:10020000B4FA38B100220B4B0B481A70BDE810400D
:1002100002F0A4BE2046094905F0A7FA38B1012230
:10022000044B05481A70BDE8104002F0A9BE10BD8D
:1002300090AF0808100000207802002099AF08084D
:10024000012A02D1016000207047022A04BF0B6816
:100250000360F8E71FB50468684605F011FA6846C0
:10026000A0470446684605F091F9204604B010BD49
:10027000012A02D1016000207047022A04BF0B68E6
:100280000360F8E703681268D1E900011847012A02
:1002900002D1016000207047022A04BF0B6803608E
:1002A000F8E70368184730B51368006885B0019314
:1002B0008368D1E90045CDE902450BB908F0FBF8A8
:1002C000C36801AA02A9984705B030BD70B50546BC
:1002D0000C46164642B90368C9B29B68984728463F
:1002E000BDE8704005F011BB00290ADA0A2A08D1DE
:1002F0002D2105F007FB61422846F2B205F01BFBF9
:10030000EDE72146F8E710B504463AB903689B6863
:1003100098472046BDE8104005F0F7BAD2B205F084
:100320000AFBF6E70246014806F009BFCF7008084D
:100330000023022204F0ACBE10B50446094B036052
:1003400005F092FD214605F0F0FF07F029FA07F0CD
:100350001BFA2046044B40F8043B05F083FE204680
:1003600010BD00BFECB50808D4B5080810B50446A8
:10037000FFF7E2FF2046242108F097F8204610BD41
:100380002DE9F04FC94C93B0204602F0DBFD8346C7
:10039000204602F03DFD8246204602F03FFD8146A8
:1003A000204602F041FD8046204602F04FFD074600
:1003B000204602F051FD0646204602F041FD05466A
:1003C000204602F037FD0090204602F0D1FC01905B
:1003D000204602F0D3FC0290204602F0D5FC0390A8
:1003E000204602F0D7FC0490204602F04DFD059017
:1003F000204602F04FFD0690204602F03FFD079098
:10040000204602F035FD0F90204602F02BFD1090A3
:10041000204602F0CDFC0890204602F0CFFC099067
:10042000204602F0D1FC0A90204602F0D3FC0B904B
:10043000204602F0D5FC0C90204602F0E3FC0D9023
:10044000204602F0D3FC0E90204602F0D5FC044674
:1004500007F0A6F9964905F051FA07F0A1F90A222A
:100460005946119005F067FA119B184605F04DFAB0
:1004700007F096F98F4905F041FA07F091F90A2241
:100480005146FFF740FF07F08BF98B4905F036FA2C
:1004900007F086F90A224946FFF735FF07F080F991
:1004A000864905F02BFA07F07BF90A224146FFF74F
:1004B0002AFF07F075F9824905F020FA07F070F974
:1004C0000A223946FFF71FFF07F06AF97D4905F058
:1004D00015FA07F065F90A223146FFF714FF07F015
:1004E0005FF9794905F00AFA07F05AF906460A2237
:1004F000294605F020FA304605F007FA07F050F9D2
:10050000724905F0FBF907F04BF905460A22BDF8E0
:10051000001005F010FA284605F0F7F907F040F949
:100520006B4905F0EBF907F03BF90222019905F060
:10053000EFFA07F035F9674905F0E0F907F030F90F
:100540000222029905F0E4FA07F02AF9624905F05F
:10055000D5F907F025F90222039905F0D9FA07F039
:100560001FF95E4905F0CAF907F01AF90222049949
:1005700005F0CEFA07F014F9594905F0BFF907F074
:100580000FF90222059905F0C3FA07F009F9554958
:1005900005F0B4F907F004F90222069905F0B8FA5B
:1005A00007F0FEF8504905F0A9F907F0F9F8022222
:1005B000079905F0ADFA07F0F3F84C4905F09EF9FC
:1005C00007F0EEF80A220F99FFF79DFE07F0E8F812
:1005D000474905F093F907F0E3F80A221099FFF76D
:1005E00092FE07F0DDF8434905F088F907F0D8F8E6
:1005F00005460A22089905F09EF9284605F085F976
:1006000007F0CEF83C4905F079F907F0C9F805463E
:100610000A22099905F08FF9284605F076F907F0C6
:10062000BFF8364905F06AF907F0BAF80A220A99C4
:10063000FFF74CFE07F0B4F8314905F05FF907F019
:10064000AFF80A220B99FFF741FE07F0A9F82D49F0
:1006500005F054F907F0A4F80A220C99FFF736FECA
:1006600007F09EF8284905F049F907F099F80A22A1
:100670000D99FFF72BFE07F093F8244905F03EF99A
:1006800007F08EF80A220E99FFF720FE07F088F88F
:100690001F4905F033F907F083F80A222146FFF7D6
:1006A00015FE012013B0BDE8F08F00BF78020020D6
:1006B000A2AF0808B1AF0808B8AF0808DBAF080858
:1006C000C1AF0808C9AF0808CFAF0808D6AF0808FF
:1006D000E5AF0808F0AF0808FCAF08080EB008083E
:1006E00021B008082FB008083AB0080842B008083E
:1006F0004FB008085CB0080866B0080870B0080879
:1007000077B008087EB0080885B008088EB00808E1
:1007100098B008087FB5044600680AF051FA202115
:1007200086B2204605F06BF821460246684605F081
:100730008BF800980AF044FA0446684604F026FF55
:10074000164B1B68DB001FD507F02AF8144905F08B
:10075000D5F807F025F80A22314605F0ECF807F045
:100760001FF8104905F0CAF807F01AF8002C0546E2
:1007700012DA2D2105F0C6F861420A22284605F05A
:10078000DAF8284605F0C1F822463146064802F05C
:100790000FFC012004B070BD2146EEE714000020DC
:1007A000A3B00808AAB00808780200200EB403B568
:1007B00003AB53F8042B0121019305F0B7F902B004
:1007C0005DF804EB03B0704738B50A4C1546236852
:1007D000D90106D506F0E4FF074905F00F02FFF73F
:1007E000E5FF23681A0154BF43F07F4323F07F43A2
:1007F000236038BD14000020B1B0080810B583682C
:10080000044613B1032201469847204610BD00005C
:1008100037B5134B044603608068C8B100256FF0FC
:1008200000430221CDE900352A462B4604F0C0F9E9
:100830002946A06804F0ECF9237903F0FF0513B111
:1008400004F07EF9F8E72946A06804F0A1F9A56054
:1008500004F10C00FFF7D2FF204603B030BD00BF0B
:10086000C0B5080810B50446FFF7D2FF20461C218A
:1008700007F01BFE204610BD012108B5084604F014
:100880003FF9BDE808400121042004F039B938B52A
:10089000002383608B6804460D462BB102229847E3
:1008A000EB68E360AB68A360204638BD012A70B5F1
:1008B000044603D10B680360002070BD022A0CD0EF
:1008C000032AF9D10468002CF6D02046FFF796FFE2
:1008D0001021204607F0E9FDEEE710200E68FFF733
:1008E000ECFB054610B13146FFF7D1FF2560E3E789
:1008F00038B5046805467CB16368013B63605BB949
:10090000236820469B689847A368013BA3601BB9F6
:1009100023682046DB689847284638BD2DE9F0411A
:100920002E4892B002F014FB002854D006F0E7F9EC
:1009300005462A4802F028FA0446284802F02AFA16
:100940000646264802F0A6FA0746244802F028FA8E
:10095000234B2A461B688046224900930EA8EB17BA
:1009600006F06EF9204609F055FA0E9B04460D4636
:1009700040461D49069309F0AFFF09F04BFACDE957
:1009800004011949384609F0A7FF09F043FACDE9F7
:100990000201304609F03EFA2246CDE900012B461D
:1009A00012490AA804F05CFF114B0A9A1B781149FE
:1009B0008DF8003008A83C2306F0D2FC09A8FFF708
:1009C00097FF0AA804F0E2FD0EA804F0DFFD012065
:1009D00012B0BDE8F0810220FAE700BF78020020E3
:1009E000C40000203404002000007A44CDB0080880
:1009F00040010020F9B0080830B51B488BB002F068
:100A00009BF90446194806F019FA0546174806F0FE
:100A100033FA09F0FFF9CDE90201284609F0FAF9A5
:100A20002246CDE9000106A8114904F019FF114B37
:100A3000069A1B7810498DF8003004A83C2306F074
:100A40008FFC05A8FFF754FF06A804F09FFD074898
:100A500006F012FA09490AF047F8002814BF0120ED
:100A600002200BB030BD00BF1C020020E4010020BA
:100A700002B108084001002025B10808000020410B
:100A8000F0B5164C89B0204602F09EFA0546204685
:100A900002F0A4FA0646204602F0AAFA07462046CB
:100AA00002F0B0FA33462A46CDE900700C4904A89A
:100AB00004F0D6FE0B4B049A1B780B498DF80030DE
:100AC00002A83C2306F04CFC03A8FFF711FF04A882
:100AD00004F05CFD012009B0F0BD00BF78020020E9
:100AE0002FB10808400100204DB10808F0B54FF4BF
:100AF000FA6189B0204803F053FF06461E4803F010
:100B00007BFD04461C4803F093FD05460146204644
:100B100009F0F4FF00B92EB1184B1B68002B24DB41
:100B2000022020E0284609F075F9064620460F46C7
:100B300009F070F93246CDE900013B46104904A89E
:100B400004F08EFE0F4B049A1B780F498DF800308D
:100B500002A83C2306F004FC03A8FFF7C9FE04A882
:100B600004F014FD012009B0F0BD06F019FE07499C
:100B700004F0D7FED4E700BF880100201400002055
:100B800056B10808400100206AB1080872B108088F
:100B900030B5274989B0054604F0E7FD68B129461C
:100BA00004A804F087FD04A8FFF726FF044604A864
:100BB00004F0ECFC204609B030BD28461D4904F085
:100BC000D4FD38B1294604A804F074FD04A8FFF749
:100BD000A5FEEBE72846184904F0C7FD38B12946C1
:100BE00004A804F067FD04A8FFF74AFFDEE72846E3
:100BF000124904F0BAFD044638B1294604A804F0AD
:100C000059FD04A8FFF772FFD0E72A6804A80C4931
:100C100004F026FE0B4B02A81B78049A8DF80030D6
:100C200009493C2306F09CFB03A8FFF761FEBEE7E1
:100C300092B1080896B108089AB108089EB1080850
:100C4000A2B1080840010020AFB1080870B51B48E8
:100C50008AB002F071F81A4E04463378834229D0E4
:100C6000184B1B685B0725D5174806F0E7F80546C3
:100C7000154806F001F909F0CDF8CDE90201284642
:100C800009F0C8F82246CDE90001104906A804F091
:100C9000E7FD0F4B069A1B780E498DF8003004A82B
:100CA0003C2306F05DFB05A8FFF722FE06A804F032
:100CB0006DFC347001200AB070BD00BF1C02002022
:100CC0001100002014000020E4010020B8B1080841
:100CD0004001002025B108082DE9F04F95B003F040
:100CE000F7FE4EF66022DFF81CA1DAF80030C01AD9
:100CF000454B1B685343984240F28180434802F0C1
:100D000027F900287BD0DFF80891D9F80030DA07FE
:100D100063D505F0F4FFDFF8FCB0C317DBF8002063
:100D20003D4904460092024610A8099305F088FF49
:100D300010A804F02BFC354802F026F8054633488D
:100D400002F028F80646314802F0A4F807462F487A
:100D500002F026F8DBF80020099B80462E4900921D
:100D600010A8224605F06CFF284609F053F8109BA6
:100D700004460D4640462949069309F0ADFD09F0A9
:100D800049F8CDE904012549384609F0A5FD09F0E7
:100D900041F8CDE90201304609F03CF82246CDE9A0
:100DA00000012B461E490CA804F05AFD1D4B0C9A5D
:100DB0001B781D498DF800300AA83C2306F0D0FAB4
:100DC0000BA8FFF795FD0CA804F0E0FB10A804F0B9
:100DD000DDFB03F07DFECAF80000D9F80030DB002F
:100DE0000DD506F0DDFC0446084910A802F058F8BD
:100DF0002046109904F095FD10A804F0C7FB15B02B
:100E0000BDE8F08FF40100200C00002078020020E3
:100E100014000020C40000203404002000007A44A4
:100E2000CDB0080840010020F9B0080870B533487B
:100E300086B002F0E7F8324B04461B68834223DA9F
:100E40002E4802F0C1F805462C4802F0C7F80646C5
:100E50002A4802F0CDF8CDE900042A4C33462A4650
:100E6000294902A804F0FCFC02A9204604F02DFC4C
:100E700002A804F08BFB254B1B689A0004D506F0F2
:100E80008FFC216804F04DFD03F022FE4EF6602237
:100E90001F4D2B68C01A1F4B1B68534398422AD919
:100EA0001A4B1B689B0726D5164C1B49204604F09D
:100EB0005CFC00BB194B1A491B7802A88DF8003066
:100EC00022683C2306F04CFA03A8FFF711FD1249F3
:100ED00002A804F0A5FB02A8FFF720FD02A804F079
:100EE00055FB03F0F5FD286020460B4906B0BDE830
:100EF000704004F0F2BB06B070BD00BF7802002065
:100F000000000020280200202FB108081400002053
:100F1000EC01002004000020B4B6080840010020C5
:100F20004DB108082DE9F04788B003F0D1FDDFF896
:100F30001492D9F80030C01AB0F5FA6FC0F0D7801B
:100F4000DFF8048298F8003073B9804B1B68002BDF
:100F500004DA06F025FC7E4904F0E3FC7D4803F04A
:100F600043FA012388F800307A4803F009FB00288F
:100F700040F0BD80774803F01CFB744C07462368A3
:100F8000002B12DA06F00CFC734904F0B7FCFB1DD1
:100F9000072B40D8DFE803F03B37332F2B27230400
:100FA00006F0FEFB6D4904F0BCFC6A4803F024FB2C
:100FB0000546684803F03CFB06460146284609F012
:100FC0009DFD00B95FB32368002B80F2908006F08E
:100FD000E7FB634908B0BDE8F04704F0A2BC06F0A7
:100FE000DFFB6049DFE706F0DBFB5F49DBE706F08C
:100FF000D7FB5E49D7E706F0D3FB5D49D3E706F0A0
:10100000CFFB5C49CFE706F0CBFB5B49CBE706F0B3
:10101000C7FB5A49C7E706F0C3FB5949C3E703F0CA
:1010200057FD4EF66022DFF85CA1DAF80030C01AF6
:10103000554B1B68534398425CD82368002B4FDA0A
:1010400006F0AEFB0446434803F0D6FA08F0E2FE91
:1010500002460B4620464D49FFF7A8FB06F0A0FBD1
:1010600004463C4803F0ACFA08F0D4FE02460B46B6
:1010700020464749FFF79AFB06F092FB04463548A5
:1010800003F0D6FA08F0C6FE02460B462046414958
:10109000FFF78CFB06F084FB04462E4803F0F4FABD
:1010A00008F0B8FE02460B4620463B49FFF77EFBA0
:1010B00006F076FB0446274803F012FB02460B4677
:1010C00020463649FFF772FB06F06AFB04462148CA
:1010D00003F06EFB02460B4620463149FFF766FBE4
:1010E000002388F8003003F0F3FCC9F8000008B0D2
:1010F000BDE8F08723681B079FD5304608F08AFEBD
:10110000064628460F4608F085FE3246CDE9000126
:101110003B46244904A804F0A3FB234B049A1B7804
:1011200022498DF8003002A83C2306F019F903A8E3
:10113000FFF7DEFB04A804F029FA03F0C9FCCAF8A3
:1011400000007AE74401002048010020140000203C
:10115000DBB108088801002006B2080814B20808AC
:1011600072B1080817B208082EB2080849B2080878
:1011700069B2080885B2080897B20808B3B208082F
:10118000C7B20808F001002008000020D5B2080806
:10119000E9B2080800B3080817B308082DB3080817
:1011A00042B3080856B10808400100206AB1080897
:1011B00008B5114800F0BEFD104801F0F9FA1048DA
:1011C00001F0AEF80F4801F097FC0F4800F0CEFF99
:1011D000FFF72CFEFFF780FDFFF738FDFFF7A2FEBB
:1011E0000A4B1B681B0106D506F0DAFABDE8084079
:1011F000074904F096BB08BD4C01002038020020CE
:101200005C0100207C0100207C02002014000020F2
:101210005CB308082DE9F04FA1B018AEA649054609
:10122000304604F0FDF9A54801F08CFE1590A34866
:1012300001F0EEFD8346A14801F0F0FD82469F4893
:1012400001F0F2FD81469D4801F000FE80469B487A
:1012500001F002FE0746994801F0F2FD149097480C
:1012600001F0E8FD0290954801F082FD0590934859
:1012700001F084FD0690914801F086FD07908F48AB
:1012800001F088FD08908D4801F0FEFD09908B4823
:1012900001F000FE0A90894801F0F0FD0B908748AC
:1012A00001F0E6FD0C90854801F0DCFD0D908348CF
:1012B00001F07EFD0E90814801F080FD0F907F4887
:1012C00001F082FD10907D4801F084FD03907B4881
:1012D00001F086FD0490794801F094FD1190774863
:1012E00001F084FD1290754801F086FD7449139059
:1012F000284604F03AFA1CAC68B3159A20467149A6
:1013000004F0AEFA2146304604F0DFF9204604F03E
:101310003DF92946204604F0CDF920466A4904F0FB
:1013200010FA314604F001FA684B02681B786849EC
:101330008DF8003016A83C2306F012F817A8FFF726
:10134000D7FA204604F022F9304604F01FF90120B4
:1013500021B0BDE8F08F28465E4904F006FA08B1D6
:101360005A46CBE728465C4904F0FFF908B15246DB
:10137000C4E72846594904F0F8F908B14A46BDE7E0
:101380002846574904F0F1F908B14246B6E7284625
:10139000544904F0EAF908B13A46AFE72846524901
:1013A00004F0E3F908B1149AA8E728464F4904F07D
:1013B000DCF910B1BDF80820A0E728464C4904F03C
:1013C000D4F948B1059808F025FD02460B462046A1
:1013D000484904F045FA95E72846474904F0C5F91D
:1013E000B046274608B10698EDE72846434904F081
:1013F000BCF970B1079808F00DFD02460B4638465F
:101400003C4904F02DFA3946404604F05EF938466E
:101410007DE728463A4904F0A8F90DF1600808B1C3
:101420000898E8E72846374904F09FF91CAF08B14F
:101430000998E0E72846344904F097F908B10A987A
:10144000D9E72846314904F090F908B10B98D2E762
:1014500028462F4904F089F9C246B94628B10C9AAA
:101460001849384604F0FCF9CDE72846294904F02C
:101470007CF908B10D9AF3E72846274904F075F97D
:1014800010B10E9A2549ECE72846254904F06DF97C
:1014900008B10F9AF6E72846224904F066F90028B9
:1014A00044D0109A2049484604F0DAF9494650469B
:1014B00004F00BF948462AE7B4B608087802002081
:1014C00073B308080BB808088ABB0808400100205D
:1014D00071B4080880B3080885B30808A0B30808E9
:1014E0008CB3080892B3080896B308089BB30808A1
:1014F000A8B308085FB80808B1B30808BBB3080868
:10150000CBB30808DCB30808E8B30808F1B308084F
:10151000F7B3080802B408080DB4080815B40808A1
:1015200019B4080821B4080826B408082846144944
:1015300004F01BF908B1039AB4E72846114904F0F6
:1015400014F908B1049AADE728460F4904F00DF9E3
:1015500010B1119A0D49A6E728460D4904F005F986
:1015600008B1129AF6E728460A4904F0FEF808B1D5
:10157000139AEFE74046084904F0AFF8C9E600BF08
:101580002AB408082FB4080834B4080815B40808A9
:101590003BB4080843B408084CB4080870B51426D6
:1015A000D0E90053044606FB0356AE4204D0284659
:1015B00003F0ECFF1435F8E7206803F0C1FD204686
:1015C00070BD13B56C460B46024603C884E80300A1
:1015D00093E8030082E8030094E8030083E8030033
:1015E00002B010BD30B595B006F0DAF84FF41651E0
:1015F00006F0C6F842F2107005F09CFB944801F02A
:1016000071FB944802F0D0FE934801F09FFB924892
:1016100001F060FC914910A804F002F8904C10A869
:10162000FEF7EAFD10A803F0B1FF204600F016FE19
:101630004FF461738B48236101F0B0FA8A4800F0DF
:1016400077FB8A4801F082F9894800F007FC894954
:101650008948FEF767FE894B10201093884B13933F
:10166000884B1293FEF729FD044678B1002383606E
:10167000129B33B1022210A99847139BE360129B7F
:10168000A3602146804A814805F059FD002510A835
:10169000FFF7B4F87E497F48FEF744FE7E497F4855
:1016A000FEF740FE7E497F48FEF73CFE7E497F48BC
:1016B000FEF738FE7E497F48FEF734FE7E497F48BC
:1016C000FEF730FE7E497F48FEF72CFE7E497F48BC
:1016D000FEF728FE7E497F48FEF724FE7E497F48BC
:1016E000FEF720FE7E497F48FEF71CFE7E497F48BC
:1016F000FEF718FE7E497F48FEF714FE0023012204
:101700007D497E4803F0C4FC7D497E48FEF710FE0B
:10171000002302227C497D4803F0BAFC0023022208
:101720007B497C4803F0B4FC002302227A497B48C1
:1017300003F0AEFC0023022279497A4803F0A8FCAA
:1017400079497A48FEF7F4FD79497A48FEF7F0FDC9
:1017500079497A48FEF7ECFD01220023784979485F
:1017600003F096FC784B04A90493784B08A80793E0
:10177000774B0693FFF78BF808A910A8FFF787F8B7
:1017800010200E95FEF799FC044660B10146856075
:1017900010A8FFF716FF129BA268A3601292139B7A
:1017A000E268E36013926B4B10200F936A4B0C942A
:1017B0000E93FEF782FC0446A0B1002383600E9BCB
:1017C00033B102220CA998470F9BE3600E9BA360E4
:1017D000624B4FF48050CDE902340021604A02ABE5
:1017E00003F0A6FB0CA8FFF709F810A8FFF706F80E
:1017F0005C4C08A8FFF702F804A8FEF7FFFF03F00F
:101800005FFCA06830B1002302211A46CDE9003305
:1018100003F0CEF9A06840B100236FF000421946F2
:10182000CDE900231A4603F0C3F94FF4FA6005F03E
:1018300081FA354B1B685B0107D505F0B1FF4A49BA
:1018400015B0BDE8304004F06CB815B030BD00BF35
:101850001C020020880100207802002099AF0808AF
:101860005C0100207C0100204C0100203802002097
:101870007C0200208901080819B50808F901080848
:10188000550208084102080888B50808FB700808D6
:10189000910B08087AB408083901080881B40808CF
:1018A0004D0108088BB408086101080895B40808C0
:1018B000750108089FB4080815070808A9B40808A6
:1018C0009D010808B1B4080881030808BAB40808E3
:1018D00015120808C2B40808853F0808CCB40808E7
:1018E0000D400808D8B40808D5400808E5B4080831
:1018F0005D410808F0B4080811000020FCB4080895
:101900000000002006B508081400002012B50808E1
:10191000F40100201FB50808EC0100202AB50808D2
:10192000F001002035B508080C00002040B508087B
:10193000040000204CB508080800002058B508082D
:101940001000002064B50808C907080885020808C7
:1019500071020808A7020808AD080808010008007D
:10196000110108089802002070B508088842F8B5EF
:1019700004460D46164616D9904215D2A2F1140619
:10198000751AA1F114072C44B7421CD02CB1314672
:10199000204603F075FE337C2374304603F0F6FDD9
:1019A000143E143CF0E70ED0B5420CD02CB12946C1
:1019B000204603F065FE2B7C2374284603F0E6FDE9
:1019C00014351434F0E7F8BD00232DE9F041C0E9E7
:1019D000003383604F6804469F420E4624DD4FF07B
:1019E000140808FB07F003F0A3FB0546E0B1D4E9B7
:1019F000001208FB0212FFF7B9FF206803F0A0FBFA
:101A00002560A760D6E9007308FB0378B84509D0C4
:101A10003946284603F04EFE3B7C143505F8043C5D
:101A20001437F3E7736863602046BDE8F081000077
:101A30002DE9F0414FF001080024754B90B083F878
:101A40000080CDE90344059405F0AAFE714D0646D9
:101A50002F4603A906A8FFF7B7FF06A909A8FFF7B5
:101A6000B3FF6D4B09A947F8043B0CA8FFF7ACFF87
:101A70000CAA1E21384604F034FD0CA8FFF78EFD99
:101A800009A8FFF78BFD654B2E622B6006A8FFF7B8
:101A900085FD634B634E2B6005F082FE4FF41651BB
:101AA00005F06EFE04F0E0F9294604F0F9FB03A806
:101AB000FFF774FD32465C49284606F0F1FCFEF75C
:101AC000DBFE2146404603F03BFA584D584BC5E932
:101AD0000044AB60022003F013FA2846554D32460D
:101AE000554906F0DDFC2846544900F0F9FF32461E
:101AF0005349284606F0D4FC524D534B4FF46162D3
:101B000000932846002300F02BFE28464F4D324616
:101B10004F4906F0C5FC284600F07CFB28464D4D99
:101B200032464D4906F0BCFC022228464B4900F0E3
:101B300087F928464A4D32464A4906F0B1FC4FF42F
:101B400061622846484900F0BFF82846474D3246B2
:101B5000474906F0A5FC4EF66021284600F024FD1A
:101B6000324644492846444D06F09AFC434801F069
:101B7000EBF82146284605F00DF92846404D32463F
:101B8000404906F08DFC284601F09CF83246284674
:101B90003D493E4D06F084FC2346162203213C4875
:101BA00002F0FFFB28463B4903F03AFD3246284647
:101BB000394906F075FC394B394D0C93394B05F119
:101BC0000C010F93384B0CA80E93384B2C712B60E3
:101BD000AC606C61FFF7F5FC6A690E9B0E926B615D
:101BE000AA690F9B3221AB610F922B46304ACDE997
:101BF000004405F1080002F0C3FF0CA8FEF7FEFD4B
:101C0000324628462B4910B0BDE8F04106F048BCEA
:101C100040010020F8010020D4B50808D8BB08080E
:101C2000ECB5080830010020390308083401002011
:101C30000000FFFF7C010020AD01080892B50808F4
:101C4000E929080838020020A1B508085C01002035
:101C5000CD2608087C020020D5210808AEB508086A
:101C60004C010020AD1D080800007041B4020020A6
:101C7000B91C0808DD240808E401002078020020CF
:101C80001C020020B36D08081D2C08082802002043
:101C900088010020B4B608088D550808F900080826
:101CA00098020020A30208088F020808C0B508089F
:101CB000BD01080811080808704710B50446102136
:101CC00006F0F3FB204610BD8260002210B5024CE6
:101CD00041600460C26010BD04B6080837B5044610
:101CE000104805F0C9F80021054608F0D5FEB0B946
:101CF0002946606808F0F8FE88B10B4803F0C5FA81
:101D000068B9284608F010FF01460D2000F074FF66
:101D1000064B012168461B68A26803F0A5FB03B0CF
:101D200030BD00BFD4020020DC020020D002002021
:101D3000FFF7D4BF10B5044602F0CAFEE368C01A2C
:101D40004EF65F23984207D902F0C2FEE0602046BB
:101D5000BDE81040FFF7C2BF10BD0000022238B539
:101D60000C4B0D4C1A600D4D0021204605F012F869
:101D700020460B4C2A460B4906F092FB00212046D8
:101D800003F035FA2A462046BDE83840064906F0F9
:101D900087BB00BFD0020020D40200203001002009
:101DA000DC020020B36D08080D520808704710B51A
:101DB00004461C2106F079FB204610BD10B50446F0
:101DC000086808F09BFFE060002010BD7FB5026846
:101DD000536890685E1000EB6305DB07146848BF2A
:101DE0008359684648BF1C5903F04AFC6946284697
:101DF000A0470446684603F0C9FB204604B070BD06
:101E0000012A38B5044602D10B68236003E0022A98
:101E100003D0032A0DD0002038BD0C200D68FEF73A
:101E20004CF903460028F0D095E8070083E8070046
:101E3000EBE700680028EED00C2106F036FBEAE75D
:101E40008260002210B5044CC0E90322C0E90041C1
:101E5000C0E9052210BD00BF98B608087FB5002470
:101E6000054646680C200294FEF727F918B1184B76
:101E70008560C0E90034174B00900393164B102087
:101E80000293FEF71AF9044678B100238360029B9F
:101E900033B1022269469847039BE360029BA3602B
:101EA000324621460D4805F04AF9029B1BB16946AE
:101EB000032208469847A868002806DB022180B262
:101EC00004B0BDE8704006F0A3B904B070BD00BF17
:101ED000BD1D0808CD1D0808011E0808FB70080874
:101EE000F0B505468DB008468C4908F065FF002422
:101EF0008A4F07AE48B1052C09D046F8040B394685
:101F00000020013408F058FFF4E7002C4AD04FF4C9
:101F1000FA7004F00FFF079E8149304608F0DBFE9F
:101F200040B900210A2000F067FE0DB0BDE8F04086
:101F300003F08BBA7B49304608F0CDFE014660B90C
:101F4000794C2368002BECD0112000F055FE20685E
:101F50000DB0BDE8F04000F0A3B97449304608F078
:101F6000BAFE014600BB102000F046FE704B714ADD
:101F70001B7871498DF8003005A83C2305F0F0F975
:101F8000069C7CB16368013B63605BB923682046B3
:101F90009B689847A368013BA3601BB92368204650
:101FA000DB6898470DB0F0BD3046644908F093FEF9
:101FB000074648B90146132000F01EFE38460DB012
:101FC000BDE8F04003F044BA5D49304608F083FEB6
:101FD000014618B90B2000F00FFEFEE730465949C4
:101FE00008F079FE002876D1012C74D0022C12D191
:101FF0001E2421460C2000F0FFFD089E5249304669
:1020000008F069FE014668B92246504B1B6805A8D6
:1020100003F02AFAC6E7099808F0D2FD0446002822
:10202000E6D0E6E730464A4908F055FE20B9474B6E
:102030001B6822460121EAE73046464908F04BFE7C
:1020400028B9424B1A68444B1B681343F1E73046EA
:10205000424908F040FE0746D8B9AB68002BA1DB27
:102060003A4AADF8123012680223CDE9014201224A
:102070008DF811300DF1120100920DF1110305A838
:1020800003F02EFA394615200DB0BDE8F04000F0FF
:10209000B3BD3046324908F01EFE0646002881D105
:1020A000AA68002AFFF67EAFADF8122002228DF852
:1020B00011200122254B28491B68096805A80B43FC
:1020C000CDE901430DF1120100920DF1110303F06E
:1020D00007FA3146D7E73046224908F0FCFD0028D0
:1020E0007FF460AF012C3FF45DAF089E1E4930467F
:1020F00008F0F1FD48B9022C04D0099808F060FD01
:1021000068614FE71E236B614CE73046134908F0C6
:10211000E2FD00287FF446AFF2E700BF86BB080867
:102120000CB6080812B60808F00200201DB6080810
:10213000E8020020B4B608082AB6080843B6080822
:102140004CB6080858B608085EB60808E002002039
:1021500063B6080868B60808E402002074B60808E8
:1021600079B6080885B608088AB6080810B5C168A7
:10217000044631B1FFF7B4FEE06802F0E1FF00234E
:10218000E3606369002B14DD02F0A2FC4FF47A7265
:102190002369C01A6369534398420AD302F098FC3A
:1021A000A16920610131A1611420BDE8104000F057
:1021B00023BD10BD01230221034A1360034A1160AD
:1021C000034A1370704700BFE4020020E0020020C1
:1021D000E8020020704710B50446202106F065F99A
:1021E000204610BD0EB44FF0200C002300B58CB07B
:1021F0000DAA52F8041BCDE904C3CDE900120392E5
:10220000016804AA1E2002F05BFE0CB05DF804EB2E
:1022100003B0704747F230520B4B42F2107103602B
:102220000A4B10B5C0E901230023094AC0E9031392
:102230001060084A08491468C0E906338C4218BF88
:10224000C2E90013838210BD38B7080820BF02001E
:10225000F00200200040024094C54E2E704700005E
:10226000002110B50C4BC2680446084602F0D8FDA8
:102270000146072000F0C0FC0021E268074B084639
:1022800002F0CEFD04460146082000F0B5FCA01C7B
:1022900018BF012010BD00BFA0B60808B5B60808D9
:1022A00030B51B4985B01B48FFF79CFF0021042077
:1022B00000F0A2FC002301A8CDE90133ADF80C30F9
:1022C00004F04EFF02F004FC43F69725044602F0AA
:1022D000FFFE40B102F0FCFB001BA84203D86420C3
:1022E00004F028FDF3E7002147F2305208460A4B7C
:1022F00002F096FD4FF47A7004F01CFD074B0A22A1
:1023000001211B6801A803F0AFF805B030BD00BF84
:10231000D2B6080808040020E2B60808EC02002043
:1023200037B50022454D04461146686802F068FE44
:10233000237D014683420DD02075012000F05CFC16
:10234000217D3F4A3F4B4048002908BF1A463F497C
:10235000FFF748FF02F0BCFE637D014683422BD0AD
:102360006075022000F048FC617D364B344A3648E7
:10237000002908BF1A463649FFF734FF637DC3B111
:102380000022344B5A6000226868114602F058FE61
:1023900068B1A569002D3CD102F09AFB2946A061E5
:1023A000032000F029FC2C492748FFF71BFF03B04E
:1023B00030BD02F08DFBE061637D002BE3D1A368AB
:1023C000002BE0D002F084FBE369C01AA3689842B6
:1023D000D9D3237D13B12046FFF742FF1D4A53682E
:1023E00001335360226962B1012B0AD90021162002
:1023F00000F002FC194B012168461B68226903F0BA
:1024000033F80021062000F0F7FB2046FFF748FFD5
:10241000B9E76368002BCAD002F05AFBA369C01A5F
:1024200063689842C3D30021052000F0E5FB2046F5
:1024300003B0BDE83040FFF733BF00BF54050020B4
:10244000EFB60808F2B6080808040020F7B6080836
:1024500003B708080040024017B70808EC02002044
:102460000222014B1A607047EC020020012310B5D4
:1024700003748368044643B1C06898470123002071
:102480006374BDE8104002F0BBBB00680028F5D0C3
:1024900083680BB906F00FF8C368EEE708B50920AA
:1024A000002100F0A9FB034B1868BDE8084002F0CA
:1024B000C8BF00BFF402002038B50568044635B136
:1024C0002846FEF79BF91021284605F0EEFF20462E
:1024D000BDE83840142105F0E8BF000010B5114BED
:1024E0000446036083699BB1586802F021FB78B908
:1024F000A3695A7C12B9586802F02AFBA36958688C
:1025000002F02EFB0023A069A36108B1FFF7D4FFFE
:10251000A06908B1FFF7D0FF04F10800FEF76EF9DB
:10252000204610BD50B7080810B50446FFF7D6FF87
:1025300020461C2105F0B9FF204610BD2DE9F341CE
:1025400004460E461420164990461F4605F0AFFF7C
:1025500030B10025C0E90055C0E902550574457445
:10256000206098B1099BC0E902873146CDE900039C
:102570009DF820200B4B043002F0D2FA30B92368CA
:102580001B7C4BB9012002F08BFAF8E7002320688E
:10259000236008B1FFF790FF204602B0BDE8F0814C
:1025A00095BD08086D24080830B5164B87B0036048
:1025B000154B04460293154B41600593144B051DC2
:1025C0000493002302A9036102220830FDF75FFE95
:1025D000059B4FF4E1626361049B0E49236109236B
:1025E00004F11800CDE900322B460B4AFFF7A6FF95
:1025F00002F06EFA094B186002A8FEF7FFF82046B9
:1026000007B030BD50B708089D240808A302080889
:102610008F02080840B708087D830808AC05002031
:102620000122014B1A607047F4020020012380F858
:102630002430704770B4036809685C689D68661050
:1026400005EB6400E40748BFAC591B68126848BF3B
:10265000E35870BC1847012A38B5044602D10B680C
:10266000236003E0022A03D0032A0DD0002038BDE6
:102670000C200D68FDF721FD03460028F0D095E8F9
:10268000070083E80700EBE700680028EED00C2184
:1026900005F00BFFEAE7034610B442681B685410CC
:1026A00001EB6200D20748BF0A5910BC48BFD3589B
:1026B0001847012A02D1016000207047022A04BF96
:1026C000D1E90023C0E90023F6E7000010B5044675
:1026D000054B40F82C3BFEF791F804F1100002F096
:1026E00055FF204610BD00BF84B7080810B504464A
:1026F000FFF7ECFF2046402105F0D7FE204610BD35
:1027000010B50346D1E90002002186B0049108B952
:10271000D10705D5CDE902020F4A05920F4A04926E
:102720006C4602AA92E8030084E8030093E80300E1
:1027300082E8030094E8030083E8030004999868A2
:10274000996004900599D868D96005901046FEF705
:1027500055F806B010BD00BF97260808B326080834
:102760000E4938B500F110050446C0E902230160A6
:1027700028460B4902F054FF00230A4A2362C4E9A9
:102780000B2384F82430A362074B2846A363074B2E
:102790000499636302F0A1FF204638BD84B708089E
:1027A000B4B608082528080897260808B32608089C
:1027B00010B5436B01460BB905F07DFE836BBDE898
:1027C00010402C30184700001FB50023104A044663
:1027D00080F8243002A92C30CDE90223FFF790FFC6
:1027E00002F076F9226920620A490B48FFF7FAFCE9
:1027F0000A4B0B4A1B7821698DF8003002A83C2354
:1028000004F0AEFD03A8FEF773F804B010BD00BFDE
:102810008128080858B7080808040020F80200209A
:10282000B4B60808F8B5044602F052F9236AC01A93
:1028300047F22F53984220D902F04AF9206204F05F
:1028400041FAD0B102F044FCB8B104F058FAD4E92E
:1028500002760A4BC517D3E90221821A65EB010102
:10286000BA4271EB060208DBC3E9020500232046E9
:10287000A362BDE8F840FFF7A7BFF8BD08400240DB
:102880001FB590F82430044653B1234B02A902939C
:1028900000232C300393FFF733FF02F019F9206275
:1028A00002F016F9236AC01A4AF6C773984230D963
:1028B00000210E2000F0A0F9A36A0133012BA362CE
:1028C00005DC204604B0BDE81040FFF77DBF0021C5
:1028D0000F2000F091F9114B114A1B7811498DF826
:1028E000003002A83C2304F03BFD03A8FEF700F8EB
:1028F0004FF4FA6004F01EFA0B4B186820B104B0D4
:10290000BDE81040FFF7CCBC04B0BDE8104002F0B9
:102910009CBD04B010BD00BF25280808F8020020A7
:10292000B4B608082AB60808F002002038B500231B
:1029300083608B6804460D462BB102229847EB68F2
:10294000E360AB68A360204638BD000070B51D4B46
:102950001D4A1968044691428AB004D00020002123
:10296000C3E902011A6000250C2026690495FDF7D1
:10297000A4FB18B1154B8460C0E90035144B0290DC
:102980000593144B02A906A80493FFF7CFFF089BF9
:102990007BB11020FDF791FB044650B106A9FFF76B
:1029A000C5FF002322463046CDE900330A4902F034
:1029B0009FFB06A8FDF722FF02A8FDF71FFF0AB044
:1029C00070BD00BF08400240FE49684A2D26080835
:1029D0003526080857260808237108080122014BEC
:1029E0001A707047F8020020704710B504460C2199
:1029F00005F05BFD204610BD2DE9F0474FF00008C3
:102A0000304D074646462C46DFF8BCA0D4B063687C
:102A1000B3421BD96B69524602932B694021019343
:102A2000EB6804A80093AB6802F0A2FB00EB080976
:102A3000B9F1FF0F05F1100508D814AB03EB08003E
:102A400004A908F052F9C8460136E0E76268921B13
:102A50006260002A2FD01D491D48FFF7C3FB4FF4C9
:102A60000272636804EB06115A431A48083108F0F1
:102A7000CBF8194B79681B7814AA8DF8003004A89C
:102A80003C2304F06DFC059C7CB16368013B6360F2
:102A90005BB9236820469B689847A368013BA36005
:102AA0001BB923682046DB68984702F011F8B8602C
:102AB00054B0BDE8F087324608490548FFF792FB5D
:102AC000D7E700BF184002408CB708089BB708083A
:102AD0000804002020400240F9020020C9B708087D
:102AE000034AC0E9002100228260024A1060704758
:102AF00044B80808FC02002010B50A4B04465B6885
:102B00007BB102F0E5FA60B101F0E2FFA368C01A00
:102B100040F2F133984204D92046BDE81040FFF757
:102B20006BBF10BD184002402DE9F041174C0F4615
:102B3000636890461F2B0FD915491648FFF752FBC3
:102B40004FF40272636804F11801013B5A4304F127
:102B50000800636008F058F86668751C656004F04A
:102B6000CEF804EB0616B06001F0B2FF2B0104EBC7
:102B70000515F060E7503A46434607490548C5F851
:102B80000480FFF72FFBBDE8F08100BF1840024032
:102B9000D8B7080808040020EDB7080873B5124D2F
:102BA000124E2B680446B34202D16B68202B04D925
:102BB0000F491048FFF716FB2E60002220461146F1
:102BC000FFF7B2FF002201A81146019201F0A0FF19
:102BD000019A32B11221204602B0BDE87040FFF7E1
:102BE000A3BF02B070BD00BF1840024016D4395CCC
:102BF0000EB80808080400200A460449034608687D
:102C000010B11946FFF790BF704700BFFC020020CB
:102C10000122014B1A707047F902002010B50446DA
:102C2000034B40F8043B02F0F1FA204610BD00BF10
:102C300054B8080810B50446FFF7F0FF20460C21F1
:102C400005F033FC204610BD10B5044601F040FFEE
:102C5000A368C01A632894BF00230123637101F0A5
:102C600037FFA06010BD10B403685A68996854100B
:102C700001EB6200D20748BF0A591B6810BC48BF6D
:102C8000D3581847012A38B5044602D10B6823608F
:102C900003E0022A03D0032A0DD0002038BD0C2007
:102CA0000D68FDF70AFA03460028F0D095E8070002
:102CB00083E80700EBE700680028EED00C2105F060
:102CC000F4FBEAE7064B10B50021044640F8043B4C
:102CD00002F08DFA0123637100232046A36010BD2A
:102CE00054B8080830B5002587B004460C20049578
:102CF000FDF7E3F918B10D4B8460C0E900350C4BCA
:102D0000029005930B4B0222049300232E20009384
:102D100002A94FF0FF3304F0EBFD049B1BB102A9A5
:102D200003220846984707B030BD00BF492C080869
:102D3000672C0808852C080808B5043002F0ACFAA6
:102D4000C0F3800008BD70477047000010B5074C05
:102D50001821204600F0AFFB2046092100F0C0FA00
:102D60002046BDE81040012100F0A2BA0003002077
:102D7000014B5869704700BF2C030020014B986934
:102D8000704700BF2C030020014BD869704700BF7B
:102D90002C030020014B186A704700BF2C03002051
:102DA00008B5024BD86B07F08BFC08BD2C03002044
:102DB000014BD86B704700BF2C030020014B186CEF
:102DC000704700BF2C030020014B586C704700BFB8
:102DD0002C030020014B986C704700BF2C0300208F
:102DE000014BD86C704700BF2C030020014B586D7D
:102DF000704700BF2C030020014B986D704700BF47
:102E00002C030020014B186D704700BF2C030020DD
:102E1000014B5878704700BF2C030020014B987875
:102E2000704700BF2C030020014BD878704700BFCB
:102E30002C030020014B9868704700BF2C03002032
:102E4000014BD888704700BF2C030020014B187934
:102E5000704700BF2C030020014B5879704700BF1A
:102E60002C030020014B93F83B0070472C030020FB
:102E7000014B93F83A0070472C030020014BD86AAD
:102E8000704700BF2C030020014B586A704700BFF9
:102E90002C030020014B986A704700BF2C030020D0
:102EA000F7B50A4D0446E86906F0B4FF0646286AFD
:102EB0000F4606F0AFFF3246CDE900013B46204603
:102EC000034902F0CDFC204603B0F0BD2C030020E6
:102ED0005CB8080838B50121062005F099F90021F1
:102EE000062005F0A6F904F0FBFD4FF4165104F09E
:102EF000F1FD0A2003F01EFF0F4D284600F0FAFFF7
:102F0000044630B904F04CFCBDE838400B4902F0EF
:102F100008BD012CF1D004F043FC094902F0EEFC9D
:102F200004F03EFC054621460A2202F004FD284634
:102F3000BDE8384002F0E9BC2C03002075B8080851
:102F400062B80808014B1878704700BF2C030020B6
:102F5000014B93F8390070472C03002038B50C243E
:102F6000064D04F0BDFD036815F8011B9B68013C8C
:102F7000984714F0FF04F4D1012038BD240000204C
:102F800038B50C24064D04F0ABFD036815F8011BA1
:102F90009B68013C984714F0FF04F4D1012038BD30
:102FA00018000020014800F06DBE00BF2C03002077
:102FB000014800F033BF00BF2C030020014800F09F
:102FC00027BF00BF2C03002010B5034C204600F0A3
:102FD00099F9B4F9060010BD0003002010B5034CA8
:102FE000204600F08FF9B4F9080010BD000300205E
:102FF00010B5034C204600F085F9B4F90A0010BD65
:103000000003002010B50B4C204600F07BF9B4F90A
:103010000820B4F90630524303FB0323B4F90A0035
:1030200000FB003006F0E4FE05F07CFB07F0FAF947
:1030300010BD00BF0003002010B504462C2105F090
:1030400034FA204610BD000010B5074C074800F0C8
:10305000C6FA0C21204600F02FF82046BDE81040AB
:10306000034A044905F01CBA000300202C03002089
:1030700030010020472D0808704710B504468068CD
:1030800008B101F0A5FD204610BD000038B50C4682
:1030900005462022002104F1080007F0CFFD0B2295
:1030A0002046044907F061FE0123E360AA69C4E9F0
:1030B000042338BD81B80808064A417702604FF002
:1030C000FF328261C2834FF6FF7280F82020112206
:1030D0004262704790B8080838B50C4D2978BFF3A4
:1030E0005B8F11F001040FD12846FCF7F7FF58B1B0
:1030F0002146074802F0D7F82846FCF7F4FF054AB6
:103100000549034805F0CCF9014838BD900300207B
:1031100094030020300100207B30080808B5FFF739
:10312000DBFF012102F0DDF8FFF7D6FF05490122A0
:1031300002F00CF9FFF7D0FFBDE80840002102F0D3
:10314000DFB800BF20A107002DE9F04190F9203041
:10315000054601330F4606D1FFF7BEFF3946BDE8ED
:10316000F04102F01FB9002407264FF0010895F93D
:103170002000002180B205F05CF895F91E0008FAE5
:1031800006F1394080B205F054F895F9200001218C
:1031900080B205F04EF895F91F00640080B2E4B2E9
:1031A00005F060F808B144F00104013EDFD220468A
:1031B000BDE8F08170B590F91D30044601330E462C
:1031C000154616D105F01CF9217F04F04FFD05F0DE
:1031D00017F9036831469B68984705F011F90368B1
:1031E00029469B68984705F00BF9BDE8704004F04C
:1031F00060BD90F92030013301D1FFF78FFF94F9C2
:103200001D00002180B205F014F806F07F01204671
:10321000FFF79AFF29462046FFF796FF94F91D0015
:103220000121BDE8704080B205F003B838B590F9CF
:103230001D30044601330D461DD105F0E1F894F927
:103240001C1004F017FD05F0DBF8036829469B68A5
:10325000984705F0D5F804F02CFD05F0D1F80122CF
:10326000217F04F000FD05F0CBF803685B69984707
:10327000C5B2284638BD90F92030013301D1FFF79F
:103280004DFF94F91D00002180B204F0D2FF45F0FB
:1032900080012046FFF758FF00212046FFF754FF2A
:1032A000054694F91D00012180B204F0C2FFE0E759
:1032B00038B50D4623210446FFF7B8FF20F0300251
:1032C00042EA05122046BDE838402321D2B2FFF77A
:1032D00071BF232108B5FFF7A9FFC0F3011008BD96
:1032E00038B50D4620210446FFF7A0FF00F00F027D
:1032F00042EA05122046BDE838402021D2B2FFF74D
:1033000059BF000038B590F91D300446013370D123
:1033100005F076F894F91C1004F0ACFC05F070F898
:103320000368A8219B68984705F06AF804F0C1FC7F
:1033300005F066F80622217F04F095FC05F060F8A0
:1033400003684F4D5B699847E08005F059F80368C2
:103350005B699847E38805EA00201843E08005F0A0
:103360004FF803685B699847208105F049F80368C6
:103370005B699847238905EA00201843208105F0FE
:103380003FF803685B699847608105F039F8036886
:103390005B69984705EA00256089054365812046F9
:1033A000FFF797FF032862D0022863D0012864D07A
:1033B000002843F6FC7018BF012007F085F9054688
:1033C000B4F9060007F080F9294607F085FAE060B5
:1033D000B4F9080007F078F9294607F07DFA206172
:1033E000B4F90A0007F070F9294607F075FA606130
:1033F00038BD90F92030013301D1FFF78FFE94F9E9
:103400001D00002180B204F014FFE8212046FFF7E0
:103410009BFEFF212046FFF797FEFF21E08020461C
:10342000FFF792FEE388FF2143EA0023E380204672
:10343000FFF78AFEFF2120812046FFF785FE2389C2
:10344000FF2143EA002323812046FFF77DFEFF2171
:1034500060812046FFF778FE6389012143EA00235B
:1034600094F91D00638180B204F0E3FE97E74FF406
:103470000060A2E74FF480509FE741F6FE709CE7A2
:1034800000FFFF0070B50C46054620220021201DDC
:1034900007F0D4FB242301262360AB692846636030
:1034A000A660FFF72FFFEB68304663612B69A361CD
:1034B0006B69E36170BD10B50446017790F91D009A
:1034C000421C23D104F09CFF04F09EFB0F212046F8
:1034D000FFF7ACFE33283DD1072220212046FFF71D
:1034E00069FE07212046FFF7FBFE882223212046A4
:1034F000FFF760FE102222212046FFF75BFE2046E8
:1035000080221F21FFF756FE012010BD012180B24D
:1035100004F08FFE94F91D00012180B204F078FEC2
:1035200094F92000431C04D1FFF7D6FD01F0CAFE38
:10353000CCE7012180B204F06BFE94F91E0001215A
:1035400080B204F065FE94F91F00002180B204F0FF
:103550005FFEBBE70020D8E78378C27803EB022246
:103560004378007803EB022300EB0320704770B52B
:1035700005460C46164642B90368C9B29B6898478F
:103580002846BDE8704002F0C0B900290ADA0A2ACC
:1035900008D12D2102F0B6F961422846F2B202F0BC
:1035A000CAF9EDE72146F8E7002200234261C0E9AD
:1035B0000033C0E90233C0E90E33C0E91033C0E97B
:1035C0001233C0E91433C0E9163303828261C26149
:1035D000026242628262C26202634263704708B55D
:1035E000FFF7E2FF08BD002030B5107018704D796C
:1035F00008794C1C00EB05200531084414F8015FE4
:103600001178A0422944C9B211701D78294419705B
:10361000F4D130BD2DE9F7436F4E814635780C4625
:1036200090461F46032D24D8DFE805F0024B839B0C
:103630006A4D2B782BB101F04BFA694B18600023CF
:103640002B7004F04DFA03681B69984768B104F0C9
:1036500047FA03685B699847C0B2B52820700AD161
:103660000123604A337013602B7001F031FA347813
:103670006CB1012551E004F093F85B4902F03EF98A
:1036800004F08EF81022217802F055F9EDE7544B42
:103690001B68C01A554B1B689842EAD904F080F8A1
:1036A000534902F03EF94FF4FA6003F043FB012165
:1036B000062004F0BEFD4FF4FA6003F03BFBA04788
:1036C000D7E704F00DFA0368DFF818911B699847F3
:1036D00050B104F005FA03685B699847D9F80030E7
:1036E000E0540133C9F80030D9F80030062BC0D1BE
:1036F0006279237903EB0223F82B3B6011DD04F0A0
:103700004FF83C4902F0FAF804F04AF80A22396806
:10371000FFF72DFF002302253370284603B0BDE8D4
:10372000F08363885BBA9BB2C8F800300223337021
:10373000F3E704F0D5F903682A4D1B69984740B1B7
:1037400004F0CEF903685B6998472B68E0540133B5
:103750002B603B682A68063393428AD10323337077
:1037600087E704F0BDF90368DFF878801B699847A4
:1037700050B104F0B5F903685B699847D8F8003098
:10378000E0540133C8F800303F68D8F800300837FB
:103790009F427FF46EAF4FF0000821460DF1070302
:1037A0000DF1060248463C4486F80080FFF71BFFF7
:1037B00014F8022C9DF806309A4205D114F8012C19
:1037C0009DF807309A4205D003F0EAFF0A4902F05B
:1037D000A8F8A2E74546A0E7A40300203000002097
:1037E000A8030020A0030020A4B80808B40000200B
:1037F000A6B80808E6B80808FEB808080A4610B4D3
:103800004B790C7904EB0324E31D063422440B446A
:1038100010BCFFF7E8BE0000F8B50D4600264B7956
:103820000C790C4F04EB0324073403F0B9FFA95DB6
:10383000102202F080F8013603F0B2FF394602F0A0
:103840005DF8B442F1DA03F0ABFFBDE8F84002499D
:1038500002F067B818B9080886BB0808CB788878E2
:1038600000EB03204B7803EB0023087800EB0320E8
:10387000704700000000000038B5044601F10A005E
:10388000FFF76AFE0D4606F01FFF06F0C3FA1CA301
:10389000D3E9002306F016FB06F00CFE2062A061BF
:1038A00005F10E00FFF758FE06F00EFF06F0B2FA23
:1038B00013A3D3E9002306F005FB06F0FBFDE0614E
:1038C000606105F11200FFF747FE06F0FDFE05F10D
:1038D000160160622046FFF7C1FF06F0F1FE05F118
:1038E0001A01A0622046FFF7B9FF05F11E01E0634F
:1038F0002046FFF7B3FF206438BD00BFAFF3008060
:1039000048AFBC9AF2D77A3EF8B50D460631044668
:10391000FFF7A4FFE060EB7EDB0740F1AF806B7C3C
:1039200013F0010200F0AB8001222274E97AAA7A36
:1039300002EB0122E2802A7B22716A7B627113F022
:10394000020300F09E8001236374AB7B6370EB7B0A
:10395000A3702B7CE37005F11600FFF7FDFD002836
:10396000CABF4FF47A73002090FBF3F0A060AB7EE7
:1039700005F11E0084F83A30023B012B8CBF002376
:10398000012384F839306B7F05F1460784F83B301A
:10399000FFF7E2FD06F098FE06F03CFA3AA3D3E901
:1039A000002306F08FFA06F085FD2062A06105F184
:1039B0002200FFF7D1FD06F087FE06F02BFA32A3B6
:1039C000D3E9002306F07EFA06F074FDE061606141
:1039D00005F12600FFF7C0FD06F076FE05F12A018D
:1039E00060622046FFF73AFF06F06AFE05F12E01FD
:1039F000A0622046FFF732FF05F13201E063204666
:103A0000FFF72CFF206405F13600FFF7A5FD606489
:103A100005F13A00FFF7A0FDA06405F13E00FFF7B5
:103A20009BFDE06405F14200FFF796FD0646206528
:103A30003846FFF791FD06F0DBF915A3D3E9002323
:103A400006F06AFB06F036FD20633846FFF784FD7A
:103A500006F0CEF90EA3D3E9002306F05DFB06F0D5
:103A600029FD6063EB7E3046C3F3401384F83830A1
:103A700006F02AFE084906F02FFFE062F8BD227426
:103A80005DE7637467E700BF48AFBC9AF2D77A3E40
:103A900000000000006AF84000007A4410B50C46AF
:103AA0000E310246FFF7DAFE04F1120150651046AE
:103AB000FFF7D4FE04F1160190651046FFF7CEFE25
:103AC000D06510BD38B5002504F00AF803681B69FD
:103AD000984760B9092DF7DD04F002F80B4901F0B1
:103AE0000DFFBDE838404FF4FA6003F023B903F04E
:103AF000F7FF03685B699847C4B20A2C08BF013519
:103B000003F04EFE214601F0FDFEDDE71AB908087C
:103B100070B50C46154603F043FE114901F0EEFE68
:103B200003F03EFE002C064618DA2D2101F0EAFED5
:103B300061420A22304601F0FEFE03F031FE0949DF
:103B400001F0DCFE03F02CFE044629460A2201F0B7
:103B5000F2FE2046BDE8704001F0D7BE2146E8E7FE
:103B600035B908084BB9080810B5044628220021C9
:103B700007F064F8204610BD0246002352F82300E7
:103B800010B942F82310704701330A2BF6D14FF0D9
:103B9000FF307047002210B5031F243053F8044F44
:103BA0008C4208BF1A608342F8D110BD40F209135D
:103BB0009A4270B506460D46144652D0B2F5857F3E
:103BC00017DAB2F5817F44D040F207139A4244D00D
:103BD00003F0E6FD254901F091FE03F0E1FD2146E9
:103BE0001022FFF7C4FC29463046BDE87040FFF7BD
:103BF00013BEB2F5A06F1CD040F201539A42E7D138
:103C0000CC881B4864BAA4B22146FFF7B5FF03F085
:103C1000C7FD184901F072FE03F0C2FD164901F01C
:103C20006DFE03F0BDFD2146BDE870401022FFF798
:103C30009EBCCC880E4864BAA4B22146FFF7AAFF06
:103C400003F0AEFD0D4901F059FE03F0A9FD0C494A
:103C5000E5E7BDE87040FFF70FBEBDE87040FFF735
:103C600053BEBDE87040FFF719BF00BF98B9080800
:103C7000C403002054B9080866B9080876B90808D2
:103C800088B90808F0B590F860300446C1B02BB38D
:103C9000134D144E144F03F023FF03681B6998471C
:103CA000E0B12B46694620460E4AFFF7B3FC0228D6
:103CB00005D103F075FD0D4901F033FEEBE7032854
:103CC00008D00028E7D1694620462B683268FFF704
:103CD0006DFFDFE703F064FD3946EDE741B0F0BD6D
:103CE000B0030020AC030020C9B90808AEB9080829
:103CF000031F243053F8042F8A4203D08342F9D1A2
:103D000000207047012070472DE9F041284E0746FA
:103D100035780C46DFF89C8085BB4988264849BA2F
:103D200089B2C8F80010FFF735FF21463846FFF783
:103D300065FD03F035FD214901F0E0FD03F030FDA4
:103D40001022D8F80010FFF712FC38462146FFF782
:103D500063FD6379277907EB0327073703F0C0FE7C
:103D60000368615D9B6801359847AF42F6DA00F061
:103D7000AFFE134B18600120307012E0FFF782FF96
:103D8000D8F800100C48FFF7B3FF044658B900F00C
:103D90009FFE0B4B1B68C01AB0F5FA6F05D90420C3
:103DA0003470BDE8F0810020E6E70120F9E700BFAC
:103DB000BC030020C0030020C4030020E7B90808AA
:103DC000B803002038B504460D4629462046FFF7C3
:103DD0009BFF0128F9D0022806D103F0E1FC094934
:103DE000BDE8384001F09DBD032805D0042807D167
:103DF00003F0D6FC0449F3E703F0D2FC0349EFE7F4
:103E000038BD00BFF8B908083FBA08081ABA080850
:103E10000149FFF7D7BF00BFAB00002009292DE9FA
:103E2000F04106460C46154605D803F0B9FC294971
:103E300001F077FD0A24002D43DC03F0B1FC264994
:103E400001F06FFD012505FB04F3DFF8908003EB23
:103E50008303C8F8003003F0A3FC214901F04EFDB4
:103E600003F09EFC07460A22214601F064FD384615
:103E700001F04BFD03F094FC1A4901F03FFD03F003
:103E80008FFC0A222946FFF772FB03F089FC1649D2
:103E900001F034FD03F084FC0746D8F800100A2234
:103EA00001F049FD384601F030FD00230F4930464E
:103EB0008C71240ACC710D724B72BDE8F041FFF792
:103EC00081BF7F2DBFDD03F06BFC094901F029FDA7
:103ED0007F25B8E75DBA08088BBA0808B40000204F
:103EE000E5BA0808FCBA080815BB08089D000020C0
:103EF000B7BA080870B51A4D06462B68052B29D8A5
:103F0000DFE803F0030B191B1D1FFFF7DBFD012387
:103F100086F860302B6801332B6012493046FFF77A
:103F2000F3FE0128044603D0296860B901312960F5
:103F30000124204670BD0C49F0E70C49EEE70C491E
:103F4000ECE70C49EAE702463046FFF7E1FD0023C3
:103F50002B60EEE70123002403702C60E9E700BF2B
:103F6000B4030020790000209200002031000020DE
:103F70005D000020870000200148FFF7F5BD00BF6D
:103F8000C4030020F0B5012185B0064601F027FCEE
:103F9000A0F13005072D04462CD81A49684601F0D7
:103FA0003FFB6946304601F008FC0746684601F0D1
:103FB000EDFA57B1ADB22846032104F029F928469D
:103FC00005B0BDE8F04004F04DB90F49684601F076
:103FD00027FB6946304601F0F0FB0546684601F0D4
:103FE000D5FA5DB1263CA4B22046032104F010F9B5
:103FF0002046E5E74FF0FF3005B0F0BD6FF001005F
:10400000FAE700BF32B408082CBB0808F0B501215C
:1040100085B0064601F0E3FBA0F13004072C47D839
:10402000072303223146684601F0ECFB6846254928
:1040300001F09BFB0546684601F0A8FA3DBB06234C
:1040400003223146684601F0DDFB68461E4901F057
:104050008CFB0746684601F099FA67B31B4968462E
:1040600001F0DEFA6946304601F0A7FB07466846D4
:1040700001F08CFA6FB1A4B20121204604F0C8F817
:104080002046294604F0D5F8012005B0F0BD0125F1
:10409000E4E70F49684601F0C3FA3046694601F08B
:1040A0008CFB0646684601F071FA3EB10A34E2E73D
:1040B0004FF0FF30E9E76FF00100E6E76FF0020034
:1040C000E3E700BF2EBB080833BB080832B408087A
:1040D0002CBB0808F0B5012185B0074601F07FFB35
:1040E000A0F13005072D04462CD81A49684601F086
:1040F00097FA6946384601F060FB0646684601F0CB
:1041000045FA56B1ADB22846002104F081F82846A0
:1041100005B0BDE8F04004F0B8B80F49684601F0BA
:104120007FFA6946384601F048FB0546684601F0CB
:104130002DFA5DB1263CA4B22046314604F068F861
:104140002046E5E74FF0FF3005B0F0BD6FF001000D
:10415000FAE700BF32B408082CBB0808F0B501210B
:1041600089B0054601F03BFBA0F13006072E04465E
:1041700040D803222946684601F066FB1F4904A87F
:1041800001F04EFA284604A901F017FB074604A8DF
:1041900001F0FCF997B1B6B20121304604F038F8CD
:1041A000684601F058FB0146304604F085F80124CA
:1041B000684601F0EBF9204609B0F0BD104904A8AB
:1041C00001F02EFA284604A901F0F7FA054604A8E2
:1041D00001F0DCF95DB1263CA4B20121204604F0D7
:1041E00017F8684601F037FB01462046DDE76FF01F
:1041F0000104DDE74FF0FF34DDE700BF32B408080B
:104200002CBB0808F8B590F8293004468BB900F0AB
:1042100057FC41F27071A26BA063831A8B4209D9DB
:104220006FF00103E362032384F82A30012384F84A
:104230002930F8BD94F82A5005F0FF01002D48D030
:104240000129F6D1A3F13D025D2A70D894F8361009
:104250006E2B214491F830204FEA4202D2B281F80D
:10426000302008D994F83620224492F8301041F0DA
:10427000010182F83010226CDBB2511C21641370F2
:1042800094F8353003F0FF05002B49D1072384F85B
:10429000353094F836300133DBB2052B84F83630F4
:1042A000C7D1012084F8290094F8301094F83170B7
:1042B00094F83220394494F833300A4494F8346046
:1042C0001344DBB2B34224D04FF0FF33E362032345
:1042D00011E0402B04D8A36B1A44121AA263A8E77A
:1042E000226CD9B27E3B5D2B02F101004FF001033D
:1042F00004D82064117084F82A309AE784F82930B1
:104300006FF00203E3620323206484F82A30117003
:104310008FE70223E56284F82A3084F83C0088E7BE
:1043200094F83530013BDBB284F8353081E7092B56
:1043300094BF6FF005026FF0030284F82910032385
:10434000E262D8E710B403685A689968541001EB28
:104350006200D20748BF0A591B6810BC48BFD35837
:104360001847012A38B5044602D10B68236003E0E0
:10437000022A03D0032A0DD0002038BD0C200D687E
:10438000FBF79BFE03460028F0D095E8070083E882
:104390000700EBE700680028EED00C2104F085F858
:1043A000EAE7C0E911127047032238B5002380F80C
:1043B0002A2001256FF006020446C364C262294622
:1043C00080F8293080F85050B0F8440003F020FF06
:1043D000B4F84400294603F02CFFBDE838404FF400
:1043E0007A7002F0A7BC000070B5044686B000F0F9
:1043F0006FFB94F8503023B9E36CC31AB3F5FA6F2E
:1044000067D394F82A30032B03D094F82A30022B78
:1044100061D100231A4684F85030E06484F82A30D1
:10442000E2540133292BFBD1072384F8302084F890
:10443000312084F8322084F8332084F8342084F842
:104440003530002301216365A365B4F8440084F886
:104450003620246403F0DCFE0021B4F8440003F0AD
:10446000E8FEA36C0B2B2FD1122002F063FC00217D
:10447000B4F84400002503F0CBFE00F021FBA0635C
:104480000C2084F82950B4F844600495FBF715FE1D
:1044900018B1124B8460C0E90035114B02900593AE
:1044A000104B0222049300233046009302A94FF0E0
:1044B000FF3303F01DFA049B1BB102A90322084637
:1044C0009847012006B070BD40F2DC5000F0F0FAD1
:1044D000CDE70220F6E76FF00400F3E70542080895
:1044E000454308086343080810B5836C04460B2B4A
:1044F0002AD0153B012B31D890F8303090F831009C
:1045000000EB032080B205F073FC1BA3D3E900236A
:1045100005F0D8FC05F0CEFF94F8323060651B063C
:1045200020D594F8323094F8330003F07F0300EB89
:104530000320404205F05CFC0FA3D3E9002305F003
:10454000C1FC05F0B7FF08E090F8300006F0B8F8BD
:10455000606594F8320006F0B3F8A065002384F893
:104560003C3010BD94F8323094F8330000EB032057
:1045700080B2DFE7AFF300809A9999999999B93F92
:1045800090F82A30022B05D090F82A00033818BF83
:10459000012070470020704710B590F8293004467C
:1045A00033B1B0F8440003F05DF9002384F82930FA
:1045B00010BD10B50446FFF7EFFFE06A10BD000024
:1045C00010B50446FFF7E8FF94F82A30032B03D117
:1045D000E06A06F079F810BD94F82A30022B07D172
:1045E00094F83C3013B12046FFF77EFFA06DF2E750
:1045F0000048F0E70000A0C010B50446FFF7CCFF6C
:1046000094F82A30032B03D1E06A06F05DF810BD60
:1046100094F82A30022B07D194F83C3013B120468D
:10462000FFF762FF606DF2E70048F0E70000A0C00E
:1046300010B50446FFF7B0FF94F82A30032B03D1DE
:10464000E06A06F041F810BD94F82A30022B11D12F
:1046500094F83C3013B12046FFF746FF0649A06DA1
:1046600006F086F8054906F037F94FF0844105F069
:1046700077FFE8E70248E6E7000010410000A040AD
:104680000000A0C00000000010B50446FFF784FF42
:1046900094F82A30032B03D1E06A06F015F810BD18
:1046A00094F82A30022B10D194F83C3013B12046F4
:1046B000FFF71AFFA06D05F0ADFB05A3D3E90023BA
:1046C00005F04AFA05F0F6FEE9E70348E7E700BF20
:1046D00066666666661271400000A0C000000000B9
:1046E0002DE9F8430446FFF757FF94F82A30032BCF
:1046F00004D1E06A05F07CFBBDE8F88394F82A3029
:10470000022B46D194F83C3013B12046FFF7ECFE63
:10471000A06D05F07FFB0646606D0F4605F07AFB45
:104720000022214B05F0F8FC03F0C8FE1AA3D3E9E0
:10473000002304460D463046394605F0C3FB18A356
:10474000D3E90023804689463046394605F004FA0D
:1047500002460B464046494605F0DEFC22462B4603
:1047600005F0FAF90EA3D3E9002306460F4605F03B
:10477000A9FB324604460D4607A1D1E900013B469C
:1047800005F0E8F902460B462046294605F0C4FC30
:10479000B2E700200549AFE74C3789416045314019
:1047A0006666666666B66D4000005940000014C03B
:1047B0002DE9F84F0446FFF7EFFE94F82A30032B5B
:1047C00004D1E06A05F014FBBDE8F88F94F82A30B4
:1047D000022B40F0A98094F83C3013B12046FFF73B
:1047E00083FEA06D05F016FB51A3D3E9002305F06D
:1047F000B3F902460B4650A1D1E9000105F08CFC4B
:104800000022634B06460F4605F0A4F94CA3D3E9FA
:10481000002382468B4605F055FB8046894630468C
:10482000394603F085FE48A3D3E9002305F04AFB8F
:1048300042464B4605F090F93246804689463B4653
:104840000020534905F068FC02460B460020504901
:1048500005F080F93EA3D3E9002305F033FB0246BF
:104860000B4600204B4903F09DFE0022484B05F00B
:1048700071F939A3D3E9002305F024FB42464B46E6
:1048800005F06AF936A3D3E9002306460F465046E1
:10489000594605F017FB02460B4600203D4903F040
:1048A00081FE00223A4B05F055F92FA3D3E90023EE
:1048B00005F008FB32463B4605F04EF92CA3D3E940
:1048C000002305F049F90022334B05F043F9024675
:1048D0000B4600202F4903F065FE06460F46606D2B
:1048E00005F098FA32463B4605F0ECFA22A3D3E9EC
:1048F000002305F011FC03F0E1FD21A3D3E900231F
:1049000006460F4605F0DEFA324604460D461EA165
:10491000D1E900013B4605F01DF902460B46204651
:10492000294605F0F9FB4FE700201C494CE700BF82
:1049300066666666661271406666666666527740AF
:10494000B1C403CAA69C1FC0CDAFE600C11C144071
:10495000E3A59BC420B02640B13D4236248B82BEE5
:10496000037D224F92EE0BC0630333F0EDA7803F2F
:104970001B549E40B40B0840CFA0A17F828BE33F25
:104980005C8FC2F5283C6E40022B8716D98E3140D1
:104990000000F03F0000244000000840000014C068
:1049A000F8B50D460446FFF71FFD00F091F80646E6
:1049B0000E4F2046FFF7E4FD58B12DB900F088F8FE
:1049C000386000F075FBF4E700F082F8831BAB421F
:1049D000F4D32046FFF7D4FD10B16FF00203E36279
:1049E0002046FFF7D9FDE06AF8BD00BFAC05002006
:1049F00008B5024B1B685B68019308BDB001040851
:104A000008B5024B1B689B68019308BDB001040800
:104A100008B5024B1B68DB68019308BDB0010408B0
:104A200008B5024B1B681B69019308BDB00104085F
:104A300008B5024B1B685B69019308BDB00104080F
:104A400008B5024B1B689B69019308BDB0010408BF
:104A500008B5024B1B68DB69019308BDB00104086F
:104A600008B5024B1B689B6A019308BDB00104089E
:104A700008B5024B1B681B6B019308BDB00104080D
:104A800008B5024B1B689B6F019308BDB001040879
:104A900008B5024B1B685B68019308BD9C010408C4
:104AA00008B5024B1B689B68019308BD9C01040874
:104AB00008B5024B1B68DB68019308BD9C01040824
:104AC00008B5024B1B681B69019308BD9C010408D3
:104AD00008B5024B1B685B69019308BD9C01040883
:104AE00008B5024B1B689B6D019308BD9C0104082F
:104AF00008B5024B1B685B6E019308BD9C0104085E
:104B000008B5024B1B685B6E019308BDB801040831
:104B100008B5024B1B68DB6E019308BDB8010408A1
:104B200008B5024B1B685B68019308BDD0010408FF
:104B300008B5024B1B689B68019308BDD0010408AF
:104B400008B5024B1B68DB68019308BDD00104085F
:104B500008B5024B1B681B69019308BDD00104080E
:104B600008B5024B1B685B69019308BDD0010408BE
:104B700008B5024B1B68DB69019308BDD00104082E
:104B800008B5024B1B681B6A019308BDD0010408DD
:104B900008B5024B1B685B6A019308BDD00104088D
:104BA00008B5024B1B689B6A019308BDD00104083D
:104BB00008B5024B1B68DB6A019308BDD0010408ED
:104BC00008B5024B1B685B6C019308BDD00104085B
:104BD00008B5024B1B689B6C019308BDD00104080B
:104BE00008B5024B1B68DB6C019308BDD0010408BB
:104BF00008B5024B1B685B6D019308BDD00104082A
:104C000008B5024B1B68DB6E019308BDD001040898
:104C100008B5024B1B681B6F019308BDD001040847
:104C200008B5024B1B689B69019308BDC4010408C9
:104C300008B5024B1B681B6A019308BDC401040838
:104C400008B5024B1B685B6A019308BDC4010408E8
:104C500008B5024B1B689B6A019308BDC401040898
:104C600008B5024B1B68DB6A019308BDC401040848
:104C700008B5024B1B681B6B019308BDC4010408F7
:104C800008B5024B1B685B6B019308BDC4010408A7
:104C900008B5024B1B689B6B019308BDC401040857
:104CA00008B5024B1B681B6C019308BDC4010408C6
:104CB00008B5024B1B68DB6C019308BDC4010408F6
:104CC00008B5024B1B68DB68019308BDAC01040802
:104CD00008B5024B1B689B69019308BDAC01040831
:104CE00008B5024B1B68DB69019308BDAC010408E1
:104CF00008B5024B1B681B6A019308BDAC01040890
:104D000008B5024B1B685B6A019308BDAC0104083F
:104D100008B5024B1B689B6A019308BDAC010408EF
:104D200008B5024B1B68DB6A019308BDAC0104089F
:104D300008B5024B1B681B6B019308BDAC0104084E
:104D400008B5024B1B685B6B019308BDAC010408FE
:104D500008B5024B1B681B6C019308BDAC0104082D
:104D600008B5024B1B689B6C019308BDAC0104089D
:104D700008B5024B1B68DB6C019308BDAC0104084D
:104D800008B5024B1B681B6D019308BDAC010408FC
:104D900008B5024B1B681B68019308BDB4010408E9
:104DA00008B5024B1B689B68019308BDB401040859
:104DB00008B5024B1B68DB68019308BDB401040809
:104DC00008B5024B1B681B69019308BDB4010408B8
:104DD00008B5024B1B685B69019308BDB401040868
:104DE00008B5024B1B68DB69019308BDB4010408D8
:104DF00008B5024B1B681B6A019308BDB401040887
:104E000008B5024B1B685B6A019308BDB401040836
:104E100008B5024B1B68DB6B019308BD2000060838
:104E200008B5024B1B689B6C019308BD2000060867
:104E300008B5024B1B681B68019308BD1C000608DF
:104E400008B5024B1B685B68019308BD1C0006088F
:104E500008B5024B1B689B68019308BD1C0006083F
:104E600008B5024B1B681B69019308BD1C000608AE
:104E700008B5024B1B685B69019308BD1C0006085E
:104E800008B5024B1B689B69019308BD1C0006080E
:104E900008B5024B1B68DB69019308BD1C000608BE
:104EA00008B5024B1B681B6A019308BD1C0006086D
:104EB00008B5024B1B685B6B019308BDA00102089B
:104EC00008B5024B1B685B6D019308BDA001020889
:104ED00008B5024B1B68DB6E019308BDA0010208F8
:104EE00008B5024B1B681B6F019308BDA0010208A7
:104EF00008B5024B1B681B68019308BDA401040898
:104F000008B5024B1B685B68019308BDA401040847
:104F100008B5024B1B685B69019308BDA401040836
:104F200008B5024B1B689B69019308BDA4010408E6
:104F300008B5024B1B681B6A019308BDA401040855
:104F400008B5024B1B68DB6A019308BDA401040885
:104F500008B5024B1B68DB6C019308BDA401040873
:104F600008B5024B1B685B6D019308BDA4010408E2
:104F700008B5024B1B689B6D019308BDA401040892
:104F800008B5034B1B68D3F89030019308BD0000AF
:104F9000A401040808B5034B1B68D3F89C300193A7
:104FA00008BD0000A401040808B5034B1B68D3F832
:104FB000A830019308BD0000A401040808B5034B04
:104FC0001B68D3F8B830019308BD0000A4010408A1
:104FD00008B5024B1B685B68019308BDC801040853
:104FE00008B5024B1B689B68019308BDC801040803
:104FF00008B5024B1B68DB68019308BDC8010408B3
:1050000008B5024B1B681B69019308BDC801040861
:1050100008B5024B1B685B69019308BDC801040811
:1050200008B5024B1B689B69019308BDC8010408C1
:1050300008B5024B1B68DB69019308BDC801040871
:1050400008B5024B1B681B6A019308BDC801040820
:1050500008B5024B1B681B6B019308BDC80104080F
:1050600008B5024B1B685B6B019308BDC8010408BF
:1050700008B5024B1B681B6C019308BDC8010408EE
:1050800008B5024B1B685B6C019308BDC80104089E
:1050900008B5024B1B681B68019308BDCC010408CE
:1050A00008B5024B1B685B68019308BDCC0104087E
:1050B00008B5024B1B689B68019308BDCC0104082E
:1050C00008B5024B1B68DB68019308BDCC010408DE
:1050D00008B5024B1B685B69019308BDCC0104084D
:1050E00008B5024B1B681B6A019308BDCC0104087C
:1050F00008B5024B1B685B6A019308BDCC0104082C
:1051000008B5024B1B681B6B019308BDCC0104085A
:1051100008B5024B1B68DB6B019308BDCC0104088A
:1051200008B5024B1B685B6C019308BDCC010408F9
:1051300008B5024B1B681B68019308BDA001040859
:1051400008B5024B1B685B68019308BDA001040809
:1051500008B5024B1B689B68019308BDA0010408B9
:1051600008B5024B1B681B69019308BDA001040828
:1051700008B5024B1B68DB69019308BDA001040858
:1051800008B5024B1B685B6A019308BDA0010408C7
:1051900008B5024B1B68DB6A019308BDA001040837
:1051A00008B5024B1B681B6B019308BDA0010408E6
:1051B00008B5024B1B68DB6B019308BDA001040816
:1051C00008B5024B1B681B6C019308BDA0010408C5
:1051D00008B5024B1B685B6C019308BDA001040875
:1051E00008B503F035F9BDE8084002F065BD10B51B
:1051F0000446017009B1FFF7F3FF204610BD08B562
:1052000003F026F9BDE8084002F05FBD10B5037851
:1052100004460BB1FFF7F3FF204610BD10B504465E
:105220000068FFF7ECFF204610BD30B587B00D4693
:105230000190FFF7D5FF6B2200230124CDE9022363
:105240000A23CDE9044303F003F902A902F015FD96
:1052500003F0FEF8036829469B68984703F0F8F8C6
:10526000214602F022FD039403F0F2F802A902F0B5
:10527000D1FC03F0EDF803685B699847044601A888
:10528000FFF7CCFFE0B207B030BD082108B5FFF74B
:10529000CCFFC0F3800008BD0821FFF7C6BFFFF7B1
:1052A000A7BCFFF79DBC70B5002604460D4640F82C
:1052B000086FFFF785FC28462570FFF791FD204613
:1052C000666070BD10B504468068FFF7EAFF20787D
:1052D0004FF6FF71FFF75CFDA068BDE81040FFF7D7
:1052E000DEBF38B504460D468068FFF7DAFF207848
:1052F0002946FFF755FDA068BDE83840FFF7CFBF4E
:1053000038B504460D468068FFF7CBFF2078294664
:10531000FFF74EFDA068BDE83840FFF7C0BF0000B2
:1053200030B50024400818601868E5B2884206D9F4
:105330000134082C02D040081860F5E70725024B1D
:105340005B5D137030BD00BF37BB0808F0B50025AA
:10535000044689B0806802FB01F60295FFF7A1FFC1
:105360002946142203A8277805F068FC0B232A4657
:10537000384603A9ADF80C30FFF742FD02AB0DF142
:105380000702314604988DF80750FFF7C9FF9DF8D2
:1053900007102078FFF714FDA068FFF780FF029840
:1053A00009B0F0BD08B50078FFF712FDC0B208BD26
:1053B000B1F9043010B50A6833B932B9D1F8063002
:1053C00003604B89838010BD22B19488012C03D0E7
:1053D000042C06D0042205E092898C710B814A814D
:1053E000ECE702220B814FF6FF738A714B81E5E7F0
:1053F00010B50446006818B1FFF7A2FE0023236031
:1054000010BD38B50C46B1F9043005468380D1F89B
:105410000630C0F806304B894381FFF7E9FF236867
:1054200013B12B600023236038BD07B50B46002164
:105430000246009101208C21FFF7C0FD03B05DF80A
:1054400004FB01460020FFF7F0BF0020FFF7F9BF83
:1054500007B500220346114600920320FFF7AEFD78
:1054600003B05DF804FB000030B5044685B0084683
:1054700011461A460023FFF753FD0023CDE90133FF
:105480004FF6FF73094D01A9ADF80C002846ADF8A1
:105490000E30FFF7B6FF01A8FFF7AAFF2046294606
:1054A000FFF786FF204605B030BD00BFEC030020AB
:1054B00010B50024047044804FF6FF7400298480E6
:1054C00008DD01398B4204D932F811308380012381
:1054D000037010BD01D10223FAE74180F9E7000013
:1054E000F0B50D46164600278BB01A46129B0446AF
:1054F0000193119B314600932846109B0297FFF7BA
:1055000053FD334601462A4605A8FFF7D1FF0F4D4C
:105510009DF81410BDF91620BDF8183028468DF8F6
:10552000221007A9ADF82420ADF826300797ADF872
:105530002070FFF766FF07A8FFF75AFF20462946AD
:10554000FFF736FF20460BB0F0BD00BFEC03002094
:105550000222002010B5084B084C1A60084BC4E921
:105560000000A360FFF7CCFC2046BDE81040054AD0
:10557000054902F095BF00BFF8030020EC030020AE
:105580000000FFFF30010020AD01080810B50446FF
:105590000068FFF7D5FD204610BD10B50446006831
:1055A00008B1FFF7CDFD0023C4E90133236010BD2E
:1055B00038B504460D4600680131FFF7C9FD10B14A
:1055C000C4E90005012038BD10B50368044623B1C5
:1055D00043688B4201D3012010BD2046FFF7E8FF4E
:1055E0000028F9D0A368002BF5D122681370F2E7E8
:1055F00070B50E46114604461546FFF7E5FF20B983
:105600002046FFF7CAFF204670BD2A463146206873
:10561000A56005F0EBFA00212268A368D154F2E7F7
:1056200038B5002304460D46C0E900338360037398
:1056300039B1084605F07DFB294602462046FFF7B2
:10564000D7FF204638BD38B5054600680C4668B11E
:105650006A688B689A4207D3096805F046FBA3681D
:10566000AB600023A36038BDFFF76AFD23682B60A1
:1056700063686B60A368AB600023C4E90033F1E7A3
:10568000002310B50446C0E9003383600373FFF7BD
:10569000DAFF204610BD884210B50B46044604D000
:1056A000096821B19A68FFF7A3FF204610BDFFF7F4
:1056B00074FFFAE7002310B50446C0E900338360A5
:1056C0000373FFF7E8FF204610BD884210B504467B
:1056D00001D0FFF7B8FF204610BD38B505460C468F
:1056E00049B1084605F025FB214602462846FFF74A
:1056F0007FFF284638BDFFF750FFFAE770B5054633
:105700000E4609B9002070BD6AB184681444214670
:10571000FFF75AFF0028F5D02868AB6831461844D7
:1057200005F0E3FAAC600120EDE710B58A6809687E
:105730000446FFF7E3FF10B92046FFF72EFF20468F
:1057400010BD38B504460D4621B92046FFF725FFA8
:10575000204638BD084605F0ECFA294602462046A8
:10576000FFF7CCFF0028F0D0F2E708B582683AB91D
:1057700021B10878B0FA80F0400900E0012008BDAE
:10578000006809B90078F5E705F0A5FAF2E71346D5
:1057900010B58A688468A41A9C420AD3006838B19C
:1057A000096841B1184405F0CCFAB0FA80F040091C
:1057B00010BD0020FCE70846FAE782688B689A4231
:1057C00002D30022FFF7E3BF0020704783688B42BB
:1057D00003D9006810B1405C704700207047FFF7A4
:1057E000F5BF10B58368934206D90468A01805F088
:1057F0005BFA08B1001B10BD4FF0FF30FBE7002241
:10580000FFF7EFBFF8B51D469A4288BF13460F4613
:10581000144688BF2C460B4988BF1D460646FFF735
:10582000FFFEBB68A3420AD33968AB4294BFC4EB06
:105830000302C4EB050230462144FFF7D9FE30468F
:10584000F8BD00BFB4B6080810B504468B68FFF772
:10585000D9FF204610BD006808B105F0B5B9704702
:105860000EB4FFB509AD55F8047B04462B463A4605
:10587000052102A80195FFF783FC06460B49204647
:10588000FFF7CEFE31462046FFF79EFE206830B17E
:105890002B463A46711C0195FFF772FCA06020462A
:1058A00004B0BDE8F04003B0704700BFB4B60808CC
:1058B000F8B506460D4600248F18BD420CD033685B
:1058C00030469B6815F8011B9847031E01DB1C44FA
:1058D000F3E7002C08BF1C462046F8BD70B505460E
:1058E0000C46084649B105F024FA2B6802462146C9
:1058F0002846BDE87040DB68184770BD08B5FFF763
:10590000EDFF08BD03689B68184738B50D210546B3
:10591000FFF7F8FF0A2104462846FFF7F3FF20446B
:1059200038BD38B50546FFF7D9FF04462846FFF7CE
:10593000ECFF204438BD0023012A98BF0A2230B56D
:105940008BB00C468DF8243009A92546B4FBF2F43F
:1059500004FB1253DBB2092B94BF30333733DBB275
:10596000AA4201F8013DF0D9FFF7B8FF0BB030BDF6
:105970002DE9F74F05461946104692461F469DF8F9
:10598000306004F039FD40B151492846FFF7A6FFC9
:105990000446204603B0BDE8F08F27F000444FF0E6
:1059A000FF32504621464B4B04F026FD48B94FF0DC
:1059B000FF3250462146474B04F000FD08B94649E6
:1059C000E3E74FF0604250463946444B04F00AFD8D
:1059D00008B14349D9E74FF0604250463946414B40
:1059E00004F0E2FC0028F4D100220023504639469E
:1059F00004F0DAFC044630B12D212846FFF782FF7F
:105A0000044607F100474FF0000B00204FF000085C
:105A10003549DFF8D8905FFA8BF39E4206D94246AB
:105A20004B4604F079FB0BF1010BF4E73B46524681
:105A300004F092F88946804604F01CFD074604F005
:105A4000C7F902460B464046494604F083F80A224D
:105A50008046894628463946FFF76DFF0444002EEC
:105A600097D028462249FFF739FF4FF0000ADFF8A8
:105A70007CB00444002E8CD052465B4640464946DA
:105A800004F020FA8046894604F0CCFC071E1BDA9D
:105A90002D212846FFF736FF034679420A22284681
:105AA0000193FFF748FF019B013E034438461C4425
:105AB00004F09EF902460B464046494604F04AF877
:105AC000F6B280468946D5E739460023E6E700BFAF
:105AD0003FBB0808FFFFEF7F43BB0808FFFFEF4114
