:020000040808EA
:1000000000000808CCA40808000006000A0005014A
:080010000402350800000000A5
:04001800F092080852
:1000200008B5024B1B689B6D019308BD2C000608A8
:1000300008B5024B1B685B6E019308BD2C000608D7
:1000400009480A4908B5884205D0094A824202D0C7
:10005000121A08F09DFF0748074A0021121A08F0FB
:10006000BFFF064808BD00BF0000002074A30808B9
:100070003001002030010020900500209005002074
:1000800070B506F0B7FB0025054E064CA41BA4086E
:10009000A54200D170BD56F8043B98470135F7E7FB
:1000A00008A1080844A1080800F060BF08B500F0E6
:1000B0004BFDBDE8084006F05FBB04F00DBC04F04A
:1000C0000BBC04F011BC000000210C2008B5024A52
:1000D00004F0BAFAFEE700BF694208080078B0FAF7
:1000E00080F0400970470123037070477047006A31
:1000F0000368DB68184703681847012A03D0022AFF
:1001000003D0002070470160FBE70B680360F8E74D
:10011000012A03D0022A03D0002070470160FBE7C8
:100120000B680360F8E70000014802F085BD00BFDE
:10013000280200201FB50468684604F06FFE684678
:10014000A0470446684604F0EFFD204604B010BD09
:1001500008B5006808F006FF014B186008BD00BF35
:100160000000002008B5006808F0FCFE014B186094
:1001700008BD00BF0C00002008B5006808F0F2FEC2
:10018000014B186008BD00BF0400002008B50068DE
:1001900008F0E8FE014B186008BD00BF0800002011
:1001A00008B5006808F0DEFE014B186008BD00BF0E
:1001B0001400002008B5024802F04AFD012008BDE5
:1001C00028020020436913B183690C301847704737
:1001D00013B500210446084604F096F80023204693
:1001E00001A9019304F0A8F8019C0CB1012323712B
:1001F0000021012004F088F82CB1236820469B6878
:1002000098470023237102B010BD000010B50D49BE
:10021000044604F078FE38B100220B4B0B481A70EC
:10022000BDE8104002F0E4BC2046094904F06BFE32
:1002300038B10122044B05481A70BDE8104002F0A5
:10024000E9BC10BD0493080810000020280200201B
:100250000D93080810B50446006808B104F044FB8B
:10026000204610BD10B50446094B036005F0ACF9FB
:10027000214605F0C5FB06F09FFE06F091FE2046E4
:10028000044B40F8043B05F0A9FA204610BD00BF1E
:10029000E0970808C897080810B50446FFF7E2FF82
:1002A0002046242107F0F5FC204610BD7FB504460A
:1002B000006808F057FE202186B2204604F06DFE4B
:1002C00021460246684604F08DFE009808F04AFE7A
:1002D0000446684604F028FD164B1B68DB001FD55A
:1002E00006F06AFE144904F0D7FE06F065FE0A2205
:1002F000314604F0EEFE06F05FFE104904F0CCFE3D
:1003000006F05AFE002C054612DA2D2104F0C8FE34
:1003100061420A22284604F0DCFE284604F0C3FEAF
:1003200022463146064802F08DFC012004B070BD23
:100330002146EEE714000020169308081D930808D4
:10034000280200200EB403B503AB53F8042B01219F
:10035000019304F0B7FF02B05DF804EB03B07047FF
:1003600038B50A4C15462368D90106D506F024FE97
:10037000074905F00F02FFF7E5FF23681A0154BF94
:1003800043F07F4323F07F43236038BD14000020F7
:100390002493080810B58368044613B1032201466C
:1003A0009847204610BD00000246014806F0D1BA29
:1003B000E368080807B58068002338B1CDE9001369
:1003C000022103F0C1FFB0FA80F0400903B05DF8EC
:1003D00004FB000038B5104B044603608368A3B1EA
:1003E0006FF000410022FFF7E5FF0021A06803F055
:1003F000DBFF237903F0FF0513B103F06DFFF8E78E
:100400002946A06803F090FFA56004F10C00FFF7F7
:10041000C1FF204638BD00BFB497080810B5044698
:10042000FFF7D8FF20461C2107F033FC204610BD03
:1004300038B5046805467CB16368013B63605BB90D
:10044000236820469B689847A368013BA3601BB9BB
:1004500023682046DB689847284638BD2DE9F041DF
:100460002E4892B002F0BEFB002854D006F049F8A6
:1004700005462A4802F0D2FA0446284802F0D4FA87
:100480000646264802F050FB0746244802F0D2FAFE
:10049000234B2A461B688046224900930EA8EB177F
:1004A00005F0D0FF204607F087FE0E9B04460D4660
:1004B00040461D49069308F0E1FB07F07DFECDE9BB
:1004C00004011949384608F0D9FB07F075FECDE95B
:1004D0000201304607F070FE2246CDE900012B46AE
:1004E00012490AA804F08AFD114B0A9A1B78114997
:1004F0008DF8003008A83C2306F038FB09A8FFF768
:1005000097FF0AA804F010FC0EA804F00DFC0120CF
:1005100012B0BDE8F0810220FAE700BF28020020F7
:10052000C4000020E003002000007A444093080843
:10053000400100206C93080830B51B488BB002F0D6
:1005400045FA0446194806F08DF80546174806F0A6
:10055000A7F807F031FECDE90201284607F02CFE8E
:100560002246CDE9000106A8114904F047FD114BD0
:10057000069A1B7810498DF8003004A83C2306F039
:10058000F5FA05A8FFF754FF06A804F0CDFB0748CD
:1005900006F086F8094908F079FC002814BF01200C
:1005A00002200BB030BD00BFCC0100209401002020
:1005B0007593080840010020989308080000204126
:1005C000F0B5164C89B0204602F048FB054620469F
:1005D00002F04EFB0646204602F054FB074620463A
:1005E00002F05AFB33462A46CDE900700C4904A8B4
:1005F00004F004FD0B4B049A1B780B498DF8003076
:1006000002A83C2306F0B2FA03A8FFF711FF04A8E2
:1006100004F08AFB012009B0F0BD00BF28020020D1
:10062000A293080840010020C0930808F0B54FF4D9
:10063000FA6089B005F080FF204802F0D1FC044642
:100640001E4802F093FC21460546204608F028FC8F
:1006500020B92946284608F023FC28B1184B1B680E
:10066000002B24DB022020E0284607F0A5FD0646EB
:1006700020460F4607F0A0FD3246CDE900013B467B
:10068000104904A804F0BAFC0F4B049A1B780F49D8
:100690008DF8003002A83C2306F068FA03A8FFF7A3
:1006A000C7FE04A804F040FB012009B0F0BD06F02D
:1006B00083FC074904F003FDD4E700BF800100205C
:1006C00014000020C993080840010020DD930808A9
:1006D000E593080830B52A498DB0054604F013FCAF
:1006E00068B1294608A804F0B3FB08A8FFF724FF67
:1006F000044608A804F018FB20460DB030BD28467B
:10070000204904F000FC38B1294608A804F0A0FBF9
:1007100008A8FFF7A3FEEBE728461B4904F0F3FB0C
:1007200038B1294608A804F093FB08A8FFF748FF52
:10073000DEE71649284604F0E6FB0446294608A8E9
:100740002CB104F085FB08A8FFF770FFD0E704F098
:100750007FFB08AA04A80E4904F050FC0D4B049A34
:100760001B780D498DF8003002A83C2306F0FEF9F5
:1007700003A8FFF75DFE04A804F0D6FAB9E700BFAE
:1007800005940808099408080D94080811940808AD
:1007900015940808400100202294080870B51B48F1
:1007A0008AB002F013F91A4E04463378834229D0F6
:1007B000184B1B685B0725D5174805F053FF054606
:1007C000154805F06DFF07F0F7FCCDE9020128465A
:1007D00007F0F2FC2246CDE90001104906A804F01A
:1007E0000DFC0F4B069A1B780E498DF8003004A8BB
:1007F0003C2306F0BBF905A8FFF71AFE06A804F093
:1008000093FA347001200AB070BD00BFCC01002003
:100810001100002014000020940100202B940808EF
:1008200040010020989308082DE9F04F95B003F09F
:1008300023FDDFF840A1DAF80030C01A454B1A68F2
:100840004EF660235343984240F28180424802F0C2
:10085000C9F900287BD0414B1A68099312F0010FA7
:1008600063D005F04EFEDFF810B1C517DBF800309D
:1008700002463B490446009310A82B4605F0E2FDD2
:1008800010A804F051FA344802F0C8F88146324802
:1008900002F0CAF80646304802F046F907462E48EC
:1008A00002F0C8F8DBF80030224680462C4900935D
:1008B00010A82B4605F0C6FD484607F07DFC109BAE
:1008C00004460D4640462749069308F0D7F907F03D
:1008D00073FCCDE904012349384608F0CFF907F04D
:1008E0006BFCCDE90201304607F066FC2246CDE9FB
:1008F00000012B461C490CA804F080FB1B4B0C9AF2
:100900001B781B498DF800300AA83C2306F02EF90D
:100910000BA8FFF78DFD0CA804F006FA10A804F050
:1009200003FA03F0A9FCCAF80000099B1B68DB006E
:100930000DD506F041FB0446074910A802F0FAF86D
:100940002046109904F0BBFB10A804F0EDF915B097
:10095000BDE8F08F0C0000202802002014000020C9
:10096000E003002000007A44409308084001002082
:100970006C930808A4010020C400002070B5314821
:1009800086B002F089F9304B04461B68834223DAB3
:100990002C4802F063F905462A4802F069F9064638
:1009A000284802F06FF9CDE90004284C33462A4666
:1009B000274902A804F022FB02A9204604F053FABA
:1009C00002A804F0B1F9234B1B689A0004D506F085
:1009D000F3FA216804F073FB03F04EFC1E4D2B6804
:1009E000C01A1E4B1A684EF660235343984227D90B
:1009F000184B1B689B0723D5144C1949204604F05B
:100A000082FAE8B9174B18491B7802A88DF8003014
:100A100022683C2306F0AAF803A8FFF709FD104955
:100A200002A804F0CBF902A8FFF718FD02A804F011
:100A30007BF903F021FC0A492860204604F01BFAE8
:100A400006B070BD2802002000000020D801002060
:100A5000A2930808140000209C010020040000203C
:100A6000A498080840010020C09308082DE9F0412F
:100A70004FF4FA6088B005F05FFD2B4802F0B0FA41
:100A80000446294802F072FA21460546204608F03D
:100A900007FA20B92946284608F002FA48B1234B44
:100AA0001B68002B13DA06F087FA214904F007FBD4
:100AB0000DE003F0E1FBDFF88C80D8F80030C01ABD
:100AC0001C4B1A684EF660235343984202D808B074
:100AD000BDE8F081154B1B681B07F8D5284607F0C9
:100AE0006BFB064620460F4607F066FB3246CDE913
:100AF00000013B46104904A804F080FA0F4B049A09
:100B00001B780F498DF8003002A83C2306F02EF820
:100B100003A8FFF78DFC04A804F006F903F0ACFB72
:100B2000C8F80000D3E700BF8001002014000020B7
:100B3000E593080808000020C99308084001002038
:100B4000DD930808A001002008B5114800F054FF0B
:100B5000104801F04BFC104801F028FA0F4801F052
:100B600019FE0F4801F048F9FFF708FFFFF75CFE98
:100B7000FFF714FEFFF77AFF0A4B1B681B0106D52F
:100B800006F01AFABDE80840074904F098BA08BD13
:100B900044010020E80100205401002074010020DD
:100BA0002C020020140000204E9408082DE9F04F7C
:100BB000A1B018AEA6490546304604F0FFF8A54896
:100BC00002F00AF81590A34801F06CFF8346A14893
:100BD00001F06EFF82469F4801F070FF81469D48FC
:100BE00001F07EFF80469B4801F080FF0746994850
:100BF00001F070FF1490974801F066FF029095484D
:100C000001F000FF0590934801F002FF0690914823
:100C100001F004FF07908F4801F006FF08908D480F
:100C200001F07CFF09908B4801F07EFF0A90894813
:100C300001F06EFF0B90874801F064FF0C9085482F
:100C400001F05AFF0D90834801F0FCFE0E908148A0
:100C500001F0FEFE0F907F4801F000FF10907D48EC
:100C600001F002FF03907B4801F004FF04907948F3
:100C700001F012FF1190774801F002FF12907548C1
:100C800001F004FF74491390284604F03CF91CACB1
:100C900068B3159A2046714904F0B0F921463046F0
:100CA00004F0E1F8204604F03FF82946204604F01D
:100CB000CFF820466A4904F012F9314604F003F9EE
:100CC000684B02681B7868498DF8003016A83C23F1
:100CD00005F04CFF17A8FFF7ABFB204604F024F803
:100CE000304604F021F8012021B0BDE8F08F2846FD
:100CF0005E4904F008F908B15A46CBE728465C493A
:100D000004F001F908B15246C4E72846594904F0F5
:100D1000FAF808B14A46BDE72846574904F0F3F807
:100D200008B14246B6E72846544904F0ECF808B149
:100D30003A46AFE72846524904F0E5F808B1149A5C
:100D4000A8E728464F4904F0DEF810B1BDF80820A6
:100D5000A0E728464C4904F0D6F848B1059807F0BA
:100D60002BFA02460B462046484904F047F995E71E
:100D70002846474904F0C7F8B046274670B10698A0
:100D800007F01AFA02460B463846404904F036F995
:100D90003946404604F067F8384684E728463D491E
:100DA00004F0B1F808B10798EAE728463A4904F098
:100DB000AAF80DF1600808B10898E1E7284637491C
:100DC00004F0A1F81CAF08B10998D9E728463449C6
:100DD00004F099F808B10A98D2E72846314904F09E
:100DE00092F808B10B98CBE728462F4904F08BF80E
:100DF000C246B94628B10C9A1849384604F0FEF8A4
:100E0000C6E72846294904F07EF808B10D9AF3E7B1
:100E10002846274904F077F810B10E9A2549ECE7E7
:100E20002846254904F06FF808B10F9AF6E72846DE
:100E3000224904F068F8002844D0109A2049484616
:100E400004F0DCF84946504604F00DF848462AE71D
:100E5000A49808082802002065940808FB9908084F
:100E6000979D0808400100206395080872940808BF
:100E700077940808929408087E94080884940808D7
:100E8000889408088D9408089A9408084F9A0808CE
:100E9000A3940808AD940808BD940808CE940808E7
:100EA000DA940808E3940808E9940808F494080818
:100EB000FF940808079508080B950808139508087B
:100EC000189508082846144904F01DF808B1039A3B
:100ED000B4E72846114904F016F808B1049AADE7C2
:100EE00028460F4904F00FF810B1119A0D49A6E7F2
:100EF00028460D4904F007F808B1129AF6E728468B
:100F00000A4904F000F808B1139AEFE7404608498F
:100F100003F0B1FFC9E600BF1C9508082195080839
:100F200026950808079508082D950808359508089E
:100F30003E95080870B51426D0E90053044606FB18
:100F40000356AE4204D0284603F0EEFE1435F8E70F
:100F5000206803F0C9FC204670BD0023022203F084
:100F600063BC0023022203F05FBC000010B586B012
:100F700006F022F84FF4165106F00EF842F2107007
:100F800005F0DAFA684801F0F7FC684801F0C5FEA0
:100F9000674801F025FD664801F0E6FD654902A8B5
:100FA00003F00CFF02A8FFF731F902A803F0BCFE22
:100FB000614801F041FC614800F01CFD604801F00F
:100FC0002FFA604800F090FF5F4800F0A9FD5F49EC
:100FD0005F48FFF7E9F95F4B102002935E4B0593E2
:100FE0005E4B0493FFF769F8044678B100238360F1
:100FF000049B33B1022202A99847059BE360049B3E
:10100000A3602146564A574805F0A3FC02A8FFF703
:10101000C1F955495548FFF7C7F955495548FFF7F4
:10102000C3F955495548FFF7BFF955495548FFF7EA
:10103000BBF955495548FFF7B7F955495548FFF7EA
:10104000B3F955495548FFF7AFF955495548FFF7EA
:10105000ABF955495548FFF7A7F955495548FFF7EA
:10106000A3F955495548FFF79FF955495548FFF7EA
:101070009BF955495548FFF797F900230122544938
:10108000544803F0D1FB54495448FFF766FF00234E
:1010900002225349534803F0C7FB53495348FFF713
:1010A00060FF53495348FFF75CFF53495348FFF72C
:1010B00058FF53495348FFF750FF53495348FFF730
:1010C0004CFF53495348FFF748FF00230122524980
:1010D000524803F0A9FB00230021514A4FF48050ED
:1010E00003F0F2FA03F0B8FB00224E4C1146204602
:1010F000FFF760F9A06840B100236FF00042194685
:10110000CDE900231A4603F01FF94FF4FA6005F009
:1011100013FA334B1B685B0104D505F04DFF4249C0
:1011200003F0CDFF06B010BDCC01002080010020EF
:10113000280200200D9308087401002044010020BB
:10114000E8010020540100202C020020A101080821
:101150000B9608080D020808350108081101080857
:101160007A9608080F690808D50608086C950808DB
:101170005101080873950808650108087D9508085D
:1011800079010808879508088D01080891950808D5
:10119000AD0208089B950808B5010808A395080842
:1011A00091120808AC950808AD0B0808B49508081A
:1011B000113F0808BE950808953F0808CA95080819
:1011C0005D400808D7950808E1400808E29508083E
:1011D00011000020EE95080800000020F89508088E
:1011E0001400002004960808A401002011960808A5
:1011F0009C0100201C960808A001002027960808E2
:101200000C00002032960808040000203E960808D2
:10121000080000204A96080810000020569608088A
:1012200061030808480200206296080838B50546A0
:1012300042B903689B6898470446284603F033FF89
:10124000204438BDD2B203F044FFF5E7F8B50546B7
:101250000C4616464AB90368C9B29B6898470746C8
:10126000284603F020FF3844F8BD00290CDA0A2A8A
:101270000AD12D2103F014FF074661422846F2B23D
:1012800003F027FF0744EBE721460027F6E70000BD
:101290002DE9F04FC94C93B0204601F09DFC8346E8
:1012A000204601F0FFFB8246204601F001FC81460A
:1012B000204601F003FC8046204601F011FC074661
:1012C000204601F013FC0646204601F003FC0546CB
:1012D000204601F0F9FB0090204601F093FB0190BD
:1012E000204601F095FB0290204601F097FB039009
:1012F000204601F099FB0490204601F00FFC059078
:10130000204601F011FC0690204601F001FC0790F8
:10131000204601F0F7FB0F90204601F0EDFB109006
:10132000204601F08FFB0890204601F091FB0990C8
:10133000204601F093FB0A90204601F095FB0B90AC
:10134000204601F097FB0C90204601F0A5FB0D9084
:10135000204601F095FB0E90204601F097FB0446D5
:1013600005F02AFE964903F097FE05F025FE0A22B5
:101370005946119003F0ADFE119B184603F093FE01
:1013800005F01AFE8F4903F087FE05F015FE0A22CC
:101390005146FFF74BFF05F00FFE8B4903F07CFE33
:1013A00005F00AFE0A224946FFF740FF05F004FE59
:1013B000864903F071FE05F0FFFD0A224146FFF762
:1013C00035FF05F0F9FD824903F066FE05F0F4FDF6
:1013D0000A223946FFF72AFF05F0EEFD7D4903F0AA
:1013E0005BFE05F0E9FD0A223146FFF71FFF05F01D
:1013F000E3FD794903F050FE05F0DEFD06460A22C2
:10140000294603F066FE304603F04DFE05F0D4FD9C
:10141000724903F041FE05F0CFFD05460A22BDF8F2
:10142000001003F056FE284603F03DFE05F0C4FD13
:101430006B4903F031FE05F0BFFD0222019903F074
:1014400033FF05F0B9FD674903F026FE05F0B4FD52
:101450000222029903F028FF05F0AEFD624903F075
:101460001BFE05F0A9FD0222039903F01DFF05F004
:10147000A3FD5E4903F010FE05F09EFD02220499D3
:1014800003F012FF05F098FD594903F005FE05F041
:1014900093FD0222059903F007FF05F08DFD5549E4
:1014A00003F0FAFD05F088FD0222069903F0FCFE28
:1014B00005F082FD504903F0EFFD05F07DFD0222AD
:1014C000079903F0F1FE05F077FD4C4903F0E4FDC8
:1014D00005F072FD0A220F99FFF7A8FE05F06CFDDA
:1014E000474903F0D9FD05F067FD0A221099FFF77F
:1014F0009DFE05F061FD434903F0CEFD05F05CFD66
:1015000005460A22089903F0E4FD284603F0CBFDC6
:1015100005F052FD3C4903F0BFFD05F04DFD0546C9
:101520000A22099903F0D5FD284603F0BCFD05F019
:1015300043FD364903F0B0FD05F03EFD0A220A994D
:10154000FFF784FE05F038FD314903F0A5FD05F0F5
:1015500033FD0A220B99FFF779FE05F02DFD2D4989
:1015600003F09AFD05F028FD0A220C99FFF76EFEA4
:1015700005F022FD284903F08FFD05F01DFD0A222C
:101580000D99FFF763FE05F017FD244903F084FD74
:1015900005F012FD0A220E99FFF758FE05F00CFD2A
:1015A0001F4903F079FD05F007FD0A222146FFF7E8
:1015B0004DFE012013B0BDE8F08F00BF28020020CF
:1015C00084960808939608089A960808BD96080815
:1015D000A3960808AB960808B1960808B8960808BC
:1015E000C7960808D2960808DE960808F0960808FC
:1015F00003970808119708081C97080824970808FB
:10160000319708083E970808489708085297080835
:10161000599708086097080867970808709708089E
:101620007A9708088842F8B504460D46164616D93A
:10163000904215D2A2F11406751AA1F114072C4498
:10164000B7421CD02CB13146204603F0E7FB337C77
:101650002374304603F068FB143E143CF0E70ED0D0
:10166000B5420CD02CB12946204603F0D7FB2B7C89
:101670002374284603F058FB14351434F0E7F8BD02
:1016800000232DE9F041C0E9003383604F68044630
:101690009F420E4624DD4FF0140808FB07F003F0CC
:1016A0001BF90546E0B1D4E9001208FB0212FFF76E
:1016B000B9FF206803F018F92560A760D6E9007328
:1016C00008FB0378B84509D03946284603F0C0FB2B
:1016D0003B7C143505F8043C1437F3E7736863600A
:1016E0002046BDE8F08100002DE9F0474FF0010AE7
:1016F0000024784B90B083F800A0CDE90344059412
:1017000005F05AFC744E0546B1460DF1240803A9B4
:1017100006A8FFF7B5FF06A94046FFF7B1FF6F4BDC
:101720000CAF49F8043B41463846FFF7A9FF3A465B
:101730001E21484604F0B6FA3846FFF7FBFB404648
:10174000FFF7F8FB664B3562336006A8FFF7F2FB44
:10175000644B654D336005F02FFC4FF4165105F0D6
:101760001BFC03F031FF314604F02FFA03A8FFF70A
:10177000E1FB2A4630465D4906F086FA214650468E
:1017800002F0AAFF5A4E5B4B3460B360B480B47170
:10179000022002F081FF3046574E2A46574906F094
:1017A00073FA3046564900F0E9FF2A46554930465B
:1017B00006F06AFA544E554B4FF46162009330467E
:1017C000002300F0D3FD3046514E2A46514906F021
:1017D0005BFA304600F064FB30464F4E2A464F49D4
:1017E00006F052FA022230464D4900F08BF930469D
:1017F0004C4E2A464C4906F047FA4FF46162304697
:101800004A4900F0C3F83046494E2A46494906F095
:101810003BFA4EF66021304600F0D0FC2A4646499D
:101820003046464E06F030FA454801F0D7F82146DA
:10183000304604F0C1FE3046424E2A46424906F088
:1018400023FA304601F088F82A4630463F49404E98
:1018500006F01AFA0623162203213E4801F056FA32
:1018600030463D4903F0AAFA2A4630463B4906F085
:101870000BFA3B4B3B4E0C9397E803003A4B88E83E
:101880000300336006F10C0393E8030087E80300CC
:1018900098E8030083E80300344B32217361B36995
:1018A000334A0F93334B3471B361B4603346CDE99F
:1018B000004406F108000E9402F02EFD3846FEF7B3
:1018C00069FD2A4630462C4906F0DEF910B0BDE825
:1018D000F08700BF40010020A8010020C897080839
:1018E000E89D0808E0970808300100206502080814
:1018F000340100200000FFFF740100205502080899
:101900008597080885260808E801002094970808AC
:1019100054010020392308082C020020611E080809
:10192000A197080844010020711A080800007041BE
:10193000640200207D1908085D2108089401002038
:1019400028020020CC010020D7650808B12808082B
:10195000D801002080010020A4980808294D08081B
:101960002901080848020020B4970808FB0008086D
:10197000D1010808F7000808D5030808704710B51A
:101980000446102106F085F9204610BD8260002231
:1019900010B5024C41600460C26010BDF8970808A1
:1019A00037B50446104804F07BFE0021054607F0D9
:1019B00045FAB0B92946606807F068FA88B10B4863
:1019C00003F031F868B9284607F080FA01460D2087
:1019D00000F05CFF064B012168461B68A26803F01B
:1019E0000FF903B030BD00BF840200208C0200203C
:1019F00080020020FFF7D4BF10B5044602F03CFC83
:101A0000E368C01A4EF65F23984207D902F034FC0F
:101A1000E0602046BDE81040FFF7C2BF10BD0000E7
:101A200070B500240C4B0D4D1C6021460C4E284611
:101A300004F0C2FD28460B4D32460B4906F024F94E
:101A40002146284602F09FFF32462846BDE87040F6
:101A5000064906F019B900BF800200208402002068
:101A6000300100208C020020D7650808A54908082D
:101A7000704710B504461C2106F00BF9204610BD36
:101A800010B50446086807F001FBE060002010BDB7
:101A9000022A38B5044607D0032A11D0012A01D101
:101AA0000B682360002038BD0C200D68FEF705FB95
:101AB00003460028F5D095E8070083E80700F0E723
:101AC00000680028EED00C2106F0E3F8EAE77FB5C5
:101AD0000268536890685E1000EB6305DB071468CA
:101AE00048BF8359684648BF1C5903F097F96946B7
:101AF0002846A0470446684603F016F9204604B07D
:101B000070BD00008260002210B5044CC0E90322C1
:101B1000C0E90041C0E9052210BD00BF889808084F
:101B20007FB50024054646680C200294FEF7C5FAEE
:101B300018B1164B8560C0E90034154B0090039333
:101B4000144B10200293FEF7B8FA044678B1002334
:101B50008360029B33B1022269469847039BE3608E
:101B6000029BA360324621460B4804F0F2FE029B22
:101B70001BB16946032208469847A868002803DB82
:101B8000022180B205F036FF04B070BD811A08084A
:101B9000CF1A0808911A08080F690808F0B5054619
:101BA0008DB00846814907F0CDFA00247F4E07AF7B
:101BB00048B1052C08D047F824003146002007F032
:101BC000C1FA0134F4E77CB14FF4FA7004F0B4FCCC
:101BD000079E7749304607F046FA38B900210A20B7
:101BE00000F054FE02F0FDFF0DB0F0BD714930462B
:101BF00007F039FA014650B96F4C2368002BEDD03D
:101C0000112000F043FE206800F090F9ECE76B49EA
:101C1000304607F028FA014610BB102000F036FECF
:101C2000674B684A1B7868498DF8003005A83C234B
:101C300004F09CFF069C002CD6D06368013B6360D7
:101C4000002BD1D1236820469B689847A368013BAD
:101C5000A360002BC8D123682046DB689847C3E700
:101C600030465A4907F0FFF9074638B901461320B4
:101C700000F00CFE384602F0B7FFB5E75449304695
:101C800007F0F1F9014618B90B2000F0FFFDFEE75F
:101C90003046504907F0E7F9002865D1012C63D0A0
:101CA000022C12D11E2421460C2000F0EFFD089ECC
:101CB0004949304607F0D7F970B9484B224601210F
:101CC0001B6805A802F09CFF8EE7099807F04AF907
:101CD00004460028E6D0E6E73046414907F0C3F95C
:101CE00008B9404BEAE730463F4907F0BCF90746E0
:101CF000D0B9AB68002BFFF677AF384AADF8123099
:101D000012680223CDE9014201228DF811300DF154
:101D1000120100920DF1110305A802F0AFFF394640
:101D2000152000F0B3FD5FE73046304907F09BF91E
:101D3000064600287FF458AFAB68002BFFF654AF7F
:101D4000284AADF8123012680223CDE9014201227F
:101D50008DF811300DF1120100920DF1110305A85B
:101D600002F08CFF3146DBE73046214907F07BF972
:101D700000287FF439AF012C3FF436AF089E1D498F
:101D8000304607F070F948B9022C04D0099807F0E2
:101D9000E9F8686128E71E236B6125E730461249A0
:101DA00007F061F900287FF41FAFF2E7899A08086D
:101DB0000098080806980808A00200201198080852
:101DC00098020020A49808081E9808083798080868
:101DD000409808084C98080852980808900200207B
:101DE0005798080894020020639808086898080823
:101DF000749808087998080810B5C168044631B18C
:101E0000FFF7CCFEE06802F06FFD0023E36063693A
:101E1000002B14DD02F030FA23696269C01A4FF416
:101E20007A73534398420AD302F026FAA1692061DB
:101E30000131A1611420BDE8104000F027BD10BDA4
:101E40000022044B1A600123034A1360034A1370F3
:101E5000704700BF900200209402002098020020EA
:101E6000704710B50446202105F013FF204610BD31
:101E70000EB410B50023016820208DB00FAA52F8CF
:101E8000044BCDE90403CDE9004203921E2004AACD
:101E900002F0E2FB0DB0BDE8104003B07047000057
:101EA00047F230520B4B42F2107103600A4B10B5EF
:101EB000C0E901230023094AC0E903131060084A5E
:101EC00008491468C0E906338C4218BFC2E9001300
:101ED000838210BD2899080820BF0200A0020020BC
:101EE0000040024094C54E2E70470000002110B5FE
:101EF0000C4BC2680446084602F05EFB0146072010
:101F000000F0C4FC0021E268074B084602F054FBD5
:101F100004460146082000F0B9FCA01C18BF0120AF
:101F200010BD00BF90980808A598080830B51B4957
:101F300085B01B48FFF79CFF0021042000F0A6FCA1
:101F4000002301A8CDE90133ADF80C3004F012FDF7
:101F500002F092F943F69725044602F085FC40B161
:101F600002F08AF9001BA84203D8642004F0E4FAC6
:101F7000F3E7002147F2305208460A4B02F01CFBFF
:101F80004FF47A7004F0D8FA074B0A2201211B683B
:101F900001A802F035FE05B030BD00BFC2980808A8
:101FA000B4030020D29808089C02002037B5002214
:101FB000454D04461146686802F0EEFB237D01465C
:101FC00083420DD02075012000F060FC217D3F4A46
:101FD0003F4B4048002908BF1A463F49FFF748FFDA
:101FE00002F042FC637D014683422BD060750220E3
:101FF00000F04CFC617D364B344A3648002908BF5E
:102000001A463649FFF734FF637DC3B10022344BD3
:102010005A6000226868114602F0DEFB68B1A569CB
:10202000002D3CD102F028F92946A061032000F0E0
:102030002DFC2C492748FFF71BFF03B030BD02F0F1
:102040001BF9E061637D002BE3D1A368002BE0D096
:1020500002F012F9E369C01AA3689842D9D3237D2C
:1020600013B12046FFF742FF1D4A53680133536006
:10207000226962B1012B0AD90021162000F006FC6A
:10208000194B012168461B68226902F0B9FD002145
:10209000062000F0FBFB2046FFF748FFB9E7636826
:1020A000002BCAD002F0E8F8A369C01A636898420E
:1020B000C3D30021052000F0E9FB204603B0BDE8B2
:1020C0003040FFF733BF00BFFC040020DF98080852
:1020D000E2980808B4030020E7980808F398080875
:1020E00000400240079908089C0200200022014B92
:1020F0001A6070479C020020012310B503748368A6
:10210000044643B1C0689847012300206374BDE8CA
:10211000104002F041B900680028F5D083680BB97F
:1021200005F0BDFDC368EEE708B50021092000F009
:10213000ADFBBDE8084002F054BD38B50568044663
:1021400035B12846FEF726F91021284605F0A1FDF5
:102150002046BDE83840142105F09BBD10B5114B59
:102160000446036083699BB1586802F0ADF878B902
:10217000A3695A7C12B9586802F0B6F8A369586886
:1021800002F0BAF80023A069A36108B1FFF7D5FFF8
:10219000A06908B1FFF7D1FF04F10800FEF7FAF8D3
:1021A000204610BD4099080810B50446FFF7D6FF39
:1021B00020461C2105F06DFD204610BD70B5064679
:1021C00000250446234B86B046F8043B224B416071
:1021D0000293224B05610593214B02A90222301D77
:1021E0000493FDF78AFF059B14206361049B1D493E
:1021F000236105F050FD28B1C0E90055C0E9025542
:1022000005744574A061A0B1174B0922C0E90236DC
:102210004FF4E1631549CDE90003154B043002F09A
:102220004BF830B9A3691B7C4BB9012002F014F8BC
:10223000F8E70023A069A36108B1FFF77EFF02F071
:102240001BF80C4B186002A8FEF7A4F8204606B055
:1022500070BD00BF4099080829210808F700080848
:10226000FB000808A59F0808617B0808309908084A
:10227000F920080854050020012380F82430704715
:10228000012A034602D1016000207047022A04BFE0
:10229000D1E90001C3E90001F6E710B5044603687F
:1022A0009B689847A368013BA3602BB9236820462D
:1022B000BDE81040DB68184710BD034610B4426803
:1022C0001B68541001EB6200D20748BF0A5910BCCA
:1022D00048BFD3581847022A38B5044607D0032A06
:1022E00011D0012A01D10B682360002038BD0C20D9
:1022F0000D68FDF7E2FE03460028F5D095E80700DB
:1023000083E80700F0E700680028EED00C2105F014
:10231000C0FCEAE770B4036809685C689D686610F1
:1023200005EB6400E40748BFAC591B68126848BF5E
:10233000E35870BC1847000010B50446054B40F840
:102340002C3BFEF727F804F1100002F0EDFC2046CC
:1023500010BD00BF7499080810B50446FFF7ECFFE4
:102360002046402105F095FC204610BD30B51949A6
:1023700000F1100589B00446C0E902230160164946
:10238000284602F01BFD0023144A2362C4E90B23F4
:1023900084F82430A362124B04A8A363114B636337
:1023A00002F06AFA04A9684602F052FD68460E4936
:1023B00002F095FD0C9902F092FD0146284602F0CC
:1023C00038FD684602F0B0FC04A802F0ADFC2046DF
:1023D00009B030BD74990808A49808087525080844
:1023E000BB220808812208084899080810B5436BE9
:1023F00001460BB905F053FC836BBDE810402C304F
:10240000184738B5002383608B6804460D462BB10E
:1024100002229847EB68E360AB68A360204638BDB2
:1024200070B51D4B1D4A1968044691428AB004D00C
:1024300000200021C3E902011A6000250C20266952
:102440000495FDF73AFE18B1154B8460C0E90035DC
:10245000144B02900593144B02A906A80493FFF7AE
:10246000D0FF089B7BB11020FDF727FE044650B13A
:1024700006A9FFF7C6FF002322463046CDE9003308
:102480000A4902F009FA06A8FDF784FF02A8FDF741
:1024900081FF0AB070BD00BF08400240FE49684A93
:1024A0007922080815230808D72208083769080880
:1024B00010B5D1E90023002186B0044604910AB981
:1024C000D90705D5CDE902230F4B05930F4B049394
:1024D0006A4602AB93E8030082E8030094E8030035
:1024E00083E8030092E80300049A84E80300A168EB
:1024F000A260059A0491E1681846E2600591FDF733
:1025000049FF204606B010BDBB22080881220808FA
:102510001FB50023124A80F82430044602A92C304B
:10252000CDE90223FFF7C4FF01F0A6FE22690D49A1
:1025300020620D48FFF79CFC0C4B02A81B780C4A4C
:102540008DF8003021693C2304F010FB039828B17A
:102550004368013B43600BB9FFF79FFE04B010BD19
:10256000D12508084A990808B4030020A4020020D5
:10257000A4980808F8B5044601F07EFE236AC01A44
:1025800047F22F53984220D901F076FE206203F0E3
:102590009BFFD0B102F068F9B8B103F0B2FF0B4D68
:1025A000C117D5E90232C61A61EB0207D4E902234A
:1025B000964277EB030308DB0023C5E90201A3621F
:1025C0002046BDE8F840FFF7A3BFF8BD0840024031
:1025D0001FB590F82430044653B1224B02A9029350
:1025E00000232C300393FFF763FF01F045FE2062C8
:1025F00001F042FE236AC01A4AF6C77398420BD90B
:1026000000210E2000F042F9A36A0133012BA362DE
:1026100004DC2046FFF77CFF04B010BD00210F2032
:1026200000F034F9104B02A81B78104A8DF80030E6
:102630000F493C2304F09AFA039828B14368013B00
:1026400043600BB9FFF729FE4FF4FA6003F074FF03
:10265000084B186810B1FFF769FCDDE702F0C1FA1A
:10266000DAE700BF75250808A4020020A49808082E
:102670001E980808A00200200122014B1A70704722
:10268000A4020020704710B504460C2105F001FBA0
:10269000204610BD2DE9F0474FF00008304D0746A9
:1026A00046462C46DFF8D0A0D4B06368B3421BD9AD
:1026B0006B69524602932B6940210193EB6804A891
:1026C0000093AB6802F028F900EB0809B9F1FF0F9D
:1026D00005F1100508D814AB03EB080004A906F0B7
:1026E000CCFCC8460136E0E76268921B6260002AB3
:1026F0002FD01C491C48FFF7BBFB4FF402726368E4
:1027000004EB06115A431948083106F04FFC184BE8
:1027100079681B7814AA8DF8003004A83C2304F0D3
:1027200025FA059C7CB16368013B63605BB9236853
:1027300020469B689847A368013BA3601BB92368A8
:102740002046DB68984701F097FDB86054B0BDE8BB
:10275000F087324607490448FFF78AFBD7E700BFF6
:10276000184002408B990808B40300202040024022
:10277000A5020020B99908087C990808034AC0E915
:10278000002100228260024A10607047349A0808D3
:10279000A802002010B50A4B04465B687BB102F02A
:1027A00063F860B101F068FDA368C01A40F2F1332C
:1027B000984204D92046BDE81040FFF76BBF10BD1A
:1027C000184002402DE9F041174C0F4663689046CF
:1027D0001F2B0FD915491648FFF74AFB4FF4027219
:1027E000636804F11801013B5A4304F10800636077
:1027F00006F0DCFB6668751C656003F082FE04EB86
:102800000616B06001F038FD2B0104EB0515F060F1
:10281000E7503A46434607490548C5F80480FFF7A4
:1028200027FBBDE8F08100BF18400240C8990808A6
:10283000B4030020DD99080873B5104C104E2268CF
:102840000546B24202D16368202B04D90D490E48D7
:10285000FFF70EFB2660002228461146FFF7B2FF65
:10286000002201A81146019201F01EFD019A1AB141
:1028700012212846FFF7A6FF02B070BD18400240A3
:1028800016D4395CFE990808B40300200A460449AE
:102890000346086810B11946FFF794BF704700BFA0
:1028A000A80200200122014B1A707047A5020020E7
:1028B00010B50446034B40F8043B02F073F8204681
:1028C00010BD00BF449A080810B50446FFF7F0FF9A
:1028D00020460C2105F0DDF9204610BD10B5044658
:1028E00001F0CAFCA368C01A632894BF0023012327
:1028F000637101F0C1FCA06010BD022A38B5044626
:1029000007D0032A11D0012A01D10B6823600020CF
:1029100038BD0C200D68FDF7D0FB03460028F5D02C
:1029200095E8070083E80700F0E700680028EED08C
:102930000C2105F0AEF9EAE710B403685A6899680B
:10294000541001EB6200D20748BF0A591B6810BC43
:1029500048BFD35818470000064B10B50021044665
:1029600040F8043B02F00FF8012363710023204676
:10297000A36010BD449A080830B5002587B004460E
:102980000C200495FDF799FB18B10D4B8460C0E94C
:1029900000350C4B029005930B4B0222049300234D
:1029A0002E20009302A94FF0FF3304F095FB049B07
:1029B0001BB102A903220846984707B030BD00BFEB
:1029C000DD28080839290808FB28080808B504305C
:1029D00002F030F8C0F3800008BD70477047000077
:1029E00010B5074C1821204600F04BFC2046092169
:1029F00000F036FC2046BDE81040012100F018BC74
:102A0000AC020020014B5869704700BFD80200207B
:102A1000014B9869704700BFD8020020014BD8696C
:102A2000704700BFD8020020014B186A704700BFF2
:102A3000D802002008B5024BD86B06F013F808BD89
:102A4000D8020020014BD86B704700BFD80200208D
:102A5000014B186C704700BFD8020020014B586C26
:102A6000704700BFD8020020014B986C704700BF30
:102A7000D8020020014BD86C704700BFD80200205C
:102A8000014B586D704700BFD8020020014B986D74
:102A9000704700BFD8020020014B186D704700BF7F
:102AA000D8020020014B5878704700BFD8020020A0
:102AB000014B9878704700BFD8020020014BD878AE
:102AC000704700BFD8020020014B9868704700BFD4
:102AD000D8020020014BD888704700BFD8020020E0
:102AE000014B1879704700BFD8020020014B58797C
:102AF000704700BFD8020020014B93F83B0070479D
:102B0000D8020020014B93F83A007047D802002009
:102B1000014BD86A704700BFD8020020014B586AA9
:102B2000704700BFD8020020014B986A704700BF71
:102B3000D8020020F7B50A4D0446E86905F03CFBD1
:102B40000646286A0F4605F037FB3246CDE90001FC
:102B50003B462046034902F051FA204603B0F0BD3F
:102B6000D80200204C9A080838B50121062004F04C
:102B700041FF0021062004F04EFF04F0A5FB4FF4B6
:102B8000165104F09BFB0A2003F0D6FC0F4D28469B
:102B900001F00AF9044630B904F00EFABDE83840F5
:102BA0000B4902F08CBA012CF1D004F005FA094966
:102BB00002F072FA04F000FA054621460A2202F0F9
:102BC00088FA2846BDE8384002F06DBAD8020020E5
:102BD000659A0808529A0808014B1878704700BF98
:102BE000D8020020014B93F839007047D80200202A
:102BF00038B50C24064D04F067FB036815F8011B7B
:102C00009B68013C984714F0FF04F4D1012038BDC3
:102C10002400002038B50C24064D04F055FB036851
:102C200015F8011B9B68013C984714F0FF04F4D190
:102C3000012038BD18000020014800F0F3BF00BF9C
:102C4000D8020020014801F0F1B800BFD8020020EE
:102C5000014801F0A3B800BFD802002010B5034C12
:102C6000204600F05FFBB4F9060010BDAC02002066
:102C700010B5034C204600F055FBB4F9080010BD18
:102C8000AC02002010B5034C204600F04BFBB4F919
:102C90000A0010BDAC02002010B50B4C204600F01D
:102CA00041FBB4F90820B4F90630524303FB032377
:102CB000B4F90A0000FB003005F06CFA04F0F2FFF2
:102CC00005F082FD10BD00BFAC02002010B5044627
:102CD0002C2104F0DEFF204610BD000010B5074C8B
:102CE000074800F020FC0C21204600F0A5F9204602
:102CF000BDE81040034A044904F0C6BFAC020020FE
:102D0000D802002030010020DB29080803720123CB
:102D100010B58171C271037410BD10B50446002155
:102D2000807904F067FE0121A07904F074FE00238D
:102D3000E36010BD2DE9F843044601F09DFAE36815
:102D40000646834284BF0023E360237C2BB9E368FB
:102D5000C31AB3F5FA6FC0F0CF800025257404F0D4
:102D60002BF9674902F098F904F026F90A22314656
:102D700002F0AFF904F020F9624902F0A0F904F082
:102D80001BF90A22E16802F0A4F901F075FA0121A9
:102D9000E0602560A079257104F03DFEFA2003F083
:102DA000CBFB0121A07904F025FE2946A07904F08F
:102DB00032FE142003F0C0FB04F05FF90121A0797A
:102DC00004F029FE282001F04FFA2946A07904F0EA
:102DD00011FE2E4601274FF00008A07904F034FEC2
:102DE000B8425FFA88F908D1012008F1010801F022
:102DF0003BFAB8F1FF0FF0D1C146A07904F024FEF0
:102E0000B9F1FF0FC7B214D0032D0ED9EA070CD4C5
:102E1000F208A35C01365B00DBB2A354217AF6B260
:102E200049453CBF43F00103A3540135EDB2552D94
:102E3000D1D104F024F904F0BFF805460A22314646
:102E400002F047F9284602F02EF904F0B5F81022F6
:102E5000217802F03EF904F0AFF82B4902F01CF99A
:102E600004F0AAF81022617802F033F904F0A4F813
:102E7000254902F011F904F09FF81022A17802F020
:102E800028F904F099F8204902F006F904F094F8C2
:102E90001022E17802F01DF904F08EF81A4902F0D0
:102EA000FBF804F089F81022217902F012F904F0FD
:102EB00083F8164902F0F0F804F07EF805466178D0
:102EC000237810220B44A1780B44E178194402F0D6
:102ED00000F9284602F0E7F8272E0FD9637820780A
:102EE0001844A3781844E37818442379C0B2C31A6D
:102EF00058425841BDE8F8830120FBE70020F9E77C
:102F0000719A08087C9A0808889A08088B9A080819
:102F100070B50446FFF70EFF08B3E3790B2B1AD008
:102F2000153B012B1BD8A67806F07F0005F09EFD0F
:102F30004FF0874105F0EEFD0546E07805F096FD7F
:102F4000294605F0DFFC074905F098FE330605D554
:102F500000F1004002E0A07805F084FD70BD024859
:102F6000FCE700BF000020410000C07F08B5FFF76C
:102F7000CFFF054905F0CEFD044905F07FFE4FF077
:102F8000844105F0BFFC08BD000010410000A040D6
:102F900038B50446FFF7CEFED8B1E3790B2B14D039
:102FA000153B012B15D8207805F05CFD4FF08741CB
:102FB00005F0B0FD0546607805F058FD294605F09E
:102FC000A1FC054905F05AFE38BD207805F04AFD00
:102FD000FAE70248F8E700BF000020410000C07F88
:102FE000FFF7D6BF704700000B4610B528220446F5
:102FF0000021184605F0F4FF0B22084906F07BF883
:10300000002201210346C272C160A0695A620022F7
:10301000C3E904019A61DA611A6210BD909A080846
:1030200010B50446806808B101F09EF9204610BD35
:103030000368C9B29B681847064A417702604FF09F
:10304000FF328261C2834FF6FF7280F82020112286
:1030500042627047A09A080838B50C4D2978BFF332
:103060005B8F11F001040FD12846FDF737F858B1F6
:103070002146074801F0E4FC2846FDF734F8054AEC
:103080000549034804F000FE014838BD3C03002018
:103090004003002030010020213008082DE9F041D4
:1030A00090F92030054601330F4606D1FFF7D4FFD3
:1030B0003946BDE8F04101F03FBD002407264FF03E
:1030C000010895F92000002180B204F0A4FC95F9D4
:1030D0001E0008FA06F1394080B204F09CFC95F914
:1030E0002000012180B204F096FC95F91F006400D5
:1030F00080B2E4B204F0A8FC08B144F00104013E3F
:10310000DFD22046BDE8F08108B5FFF7A5FF012119
:1031100001F0B3FCFFF7A0FF0549012201F0E0FC3C
:10312000FFF79AFFBDE80840002101F0B4BC00BFE2
:1031300020A1070070B590F91D30044601330E46FA
:10314000154616D104F050FD217F04F083F904F0F8
:103150004BFD036831469B68984704F045FD0368C2
:1031600029469B68984704F03FFDBDE8704004F095
:1031700094B990F92030013301D1FFF7C5FF94F9DC
:103180001D00002180B204F046FC06F07F012046BD
:10319000FFF784FF29462046FFF780FF94F91D00C2
:1031A0000121BDE8704080B204F035BC38B590F91B
:1031B0001D30044601330D461DD104F015FD94F970
:1031C0001C1004F04BF904F00FFD036829469B68BE
:1031D000984704F009FD04F060F904F005FD0122B0
:1031E000217F04F034F904F0FFFC03685B69984721
:1031F000C5B2284638BD90F92030013301D1FFF720
:1032000083FF94F91D00002180B204F004FC45F016
:1032100080012046FFF742FF00212046FFF73EFFD6
:10322000054694F91D00012180B204F0F4FBE0E7AB
:1032300038B50D4623210446FFF7B8FF20F03002D1
:1032400042EA05122046BDE838402321D2B2FFF7FA
:1032500071BF232108B5FFF7A9FFC0F3011008BD16
:1032600038B50D4620210446FFF7A0FF00F00F02FD
:1032700042EA05122046BDE838402021D2B2FFF7CD
:1032800059BF10B50446017790F91D00421C23D1A7
:1032900004F0AAFC04F0ACF80F212046FFF786FFEB
:1032A00033283DD1072220212046FFF743FF072185
:1032B0002046FFF7D5FF882223212046FFF73AFF5B
:1032C000102222212046FFF735FF204680221F21B1
:1032D000FFF730FF012010BD012180B204F09BFBFD
:1032E00094F91D00012180B204F084FB94F92000C0
:1032F000431C04D1FFF7B0FE01F0B1FBCCE7012184
:1033000080B204F077FB94F91E00012180B204F032
:1033100071FB94F91F00002180B204F06BFBBBE746
:103320000020D8E738B590F91D30044601336FD13D
:1033300004F05AFC94F91C1004F090F804F054FCCA
:10334000A821FFF775FE04F04FFC04F0A6F804F086
:103350004BFC0622217F04F07AF804F045FC036858
:103360004F4D5B699847E08004F03EFC03685B6961
:103370009847E38805EA00201843E08004F034FC15
:1033800003685B699847208104F02EFC03685B6941
:103390009847238905EA00201843208104F024FC83
:1033A00003685B699847608104F01EFC03685B69F1
:1033B000984705EA00256089054365812046FFF7A7
:1033C00048FF032862D0022863D0012864D0002877
:1033D00043F6FC7018BF012005F048FB0546B4F920
:1033E000060005F043FB294605F048FCE060B4F90F
:1033F000080005F03BFB294605F040FC2061B4F9CC
:103400000A0005F033FB294605F038FC606138BD41
:1034100090F92030013301D1FFF776FE94F91D00B9
:10342000002180B204F0F7FAE8212046FFF736FECB
:10343000FF212046FFF732FEFF21E0802046FFF704
:103440002DFEE388FF2143EA0023E3802046FFF7B7
:1034500025FEFF2120812046FFF720FE2389FF2142
:1034600043EA002323812046FFF718FEFF216081F5
:103470002046FFF713FE6389012143EA002394F9F4
:103480001D00638180B204F0C6FA97E74FF4006034
:10349000A2E74FF480509FE741F6FE709CE700BF23
:1034A00000FFFF0070B50C46054620220021201DBC
:1034B00005F096FD24232360AB6901266360002399
:1034C00028462361A660FFF72DFFEB683046636155
:1034D0002B69A3616B69E36170BD8378C27803EBEC
:1034E00002224378007803EB022300EB03207047AD
:1034F000002200234261C0E90033C0E90233C0E981
:103500000E33C0E91033C0E91233C0E91433C0E907
:10351000163303828261C261026242628262C262C7
:1035200002634263704708B5FFF7E2FF08BD002061
:1035300030B5107018704D7908794C1C00EB0520DF
:103540000531084414F8015F1178A0422944C9B23A
:1035500011701D7829441970F4D130BD0A4610B499
:103560004B790C7904EB0324E31D063422440B440D
:1035700010BCFFF7DCBF0000F8B50D4600264B7904
:103580000C790C4F04EB0324073403F015FDA95DFF
:10359000102201F09EFD013603F00EFD394601F0C8
:1035A0007BFDB442F1DA03F007FDBDE8F8400249C3
:1035B00001F085BDB49A0808899A0808CB78887804
:1035C00000EB03204B7803EB0023087800EB03208B
:1035D000704700000000000038B5044601F10A0001
:1035E0000D46FFF77AFF05F041FA04F0E5FD1CA354
:1035F000D3E9002304F038FE05F02EF92062A06123
:1036000005F10E00FFF769FF05F030FA04F0D4FD74
:1036100013A3D3E9002304F027FE05F01DF9E061B0
:10362000606105F11200FFF758FF05F01FFA05F180
:10363000160160622046FFF7C1FF05F013FA05F19D
:103640001A01A0622046FFF7B9FF05F11E01E063F1
:103650002046FFF7B3FF206438BD00BFAFF3008002
:1036600048AFBC9AF2D77A3EF8B50D46063104460B
:10367000FFF7A4FFE060EB7EDB0740F1AF806B7CDF
:1036800013F0010200F0AB8001222274E97AAA7AD9
:1036900002EB0122E2802A7B22716A7B627113F0C5
:1036A000020300F09E8001236374AB7B6370EB7BAD
:1036B000A3702B7CE37005F11600FFF70EFF0028C6
:1036C000CABF4FF47A73002090FBF3F0A060AB7E8A
:1036D00005F11E0084F83A30023B012B8CBF002319
:1036E000012384F839306B7F05F1460784F83B30BD
:1036F000FFF7F3FE05F0BAF904F05EFD3AA3D3E953
:10370000002304F0B1FD05F0A7F82062A06105F1E7
:103710002200FFF7E2FE05F0A9F904F04DFD32A307
:10372000D3E9002304F0A0FD05F096F8E0616061A4
:1037300005F12600FFF7D1FE05F098F905F12A0101
:1037400060622046FFF73AFF05F08CF905F12E0183
:10375000A0622046FFF732FF05F13201E063204608
:10376000FFF72CFF206405F13600FFF7B6FE60641A
:1037700005F13A00FFF7B1FEA06405F13E00FFF746
:10378000ACFEE06405F14200FFF7A7FE06462065A7
:103790003846FFF7A2FE04F0FDFC15A3D3E9002391
:1037A00004F08CFE05F058F820633846FFF795FECC
:1037B00004F0F0FC0EA3D3E9002304F07FFE05F033
:1037C0004BF86063EB7E3046C3F3401384F8383027
:1037D00005F04CF9084905F051FAE062F8BD227491
:1037E0005DE7637467E700BF48AFBC9AF2D77A3EE3
:1037F00000000000006AF84000007A4410B50C4652
:103800000E310246FFF7DAFE04F112015065104650
:10381000FFF7D4FE04F1160190651046FFF7CEFEC7
:10382000D06510BD38B5002503F04EFD03681B6957
:10383000984760B9092DF7DD03F046FD0B4901F00B
:103840002BFCBDE838404FF4FA6002F075BE03F07F
:103850003BFD03685B699847C4B20A2C08BF013579
:1038600003F0AAFB214601F01BFCDDE7B69A08082D
:1038700070B50C46154603F09FFB114901F00CFC96
:1038800003F09AFB002C064618DA2D2101F008FC03
:1038900061420A22304601F01CFC03F08DFB09490D
:1038A00001F0FAFB03F088FB044629460A2201F0E6
:1038B00010FC2046BDE8704001F0F5BB2146E8E76A
:1038C000D19A0808E79A08080021031F00F1240292
:1038D00043F8041F9342FBD170470246002352F87D
:1038E000230010B942F82310704701330A2BF6D198
:1038F0004FF0FF307047002210B5031F243053F8FB
:10390000044F8C4208BF1A608342F8D110BD031FD8
:10391000243053F8042F8A4203D08342F9D1002087
:10392000704701207047F8B505460C4616464AB95F
:103930000368C9B29B6898470746284601F0B3FB65
:103940003844F8BD00290CDA0A2A0AD12D2101F0E9
:10395000A7FB074661422846F2B201F0BAFB0744D2
:10396000EBE721460027F6E740F209139A4270B5CB
:1039700006460D46144651D0B2F5857F17DAB2F5EA
:10398000817F43D040F207139A4243D003F014FBE7
:10399000244901F081FB03F00FFB21461022FFF7C1
:1039A000C2FF29463046BDE87040FFF7E5BDB2F5DD
:1039B000A06F1BD040F201539A42E7D1CC881A483D
:1039C00064BAA4B22146FFF788FF03F0F5FA17495D
:1039D00001F062FB03F0F0FA154901F05DFB03F022
:1039E000EBFA10222146FFF79EFF70BDCC880E48EF
:1039F00064BAA4B22146FFF77EFF03F0DDFA0D4959
:103A000001F04AFB03F0D8FA0B49E6E7BDE8704045
:103A1000FFF7E2BDBDE87040FFF726BEBDE870408D
:103A2000FFF7ECBE349B080870030020F09A0808EA
:103A3000029B0808129B0808249B08082DE9F743FD
:103A40006F4E814635780C4690461F46032D24D88C
:103A5000DFE805F0024B839B6A4D2B782BB100F019
:103A60000BFC694B186000232B7003F02DFC0368DE
:103A70001B69984768B103F027FC03685B699847A6
:103A8000C0B2B52820700AD10123604A3370136098
:103A90002B7000F0F1FB34786CB1012551E003F09C
:103AA0008BFA5B4901F0F8FA03F086FA10222178CC
:103AB00001F00FFBEDE7544B1B68C01A554B1B6818
:103AC0009842EAD903F078FA534901F0F8FA4FF432
:103AD000FA6002F031FD0121062003F09CFF4FF453
:103AE000FA6002F029FDA047D7E703F0EDFB036879
:103AF000DFF818911B69984750B103F0E5FB0368A4
:103B00005B699847D9F80030E0540133C9F80030B8
:103B1000D9F80030062BC0D16279237903EB022358
:103B2000F82B3B6011DD03F047FA3C4901F0B4FA91
:103B300003F042FA0A223968FFF7F5FE0023022556
:103B40003370284603B0BDE8F08363885BBA9BB24C
:103B5000C8F8003002233370F3E703F0B5FB0368C5
:103B60002A4D1B69984740B103F0AEFB03685B69BF
:103B700098472B68E05401332B603B682A68063372
:103B800093428AD10323337087E703F09DFB0368D8
:103B9000DFF878801B69984750B103F095FB036804
:103BA0005B699847D8F80030E0540133C8F800301A
:103BB0003F68D8F8003008379F427FF46EAF4FF06F
:103BC000000821460DF107030DF1060248463C446A
:103BD00086F80080FFF7ABFC14F8022C9DF8063045
:103BE0009A4205D114F8012C9DF807309A4205D06D
:103BF00003F0E2F90A4901F062FAA2E74546A0E7BC
:103C00005003002030000020540300204C0300200B
:103C10004A9B0808B40000204C9B08088C9B0808AD
:103C2000A49B0808F0B590F860300446C1B02BB3EF
:103C3000134D144E144F03F047FB03681B6998475C
:103C4000E0B12B46694620460E4AFFF7F7FE0228F0
:103C500005D103F0B1F90D4901F031FAEBE7032882
:103C600008D00028E7D1694620462B683268FFF764
:103C70007BFEDFE703F0A0F93946EDE741B0F0BD88
:103C80005C03002058030020D99B0808BE9B08084D
:103C90002DE9F843294F80463D780C463E46DFF833
:103CA000AC908DBB4988264849BA89B2C9F8001042
:103CB000FFF721FE21464046FFF750FC03F07CF958
:103CC000204901F0E9F903F077F91022D9F8001042
:103CD000FFF729FE21464046FFF74EFC637927791E
:103CE00007EB0327073703F0EFFA0368615D9B6872
:103CF00001359847AF42F6DA00F0BEFA124B186071
:103D000001203070BDE8F883FFF78CFFD9F8001070
:103D10000B48FFF7FCFD044650B900F0ADFA0A4B22
:103D20001B68C01AB0F5FA6F05D904203C70E9E7AA
:103D300000203870E6E70120E4E700BF68030020B8
:103D400070030020F79B0808640300206C03002028
:103D500038B504460D4629462046FFF799FF01284D
:103D6000F9D0022806D103F027F90949BDE8384007
:103D700001F0A5B9032805D0042807D103F01CF9E8
:103D80000449F3E703F018F90349EFE738BD00BF32
:103D9000089C08084F9C08082A9C08080149FFF75E
:103DA000D7BF00BFAB00002070B51A4D06462B6888
:103DB000052B29D8DFE803F0030B191B1D1FFFF7A4
:103DC00031FD012386F860302B6801332B601249E6
:103DD0003046FFF75DFF0128044603D0296860B92B
:103DE000013129600124204670BD0C49F0E70C49DF
:103DF000EEE70C49ECE70C49EAE702463046FFF7EC
:103E000037FD00232B60EEE70123002403702C60B4
:103E1000E9E700BF60030020790000209200002045
:103E2000310000205D0000208700002009292DE9D5
:103E3000F04106460C46154605D803F0BDF8294961
:103E400001F03DF90A24002D43DC03F0B5F82649C2
:103E500001F035F9012505FB04F3DFF8A48003EB3D
:103E60008303C8F8003003F0A7F8204901F014F9E3
:103E700003F0A2F807460A22214601F02AF9384643
:103E800001F011F903F098F8194901F005F903F070
:103E900093F80A222946FFF746FD03F08DF81549ED
:103EA00001F0FAF803F088F80746D8F800100A2263
:103EB00001F00FF9384601F0F6F800230E493046BC
:103EC0008C71240ACC710D724B72BDE8F041FFF782
:103ED0003FBF7F2DBFDD03F06FF8084901F0EFF819
:103EE0007F25B8E76D9C08089B9C0808F59C08088E
:103EF0000C9D0808259D08089D000020C79C080807
:103F0000B40000200148FFF7DFBC00BF70030020B1
:103F1000F0B5012185B0064601F02FF8A0F130057B
:103F2000072D04462BD81949684600F047FF69461B
:103F3000304601F010F80746684600F0F5FE4FB134
:103F4000ADB22846032103F055FD284603F07CFD61
:103F500005B0F0BD0E49684600F030FF69463046B6
:103F600000F0F9FF0546684600F0DEFE55B1263C3C
:103F7000A4B22046032103F03DFD2046E6E74FF0C2
:103F8000FF30E5E76FF00100E2E700BF2495080885
:103F90003C9D0808F0B5012185B0064600F0EDFF14
:103FA000A0F13004072C47D8072303223146684686
:103FB00000F0F6FF6846254900F0A5FF0546684673
:103FC00000F0B2FE3DBB062303223146684600F0F6
:103FD000E7FF68461E4900F096FF0746684600F076
:103FE000A3FE67B31B49684600F0E8FE6946304609
:103FF00000F0B1FF0746684600F096FE6FB1A4B22C
:104000000121204603F0F6FC2046294603F003FD7B
:10401000012005B0F0BD0125E4E70F49684600F036
:10402000CDFE3046694600F096FF0646684600F031
:104030007BFE3EB10A34E2E74FF0FF30E9E76FF074
:104040000100E6E76FF00200E3E700BF3E9D0808CD
:10405000439D0808249508083C9D0808F0B50121F7
:1040600085B0074600F089FFA0F13005072D044612
:104070002BD81949684600F0A1FE6946384600F081
:104080006AFF0646684600F04FFE4EB1ADB22846C4
:10409000002103F0AFFC284603F0E9FC05B0F0BDB9
:1040A0000E49684600F08AFE6946384600F053FF24
:1040B0000546684600F038FE55B1263CA4B22046BD
:1040C000314603F097FC2046E6E74FF0FF30E5E786
:1040D0006FF00100E2E700BF249508083C9D080846
:1040E000F0B5012189B0054600F047FFA0F1300688
:1040F000072E044640D803222946684600F072FF86
:104100001F4904A800F05AFE284604A900F023FF26
:10411000074604A800F008FE97B1B6B20121304668
:1041200003F068FC684600F064FF0146304603F087
:10413000B5FC0124684600F0F7FD204609B0F0BD4B
:10414000104904A800F03AFE284604A900F003FF35
:10415000054604A800F0E8FD5DB1263CA4B20121AB
:10416000204603F047FC684600F043FF0146204626
:10417000DDE76FF00104DDE74FF0FF34DDE700BF5E
:10418000249508083C9D080808B5024B1B685B682D
:10419000019308BDB001040808B5024B1B689B6879
:1041A000019308BDB001040808B5024B1B68DB6829
:1041B000019308BDB001040808B5024B1B681B69D8
:1041C000019308BDB001040808B5024B1B685B6988
:1041D000019308BDB001040808B5024B1B689B6938
:1041E000019308BDB001040808B5024B1B68DB69E8
:1041F000019308BDB001040808B5024B1B681B6A97
:10420000019308BDB001040808B5024B1B685B6A46
:10421000019308BDB001040808B5024B1B689B6AF6
:10422000019308BDB001040808B5024B1B681B6B65
:10423000019308BDB001040808B5024B1B689B6FD1
:10424000019308BDB001040808B5024B1B685B6808
:10425000019308BD9C01040808B5024B1B689B68CC
:10426000019308BD9C01040808B5024B1B68DB687C
:10427000019308BD9C01040808B5024B1B685B69EB
:10428000019308BD9C01040808B5024B1B689B6D97
:10429000019308BD9C01040808B5024B1B685B6EC6
:1042A000019308BD9C01040808B5024B1B68DB6E36
:1042B000019308BDB801040808B5024B1B685B6890
:1042C000019308BDD001040808B5024B1B689B6828
:1042D000019308BDD001040808B5024B1B68DB68D8
:1042E000019308BDD001040808B5024B1B681B6987
:1042F000019308BDD001040808B5024B1B685B6937
:10430000019308BDD001040808B5024B1B68DB69A6
:10431000019308BDD001040808B5024B1B681B6A55
:10432000019308BDD001040808B5024B1B685B6A05
:10433000019308BDD001040808B5024B1B689B6AB5
:10434000019308BDD001040808B5024B1B68DB6A65
:10435000019308BDD001040808B5024B1B685B6CD3
:10436000019308BDD001040808B5024B1B689B6C83
:10437000019308BDD001040808B5024B1B68DB6C33
:10438000019308BDD001040808B5024B1B685B6DA2
:10439000019308BDD001040808B5024B1B68DB6E11
:1043A000019308BDD001040808B5024B1B681B6FC0
:1043B000019308BDD001040808B5024B1B689B6936
:1043C000019308BDC401040808B5024B1B681B6AB1
:1043D000019308BDC401040808B5024B1B685B6A61
:1043E000019308BDC401040808B5024B1B689B6A11
:1043F000019308BDC401040808B5024B1B68DB6AC1
:10440000019308BDC401040808B5024B1B681B6B6F
:10441000019308BDC401040808B5024B1B685B6B1F
:10442000019308BDC401040808B5024B1B689B6BCF
:10443000019308BDC401040808B5024B1B681B6C3E
:10444000019308BDC401040808B5024B1B68DB6C6E
:10445000019308BDC401040808B5024B1B68DB6862
:10446000019308BDAC01040808B5024B1B689B69A9
:10447000019308BDAC01040808B5024B1B68DB6959
:10448000019308BDAC01040808B5024B1B681B6A08
:10449000019308BDAC01040808B5024B1B685B6AB8
:1044A000019308BDAC01040808B5024B1B689B6A68
:1044B000019308BDAC01040808B5024B1B68DB6A18
:1044C000019308BDAC01040808B5024B1B681B6BC7
:1044D000019308BDAC01040808B5024B1B685B6B77
:1044E000019308BDAC01040808B5024B1B681B6CA6
:1044F000019308BDAC01040808B5024B1B689B6C16
:10450000019308BDAC01040808B5024B1B68DB6CC5
:10451000019308BDAC01040808B5024B1B681B6D74
:10452000019308BDAC01040808B5024B1B681B6869
:10453000019308BDB401040808B5024B1B689B68D1
:10454000019308BDB401040808B5024B1B68DB6881
:10455000019308BDB401040808B5024B1B681B6930
:10456000019308BDB401040808B5024B1B685B69E0
:10457000019308BDB401040808B5024B1B68DB6950
:10458000019308BDB401040808B5024B1B681B6AFF
:10459000019308BDB401040808B5024B1B685B6AAF
:1045A000019308BDB401040808B5024B1B68DB6B1E
:1045B000019308BD2000060808B5024B1B689B6CE0
:1045C000019308BD2000060808B5024B1B681B6854
:1045D000019308BD1C00060808B5024B1B685B6808
:1045E000019308BD1C00060808B5024B1B689B68B8
:1045F000019308BD1C00060808B5024B1B681B6927
:10460000019308BD1C00060808B5024B1B685B69D6
:10461000019308BD1C00060808B5024B1B689B6986
:10462000019308BD1C00060808B5024B1B68DB6936
:10463000019308BD1C00060808B5024B1B681B6AE5
:10464000019308BD1C00060808B5024B1B685B6B94
:10465000019308BDA001020808B5024B1B685B6D01
:10466000019308BDA001020808B5024B1B68DB6E70
:10467000019308BDA001020808B5024B1B681B6F1F
:10468000019308BDA001020808B5024B1B681B6816
:10469000019308BDA401040808B5024B1B685B68C0
:1046A000019308BDA401040808B5024B1B685B69AF
:1046B000019308BDA401040808B5024B1B689B695F
:1046C000019308BDA401040808B5024B1B681B6ACE
:1046D000019308BDA401040808B5024B1B68DB6AFE
:1046E000019308BDA401040808B5024B1B68DB6CEC
:1046F000019308BDA401040808B5024B1B685B6D5B
:10470000019308BDA401040808B5024B1B689B6D0A
:10471000019308BDA401040808B5034B1B68D3F836
:104720009030019308BD0000A401040808B5034BB4
:104730001B68D3F89C30019308BD0000A401040855
:1047400008B5034B1B68D3F8A830019308BD0000DF
:10475000A401040808B5034B1B68D3F8B8300193D3
:1047600008BD0000A401040808B5024B1B685B6883
:10477000019308BDC801040808B5024B1B689B687B
:10478000019308BDC801040808B5024B1B68DB682B
:10479000019308BDC801040808B5024B1B681B69DA
:1047A000019308BDC801040808B5024B1B685B698A
:1047B000019308BDC801040808B5024B1B689B693A
:1047C000019308BDC801040808B5024B1B68DB69EA
:1047D000019308BDC801040808B5024B1B681B6A99
:1047E000019308BDC801040808B5024B1B681B6B88
:1047F000019308BDC801040808B5024B1B685B6B38
:10480000019308BDC801040808B5024B1B681B6C66
:10481000019308BDC801040808B5024B1B685B6C16
:10482000019308BDC801040808B5024B1B681B684A
:10483000019308BDCC01040808B5024B1B685B68F6
:10484000019308BDCC01040808B5024B1B689B68A6
:10485000019308BDCC01040808B5024B1B68DB6856
:10486000019308BDCC01040808B5024B1B685B69C5
:10487000019308BDCC01040808B5024B1B68DB6935
:10488000019308BDCC01040808B5024B1B681B6AE4
:10489000019308BDCC01040808B5024B1B685B6A94
:1048A000019308BDCC01040808B5024B1B681B6BC3
:1048B000019308BDCC01040808B5024B1B68DB6BF3
:1048C000019308BDCC01040808B5024B1B685B6C62
:1048D000019308BDCC01040808B5024B1B681B6896
:1048E000019308BDA001040808B5024B1B685B6872
:1048F000019308BDA001040808B5024B1B689B6822
:10490000019308BDA001040808B5024B1B681B6990
:10491000019308BDA001040808B5024B1B68DB69C0
:10492000019308BDA001040808B5024B1B685B6A2F
:10493000019308BDA001040808B5024B1B68DB6A9F
:10494000019308BDA001040808B5024B1B681B6B4E
:10495000019308BDA001040808B5024B1B68DB6B7E
:10496000019308BDA001040808B5024B1B685B6CED
:10497000019308BDA001040808B503F05DF9BDE886
:10498000084002F08DBD10B50446017009B1FFF773
:10499000F3FF204610BD08B503F04EF9BDE808400E
:1049A00002F087BD10B5037804460BB1FFF7F3FFA3
:1049B000204610BD10B504460068FFF7ECFF204606
:1049C00010BD30B587B00D460190FFF7D5FF6B23C2
:1049D0008DF808300023012403930A238DF810403A
:1049E000059303F029F902A902F03BFD03F024F935
:1049F000036829469B68984703F01EF9214602F098
:104A000048FD039403F018F902A902F0F7FC03F043
:104A100013F903685B699847044601A8FFF7CAFFCA
:104A2000E0B207B030BD082108B5FFF7CAFFC0F3F8
:104A3000800008BD0821FFF7C4BF8068FFF7A4BC51
:104A400070B5002604460D4640F8086FFFF784FC59
:104A500028462570FFF790FD2046666070BD10B5B2
:104A600004468068FFF788FC20784FF6FF71FFF757
:104A70005BFD2046FFF7E1FF10BD38B504460D464B
:104A80008068FFF779FC20782946FFF755FD20461E
:104A9000FFF7D3FF38BD38B504460D468068FFF7F1
:104AA0006BFC20782946FFF74FFD2046FFF7C5FF36
:104AB00038BD000030B50024400818601868E5B221
:104AC000884206D90134082C02D040081860F5E766
:104AD0000725024B5B5D137030BD00BF479D080882
:104AE000F0B50025044689B0806802FB01F6029506
:104AF000FFF742FC2946142203A8277804F070FA35
:104B00000B232A46384603A9ADF80C30FFF744FDC5
:104B100002AB0DF10702314604988DF80750FFF7FC
:104B2000C9FF9DF807102078FFF716FD2046FFF714
:104B300084FF029809B0F0BD08B50078FFF714FDB6
:104B4000C0B208BD10B50446006818B1FFF7CCFE2E
:104B50000023236010BD38B5B1F904300D468380C1
:104B60000B4653F8062F0446C0F806209B88438165
:104B7000FFF7E8FF2B6813B1236000232B6020466A
:104B800038BDB1F9043010B50A6833B932B951F8FB
:104B9000063F03608B88838010BD22B19488012C6E
:104BA00003D0042C06D0042205E092898C710B817D
:104BB0004A81ECE702220B814FF6FF738A714B8129
:104BC000E5E707B50B4600210246009101208C2144
:104BD000FFF7C0FD03B05DF804FB01460020FFF7BE
:104BE000F0BF0020FFF7F9BF07B5002203461146CA
:104BF00000920320FFF7AEFD03B05DF804FB000058
:104C000030B5044685B0084611461A460023FFF722
:104C100053FD00230193ADF808308DF80A304FF6AC
:104C2000FF73094D01A9ADF80C002846ADF80E3010
:104C3000FFF791FF01A8FFF785FF20462946FFF700
:104C4000A0FF204605B030BD9803002010B5002419
:104C5000047044804FF6FF740029848008DD013918
:104C60008B4204D932F8113083800123037010BDC8
:104C700001D10223FAE74180F9E70000F0B50D46C3
:104C8000164600278BB01A46129B04460193119BCF
:104C9000314600932846109B0297FFF751FD33469B
:104CA00001462A4605A8FFF7D1FF0F4D9DF81410C5
:104CB000BDF91620BDF818308DF82210284607A936
:104CC000ADF82420ADF826300797ADF82070FFF737
:104CD00042FF07A8FFF736FF20462946FFF751FF9E
:104CE00020460BB0F0BD00BF980300200222002038
:104CF00010B5084B084C1A60084B2060A080A071CA
:104D0000A360FFF7C9FC2046BDE81040044A0549EE
:104D100002F0BABFA4030020980300200000FFFFA8
:104D2000300100205502080810B504460068FFF75E
:104D3000DBFD204610BD10B50446006808B1FFF742
:104D4000D3FD0023C4E90133236010BD38B5044608
:104D50000D4600680131FFF7CFFD10B1C4E9000531
:104D6000012038BD10B50368044623B143688B4267
:104D700001D3012010BD2046FFF7E8FF0028F9D03D
:104D8000A368002BF5D122681370F2E770B50E46C8
:104D9000114604461546FFF7E5FF20B92046FFF708
:104DA000CAFF204670BD2A4631462068A56004F03F
:104DB000EFF800212268A368D154F2E738B5002348
:104DC00004460D46C0E900338360037339B10846D9
:104DD00004F077F9294602462046FFF7D7FF204620
:104DE00038BD38B5054600680C4668B16A688B68FE
:104DF0009A4207D3096804F040F9A368AB60002326
:104E0000A36038BDFFF770FD23682B6063686B609B
:104E1000A368AB600023C4E90033F1E7002310B5B9
:104E20000446C0E9003383600373FFF7DAFF2046CE
:104E300010BD884210B50B46044604D0096821B164
:104E40009A68FFF7A3FF204610BDFFF774FFFAE74B
:104E5000002310B50446C0E9003383600373FFF7F5
:104E6000E8FF204610BD884210B5044601D0FFF788
:104E7000B8FF204610BD38B505460C4649B1084676
:104E800004F01FF9214602462846FFF77FFF284617
:104E900038BDFFF750FFFAE770B505460E4609B971
:104EA000002070BD6AB1846814442146FFF75AFFA0
:104EB0000028F5D02868AB683146184404F0DDF8C6
:104EC000AC600120EDE710B58A6809680446FFF779
:104ED000E3FF10B92046FFF72EFF204610BD38B57E
:104EE00004460D4621B92046FFF725FF204638BD70
:104EF000084604F0E6F8294602462046FFF7CCFFB4
:104F00000028F0D0F2E708B582683AB921B10878F4
:104F1000B0FA80F0400900E0012008BD006809B93E
:104F20000078F5E704F09FF8F2E7134610B58A68B9
:104F30008468A41A9C420AD3006838B1096841B158
:104F4000184404F0C6F8B0FA80F0400910BD002003
:104F5000FCE70846FAE782688B689A4202D300228F
:104F6000FFF7E3BF0020704783688B4203D90068D6
:104F700010B1405C704700207047FFF7F5BF10B5D7
:104F80008368934206D90468A01804F055F808B164
:104F9000001B10BD4FF0FF30FBE70022FFF7EFBF13
:104FA000F8B51D469A4288BF13460F46144688BF7F
:104FB0002C460B4988BF1D460646FFF7FFFEBA6820
:104FC000A2420AD33968AA4294BFC4EB0202C4EBDE
:104FD000050230462144FFF7D9FE3046F8BD00BF38
:104FE000A498080810B504468B68FFF7D9FF20463F
:104FF00010BD006808B103F0B9BF70470EB4FFB52B
:1050000009AD55F8047B04462B463A46052102A813
:105010000195FFF789FC06460B492046FFF7CEFEB7
:1050200031462046FFF79EFE206830B12B463A46B7
:10503000711C0195FFF778FCA060204604B0BDE824
:10504000F04003B0704700BFA4980808F8B50646C2
:105050000D4600248F18BD420CD0336830469B6843
:1050600015F8011B9847031E01DB1C44F3E7002CD5
:1050700008BF1C462046F8BD70B505460C460846DC
:1050800049B104F01EF82B68024621462846BDE8C7
:105090007040DB68184770BD08B5FFF7EDFF08BD2D
:1050A00003689B68184738B50D210546FFF7F8FFE0
:1050B0000A2104462846FFF7F3FF204438BD38B5DF
:1050C0000546FFF7D9FF04462846FFF7ECFF2044CA
:1050D00038BD0023012A98BF0A2230B58BB00C4698
:1050E0008DF8243009A92546B4FBF2F404FB1253D1
:1050F000DBB2092B94BF30333733DBB2AA4201F85D
:10510000013DF0D9FFF7B8FF0BB030BD2DE9F74FE7
:1051100005461946104692461F469DF8306003F03A
:105120003DFB40B150492846FFF7A6FF0446204604
:1051300003B0BDE8F08F27F000444FF0FF32504637
:1051400021464A4B03F02AFB48B94FF0FF32504644
:105150002146464B03F004FB08B94549E3E74FF00D
:10516000604250463946434B03F00EFB08B14249BA
:10517000D9E74FF0604250463946404B03F0E6FA1B
:105180000028F4D1002200235046394603F0DEFA0D
:10519000044630B12D212846FFF782FF044607F16F
:1051A00000474FF0000B00204FF000083449DFF8B3
:1051B000D8905FFA8BF39E4206D942464B4603F0E5
:1051C0007DF90BF1010BF4E73B46524602F096FEE7
:1051D0008946804603F020FB074602F0CBFF0246DB
:1051E0000B464046494602F087FE0A228046894621
:1051F00028463946FFF76DFF044426B12846214969
:10520000FFF73AFF04444FF0000ADFF87CB0013E9C
:10521000F6B2FF2E8BD052465B464046494603F01D
:1052200023F88046894603F0CFFA071E19DA2D21AC
:105230002846FFF735FF034679420A2228460193A4
:10524000FFF747FF019B034438461C4402F0A2FFCE
:1052500002460B464046494602F04EFE80468946CD
:10526000D5E739460023E8E74F9D0808FFFFEF7FA9
:10527000539D0808FFFFEF41579D0808FFFFEFC14E
:105280000000E03F619508080000244037B59DF814
:10529000181005460091FFF739FF04462846FFF72E
:1052A00002FF204403B030BD37B50446084615461A
:1052B00002F082FF009502460B462046FFF7E6FF0C
:1052C00003B030BD2DE9F04186B000AF05460E4673
:1052D000381D142114463B60FFF726FB13280ED817
:1052E0002846391DFFF7C8FE04461EB12846FFF7C1
:1052F000DAFE044420461837BD46BDE8F08100F1CF
:10530000080323F00703E846ADEB030D2246411CDA
:105310003B686846FFF708FB69462846FFF7ACFE86
:105320000446C546E1E780680368DB6818477047B4
:10533000084611B10B685B681847704770477047A3
:10534000704738B504460D4600682E2103F081FEF3
:1053500023680246C01A286020B1137803B10132D5
:105360002068226038BD10B504460C2102F091FC83
:10537000204610BD10B50446042102F08AFC2046E8
:1053800010BD10B50446042102F083FC204610BD78
:1053900008B503F068FEB0FA80F0400908BD10B50A
:1053A0000C4601F009FE844205D101F005FEBDE87E
:1053B000104001F0F5BD01F02FFE844202D101F052
:1053C0002BFEF4E701F080FF844205D101F07CFF61
:1053D000BDE8104001F075BF2CB123682046BDE840
:1053E00010405B68184710BD38B5054608460C46A6
:1053F00003F067FE214602462846BDE8384002F029
:10540000A4BA70B5044608460D4603F05AFE236858
:10541000024629462046BDE87040DB68184707B5BC
:1054200003688DF807100122DB680DF1070198472A
:1054300003B05DF804FB0EB403B503AB53F8042BC3
:105440000021006A0193FFF73DFF02B05DF804EB15
:1054500003B070472DE9F74F4FF01408D0E90095DD
:1054600017464C4608FB05F50093AB10174D5D43FE
:10547000002D23DD6E1008FB06F004EB000ABAF8DD
:1054800004B03A465F4528BF5A462058019103F0C0
:1054900020FE0123019978B95F4503D1009A13706A
:1054A0003546E5E78CBF012000200028F8D0AE1B70
:1054B0000AF11404013EF3E7C00FF6E7A4EB090478
:1054C0000248A410604303B0BDE8F08FCDCCCCCC33
:1054D0007FB50369067E019103B3F9B1002500F1A0
:1054E0000C04039503A901A8FFF72BFF0146A8B1FF
:1054F0000DF10B032046039A8DF80B50FFF7AAFF1E
:105500009DF80B3053B11423246803FB0044B4F915
:1055100006300834002BA8BFDEB2E3E7304604B003
:1055200070BD000010B50A4C2378BFF35B8FDB071A
:105530000BD42046FAF7D2FD38B12046FAF7D3FD56
:10554000044A0549054802F09FFB044810BD00BF0E
:10555000AC030020300100203F530808B8000020B1
:1055600010B50A4C2378BFF35B8FDB070BD42046C2
:10557000FAF7B4FD38B12046FAF7B5FD044A0549FB
:10558000054802F081FB044810BD00BFB0030020B5
:10559000300100203D530808BC00002038B500252C
:1055A0000446C0E90055C0E904558560856140F8AE
:1055B000245FFEF7D1FEFFF7B5FFE061FFF7D0FFF4
:1055C00025732062204638BD10B50B4C2378BFF3FD
:1055D0005B8FDB070ED42046FAF780FD50B10748F9
:1055E000FFF7DCFF2046FAF77EFD054A0549034830
:1055F00002F04AFB014810BDA8030020B8030020B8
:10560000300100208B5A08080023024A024903484F
:10561000FFF732B869590808F5580808755808089E
:1056200000231A4619461846FFF726B80B68036090
:1056300013B15A6801325A60704737B504460D6994
:1056400051F8043B01A80093FFF7F0FF6A46294692
:10565000204602F025F801A8FAF7EAFE204603B03A
:1056600030BD37B504468D6851F8043B01A800935E
:10567000FFF7DCFF6A462946204602F08DF801A8B4
:10568000FAF7D6FE204603B030BD37B50446CD68E4
:1056900051F8043B01A80093FFF7C8FF6A4629466A
:1056A000204602F055F801A8FAF7C2FE204603B0E2
:1056B00030BD000070B58AB00D46014604A8FFF762
:1056C000D0FF144E04A802F07FF8E8B1684604A9A0
:1056D000FFF7DBFF31460298FFF75AFE044610B190
:1056E0002C1E18BF012401A8FAF7A2FE002CE9D055
:1056F000684604A9FFF7A1FF684602F008F8286091
:1057000001A8FAF795FEDDE705A8FAF791FE0AB0C1
:1057100070BD00BF5B9D080837B50C46194920468F
:10572000154603F0A0FC48B901F046FC4FF41651B1
:1057300001F032FC01F040FC03B030BD20461249BC
:1057400003F091FC40B901F067FC4FF4165101F0F1
:1057500023FC01F061FCEFE720460C4903F083FCD9
:1057600070B94FF4165301A928460193FFF7A2FF21
:1057700001F0AAFD019901F0A1FD01F0A5FDDBE713
:105780000020D9E7609D0808679D08086A9D080801
:1057900070B51426D0E90053044606FB0356AE420A
:1057A00005D005F10800FFF7F3FF1435F7E720688F
:1057B000FFF79AF8204670BD70B50446D0E9005353
:1057C00005EB0316AE4204D02846FFF7ADFA1035BC
:1057D000F8E72068FFF788F8204670BD10B504464A
:1057E0000C30FFF7D5FF2046FFF7E6FF204610BD3F
:1057F00010B50446034B40F8043BFFF7EFFF20468B
:1058000010BD00BFC897080810B50446FFF7F0FFA9
:105810002046242102F03DFA204610BD10B5044672
:10582000024B0360FFF7E4FF204610BD009E08080E
:1058300010B50446FFF7F2FF2046242102F029FAB2
:10584000204610BD0022C0E90022826010B50C681D
:105850000A6004604C684A6044608C688A608460B6
:1058600010BD10B5044603681868FEF78DFD20468C
:1058700010BD00002DE9F04F87B003931C4B80460C
:105880005B688946C3F3080316466BB9FFF79CFEB5
:10589000044600F12403406A0593FEF76DFD237B67
:1058A0002BB105A8FFF7DDFF07B0BDE8F08F01239E
:1058B0005FFA89F92373D4E9005305EB830AAA45FB
:1058C00012D055F8047B3146381DFFF701FE8145A3
:1058D000F5D3039A3B680092D3F808B04A463346A2
:1058E00041463846D847EAE700232373D9E700BF8B
:1058F00000ED00E02DE9F74F9B461A4B80465B68B0
:105900008946C3F3080316466BB9FFF75DFE0446EC
:1059100000F12403406A0193FEF72EFD237B2BB197
:1059200001A8FFF79EFF03B0BDE8F08F0123F6B298
:105930002373D4E9005305EB830A55450ED055F87F
:10594000047B5946381DFFF7C3FD8642F5D33B68FB
:105950004A4641463846DB689847EEE70023237302
:10596000DEE700BF00ED00E02DE9F341164B0546F0
:105970005B680F46C3F308031BBBFFF725FE044615
:1059800000F12403406A0193FEF7F6FCD4E90063BA
:10599000462406EB8308B04509D101A8FFF761FF53
:1059A000A542B4BF0020012002B0BDE8F08156F846
:1059B000040B39460430FFF78BFD8442A8BF044630
:1059C000E9E70020F0E700BF00ED00E00B4670B50E
:1059D000044605C800EB8202824207D001461D68DA
:1059E00051F8046BAE4203D00846F5E7002070BDC5
:1059F000521A03F0DBFA63680120013B6360F6E7AB
:105A00001FB5044600F12403406A01910393FEF799
:105A1000B3FC204601A9FFF7D9FF18B163680BB9A1
:105A2000FFF7FEFD03A8FFF71CFF04B010BD18230D
:105A300070B50446D0E9045603FB0656AE4215D0B5
:105A4000204605F11001FFF7C1FF63680BB9FFF7AE
:105A5000E7FDE06929690368DB689847696919B15E
:105A6000206A0368DB6898471835E7E71826D4E909
:105A7000045306FB0356AE4204D02846FFF754F900
:105A80001835F8E70023636170BD73B50446FFF76E
:105A9000C7FD04F12403606A0193FEF76DFC204604
:105AA000FFF7C5FF01A8FFF7DCFE606A08B1FEF74B
:105AB0005BFCD4E90453182606FB0356AE4204D01F
:105AC0002846FFF731F91835F8E72069FEF70CFF93
:105AD0002068FEF709FF204602B070BD8842F8B585
