:020000040808EA
:10000000000008083CA40808000006000A000501DA
:080010000402D8070000000003
:0400180090920808B2
:1000200008B5024B1B689B6D019308BD2C000608A8
:1000300008B5024B1B685B6E019308BD2C000608D7
:1000400009480A4908B5884205D0094A824202D0C7
:10005000121A08F06DFF0748074A0021121A08F02B
:100060008FFF064808BD00BF00000020E4A208087A
:100070003001002030010020980500209805002064
:1000800070B506F097FB0025054E064CA41BA4088E
:10009000A54200D170BD56F8043B98470135F7E7FB
:1000A00078A00808B4A0080800F060BF08B500F008
:1000B0004BFDBDE8084006F03FBB04F0EDBB04F08B
:1000C000EBBB04F0F1BB000000210C2008B5024A94
:1000D00004F0AAFAFEE700BF494208080078B0FA27
:1000E00080F0400970470123037070477047006A31
:1000F0000368DB68184703681847012A03D0022AFF
:1001000003D0002070470160FBE70B680360F8E74D
:10011000012A03D0022A03D0002070470160FBE7C8
:100120000B680360F8E70000014802F07DBD00BFE6
:10013000280200201FB50468684604F04FFE684698
:10014000A0470446684604F0CFFD204604B010BD29
:1001500008B5006808F0D6FE014B186008BD00BF66
:100160000000002008B5006808F0CCFE014B1860C4
:1001700008BD00BF0C00002008B5006808F0C2FEF2
:10018000014B186008BD00BF0400002008B50068DE
:1001900008F0B8FE014B186008BD00BF0800002041
:1001A00008B5006808F0AEFE014B186008BD00BF3E
:1001B0001400002008B5024802F042FD012008BDED
:1001C00028020020436913B183690C301847704737
:1001D00013B500210446084604F086F800232046A3
:1001E00001A9019304F098F8019C0CB1012323713B
:1001F0000021012004F078F82CB1236820469B6888
:1002000098470023237102B010BD000010B50D49BE
:10021000044604F058FE38B100220B4B0B481A700C
:10022000BDE8104002F0DCBC2046094904F04BFE5A
:1002300038B10122044B05481A70BDE8104002F0A5
:10024000E1BC10BDA4920808100000202802002084
:10025000AD92080810B50446006808B104F024FB0C
:10026000204610BD10B50446094B036005F08CF91B
:10027000214605F0A5FB06F077FE06F069FE204654
:10028000044B40F8043B05F089FA204610BD00BF3E
:10029000809708086897080810B50446FFF7E2FF42
:1002A0002046242107F0C5FC204610BD7FB504463A
:1002B000006808F027FE202186B2204604F04DFE9B
:1002C00021460246684604F06DFE009808F01AFECA
:1002D0000446684604F008FD164B1B68DB001FD57A
:1002E00006F042FE144904F0B7FE06F03DFE0A2275
:1002F000314604F0CEFE06F037FE104904F0ACFEA5
:1003000006F032FE002C054612DA2D2104F0A8FE7C
:1003100061420A22284604F0BCFE284604F0A3FEEF
:1003200022463146064802F085FC012004B070BD2B
:100330002146EEE714000020B6920808BD92080896
:10034000280200200EB403B503AB53F8042B01219F
:10035000019304F097FF02B05DF804EB03B070471F
:1003600038B50A4C15462368D90106D506F0FCFDC0
:10037000074905F00F02FFF7E5FF23681A0154BF94
:1003800043F07F4323F07F43236038BD14000020F7
:10039000C492080810B58368044613B103220146CD
:1003A0009847204610BD00000246014806F0B1BA49
:1003B000A368080807B58068002338B1CDE90013A9
:1003C000022103F0B1FFB0FA80F0400903B05DF8FC
:1003D00004FB000038B5104B044603608368A3B1EA
:1003E0006FF000410022FFF7E5FF0021A06803F055
:1003F000CBFF237903F0FF0513B103F05DFFF8E7AE
:100400002946A06803F080FFA56004F10C00FFF707
:10041000C1FF204638BD00BF5497080810B50446F8
:10042000FFF7D8FF20461C2107F003FC204610BD33
:1004300038B5046805467CB16368013B63605BB90D
:10044000236820469B689847A368013BA3601BB9BB
:1004500023682046DB689847284638BD2DE9F041DF
:100460002E4892B002F0B6FB002854D006F029F8CE
:1004700005462A4802F0CAFA0446284802F0CCFA97
:100480000646264802F048FB0746244802F0CAFA0E
:10049000234B2A461B688046224900930EA8EB177F
:1004A00005F0B0FF204607F057FE0E9B04460D46B0
:1004B00040461D49069308F0B1FB07F04DFECDE91B
:1004C00004011949384608F0A9FB07F045FECDE9BB
:1004D0000201304607F040FE2246CDE900012B46DE
:1004E00012490AA804F06AFD114B0A9A1B781149B7
:1004F0008DF8003008A83C2306F010FB09A8FFF790
:1005000097FF0AA804F0F0FB0EA804F0EDFB012011
:1005100012B0BDE8F0810220FAE700BF28020020F7
:10052000C4000020E803002000007A44E09208089C
:10053000400100200C93080830B51B488BB002F036
:100540003DFA0446194806F06DF80546174806F0CE
:1005500087F807F001FECDE90201284607F0FCFD0F
:100560002246CDE9000106A8114904F027FD114BF0
:10057000069A1B7810498DF8003004A83C2306F039
:10058000CDFA05A8FFF754FF06A804F0ADFB074815
:1005900006F066F8094908F049FC002814BF01205C
:1005A00002200BB030BD00BFCC0100209401002020
:1005B00015930808400100203893080800002041E6
:1005C000F0B5164C89B0204602F040FB05462046A7
:1005D00002F046FB0646204602F04CFB074620464A
:1005E00002F052FB33462A46CDE900700C4904A8BC
:1005F00004F0E4FC0B4B049A1B780B498DF8003097
:1006000002A83C2306F08AFA03A8FFF711FF04A80A
:1006100004F06AFB012009B0F0BD00BF28020020F1
:10062000429308084001002060930808F0B54FF499
:10063000FA6089B005F060FF204802F0B9FC04467A
:100640001E4802F07BFC21460546204608F0F8FBD8
:1006500020B92946284608F0F3FB28B1184B1B683F
:10066000002B24DB022020E0284607F075FD06461B
:1006700020460F4607F070FD3246CDE900013B46AB
:10068000104904A804F09AFC0F4B049A1B780F49F8
:100690008DF8003002A83C2306F040FA03A8FFF7CB
:1006A000C7FE04A804F020FB012009B0F0BD06F04D
:1006B0005BFC074904F0E3FCD4E700BF80010020A5
:1006C0001400002069930808400100207D93080869
:1006D0008593080830B52A498DB0054604F0F3FB30
:1006E00068B1294608A804F093FB08A8FFF724FF87
:1006F000044608A804F0F8FA20460DB030BD28469C
:10070000204904F0E0FB38B1294608A804F080FB3A
:1007100008A8FFF7A3FEEBE728461B4904F0D3FB2C
:1007200038B1294608A804F073FB08A8FFF748FF72
:10073000DEE71649284604F0C6FB0446294608A809
:100740002CB104F065FB08A8FFF770FFD0E704F0B8
:100750005FFB08AA04A80E4904F030FC0D4B049A74
:100760001B780D498DF8003002A83C2306F0D6F91D
:1007700003A8FFF75DFE04A804F0B6FAB9E700BFCE
:10078000A5930808A9930808AD930808B193080831
:10079000B593080840010020C293080870B51B48B3
:1007A0008AB002F00BF91A4E04463378834229D0FE
:1007B000184B1B685B0725D5174805F033FF054626
:1007C000154805F04DFF07F0C7FCCDE902012846AA
:1007D00007F0C2FC2246CDE90001104906A804F04A
:1007E000EDFB0F4B069A1B780E498DF8003004A8DC
:1007F0003C2306F093F905A8FFF71AFE06A804F0BB
:1008000073FA347001200AB070BD00BFCC01002023
:10081000110000201400002094010020CB93080850
:1008200040010020389308082DE9F04F95B003F0FF
:1008300013FDDFF840A1DAF80030C01A454B1A6802
:100840004EF660235343984240F28180424802F0C2
:10085000C1F900287BD0414B1A68099312F0010FAF
:1008600063D005F02EFEDFF810B1C517DBF80030BD
:1008700002463B490446009310A82B4605F0C2FDF2
:1008800010A804F031FA344802F0C0F8814632482A
:1008900002F0C2F80646304802F03EF907462E48FC
:1008A00002F0C0F8DBF80030224680462C49009365
:1008B00010A82B4605F0A6FD484607F04DFC109BFE
:1008C00004460D4640462749069308F0A7F907F06D
:1008D00043FCCDE904012349384608F09FF907F0AD
:1008E0003BFCCDE90201304607F036FC2246CDE95B
:1008F00000012B461C490CA804F060FB1B4B0C9A12
:100900001B781B498DF800300AA83C2306F006F935
:100910000BA8FFF78DFD0CA804F0E6F910A804F071
:10092000E3F903F099FCCAF80000099B1B68DB009F
:100930000DD506F019FB0446074910A802F0F2F89D
:100940002046109904F09BFB10A804F0CDF915B0D7
:10095000BDE8F08F0C0000202802002014000020C9
:10096000E803002000007A44E092080840010020DB
:100970000C930808A4010020C400002070B5314881
:1009800086B002F081F9304B04461B68834223DABB
:100990002C4802F05BF905462A4802F061F9064648
:1009A000284802F067F9CDE90004284C33462A466E
:1009B000274902A804F002FB02A9204604F033FAFA
:1009C00002A804F091F9234B1B689A0004D506F0A5
:1009D000CBFA216804F053FB03F03EFC1E4D2B685C
:1009E000C01A1E4B1A684EF660235343984227D90B
:1009F000184B1B689B0723D5144C1949204604F05B
:100A000062FAE8B9174B18491B7802A88DF8003034
:100A100022683C2306F082F803A8FFF709FD10497D
:100A200002A804F0ABF902A8FFF718FD02A804F031
:100A30005BF903F011FC0A492860204604F0FBF939
:100A400006B070BD2802002000000020D801002060
:100A500042930808140000209C010020040000209C
:100A60004498080840010020609308082DE9F041EF
:100A70004FF4FA6088B005F03FFD2B4802F098FA79
:100A80000446294802F05AFA21460546204608F055
:100A9000D7F920B92946284608F0D2F948B1234BA6
:100AA0001B68002B13DA06F05FFA214904F0E7FA1D
:100AB0000DE003F0D1FBDFF88C80D8F80030C01ACD
:100AC0001C4B1A684EF660235343984202D808B074
:100AD000BDE8F081154B1B681B07F8D5284607F0C9
:100AE0003BFB064620460F4607F036FB3246CDE973
:100AF00000013B46104904A804F060FA0F4B049A29
:100B00001B780F498DF8003002A83C2306F006F848
:100B100003A8FFF78DFC04A804F0E6F803F09CFBA3
:100B2000C8F80000D3E700BF8001002014000020B7
:100B300085930808080000206993080840010020F8
:100B40007D930808A001002008B5114800F056FF69
:100B5000104801F04DFC104801F02AFA0F4801F04E
:100B6000A7FD0F4801F04AF9FFF708FFFFF75CFE09
:100B7000FFF714FEFFF77AFF0A4B1B681B0106D52F
:100B800006F0F2F9BDE80840074904F078BA08BD5C
:100B900044010020E80100205401002074010020DD
:100BA0002C02002014000020EE9308082DE9F04FDD
:100BB000A1B018AEA6490546304604F0DFF8A548B6
:100BC00002F002F81590A34801F064FF8346A148A3
:100BD00001F066FF82469F4801F068FF81469D480C
:100BE00001F076FF80469B4801F078FF0746994860
:100BF00001F068FF1490974801F05EFF029095485D
:100C000001F0F8FE0590934801F0FAFE0690914835
:100C100001F0FCFE07908F4801F0FEFE08908D4821
:100C200001F074FF09908B4801F076FF0A90894823
:100C300001F066FF0B90874801F05CFF0C9085483F
:100C400001F052FF0D90834801F0F4FE0E908148B0
:100C500001F0F6FE0F907F4801F0F8FE10907D48FD
:100C600001F0FAFE03907B4801F0FCFE0490794805
:100C700001F00AFF1190774801F0FAFE12907548D2
:100C800001F0FCFE74491390284604F01CF91CACDA
:100C900068B3159A2046714904F090F92146304610
:100CA00004F0C1F8204604F01FF82946204604F05D
:100CB000AFF820466A4904F0F2F8314604F0E3F850
:100CC000684B02681B7868498DF8003016A83C23F1
:100CD00005F024FF17A8FFF7ABFB204604F004F84B
:100CE000304604F001F8012021B0BDE8F08F28461D
:100CF0005E4904F0E8F808B15A46CBE728465C495B
:100D000004F0E1F808B15246C4E72846594904F016
:100D1000DAF808B14A46BDE72846574904F0D3F847
:100D200008B14246B6E72846544904F0CCF808B169
:100D30003A46AFE72846524904F0C5F808B1149A7C
:100D4000A8E728464F4904F0BEF810B1BDF80820C6
:100D5000A0E728464C4904F0B6F848B1059807F0DA
:100D6000FBF902460B462046484904F027F995E76F
:100D70002846474904F0A7F8B046274670B10698C0
:100D800007F0EAF902460B463846404904F016F9E6
:100D90003946404604F047F8384684E728463D493E
:100DA00004F091F808B10798EAE728463A4904F0B8
:100DB0008AF80DF1600808B10898E1E7284637493C
:100DC00004F081F81CAF08B10998D9E728463449E6
:100DD00004F079F808B10A98D2E72846314904F0BE
:100DE00072F808B10B98CBE728462F4904F06BF84E
:100DF000C246B94628B10C9A1849384604F0DEF8C4
:100E0000C6E72846294904F05EF808B10D9AF3E7D1
:100E10002846274904F057F810B10E9A2549ECE707
:100E20002846254904F04FF808B10F9AF6E72846FE
:100E3000224904F048F8002844D0109A2049484636
:100E400004F0BCF84946504603F0EDFF48462AE757
:100E50004498080828020020059408089B9908086F
:100E60001A9D0808400100200395080812940808FC
:100E700017940808329408081E9408082494080857
:100E8000289408082D9408083A940808EF9908084F
:100E9000439408084D9408085D9408086E94080867
:100EA0007A94080883940808899408089494080898
:100EB0009F940808A7940808AB940808B3940808FE
:100EC000B89408082846144903F0FDFF08B1039AB6
:100ED000B4E72846114903F0F6FF08B1049AADE7DC
:100EE00028460F4903F0EFFF10B1119A0D49A6E70C
:100EF00028460D4903F0E7FF08B1129AF6E72846A5
:100F00000A4903F0E0FF08B1139AEFE740460849A9
:100F100003F091FFC9E600BFBC940808C19408081B
:100F2000C6940808A7940808CD940808D594080822
:100F3000DE94080870B51426D0E90053044606FB79
:100F40000356AE4204D0284603F0CEFE1435F8E72F
:100F5000206803F0A9FC204670BD0023022203F0A4
:100F600043BC0023022203F03FBC000010B586B052
:100F700005F0FAFF4FF4165105F0E6FF06F057F8BA
:100F800042F2107005F0B8FA684801F0EDFC6848CC
:100F900001F0D5FE674801F01BFD664801F0DCFD5D
:100FA000654902A803F0EAFE02A8FFF72FF902A89C
:100FB00003F09AFE614801F037FC614800F01CFD27
:100FC000604801F02FFA604800F090FF5F4800F0A1
:100FD000A9FD5F495F48FFF7E7F95F4B10200293D7
:100FE0005E4B05935E4B0493FFF767F8044678B1B8
:100FF00000238360049B33B1022202A99847059B1A
:10100000E360049BA3602146564A574805F081FCE3
:1010100002A8FFF7BFF955495548FFF7C5F95549EB
:101020005548FFF7C1F955495548FFF7BDF95549EE
:101030005548FFF7B9F955495548FFF7B5F95549EE
:101040005548FFF7B1F955495548FFF7ADF95549EE
:101050005548FFF7A9F955495548FFF7A5F95549EE
:101060005548FFF7A1F955495548FFF79DF95549EE
:101070005548FFF799F955495548FFF795F9002369
:1010800001225449544803F0AFFB54495448FFF738
:1010900064FF002302225349534803F0A5FB534940
:1010A0005348FFF75EFF53495348FFF75AFF534930
:1010B0005348FFF756FF53495348FFF74EFF534934
:1010C0005348FFF74AFF53495348FFF746FF0023B1
:1010D00001225249524803F087FB00230021514A64
:1010E0004FF4805003F0E0FA03F096FB00224E4CE0
:1010F00011462046FFF75EF9A06840B100236FF06B
:1011000000421946CDE900231A4603F00DF94FF4C9
:10111000FA6005F0F1F9334B1B685B0104D505F06B
:1011200023FF424903F0ABFF06B010BDCC01002005
:101130008001002028020020AD92080874010020E0
:1011400044010020E8010020540100202C0200206E
:10115000A1010808AB9508080D0208083501080828
:10116000110108081A960808CF680808D50608086B
:101170000C9508085101080813950808650108082E
:101180001D95080879010808279508088D010808A9
:1011900031950808AD0208083B950808B501080814
:1011A00043950808951208084C950808AD0B0808E7
:1011B00054950808E13E08085E950808653F080850
:1011C0006A9508082D40080877950808B140080876
:1011D00082950808110000208E9508080000002064
:1011E0009895080814000020A4950808A401002080
:1011F000B19508089C010020BC950808A0010020BA
:10120000C79508080C000020D295080804000020AB
:10121000DE95080808000020EA9508081000002064
:10122000F69508086103080848020020029608089D
:1012300038B5054642B903689B6898470446284676
:1012400003F011FF204438BDD2B203F022FFF5E7CE
:10125000F8B505460C4616464AB90368C9B29B68FC
:1012600098470746284603F0FEFE3844F8BD00299B
:101270000CDA0A2A0AD12D2103F0F2FE0746614258
:101280002846F2B203F005FF0744EBE721460027AA
:10129000F6E700002DE9F04FC94C93B0204601F06D
:1012A00093FC8346204601F0F5FB8246204601F080
:1012B000F7FB8146204601F0F9FB8046204601F00D
:1012C00007FC0746204601F009FC0646204601F0CF
:1012D000F9FB0546204601F0EFFB0090204601F0A7
:1012E00089FB0190204601F08BFB0290204601F023
:1012F0008DFB0390204601F08FFB0490204601F007
:1013000005FC0590204601F007FC0690204601F000
:10131000F7FB0790204601F0EDFB0F90204601F00F
:10132000E3FB1090204601F085FB0890204601F079
:1013300087FB0990204601F089FB0A90204601F0C6
:101340008BFB0B90204601F08DFB0C90204601F0AA
:101350009BFB0D90204601F08BFB0E90204601F088
:101360008DFB044605F000FE964903F075FE05F07E
:10137000FBFD0A225946119003F08BFE119B184683
:1013800003F071FE05F0F0FD8F4903F065FE05F0F6
:10139000EBFD0A225146FFF74BFF05F0E5FD8B49B7
:1013A00003F05AFE05F0E0FD0A224946FFF740FF30
:1013B00005F0DAFD864903F04FFE05F0D5FD0A225F
:1013C0004146FFF735FF05F0CFFD824903F044FEAB
:1013D00005F0CAFD0A223946FFF72AFF05F0C4FDD1
:1013E0007D4903F039FE05F0BFFD0A223146FFF7C3
:1013F0001FFF05F0B9FD794903F02EFE05F0B4FD9D
:1014000006460A22294603F044FE304603F02BFE2E
:1014100005F0AAFD724903F01FFE05F0A5FD054683
:101420000A22BDF8001003F034FE284603F01BFE2C
:1014300005F09AFD6B4903F00FFE05F095FD0222C1
:10144000019903F011FF05F08FFD674903F004FED9
:1014500005F08AFD0222029903F006FF05F084FDE3
:10146000624903F0F9FD05F07FFD0222039903F0C4
:10147000FBFE05F079FD5E4903F0EEFD05F074FD1D
:101480000222049903F0F0FE05F06EFD594903F0C5
:10149000E3FD05F069FD0222059903F0E5FE05F084
:1014A00063FD554903F0D8FD05F05EFD0222069963
:1014B00003F0DAFE05F058FD504903F0CDFD05F0CC
:1014C00053FD0222079903F0CFFE05F04DFD4C4974
:1014D00003F0C2FD05F048FD0A220F99FFF7A8FEB0
:1014E00005F042FD474903F0B7FD05F03DFD0A2236
:1014F0001099FFF79DFE05F037FD434903F0ACFD61
:1015000005F032FD05460A22089903F0C2FD28467F
:1015100003F0A9FD05F028FD3C4903F09DFD05F011
:1015200023FD05460A22099903F0B3FD284603F07E
:101530009AFD05F019FD364903F08EFD05F014FD06
:101540000A220A99FFF784FE05F00EFD314903F0E7
:1015500083FD05F009FD0A220B99FFF779FE05F0DE
:1015600003FD2D4903F078FD05F0FEFC0A220C99DD
:10157000FFF76EFE05F0F8FC284903F06DFD05F05D
:10158000F3FC0A220D99FFF763FE05F0EDFC2449F8
:1015900003F062FD05F0E8FC0A220E99FFF758FE01
:1015A00005F0E2FC1F4903F057FD05F0DDFC0A22BF
:1015B0002146FFF74DFE012013B0BDE8F08F00BFBC
:1015C0002802002024960808339608083A9608084E
:1015D0005D960808439608084B9608085196080837
:1015E0005896080867960808729608087E960808B4
:1015F00090960808A3960808B1960808BC960808B3
:10160000C4960808D1960808DE960808E8960808E7
:10161000F2960808F996080800970808079708083E
:10162000109708081A9708088842F8B504460D462E
:10163000164616D9904215D2A2F11406751AA1F1D8
:1016400014072C44B7421CD02CB13146204603F07D
:10165000C5FB337C2374304603F046FB143E143C38
:10166000F0E70ED0B5420CD02CB12946204603F04D
:10167000B5FB2B7C2374284603F036FB1435143459
:10168000F0E7F8BD00232DE9F041C0E900338360A5
:101690004F6804469F420E4624DD4FF0140808FBB5
:1016A00007F003F0F9F80546E0B1D4E9001208FBB1
:1016B0000212FFF7B9FF206803F0F6F82560A76073
:1016C000D6E9007308FB0378B84509D039462846A7
:1016D00003F09EFB3B7C143505F8043C1437F3E71C
:1016E000736863602046BDE8F08100002DE9F04793
:1016F0004FF0010A0024784B90B083F800A0CDE9A8
:101700000344059405F030FC744E0546B1460DF1D6
:10171000240803A906A8FFF7B5FF06A94046FFF76E
:10172000B1FF6F4B0CAF49F8043B41463846FFF719
:10173000A9FF3A461E21484604F094FA3846FFF7BE
:10174000F9FB4046FFF7F6FB664B3562336006A8AF
:10175000FFF7F0FB644B654D336005F005FC4FF47B
:10176000165105F0F1FB03F00FFF314604F00DFABE
:1017700003A8FFF7DFFB2A4630465D4906F054FA1E
:101780002146504602F098FF5A4E5B4B3460B360DE
:10179000B480B471022002F06FFF3046574E2A46E3
:1017A000574906F041FA3046564900F075FF2A467F
:1017B0005549304606F038FA544E554B4FF46162A5
:1017C00000933046002300F0D3FD3046514E2A46A8
:1017D000514906F029FA304600F064FB30464F4E7E
:1017E0002A464F4906F020FA022230464D4900F0C1
:1017F0008BF930464C4E2A464C4906F015FA4FF408
:10180000616230464A4900F0C3F83046494E2A46E4
:10181000494906F009FA4EF66021304600F0D0FC46
:101820002A4646493046464E06F0FEF9454801F044
:10183000CDF82146304604F09FFE3046424E2A46FF
:10184000424906F0F1F9304601F07EF82A4630466A
:101850003F49404E06F0E8F90623162203213E4890
:1018600001F066FA30463D4903F088FA2A463046D0
:101870003B4906F0D9F93B4B3B4E0C9397E80300EC
:101880003A4B88E80300336006F10C0393E8030049
:1018900087E8030098E8030083E80300344B322113
:1018A0007361B369334A0F93334B3471B361B460DE
:1018B0003346CDE9004406F108000E9402F01CFD09
:1018C0003846FEF767FD2A4630462C4906F0ACF94B
:1018D00010B0BDE8F08700BF40010020A801002043
:1018E00068970808689D080880970808300100205C
:1018F00065020808340100200000FFFF7401002089
:10190000550208082597080889260808E8010020DC
:1019100034970808540100203D2308082C020020B9
:10192000651E08084197080844010020751A080838
:101930000000704164020020811908086121080834
:101940009401002028020020CC010020976508089F
:10195000A1280808D8010020800100204498080828
:10196000E94C080829010808480200205497080893
:10197000FB000808D1010808F7000808D50308088B
:10198000704710B50446102106F053F9204610BDEB
:101990008260002210B5024C41600460C26010BD3C
:1019A0009897080837B50446104804F059FE0021FE
:1019B000054607F013FAB0B92946606807F036FA11
:1019C00088B10B4803F00FF868B9284607F04EFAC3
:1019D00001460D2000F052FF064B012168461B68AE
:1019E000A26803F0EDF803B030BD00BF8402002010
:1019F0008C02002080020020FFF7D4BF10B50446FF
:101A000002F02AFCE368C01A4EF65F23984207D919
:101A100002F022FCE0602046BDE81040FFF7C2BFA4
:101A200010BD000070B500240C4B0D4D1C6021460C
:101A30000C4E284604F0A0FD28460B4D32460B49BB
:101A400006F0F2F82146284602F07DFF324628468D
:101A5000BDE87040064906F0E7B800BF80020020EC
:101A600084020020300100208C02002097650808C5
:101A700065490808704710B504461C2106F0D9F8DE
:101A8000204610BD10B50446086807F0CFFAE060A4
:101A9000002010BD022A38B5044607D0032A11D011
:101AA000012A01D10B682360002038BD0C200D688D
:101AB000FEF703FB03460028F5D095E8070083E80E
:101AC0000700F0E700680028EED00C2106F0B1F81E
:101AD000EAE77FB50268536890685E1000EB630523
:101AE000DB07146848BF8359684648BF1C5903F098
:101AF00075F969462846A0470446684603F0F4F89D
:101B0000204604B070BD00008260002210B5044C75
:101B1000C0E90322C0E90041C0E9052210BD00BFB1
:101B2000289808087FB50024054646680C200294D2
:101B3000FEF7C3FA18B1164B8560C0E90034154BA7
:101B400000900393144B10200293FEF7B6FA04465C
:101B500078B100238360029B33B102226946984723
:101B6000039BE360029BA360324621460B4804F0CE
:101B7000D0FE029B1BB16946032208469847A8681D
:101B8000002803DB022180B205F004FF04B070BD21
:101B9000851A0808D31A0808951A0808CF68080893
:101BA000F0B505468DB00846814907F09BFA002440
:101BB0007F4E07AF48B1052C08D047F824003146C6
:101BC000002007F08FFA0134F4E77CB14FF4FA708B
:101BD00004F092FC079E7749304607F014FA38B9B2
:101BE00000210A2000F04AFE02F0DBFF0DB0F0BD3C
:101BF0007149304607F007FA014650B96F4C236827
:101C0000002BEDD0112000F039FE206800F090F993
:101C1000ECE76B49304607F0F6F9014610BB10209F
:101C200000F02CFE674B684A1B7868498DF800303D
:101C300005A83C2304F072FF069C002CD6D06368F4
:101C4000013B6360002BD1D1236820469B689847F5
:101C5000A368013BA360002BC8D123682046DB6842
:101C60009847C3E730465A4907F0CDF9074638B9D7
:101C70000146132000F002FE384602F095FFB5E75A
:101C80005449304607F0BFF9014618B90B2000F05F
:101C9000F5FDFEE73046504907F0B5F9002865D15B
:101CA000012C63D0022C12D11E2421460C2000F0FE
:101CB000E5FD089E4949304607F0A5F970B9484B43
:101CC000224601211B6805A802F07AFF8EE70998D9
:101CD00007F018F904460028E6D0E6E73046414907
:101CE00007F091F908B9404BEAE730463F4907F061
:101CF0008AF90746D0B9AB68002BFFF677AF384AB0
:101D0000ADF8123012680223CDE9014201228DF8AC
:101D100011300DF1120100920DF1110305A802F02E
:101D20008DFF3946152000F0A9FD5FE730463049A8
:101D300007F069F9064600287FF458AFAB68002B1E
:101D4000FFF654AF284AADF8123012680223CDE9ED
:101D5000014201228DF811300DF1120100920DF1B6
:101D6000110305A802F06AFF3146DBE7304621493E
:101D700007F049F900287FF439AF012C3FF436AF62
:101D8000089E1D49304607F03EF948B9022C04D0A0
:101D9000099807F0B7F8686128E71E236B6125E70B
:101DA0003046124907F02FF900287FF41FAFF2E701
:101DB000169D0808A0970808A6970808A00200200A
:101DC000B19708089802002044980808BE970808B0
:101DD000D7970808E0970808EC970808F2970808D2
:101DE00090020020F7970808940200200398080842
:101DF00008980808149808081998080810B5C168C8
:101E0000044631B1FFF7CCFEE06802F04DFD00233F
:101E1000E3606369002B14DD02F01EFA2369626936
:101E2000C01A4FF47A73534398420AD302F014FA5B
:101E3000A16920610131A1611420BDE8104000F0CA
:101E40001DBD10BD0022044B1A600123034A13601C
:101E5000034A1370704700BF9002002094020020D4
:101E600098020020704710B50446202105F0E1FEDD
:101E7000204610BD0EB410B50023016820208DB09F
:101E80000FAA52F8044BCDE90403CDE900420392B6
:101E90001E2004AA02F0D0FB0DB0BDE8104003B034
:101EA0007047000047F230520B4B42F21071036052
:101EB0000A4B10B5C0E901230023094AC0E9031306
:101EC0001060084A08491468C0E906338C4218BFFC
:101ED000C2E90013838210BDC898080820BF020021
:101EE000A00200200040024094C54E2E7047000022
:101EF000002110B50C4BC2680446084602F04CFBAA
:101F00000146072000F0BAFC0021E268074B0846B2
:101F100002F042FB04460146082000F0AFFCA01C82
:101F200018BF012010BD00BF309808084598080868
:101F300030B51B4985B01B48FFF79CFF00210420EA
:101F400000F09CFC002301A8CDE901338DF80C3092
:101F500004F0F0FC02F080F943F69725044602F005
:101F600063FC40B102F078F9001BA84203D864205A
:101F700004F0C2FAF3E7002147F2305208460A4B58
:101F800002F00AFB4FF47A7004F0B6FA074B0A220B
:101F900001211B6801A802F013FE05B030BD00BF8F
:101FA00062980808BC030020729808089C02002070
:101FB00037B50022454D04461146686802F0DCFB47
:101FC000237D014683420DD02075012000F056FC90
:101FD000217D3F4A3F4B4048002908BF1A463F49F0
:101FE000FFF748FF02F020FC637D014683422BD0BF
:101FF0006075022000F042FC617D364B344A364861
:10200000002908BF1A463649FFF734FF637DC3B184
:102010000022344B5A6000226868114602F0CCFB63
:1020200068B1A569002D3CD102F016F92946A061DE
:10203000032000F023FC2C492748FFF71BFF03B0C7
:1020400030BD02F009F9E061637D002BE3D1A368A4
:10205000002BE0D002F000F9E369C01AA3689842AF
:10206000D9D3237D13B12046FFF742FF1D4A5368A1
:1020700001335360226962B1012B0AD90021162075
:1020800000F0FCFB194B012168461B68226902F035
:1020900097FD0021062000F0F1FB2046FFF748FFE6
:1020A000B9E76368002BCAD002F0D6F8A369C01A5A
:1020B00063689842C3D30021052000F0DFFB20466F
:1020C00003B0BDE83040FFF733BF00BF0405002078
:1020D0007F98080882980808BC03002087980808A1
:1020E0009398080800400240A79808089C02002026
:1020F0000022014B1A6070479C020020012310B59A
:1021000003748368044643B1C068984701230020E4
:102110006374BDE8104002F02FB900680028F5D0C4
:1021200083680BB905F08BFDC368EEE708B50021A5
:10213000092000F0A3FBBDE8084002F032BD38B52D
:102140000568044635B12846FEF724F910212846D3
:1021500005F06FFD2046BDE83840142105F069BD4B
:1021600010B5114B0446036083699BB1586802F0B7
:102170009BF878B9A3695A7C12B9586802F0A4F8A0
:10218000A369586802F0A8F80023A069A36108B108
:10219000FFF7D5FFA06908B1FFF7D1FF04F10800F0
:1021A000FEF7F8F8204610BDE098080810B5044680
:1021B000FFF7D6FF20461C2105F03BFD204610BD51
:1021C00070B5064600250446234B86B046F8043B0E
:1021D000224B41600293224B05610593214B02A9DA
:1021E0000222301D0493FDF788FF059B14206361D4
:1021F000049B1D49236105F01EFD28B1C0E900556F
:10220000C0E9025505744574A061A0B1174B0922BD
:10221000C0E902364FF4E1631549CDE90003154BDF
:10222000043002F039F830B9A3691B7C4BB90120A6
:1022300002F002F8F8E70023A069A36108B1FFF7F4
:102240007EFF02F009F80C4B186002A8FEF7A2F816
:10225000204606B070BD00BFE09808082D21080890
:10226000F7000808FB000808159F0808017B08080C
:10227000D0980808FD2008085C050020012380F89C
:1022800024307047012A034602D1016000207047C4
:10229000022A04BFD1E90001C3E90001F6E710B545
:1022A000044603689B689847A368013BA3602BB969
:1022B00023682046BDE81040DB68184710BD034680
:1022C00010B442681B68541001EB6200D20748BF8B
:1022D0000A5910BC48BFD3581847022A38B50446DB
:1022E00007D0032A11D0012A01D10B6823600020F6
:1022F00038BD0C200D68FDF7E0FE03460028F5D040
:1023000095E8070083E80700F0E700680028EED0B2
:102310000C2105F08EFCEAE770B4036809685C687C
:102320009D68661005EB6400E40748BFAC591B6864
:10233000126848BFE35870BC1847000010B5044647
:10234000054B40F82C3BFEF725F804F1100002F095
:10235000CBFC204610BD00BF1499080810B50446F8
:10236000FFF7ECFF2046402105F063FC204610BD3E
:1023700030B5194900F1100589B00446C0E90223BF
:1023800001601649284602F0F9FC0023144A236232
:10239000C4E90B2384F82430A362124B04A8A3637E
:1023A000114B636302F048FA04A9684602F030FD5D
:1023B00068460E4902F073FD0C9902F070FD01466B
:1023C000284602F016FD684602F08EFC04A802F0D2
:1023D0008BFC204609B030BD1499080844980808C1
:1023E00079250808BF22080885220808E898080807
:1023F00010B5436B01460BB905F021FC836BBDE8BA
:1024000010402C30184738B5002383608B68044691
:102410000D462BB102229847EB68E360AB68A360DE
:10242000204638BD70B51D4B1D4A196804469142BF
:102430008AB004D000200021C3E902011A600025FF
:102440000C2026690495FDF738FE18B1154B846001
:10245000C0E90035144B02900593144B02A906A85D
:102460000493FFF7D0FF089B7BB11020FDF725FEFA
:10247000044650B106A9FFF7C6FF002322463046A6
:10248000CDE900330A4902F0E7F906A8FDF782FF1B
:1024900002A8FDF77FFF0AB070BD00BF08400240F0
:1024A000FE49684A7D22080819230808DB2208082B
:1024B000F768080810B5D1E90023002186B004466A
:1024C00004910AB9D90705D5CDE902230F4B05932D
:1024D0000F4B04936A4602AB93E8030082E80300C3
:1024E00094E8030083E8030092E80300049A84E878
:1024F0000300A168A260059A0491E1681846E260B1
:102500000591FDF747FF204606B010BDBF22080821
:10251000852208081FB50023124A80F8243004469B
:1025200002A92C30CDE90223FFF7C4FF01F094FE8D
:1025300022690D4920620D48FFF79CFC0C4B02A854
:102540001B780C4A8DF8003021693C2304F0E6FA30
:10255000039828B14368013B43600BB9FFF79FFE26
:1025600004B010BDD5250808EA980808BC0300206F
:10257000A402002044980808F8B5044601F06CFE57
:10258000236AC01A47F22F53984220D901F064FE03
:10259000206203F079FFD0B102F046F9B8B103F040
:1025A00090FF0B4DC117D5E90232C61A61EB020745
:1025B000D4E90223964277EB030308DB0023C5E945
:1025C0000201A3622046BDE8F840FFF7A3BFF8BDB3
:1025D000084002401FB590F82430044653B1224B06
:1025E00002A9029300232C300393FFF763FF01F04D
:1025F00033FE206201F030FE236AC01A4AF6C77328
:1026000098420BD900210E2000F038F9A36A01335B
:10261000012BA36204DC2046FFF77CFF04B010BD51
:1026200000210F2000F02AF9104B02A81B78104A55
:102630008DF800300F493C2304F070FA039828B15C
:102640004368013B43600BB9FFF729FE4FF4FA6082
:1026500003F052FF084B186810B1FFF769FCDDE783
:1026600002F09FFADAE700BF79250808A4020020EB
:1026700044980808BE970808A00200200122014BD8
:102680001A707047A4020020704710B504460C2150
:1026900005F0CFFA204610BD034AC0E90021002210
:1026A0008260024A10607047D4990808A80200208E
:1026B0002DE9F047384C07466368D4B0002B62D050
:1026C00002F0B2F800285ED001F0C6FDBB68C01A67
:1026D00040F2F133984256D94FF00008264645465D
:1026E000DFF8CCA06368AB421BD9736952460293F2
:1026F000336940210193F36804A80093B36802F0A2
:10270000EBF800EB0809B9F1FF0F06F1100608D845
:1027100014AB03EB080004A906F07FFCC8460135A2
:10272000E0E76268521B6260002A2FD01B491C48F8
:10273000FFF7A0FB4FF40272636804EB05115A43E4
:102740001848083106F002FC174B79681B7814AA68
:102750008DF8003004A83C2304F0E0F9059C7CB11E
:102760006368013B63605BB9236820469B689847B8
:10277000A368013BA3601BB923682046DB68984728
:1027800001F06AFDB86054B0BDE8F0872A460749F9
:102790000348FFF76FFBD7E7184002402B99080862
:1027A000BC03002020400240A502002059990808DF
:1027B0001C9908082DE9F041174C0F4663689046B4
:1027C0001F2B0FD915491648FFF754FB4FF402721F
:1027D000636804F11801013B5A4304F10800636087
:1027E00006F0B4FB6668751C656003F06AFE04EBD6
:1027F0000616B06001F030FD2B0104EB0515F0600A
:10280000E7503A46434607490548C5F80480FFF7B4
:1028100031FBBDE8F08100BF18400240689908080C
:10282000BC0300207D99080873B5104C104E226837
:102830000546B24202D16368202B04D90D490E48E7
:10284000FFF718FB2660002228461146FFF7B2FF6B
:10285000002201A81146019201F016FD019A1AB159
:1028600012212846FFF7A6FF02B070BD18400240B3
:1028700016D4395C9E990808BC0300200A46044916
:102880000346086810B11946FFF794BF704700BFB0
:10289000A80200200122014B1A707047A5020020F7
:1028A00010B50446034B40F8043B02F05BF82046A9
:1028B00010BD00BFE499080810B50446FFF7F0FF0B
:1028C00020460C2105F0B5F9204610BD10B5044690
:1028D00001F0C2FCA368C01A632894BF002301233F
:1028E000637101F0B9FCA06010BD022A38B504463E
:1028F00007D0032A11D0012A01D10B6823600020E0
:1029000038BD0C200D68FDF7D8FB03460028F5D034
:1029100095E8070083E80700F0E700680028EED09C
:102920000C2105F086F9EAE710B403685A68996843
:10293000541001EB6200D20748BF0A591B6810BC53
:1029400048BFD35818470000064B10B50021044675
:1029500040F8043B01F0F7FF012363710023204698
:10296000A36010BDE499080830B5002587B004467F
:102970000C200495FDF7A1FB18B10D4B8460C0E954
:1029800000350C4B029005930B4B0222049300235D
:102990002E20009302A94FF0FF3304F075FB049B37
:1029A0001BB102A903220846984707B030BD00BFFB
:1029B000CD28080829290808EB28080808B504309C
:1029C00002F018F8C0F3800008BD7047704700009F
:1029D00010B5074C1821204600F03BFC2046092189
:1029E00000F026FC2046BDE81040012100F008BCA4
:1029F000AC020020014B5869704700BFD80200208C
:102A0000014B9869704700BFD8020020014BD8697C
:102A1000704700BFD8020020014B186A704700BF02
:102A2000D802002008B5024BD86B05F0EBFF08BDBB
:102A3000D8020020014BD86B704700BFD80200209D
:102A4000014B186C704700BFD8020020014B586C36
:102A5000704700BFD8020020014B986C704700BF40
:102A6000D8020020014BD86C704700BFD80200206C
:102A7000014B586D704700BFD8020020014B986D84
:102A8000704700BFD8020020014B186D704700BF8F
:102A9000D8020020014B5878704700BFD8020020B0
:102AA000014B9878704700BFD8020020014BD878BE
:102AB000704700BFD8020020014B9868704700BFE4
:102AC000D8020020014BD888704700BFD8020020F0
:102AD000014B1879704700BFD8020020014B58798C
:102AE000704700BFD8020020014B93F83B007047AD
:102AF000D8020020014B93F83A007047D80200201A
:102B0000014BD86A704700BFD8020020014B586AB9
:102B1000704700BFD8020020014B986A704700BF81
:102B2000D8020020F7B50A4D0446E86905F014FB09
:102B30000646286A0F4605F00FFB3246CDE9000134
:102B40003B462046034902F039FA204603B0F0BD67
:102B5000D8020020EC99080838B50121062004F0BD
:102B600019FF0021062004F026FF04F085FB4FF436
:102B7000165104F07BFB0A2003F0BEFC0F4D2846E3
:102B800001F0FAF8044630B904F0EEF9BDE8384037
:102B90000B4902F074BA012CF1D004F0E5F90949AF
:102BA00002F05AFA04F0E0F9054621460A2202F042
:102BB00070FA2846BDE8384002F055BAD802002025
:102BC000059A0808F2990808014B1878704700BF69
:102BD000D8020020014B93F839007047D80200203A
:102BE00038B50C24064D04F047FB036815F8011BAB
:102BF0009B68013C984714F0FF04F4D1012038BDD4
:102C00002400002038B50C24064D04F035FB036881
:102C100015F8011B9B68013C984714F0FF04F4D1A0
:102C2000012038BD18000020014800F0E3BF00BFBC
:102C3000D8020020014801F0E1B800BFD80200200E
:102C4000014801F093B800BFD802002010B5034C32
:102C5000204600F04FFBB4F9060010BDAC02002086
:102C600010B5034C204600F045FBB4F9080010BD38
:102C7000AC02002010B5034C204600F03BFBB4F939
:102C80000A0010BDAC02002010B50B4C204600F02D
:102C900031FBB4F90820B4F90630524303FB032397
:102CA000B4F90A0000FB003005F044FA04F0CAFF52
:102CB00005F05AFD10BD00BFAC02002010B504465F
:102CC0002C2104F0B6FF204610BD000010B5074CC3
:102CD000074800F010FC0C21204600F095F9204632
:102CE000BDE81040034A044904F09EBFAC02002036
:102CF000D802002030010020CB29080838B50A4C42
:102D00000A4D2378BFF35B8F13F0010F09D12046E2
:102D1000FDF7E4F928B101F01FFA28602046FDF71D
:102D2000E2F9286838BD00BF3C03002040030020C2
:102D30000372012310B58171C271037410BD70B5A7
:102D400004461C250021807904F024FEA679FFF7B3
:102D5000D5FF75434619FFF7D1FFB28843591A834F
:102D60000023E36070BD2DE9F74F044601F074FACB
:102D7000E368834284BF0023E360237C2BB9E368CC
:102D8000C01AB0F5FA6FC0F0A6800025257401F0D6
:102D900063FA1C26E06025602571A779FFF7AEFF76
:102DA000774300EB0708FFF7A9FFB8F80420C359E1
:102DB000FA201A8303F0A0FB0121A07904F0EAFDB8
:102DC000A779FFF79BFF774300EB0708FFF796FF14
:102DD000B8F80420C35914205A8303F08DFB04F083
:102DE00024F9A779FFF78AFF774300EB0708FFF77D
:102DF00085FFB8F80420C35928201A8301F024FA6B
:102E00002946A07904F0C6FD2F464FF001084FF087
:102E1000000994F806B0FFF771FF06FB0BFB50F8B2
:102E20000B305FFA89FA1B690193FFF767FF834450
:102E3000019BBBF804201A4214BF01230023434521
:102E400008D1012009F1010901F0FEF9B9F1FF0FE4
:102E5000DFD1CA4694F80680FFF750FF06FB08F85A
:102E600050F80830D3F81090FFF748FF8044B8F8C6
:102E7000043013EA090F14BF4FF001084FF00008A7
:102E8000BAF1FF0F14D0032D0ED9EA070CD4FA08BB
:102E9000A35C01375B00DBB2A354217AFFB251453A
:102EA0003CBF43F00103A3540135EDB2552DAED123
:102EB00004F0BDF8272F10D9637820781844A37840
:102EC0001844E37818442379C0B2C31A58425841D1
:102ED00003B0BDE8F08F0120FAE70020F8E700001A
:102EE00070B50446FFF73FFF08B3E3790B2B1AD008
:102EF000153B012B1BD8A67806F07F0005F086FD58
:102F00004FF0874105F0D6FD0546E07805F07EFDDF
:102F1000294605F0C7FC074905F080FE330605D5B4
:102F200000F1004002E0A07805F06CFD70BD0248A1
:102F3000FCE700BF000020410000C07F08B5FFF79C
:102F4000CFFF054905F0B6FD044905F067FE4FF0D7
:102F5000844105F0A7FC08BD000010410000A0401E
:102F600038B50446FFF7FFFED8B1E3790B2B14D038
:102F7000153B012B15D8207805F044FD4FF0874113
:102F800005F098FD0546607805F040FD294605F0FE
:102F900089FC054905F042FE38BD207805F032FD78
:102FA000FAE70248F8E700BF000020410000C07FB8
:102FB000FFF7D6BF704700000B4610B52822044625
:102FC0000021184605F0DCFF0B22084906F063F8E3
:102FD000002201210346C272C160A0695A62002228
:102FE000C3E904019A61DA611A6210BD119A0808F6
:102FF00010B50446806808B101F0A6F9204610BD5E
:103000000368C9B29B681847064A417702604FF0CF
:10301000FF328261C2834FF6FF7280F820201122B6
:1030200042627047209A080838B50C4D2978BFF3E2
:103030005B8F11F001040FD12846FDF74FF858B10E
:103040002146074801F0DCFC2846FDF74CF8054A0C
:103050000549034804F0E8FD014838BD4403002059
:103060004803002030010020F12F08082DE9F0412D
:1030700090F92030054601330F4606D1FFF7D4FF03
:103080003946BDE8F04101F037BD002407264FF076
:10309000010895F92000002180B204F08CFC95F91C
:1030A0001E0008FA06F1394080B204F084FC95F95C
:1030B0002000012180B204F07EFC95F91F0064001D
:1030C00080B2E4B204F090FC08B144F00104013E87
:1030D000DFD22046BDE8F08108B5FFF7A5FF01214A
:1030E00001F0ABFCFFF7A0FF0549012201F0D8FC7D
:1030F000FFF79AFFBDE80840002101F0ACBC00BF1B
:1031000020A1070070B590F91D30044601330E462A
:10311000154616D104F038FD217F04F073F904F050
:1031200033FD036831469B68984704F02DFD036822
:1031300029469B68984704F027FDBDE8704004F0DD
:1031400084B990F92030013301D1FFF7C5FF94F91C
:103150001D00002180B204F02EFC06F07F01204605
:10316000FFF784FF29462046FFF780FF94F91D00F2
:103170000121BDE8704080B204F01DBC38B590F963
:103180001D30044601330D461DD104F0FDFC94F9B9
:103190001C1004F03BF904F0F7FC036829469B6817
:1031A000984704F0F1FC04F050F904F0EDFC012222
:1031B000217F04F024F904F0E7FC03685B69984779
:1031C000C5B2284638BD90F92030013301D1FFF750
:1031D00083FF94F91D00002180B204F0ECFB45F060
:1031E00080012046FFF742FF00212046FFF73EFF07
:1031F000054694F91D00012180B204F0DCFBE0E7F4
:1032000038B50D4623210446FFF7B8FF20F0300201
:1032100042EA05122046BDE838402321D2B2FFF72A
:1032200071BF232108B5FFF7A9FFC0F3011008BD46
:1032300038B50D4620210446FFF7A0FF00F00F022D
:1032400042EA05122046BDE838402021D2B2FFF7FD
:1032500059BF10B50446017790F91D00421C23D1D7
:1032600004F092FC04F09CF80F212046FFF786FF43
:1032700033283DD1072220212046FFF743FF0721B5
:103280002046FFF7D5FF882223212046FFF73AFF8B
:10329000102222212046FFF735FF204680221F21E1
:1032A000FFF730FF012010BD012180B204F083FB45
:1032B00094F91D00012180B204F06CFB94F9200008
:1032C000431C04D1FFF7B0FE01F0A9FBCCE70121BC
:1032D00080B204F05FFB94F91E00012180B204F07B
:1032E00059FB94F91F00002180B204F053FBBBE7A7
:1032F0000020D8E738B590F91D30044601336FD16E
:1033000004F042FC94F91C1004F080F804F03CFC3A
:10331000A821FFF775FE04F037FC04F096F804F0DE
:1033200033FC0622217F04F06AF804F02DFC0368C8
:103330004F4D5B699847E08004F026FC03685B69A9
:103340009847E38805EA00201843E08004F01CFC5D
:1033500003685B699847208104F016FC03685B6989
:103360009847238905EA00201843208104F00CFCCB
:1033700003685B699847608104F006FC03685B6939
:10338000984705EA00256089054365812046FFF7D7
:1033900048FF032862D0022863D0012864D00028A7
:1033A00043F6FC7018BF012005F030FB0546B4F968
:1033B000060005F02BFB294605F030FCE060B4F96F
:1033C000080005F023FB294605F028FC2061B4F92C
:1033D0000A0005F01BFB294605F020FC606138BDA2
:1033E00090F92030013301D1FFF776FE94F91D00EA
:1033F000002180B204F0DFFAE8212046FFF736FE14
:10340000FF212046FFF732FEFF21E0802046FFF734
:103410002DFEE388FF2143EA0023E3802046FFF7E7
:1034200025FEFF2120812046FFF720FE2389FF2172
:1034300043EA002323812046FFF718FEFF21608125
:103440002046FFF713FE6389012143EA002394F924
:103450001D00638180B204F0AEFA97E74FF400607C
:10346000A2E74FF480509FE741F6FE709CE700BF53
:1034700000FFFF0070B50C46054620220021201DEC
:1034800005F07EFD24232360AB69012663600023E1
:1034900028462361A660FFF72DFFEB683046636185
:1034A0002B69A3616B69E36170BD8378C27803EB1C
:1034B00002224378007803EB022300EB03207047DD
:1034C000002200234261C0E90033C0E90233C0E9B1
:1034D0000E33C0E91033C0E91233C0E91433C0E938
:1034E000163303828261C261026242628262C262F8
:1034F00002634263704708B5FFF7E2FF08BD002092
:1035000030B5107018704D7908794C1C00EB05200F
:103510000531084414F8015F1178A0422944C9B26A
:1035200011701D7829441970F4D130BD0A4610B4C9
:103530004B790C7904EB0324E31D063422440B443D
:1035400010BCFFF7DCBF0000F8B50D4600264B7934
:103550000C790C4F04EB0324073403F005FDA95D3F
:10356000102201F096FD013603F0FEFC394601F011
:1035700073FDB442F1DA03F0F7FCBDE8F84002490C
:1035800001F07DBD349A0808169D0808CB7888782C
:1035900000EB03204B7803EB0023087800EB0320BB
:1035A000704700000000000038B5044601F10A0031
:1035B0000D46FFF77AFF05F029FA04F0CDFD1CA3B4
:1035C000D3E9002304F020FE05F016F92062A06183
:1035D00005F10E00FFF769FF05F018FA04F0BCFDD5
:1035E00013A3D3E9002304F00FFE05F005F9E06111
:1035F000606105F11200FFF758FF05F007FA05F1C9
:10360000160160622046FFF7C1FF05F0FBF905F1E6
:103610001A01A0622046FFF7B9FF05F11E01E06321
:103620002046FFF7B3FF206438BD00BFAFF3008032
:1036300048AFBC9AF2D77A3EF8B50D46063104463B
:10364000FFF7A4FFE060EB7EDB0740F1AF806B7C0F
:1036500013F0010200F0AB8001222274E97AAA7A09
:1036600002EB0122E2802A7B22716A7B627113F0F5
:10367000020300F09E8001236374AB7B6370EB7BDD
:10368000A3702B7CE37005F11600FFF70EFF0028F6
:10369000CABF4FF47A73002090FBF3F0A060AB7EBA
:1036A00005F11E0084F83A30023B012B8CBF002349
:1036B000012384F839306B7F05F1460784F83B30ED
:1036C000FFF7F3FE05F0A2F904F046FD3AA3D3E9B3
:1036D000002304F099FD05F08FF82062A06105F148
:1036E0002200FFF7E2FE05F091F904F035FD32A368
:1036F000D3E9002304F088FD05F07EF8E061606105
:1037000005F12600FFF7D1FE05F080F905F12A0149
:1037100060622046FFF73AFF05F074F905F12E01CB
:10372000A0622046FFF732FF05F13201E063204638
:10373000FFF72CFF206405F13600FFF7B6FE60644A
:1037400005F13A00FFF7B1FEA06405F13E00FFF776
:10375000ACFEE06405F14200FFF7A7FE06462065D7
:103760003846FFF7A2FE04F0E5FC15A3D3E90023D9
:1037700004F074FE05F040F820633846FFF795FE2C
:1037800004F0D8FC0EA3D3E9002304F067FE05F093
:1037900033F86063EB7E3046C3F3401384F838306F
:1037A00005F034F9084905F039FAE062F8BD2274F1
:1037B0005DE7637467E700BF48AFBC9AF2D77A3E13
:1037C00000000000006AF84000007A4410B50C4682
:1037D0000E310246FFF7DAFE04F112015065104681
:1037E000FFF7D4FE04F1160190651046FFF7CEFEF8
:1037F000D06510BD38B5002503F03EFD03681B6998
:10380000984760B9092DF7DD03F036FD0B4901F04B
:1038100023FCBDE838404FF4FA6002F06DBE03F0BF
:103820002BFD03685B699847C4B20A2C08BF0135B9
:1038300003F09AFB214601F013FCDDE7369A0808F5
:1038400070B50C46154603F08FFB114901F004FCDE
:1038500003F08AFB002C064618DA2D2101F000FC4B
:1038600061420A22304601F014FC03F07DFB094955
:1038700001F0F2FB03F078FB044629460A2201F02E
:1038800008FC2046BDE8704001F0EDBB2146E8E7AA
:10389000519A0808679A08080021031F00F12402C2
:1038A00043F8041F9342FBD170470246002352F8AD
:1038B000230010B942F82310704701330A2BF6D1C8
:1038C0004FF0FF307047002210B5031F243053F82B
:1038D000044F8C4208BF1A608342F8D110BD031F09
:1038E000243053F8042F8A4203D08342F9D10020B8
:1038F000704701207047F8B505460C4616464AB990
:103900000368C9B29B6898470746284601F0ABFB9D
:103910003844F8BD00290CDA0A2A0AD12D2101F019
:103920009FFB074661422846F2B201F0B2FB074412
:10393000EBE721460027F6E740F209139A4270B5FB
:1039400006460D46144651D0B2F5857F17DAB2F51A
:10395000817F43D040F207139A4243D003F004FB27
:10396000244901F079FB03F0FFFA21461022FFF70A
:10397000C2FF29463046BDE87040FFF7E5BDB2F50D
:10398000A06F1BD040F201539A42E7D1CC881A486D
:1039900064BAA4B22146FFF788FF03F0E5FA17499D
:1039A00001F05AFB03F0E0FA154901F055FB03F072
:1039B000DBFA10222146FFF79EFF70BDCC880E482F
:1039C00064BAA4B22146FFF77EFF03F0CDFA0D4999
:1039D00001F042FB03F0C8FA0B49E6E7BDE870408E
:1039E000FFF7E2BDBDE87040FFF726BEBDE87040BE
:1039F000FFF7ECBEB49A080878030020709A080814
:103A0000829A0808929A0808A49A08082DE9F743B0
:103A10006F4E814635780C4690461F46032D24D8BC
:103A2000DFE805F0024B839B6A4D2B782BB100F049
:103A300013FC694B186000232B7003F01DFC036816
:103A40001B69984768B103F017FC03685B699847E6
:103A5000C0B2B52820700AD10123604A33701360C8
:103A60002B7000F0F9FB34786CB1012551E003F0C4
:103A70007BFA5B4901F0F0FA03F076FA1022217824
:103A800001F007FBEDE7544B1B68C01A554B1B6850
:103A90009842EAD903F068FA534901F0F0FA4FF47A
:103AA000FA6002F029FD0121062003F084FF4FF4A3
:103AB000FA6002F021FDA047D7E703F0DDFB0368C1
:103AC000DFF818911B69984750B103F0D5FB0368E4
:103AD0005B699847D9F80030E0540133C9F80030E9
:103AE000D9F80030062BC0D16279237903EB022389
:103AF000F82B3B6011DD03F037FA3C4901F0ACFADA
:103B000003F032FA0A223968FFF7F5FE0023022596
:103B10003370284603B0BDE8F08363885BBA9BB27C
:103B2000C8F8003002233370F3E703F0A5FB036805
:103B30002A4D1B69984740B103F09EFB03685B69FF
:103B400098472B68E05401332B603B682A680633A2
:103B500093428AD10323337087E703F08DFB036818
:103B6000DFF878801B69984750B103F085FB036844
:103B70005B699847D8F80030E0540133C8F800304A
:103B80003F68D8F8003008379F427FF46EAF4FF09F
:103B9000000821460DF107030DF1060248463C449A
:103BA00086F80080FFF7ABFC14F8022C9DF8063075
:103BB0009A4205D114F8012C9DF807309A4205D09D
:103BC00003F0D2F90A4901F05AFAA2E74546A0E704
:103BD00058030020300000205C0300205403002024
:103BE000CA9A0808B4000020CC9A08080C9B080860
:103BF000249B0808F0B590F860300446C1B02BB3A0
:103C0000134D144E144F03F037FB03681B6998479C
:103C1000E0B12B46694620460E4AFFF7F7FE022820
:103C200005D103F0A1F90D4901F029FAEBE70328CA
:103C300008D00028E7D1694620462B683268FFF794
:103C40007BFEDFE703F090F93946EDE741B0F0BDC8
:103C50006403002060030020599B08083E9B08086D
:103C60002DE9F843294F80463D780C463E46DFF863
:103C7000AC908DBB4988264849BA89B2C9F8001072
:103C8000FFF721FE21464046FFF750FC03F06CF998
:103C9000204901F0E1F903F067F91022D9F800108A
:103CA000FFF729FE21464046FFF74EFC637927794E
:103CB00007EB0327073703F0DFFA0368615D9B68B2
:103CC00001359847AF42F6DA00F0C6FA124B186099
:103CD00001203070BDE8F883FFF78CFFD9F80010A1
:103CE0000B48FFF7FCFD044650B900F0B5FA0A4B4B
:103CF0001B68C01AB0F5FA6F05D904203C70E9E7DB
:103D000000203870E6E70120E4E700BF70030020E0
:103D100078030020779B08086C03002074030020C0
:103D200038B504460D4629462046FFF799FF01287D
:103D3000F9D0022806D103F017F90949BDE8384047
:103D400001F09DB9032805D0042807D103F00CF930
:103D50000449F3E703F008F90349EFE738BD00BF72
:103D6000889B0808CF9B0808AA9B08080149FFF711
:103D7000D7BF00BFAB00002070B51A4D06462B68B8
:103D8000052B29D8DFE803F0030B191B1D1FFFF7D4
:103D900031FD012386F860302B6801332B60124916
:103DA0003046FFF75DFF0128044603D0296860B95B
:103DB000013129600124204670BD0C49F0E70C490F
:103DC000EEE70C49ECE70C49EAE702463046FFF71C
:103DD00037FD00232B60EEE70123002403702C60E5
:103DE000E9E700BF6803002079000020920000206E
:103DF000310000205D0000208700002009292DE906
:103E0000F04106460C46154605D803F0ADF82949A1
:103E100001F035F90A24002D43DC03F0A5F826490A
:103E200001F02DF9012505FB04F3DFF8A48003EB75
:103E30008303C8F8003003F097F8204901F00CF92B
:103E400003F092F807460A22214601F022F938468B
:103E500001F009F903F088F8194901F0FDF803F0C1
:103E600083F80A222946FFF746FD03F07DF815493D
:103E700001F0F2F803F078F80746D8F800100A22AB
:103E800001F007F9384601F0EEF800230E493046FC
:103E90008C71240ACC710D724B72BDE8F041FFF7B2
:103EA0003FBF7F2DBFDD03F05FF8084901F0E7F861
:103EB0007F25B8E7ED9B08081B9C0808759C08083F
:103EC0008C9C0808A59C08089D000020479C0808B9
:103ED000B40000200148FFF7DFBC00BF78030020DA
:103EE000F0B5012185B0064601F027F8A0F13005B4
:103EF000072D04462BD81949684600F03FFF694654
:103F0000304601F008F80746684600F0EDFE4FB174
:103F1000ADB22846032103F03DFD284603F064FDC1
:103F200005B0F0BD0E49684600F028FF69463046EE
:103F300000F0F1FF0546684600F0D6FE55B1263C7C
:103F4000A4B22046032103F025FD2046E6E74FF00A
:103F5000FF30E5E76FF00100E2E700BFC494080816
:103F6000BC9C0808F0B5012185B0064600F0E5FFCD
:103F7000A0F13004072C47D80723032231466846B6
:103F800000F0EEFF6846254900F09DFF05466846B3
:103F900000F0AAFE3DBB062303223146684600F02E
:103FA000DFFF68461E4900F08EFF0746684600F0B6
:103FB0009BFE67B31B49684600F0E0FE6946304649
:103FC00000F0A9FF0746684600F08EFE6FB1A4B26C
:103FD0000121204603F0DEFC2046294603F0EBFCDD
:103FE000012005B0F0BD0125E4E70F49684600F067
:103FF000C5FE3046694600F08EFF0646684600F072
:1040000073FE3EB10A34E2E74FF0FF30E9E76FF0AC
:104010000100E6E76FF00200E3E700BFBE9C08087E
:10402000C39C0808C4940808BC9C0808F0B501218A
:1040300085B0074600F081FFA0F13005072D04464A
:104040002BD81949684600F099FE6946384600F0B9
:1040500062FF0646684600F047FE4EB1ADB2284604
:10406000002103F097FC284603F0D1FC05B0F0BD19
:104070000E49684600F082FE6946384600F04BFF64
:104080000546684600F030FE55B1263CA4B22046F5
:10409000314603F07FFC2046E6E74FF0FF30E5E7CE
:1040A0006FF00100E2E700BFC4940808BC9C080858
:1040B000F0B5012189B0054600F03FFFA0F13006C0
:1040C000072E044640D803222946684600F06AFFBE
:1040D0001F4904A800F052FE284604A900F01BFF67
:1040E000074604A800F000FE97B1B6B201213046A1
:1040F00003F050FC684600F05CFF0146304603F0D8
:104100009DFC0124684600F0EFFD204609B0F0BD9B
:10411000104904A800F032FE284604A900F0FBFE76
:10412000054604A800F0E0FD5DB1263CA4B20121E3
:10413000204603F02FFC684600F03BFF0146204676
:10414000DDE76FF00104DDE74FF0FF34DDE700BF8E
:10415000C4940808BC9C080808B5024B1B681B687F
:10416000019308BDB001040808B5024B1B685B68E9
:10417000019308BDB001040808B5024B1B689B6899
:10418000019308BDB001040808B5024B1B68DB6849
:10419000019308BDB001040808B5024B1B681B69F8
:1041A000019308BDB001040808B5024B1B685B69A8
:1041B000019308BDB001040808B5024B1B689B6958
:1041C000019308BDB001040808B5024B1B68DB6908
:1041D000019308BDB001040808B5024B1B681B6AB7
:1041E000019308BDB001040808B5024B1B685B6A67
:1041F000019308BDB001040808B5024B1B689B6A17
:10420000019308BDB001040808B5024B1B681B6B85
:10421000019308BDB001040808B5024B1B689B6FF1
:10422000019308BDB001040808B5024B1B685B6828
:10423000019308BD9C01040808B5024B1B689B68EC
:10424000019308BD9C01040808B5024B1B68DB689C
:10425000019308BD9C01040808B5024B1B685B690B
:10426000019308BD9C01040808B5024B1B689B6DB7
:10427000019308BD9C01040808B5024B1B685B6EE6
:10428000019308BD9C01040808B5024B1B68DB6E56
:10429000019308BDB801040808B5024B1B685B68B0
:1042A000019308BDD001040808B5024B1B689B6848
:1042B000019308BDD001040808B5024B1B68DB68F8
:1042C000019308BDD001040808B5024B1B681B69A7
:1042D000019308BDD001040808B5024B1B685B6957
:1042E000019308BDD001040808B5024B1B68DB69C7
:1042F000019308BDD001040808B5024B1B681B6A76
:10430000019308BDD001040808B5024B1B685B6A25
:10431000019308BDD001040808B5024B1B689B6AD5
:10432000019308BDD001040808B5024B1B68DB6A85
:10433000019308BDD001040808B5024B1B685B6CF3
:10434000019308BDD001040808B5024B1B689B6CA3
:10435000019308BDD001040808B5024B1B68DB6C53
:10436000019308BDD001040808B5024B1B685B6DC2
:10437000019308BDD001040808B5024B1B68DB6E31
:10438000019308BDD001040808B5024B1B681B6FE0
:10439000019308BDD001040808B5024B1B689B6956
:1043A000019308BDC401040808B5024B1B681B6AD1
:1043B000019308BDC401040808B5024B1B685B6A81
:1043C000019308BDC401040808B5024B1B689B6A31
:1043D000019308BDC401040808B5024B1B68DB6AE1
:1043E000019308BDC401040808B5024B1B681B6B90
:1043F000019308BDC401040808B5024B1B685B6B40
:10440000019308BDC401040808B5024B1B689B6BEF
:10441000019308BDC401040808B5024B1B681B6C5E
:10442000019308BDC401040808B5024B1B68DB6C8E
:10443000019308BDC401040808B5024B1B68DB6882
:10444000019308BDAC01040808B5024B1B689B69C9
:10445000019308BDAC01040808B5024B1B68DB6979
:10446000019308BDAC01040808B5024B1B681B6A28
:10447000019308BDAC01040808B5024B1B685B6AD8
:10448000019308BDAC01040808B5024B1B689B6A88
:10449000019308BDAC01040808B5024B1B68DB6A38
:1044A000019308BDAC01040808B5024B1B681B6BE7
:1044B000019308BDAC01040808B5024B1B685B6B97
:1044C000019308BDAC01040808B5024B1B681B6CC6
:1044D000019308BDAC01040808B5024B1B689B6C36
:1044E000019308BDAC01040808B5024B1B68DB6CE6
:1044F000019308BDAC01040808B5024B1B681B6D95
:10450000019308BDAC01040808B5024B1B681B6889
:10451000019308BDB401040808B5024B1B689B68F1
:10452000019308BDB401040808B5024B1B68DB68A1
:10453000019308BDB401040808B5024B1B681B6950
:10454000019308BDB401040808B5024B1B685B6900
:10455000019308BDB401040808B5024B1B68DB6970
:10456000019308BDB401040808B5024B1B681B6A1F
:10457000019308BDB401040808B5024B1B685B6ACF
:10458000019308BDB401040808B5024B1B68DB6B3E
:10459000019308BD2000060808B5024B1B689B6C00
:1045A000019308BD2000060808B5024B1B681B6874
:1045B000019308BD1C00060808B5024B1B685B6828
:1045C000019308BD1C00060808B5024B1B689B68D8
:1045D000019308BD1C00060808B5024B1B681B6947
:1045E000019308BD1C00060808B5024B1B685B69F7
:1045F000019308BD1C00060808B5024B1B689B69A7
:10460000019308BD1C00060808B5024B1B68DB6956
:10461000019308BD1C00060808B5024B1B681B6A05
:10462000019308BD1C00060808B5024B1B685B6BB4
:10463000019308BDA001020808B5024B1B685B6D21
:10464000019308BDA001020808B5024B1B68DB6E90
:10465000019308BDA001020808B5024B1B681B6F3F
:10466000019308BDA001020808B5024B1B681B6836
:10467000019308BDA401040808B5024B1B685B68E0
:10468000019308BDA401040808B5024B1B685B69CF
:10469000019308BDA401040808B5024B1B689B697F
:1046A000019308BDA401040808B5024B1B681B6AEE
:1046B000019308BDA401040808B5024B1B68DB6A1E
:1046C000019308BDA401040808B5024B1B68DB6C0C
:1046D000019308BDA401040808B5024B1B685B6D7B
:1046E000019308BDA401040808B5024B1B689B6D2B
:1046F000019308BDA401040808B5034B1B68D3F857
:104700009030019308BD0000A401040808B5034BD4
:104710001B68D3F89C30019308BD0000A401040875
:1047200008B5034B1B68D3F8A830019308BD0000FF
:10473000A401040808B5034B1B68D3F8B8300193F3
:1047400008BD0000A401040808B5024B1B685B68A3
:10475000019308BDC801040808B5024B1B689B689B
:10476000019308BDC801040808B5024B1B68DB684B
:10477000019308BDC801040808B5024B1B681B69FA
:10478000019308BDC801040808B5024B1B685B69AA
:10479000019308BDC801040808B5024B1B689B695A
:1047A000019308BDC801040808B5024B1B68DB690A
:1047B000019308BDC801040808B5024B1B681B6AB9
:1047C000019308BDC801040808B5024B1B681B6BA8
:1047D000019308BDC801040808B5024B1B685B6B58
:1047E000019308BDC801040808B5024B1B681B688B
:1047F000019308BDCC01040808B5024B1B685B6837
:10480000019308BDCC01040808B5024B1B689B68E6
:10481000019308BDCC01040808B5024B1B68DB6896
:10482000019308BDCC01040808B5024B1B685B6905
:10483000019308BDCC01040808B5024B1B68DB6975
:10484000019308BDCC01040808B5024B1B681B6A24
:10485000019308BDCC01040808B5024B1B685B6AD4
:10486000019308BDCC01040808B5024B1B681B6B03
:10487000019308BDCC01040808B5024B1B68DB6B33
:10488000019308BDCC01040808B5024B1B685B6CA2
:10489000019308BDCC01040808B5024B1B681B68D6
:1048A000019308BDA001040808B5024B1B685B68B2
:1048B000019308BDA001040808B5024B1B689B6862
:1048C000019308BDA001040808B5024B1B681B69D1
:1048D000019308BDA001040808B5024B1B68DB6901
:1048E000019308BDA001040808B5024B1B685B6A70
:1048F000019308BDA001040808B5024B1B68DB6AE0
:10490000019308BDA001040808B5024B1B681B6B8E
:10491000019308BDA001040808B5024B1B68DB6BBE
:10492000019308BDA001040808B5024B1B685B6C2D
:10493000019308BDA001040808B503F04DF9BDE8D6
:10494000084002F085BD10B50446017009B1FFF7BB
:10495000F3FF204610BD08B503F03EF9BDE808405E
:1049600002F07FBD10B5037804460BB1FFF7F3FFEB
:10497000204610BD10B504460068FFF7ECFF204646
:1049800010BD30B587B00D460190FFF7D5FF6B2302
:104990008DF808300023012403930A238DF810407A
:1049A000059303F019F902A902F033FD03F014F99D
:1049B000036829469B68984703F00EF9214602F0E8
:1049C00040FD039403F008F902A902F0EFFC03F0A4
:1049D00003F903685B699847044601A8FFF7CAFF1B
:1049E000E0B207B030BD082108B5FFF7CAFFC0F339
:1049F000800008BD0821FFF7C4BF8068FFF7B4BC82
:104A000070B5002604460D4640F8086FFFF794FC89
:104A100028462570FFF7A0FD2046666070BD10B5E2
:104A200004468068FFF798FC20784FF6FF71FFF787
:104A30006BFD2046FFF7E1FF10BD38B504460D467B
:104A40008068FFF789FC20782946FFF765FD20463E
:104A5000FFF7D3FF38BD38B504460D468068FFF731
:104A60007BFC20782946FFF75FFD2046FFF7C5FF56
:104A700038BD000030B50024400818601868E5B261
:104A8000884206D90134082C02D040081860F5E7A6
:104A90000725024B5B5D137030BD00BFC79C080843
:104AA000F0B50025044689B0806802FB01F6029546
:104AB000FFF752FC2946142203A8277804F060FA75
:104AC0000B232A46384603A9ADF80C30FFF754FDF6
:104AD00002AB0DF10702314604988DF80750FFF73D
:104AE000C9FF9DF807102078FFF726FD2046FFF745
:104AF00084FF029809B0F0BD08B50078FFF724FDE7
:104B0000C0B208BD10B50446006818B1FFF7CCFE6E
:104B10000023236010BD38B5B1F904300D46838001
:104B20000B4653F8062F0446C0F806209B884381A5
:104B3000FFF7E8FF2B6813B1236000232B602046AA
:104B400038BDB1F9043010B50A6833B932B951F83B
:104B5000063F03608B88838010BD22B19488012CAE
:104B600003D0042C06D0042205E092898C710B81BD
:104B70004A81ECE702220B814FF6FF738A714B8169
:104B8000E5E707B50B4600210246009101208C2184
:104B9000FFF7D0FD03B05DF804FB01460020FFF7EE
:104BA000F0BF0020FFF7F9BF07B50022034611460A
:104BB00000920320FFF7BEFD03B05DF804FB000088
:104BC00030B5044685B0084611461A460023FFF763
:104BD00063FD00230193ADF808308DF80A304FF6DD
:104BE000FF73094D01A9ADF80C002846ADF80E3051
:104BF000FFF791FF01A8FFF785FF20462946FFF741
:104C0000A0FF204605B030BDA003002010B5002451
:104C1000047044804FF6FF740029848008DD013958
:104C20008B4204D932F8113083800123037010BD08
:104C300001D10223FAE74180F9E70000F0B50D4603
:104C4000164600278BB01A46129B04460193119B0F
:104C5000314600932846109B0297FFF761FD3346CB
:104C600001462A4605A8FFF7D1FF0F4D9DF8141005
:104C7000BDF91620BDF818308DF82210284607A976
:104C8000ADF82420ADF826300797ADF82070FFF777
:104C900042FF07A8FFF736FF20462946FFF751FFDE
:104CA00020460BB0F0BD00BFA00300200222002070
:104CB00010B5084B084C1A60084B2060A080A0710A
:104CC000A360FFF7D9FC2046BDE81040044A05491F
:104CD00002F0AABFAC030020A00300200000FFFFE9
:104CE000300100205502080810B504460068FFF79F
:104CF000DBFD204610BD10B50446006808B1FFF783
:104D0000D3FD0023C4E90133236010BD38B5044648
:104D10000D4600680131FFF7CFFD10B1C4E9000571
:104D2000012038BD10B50368044623B143688B42A7
:104D300001D3012010BD2046FFF7E8FF0028F9D07D
:104D4000A368002BF5D122681370F2E770B50E4608
:104D5000114604461546FFF7E5FF20B92046FFF748
:104D6000CAFF204670BD2A4631462068A56004F07F
:104D7000DFF800212268A368D154F2E738B5002398
:104D800004460D46C0E900338360037339B1084619
:104D900004F067F9294602462046FFF7D7FF204670
:104DA00038BD38B5054600680C4668B16A688B683E
:104DB0009A4207D3096804F030F9A368AB60002376
:104DC000A36038BDFFF770FD23682B6063686B60DC
:104DD000A368AB600023C4E90033F1E7002310B5FA
:104DE0000446C0E9003383600373FFF7DAFF20460F
:104DF00010BD884210B50B46044604D0096821B1A5
:104E00009A68FFF7A3FF204610BDFFF774FFFAE78B
:104E1000002310B50446C0E9003383600373FFF735
:104E2000E8FF204610BD884210B5044601D0FFF7C8
:104E3000B8FF204610BD38B505460C4649B10846B6
:104E400004F00FF9214602462846FFF77FFF284667
:104E500038BDFFF750FFFAE770B505460E4609B9B1
:104E6000002070BD6AB1846814442146FFF75AFFE0
:104E70000028F5D02868AB683146184404F0CDF816
:104E8000AC600120EDE710B58A6809680446FFF7B9
:104E9000E3FF10B92046FFF72EFF204610BD38B5BE
:104EA00004460D4621B92046FFF725FF204638BDB0
:104EB000084604F0D6F8294602462046FFF7CCFF04
:104EC0000028F0D0F2E708B582683AB921B1087835
:104ED000B0FA80F0400900E0012008BD006809B97F
:104EE0000078F5E704F08FF8F2E7134610B58A680A
:104EF0008468A41A9C420AD3006838B1096841B199
:104F0000184404F0B6F8B0FA80F0400910BD002053
:104F1000FCE70846FAE782688B689A4202D30022CF
:104F2000FFF7E3BF0020704783688B4203D9006816
:104F300010B1405C704700207047FFF7F5BF10B517
:104F40008368934206D90468A01804F045F808B1B4
:104F5000001B10BD4FF0FF30FBE70022FFF7EFBF53
:104F6000F8B51D469A4288BF13460F46144688BFBF
:104F70002C460B4988BF1D460646FFF7FFFEBA6860
:104F8000A2420AD33968AA4294BFC4EB0202C4EB1E
:104F9000050230462144FFF7D9FE3046F8BD00BF78
:104FA0004498080810B504468B68FFF7D9FF2046DF
:104FB00010BD006808B103F0A9BF70470EB4FFB57B
:104FC00009AD55F8047B04462B463A46052102A854
:104FD0000195FFF789FC06460B492046FFF7CEFEF8
:104FE00031462046FFF79EFE206830B12B463A46F8
:104FF000711C0195FFF778FCA060204604B0BDE865
:10500000F04003B0704700BF44980808F8B5064662
:105010000D4600248F18BD420CD0336830469B6883
:1050200015F8011B9847031E01DB1C44F3E7002C15
:1050300008BF1C462046F8BD70B505460C4608461C
:1050400049B104F00EF82B68024621462846BDE817
:105050007040DB68184770BD08B5FFF7EDFF08BD6D
:1050600003689B68184738B50D210546FFF7F8FF20
:105070000A2104462846FFF7F3FF204438BD38B51F
:105080000546FFF7D9FF04462846FFF7ECFF20440A
:1050900038BD0023012A98BF0A2230B58BB00C46D8
:1050A0008DF8243009A92546B4FBF2F404FB125311
:1050B000DBB2092B94BF30333733DBB2AA4201F89D
:1050C000013DF0D9FFF7B8FF0BB030BD2DE9F74F28
:1050D00005461946104692461F469DF8306003F07B
:1050E0002DFB40B150492846FFF7A6FF0446204655
:1050F00003B0BDE8F08F27F000444FF0FF32504678
:1051000021464A4B03F01AFB48B94FF0FF32504694
:105110002146464B03F0F4FA08B94549E3E74FF05E
:10512000604250463946434B03F0FEFA08B142490B
:10513000D9E74FF0604250463946404B03F0D6FA6B
:105140000028F4D1002200235046394603F0CEFA5D
:10515000044630B12D212846FFF782FF044607F1AF
:1051600000474FF0000B00204FF000083449DFF8F3
:10517000D8905FFA8BF39E4206D942464B4603F025
:105180006DF90BF1010BF4E73B46524602F086FE47
:105190008946804603F010FB074602F0BBFF02463B
:1051A0000B464046494602F077FE0A228046894671
:1051B00028463946FFF76DFF044426B128462149A9
:1051C000FFF73AFF04444FF0000ADFF87CB0013EDD
:1051D000F6B2FF2E8BD052465B464046494603F05E
:1051E00013F88046894603F0BFFA071E19DA2D210D
:1051F0002846FFF735FF034679420A2228460193E5
:10520000FFF747FF019B034438461C4402F092FF1E
:1052100002460B464046494602F03EFE804689461D
:10522000D5E739460023E8E7CF9C0808FFFFEF7F6A
:10523000D39C0808FFFFEF41D79C0808FFFFEFC190
:105240000000E03F019508080000244037B59DF8B4
:10525000181005460091FFF739FF04462846FFF76E
:1052600002FF204403B030BD37B50446084615465A
:1052700002F072FF009502460B462046FFF7E6FF5C
:1052800003B030BD2DE9F04186B000AF05460E46B3
:10529000381D142114463B60FFF726FB13280ED857
:1052A0002846391DFFF7C8FE04461EB12846FFF701
:1052B000DAFE044420461837BD46BDE8F08100F10F
:1052C000080323F00703E846ADEB030D2246411C1B
:1052D0003B686846FFF708FB69462846FFF7ACFEC7
:1052E0000446C546E1E780680368DB6818477047F5
:1052F000084611B10B685B681847704770477047E4
:10530000704738B504460D4600682E2103F071FE43
:1053100023680246C01A286020B1137803B1013215
:105320002068226038BD10B504460C2102F081FCD3
:10533000204610BD10B50446042102F07AFC204638
:1053400010BD10B50446042102F073FC204610BDC8
:1053500008B503F058FEB0FA80F0400908BD10B55A
:105360000C4601F001FE844205D101F0FDFDBDE8CF
:10537000104001F0EDBD01F027FE844202D101F0A2
:1053800023FEF4E701F078FF844205D101F074FFB9
:10539000BDE8104001F06DBF2CB123682046BDE888
:1053A00010405B68184710BD38B5054608460C46E6
:1053B00003F057FE214602462846BDE8384002F079
:1053C00094BA70B5044608460D4603F04AFE2368B9
:1053D000024629462046BDE87040DB68184707B5FD
:1053E00003688DF807100122DB680DF1070198476B
:1053F00003B05DF804FB0EB403B503AB53F8042B04
:105400000021006A0193FFF73DFF02B05DF804EB55
:1054100003B070472DE9F74F4FF01408D0E900951D
:1054200017464C4608FB05F50093AB10174D5D433E
:10543000002D23DD6E1008FB06F004EB000ABAF81D
:1054400004B03A465F4528BF5A462058019103F000
:1054500010FE0123019978B95F4503D1009A1370BA
:105460003546E5E78CBF012000200028F8D0AE1BB0
:105470000AF11404013EF3E7C00FF6E7A4EB0904B8
:105480000248A410604303B0BDE8F08FCDCCCCCC73
:105490007FB50369067E019103B3F9B1002500F1E0
:1054A0000C04039503A901A8FFF72BFF0146A8B13F
:1054B0000DF10B032046039A8DF80B50FFF7AAFF5E
:1054C0009DF80B3053B11423246803FB0044B4F956
:1054D00006300834002BA8BFDEB2E3E7304604B044
:1054E00070BD000010B50A4C2378BFF35B8FDB075B
:1054F0000BD42046FAF7F2FD38B12046FAF7F3FD57
:10550000044A0549054802F08FFB044810BD00BF5E
:10551000B403002030010020FF520808B80000202A
:1055200010B50A4C2378BFF35B8FDB070BD4204602
:10553000FAF7D4FD38B12046FAF7D5FD044A0549FB
:10554000054802F071FB044810BD00BFB8030020FD
:1055500030010020FD520808BC00002038B50025AD
:105560000446C0E90055C0E904558560856140F8EE
:10557000245FFEF7E1FEFFF7B5FFE061FFF7D0FF24
:1055800025732062204638BD10B50B4C2378BFF33D
:105590005B8FDB070ED42046FAF7A0FD50B1074819
:1055A000FFF7DCFF2046FAF79EFD054A0549034850
:1055B00002F03AFB014810BDB0030020C0030020F8
:1055C000300100204B5A08080023024A02490348D0
:1055D000FFF742B829590808B5580808355808088F
:1055E00000231A4619461846FFF736B80B680360C1
:1055F00013B15A6801325A60704737B504460D69D5
:1056000051F8043B01A80093FFF7F0FF6A462946D2
:10561000204602F015F801A8FAF70AFF204603B069
:1056200030BD37B504468D6851F8043B01A800939E
:10563000FFF7DCFF6A462946204602F07DF801A804
:10564000FAF7F6FE204603B030BD37B50446CD6804
:1056500051F8043B01A80093FFF7C8FF6A462946AA
:10566000204602F045F801A8FAF7E2FE204603B012
:1056700030BD000070B58AB00D46014604A8FFF7A2
:10568000D0FF144E04A802F06FF8E8B1684604A9F0
:10569000FFF7DBFF31460298FFF75AFE044610B1D0
:1056A0002C1E18BF012401A8FAF7C2FE002CE9D075
:1056B000684604A9FFF7A1FF684601F0F8FF2860DB
:1056C00001A8FAF7B5FEDDE705A8FAF7B1FE0AB0C2
:1056D00070BD00BFDB9C080837B50C461949204651
:1056E000154603F090FC48B901F03EFC4FF416510A
:1056F00001F02AFC01F038FC03B030BD204612490D
:1057000003F081FC40B901F05FFC4FF4165101F049
:105710001BFC01F059FCEFE720460C4903F073FC39
:1057200070B94FF4165301A928460193FFF7A2FF61
:1057300001F0A2FD019901F099FD01F09DFDDBE76B
:105740000020D9E7E09C0808E79C0808EA9C0808C4
:1057500070B51426D0E90053044606FB0356AE424A
:1057600005D005F10800FFF7F3FF1435F7E72068CF
:10577000FFF79AF8204670BD70B50446D0E9005393
:1057800005EB0316AE4204D02846FFF7ADFA1035FC
:10579000F8E72068FFF788F8204670BD10B504468A
:1057A0000C30FFF7D5FF2046FFF7E6FF204610BD7F
:1057B00010B50446034B40F8043BFFF7EFFF2046CB
:1057C00010BD00BF6897080810B50446FFF7F0FF4A
:1057D0002046242102F02DFA204610BD10B50446C3
:1057E000024B0360FFF7E4FF204610BD809D0808D0
:1057F00010B50446FFF7F2FF2046242102F019FA03
:10580000204610BD0022C0E90022826010B50C685D
:105810000A6004604C684A6044608C688A608460F6
:1058200010BD10B5044603681868FEF79DFD2046BC
:1058300010BD00002DE9F04F87B003931C4B80464C
:105840005B688946C3F3080316466BB9FFF79CFEF5
:10585000044600F12403406A0593FEF77DFD237B97
:105860002BB105A8FFF7DDFF07B0BDE8F08F0123DE
:105870005FFA89F92373D4E9005305EB830AAA453B
:1058800012D055F8047B3146381DFFF701FE8145E3
:10589000F5D3039A3B680092D3F808B04A463346E2
:1058A00041463846D847EAE700232373D9E700BFCB
:1058B00000ED00E02DE9F74F9B461A4B80465B68F0
:1058C0008946C3F3080316466BB9FFF75DFE04462D
:1058D00000F12403406A0193FEF73EFD237B2BB1C8
:1058E00001A8FFF79EFF03B0BDE8F08F0123F6B2D9
:1058F0002373D4E9005305EB830A55450ED055F8C0
:10590000047B5946381DFFF7C3FD8642F5D33B683B
:105910004A4641463846DB689847EEE70023237342
:10592000DEE700BF00ED00E02DE9F341164B054630
:105930005B680F46C3F308031BBBFFF725FE044655
:1059400000F12403406A0193FEF706FDD4E90063E9
:10595000462406EB8308B04509D101A8FFF761FF93
:10596000A542B4BF0020012002B0BDE8F08156F886
:10597000040B39460430FFF78BFD8442A8BF044670
:10598000E9E70020F0E700BF00ED00E00B4670B54E
:10599000044605C800EB8202824207D001461D681A
:1059A00051F8046BAE4203D00846F5E7002070BD05
:1059B000521A03F0CBFA63680120013B6360F6E7FB
:1059C0001FB5044600F12403406A01910393FEF7DA
:1059D000C3FC204601A9FFF7D9FF18B163680BB9D2
:1059E000FFF7FEFD03A8FFF71CFF04B010BD18234E
:1059F00070B50446D0E9045603FB0656AE4215D0F6
:105A0000204605F11001FFF7C1FF63680BB9FFF7EE
:105A1000E7FDE06929690368DB689847696919B19E
:105A2000206A0368DB6898471835E7E71826D4E949
:105A3000045306FB0356AE4204D02846FFF754F940
:105A40001835F8E70023636170BD73B50446FFF7AE
:105A5000C7FD04F12403606A0193FEF77DFC204634
:105A6000FFF7C5FF01A8FFF7DCFE606A08B1FEF78B
:105A70006BFCD4E90453182606FB0356AE4204D04F
:105A80002846FFF731F91835F8E72069FEF70CFFD3
:105A90002068FEF709FF204602B070BD8842F8B5C5
:105AA00006460C46154627D9904226D20026A2F17A
:105AB00014056C1AA1F114070444AF423DD0A4B1FF
:105AC0002B682360AB88A380B5F90630C4E9026671
:105AD0002661E380AB68A360AE60E368EA68E260D9
