:020000040808EA
:1000000000000808C4BD0808000006000A00050139
:080010000402E80500000000F5
:040018000CA7080821
:1000200009480A4908B5884205D0094A824202D0E7
:10003000121A09F0D9F80748074A0021121A09F0E4
:10004000F9F8064808BD00BF000000201CBC0808E5
:1000500080010020800100208C0700208C070020F8
:1000600070B506F08FFA074B074C1E46E41AA40839
:100070000025A54204D056F8253098470135F8E709
:1000800070BD00BFA0B9080800BA080800F0EABEB9
:1000900008B500F0D3FCBDE8084006F035BA04F01E
:1000A00047BB04F04DBB000008B5034A00210C20FB
:1000B00004F010FAFEE700BF554108080078B0FAD6
:1000C00080F0400970470123037070477047006A51
:1000D0000368DB68184703681847012A02D0022A20
:1000E00002D004E0016002E00B6800B10360002070
:1000F0007047012A02D0022A02D004E0016002E027
:100100000B6800B10360002070470000014802F056
:1001100007BD00BF5D0200201FB50468684604F0FB
:1001200025FD6846A0470446684604F02FFD20469A
:1001300004B010BD38B50C4915460B680C4613F0D9
:10014000807F07D006F012FE05F00F03074A012159
:1001500004F0D6FF2368044A190154BF43F07F43DB
:1001600023F07F43136038BD0800002064A708080F
:1001700008B5006808F02AFF014B186008BD00BFF1
:100180000000002008B5006808F020FF014B18604F
:1001900008BD00BF0C00002008B5006808F016FF7D
:1001A000014B186008BD00BF0400002008B50068BE
:1001B00008F00CFF014B186008BD00BF14000020C0
:1001C00008B5006808F002FF014B186008BD00BFC9
:1001D0000800002008B5024802F0AEFC012008BD6E
:1001E0005D020020436913B183690C3018477047E2
:1001F00013B504460021084604F00CF802A90023B8
:10020000204641F8043D04F01DF8019C0CB1012387
:1002100023710021012003F0FDFF2CB1236820464B
:100220009B6898470023237102B010BD10B50D499B
:10023000044604F08AFD38B10B4B00221A700B48BB
:10024000BDE8104002F04CBC0949204604F07DFD99
:1002500038B1054B01221A700448BDE8104002F085
:100260004FBC10BD80A70808110000205D020020CF
:1002700089A7080810B50446006808B104F060FAC0
:10028000204610BD10B50446094B036005F0B8F8D0
:10029000214605F0BCFA06F069FD06F05BFD20463C
:1002A000044B40F8043B05F0B9F9204610BD00BFEF
:1002B00054A708083CA7080810B50446FFF7E2FF5A
:1002C0002046242107F0B6FB204610BD10B58368F8
:1002D000044613B1032201469847204610BD07B5D6
:1002E0008068002338B18DE80A00022103F0B2FFD4
:1002F000B0FA80F0400903B05DF804FB38B5104B4C
:10030000044603608368A3B16FF000410022FFF749
:10031000E6FF0021A06803F0CDFF237903F0FF057D
:1003200013B103F05FFFF8E72946A06803F082FFEE
:10033000A56004F10C00FFF7C9FF204638BD00BFDF
:1003400028A7080810B50446FFF7D8FF20461C214F
:1003500007F070FB204610BD38B5046805467CB137
:100360006368013B63605BB9236820469B689847DC
:10037000A368013BA3601BB923682046DB6898474C
:10038000284638BD2DE9F0412D4892B002F0A2FB7D
:10039000002850D005F0AFFF0546294802F0B6FA14
:1003A0000446274802F0B8FA0646254802F034FB16
:1003B0000746234802F0B6FA224B2A461B688046BD
:1003C00021490EA805F044FF204607F017FF0E9BB9
:1003D00004460D4640461D49069308F06DFC07F0A3
:1003E0000DFFCDE904011949384608F065FC07F016
:1003F00005FFCDE90201304607F000FF2246CDE9B6
:1004000000012B4612490AA804F01AFD114B0A9A62
:100410001B7811498DF8003008A83C2306F06EFACD
:1004200009A8FFF799FF0AA804F0B0FB0EA804F092
:10043000ADFB012000E0022012B0BDE8F08100BF5A
:100440005D020020C00000202404002000007A4447
:1004500092A708085C020020BEA7080830B51B4818
:100460008BB002F029FA0446194805F0D5FF05467D
:10047000174805F0E7FF07F0C1FECDE90201284665
:1004800007F0BCFE2246CDE9000106A8114904F0A0
:10049000D7FC114B069A1B7810498DF8003004A840
:1004A0003C2306F02BFA05A8FFF756FF06A804F038
:1004B0006DFB074805F0C6FF094908F005FD002857
:1004C00014BF012002200BB030BD00BF300200205D
:1004D00090010020C7A708085C020020EAA70808CE
:1004E00000002041F0B5164C89B0204602F02AFBEE
:1004F0000546204602F030FB0646204602F036FB59
:100500000746204602F03CFB334601902A4604A8E9
:1005100000970C4904F094FC0B4B049A1B780B4990
:100520008DF8003002A83C2306F0E8F903A8FFF795
:1005300013FF04A804F02AFB012009B0F0BD00BF9E
:100540005D020020F4A708085C02002012A8080839
:10055000F0B54FF4FA6089B005F0DEFE204802F0F5
:1005600049FC04461E4802F00BFC21460546204685
:1005700008F0B4FC20B92946284608F0AFFC48B181
:10058000184B1B68002B27DA06F0F0FB164904F025
:10059000B8FC21E0284607F031FE064620460F460B
:1005A00007F02CFE3246CDE900013B460F4904A876
:1005B00004F046FC0E4B049A1B780E498DF800306F
:1005C00002A83C2306F09AF903A8FFF7C5FE04A889
:1005D00004F0DCFA012000E0022009B0F0BD00BF09
:1005E00084020020080000201BA808083BA8080877
:1005F0005C0200204FA8080830B5274989B005469D
:1006000004F0A3FB38B1294604A804F045FB04A874
:10061000FFF724FF26E02149284604F096FB38B175
:10062000294604A804F038FB04A8FFF7ABFE19E044
:100630001B49284604F089FB38B1294604A804F078
:100640002BFB04A8FFF74EFF0CE01649284604F0E8
:100650007CFB044640B1294604A804F01DFB04A815
:10066000FFF776FF044611E02A460F4904A804F07C
:10067000E7FB0E4B02A81B78049A8DF800300C495A
:100680003C2306F03BF903A8FFF766FE04A804F03C
:100690007DFA204609B030BD57A808085BA80808B5
:1006A0005FA8080863A8080867A808085C0200207B
:1006B00074A8080870B51B488AB002F0FDF81A4DFE
:1006C00004462B78834229D0184B1B685B0725D53D
:1006D000174805F0A1FE0646154805F0B3FE07F0E1
:1006E0008DFDCDE90201304607F088FD2246CDE9B7
:1006F0000001104906A804F0A3FB0F4B069A1B78D3
:100700000E498DF8003004A83C2306F0F7F805A840
:10071000FFF722FE06A804F039FA2C7001200AB077
:1007200070BD00BF30020020100000200800002033
:10073000900100207DA808085C020020EAA70808B4
:100740002DE9F04F93B003F00DFD414D2B68C01A19
:10075000404B1A684EF660235343984274D93E4882
:1007600002F0B8F900286FD03C4C2368DA075AD55C
:1007700005F0C1FD3A4F02463B683A4906460EA8CD
:1007800005F066FD0EA804F001FA334802F0BEF849
:100790008346314802F0C0F880462F4802F03CF909
:1007A00081462D4802F0BEF832463B6882462D490C
:1007B0000EA805F04DFD584607F020FD0E9B06469D
:1007C0000F4650462849069308F076FA07F016FDC2
:1007D000CDE904012449484608F06EFA07F00EFD01
:1007E000CDE90201404607F009FD3246CDE900019E
:1007F0003B461E490AA804F023FB1D4B0A9A1B78AE
:100800001C498DF8003008A83C2306F077F809A8A9
:10081000FFF7A2FD0AA804F0B9F90EA804F0B6F992
:1008200003F0A0FC28602368DB000DD506F09EFADB
:10083000044609490EA802F0F5F80E99204604F086
:1008400060FB0EA804F0A2F913B0BDE8F08F00BF62
:10085000CC0100200C0000205D02002008000020D8
:10086000C00000202404002000007A4492A7080859
:100870005C020020BEA7080870B5314886B002F0BF
:100880007FF9304B04461B68984223DD2C4802F068
:1008900059F905462A4802F05FF90646284802F051
:1008A00065F98DE81100284C33462A46274902A8ED
:1008B00004F0C6FA02A9204604F0F9F902A804F0EF
:1008C00065F9234B1B689A0004D506F04FFA21689E
:1008D00004F017FB03F046FC1E4D2B68C01A1E4B9C
:1008E0001A684EF660235343984227D9184B1B6869
:1008F0009B0723D5144C1949204604F026FAE8B981
:10090000174B18491B7802A88DF8003022683C2349
:1009100005F0F4FF03A8FFF71FFD104902A804F03B
:100920007CF902A8FFF72EFD02A804F02FF903F0CE
:1009300019FC0A492860204604F0C1F906B070BDD0
:100940005D020020000000201C020020F4A708081F
:1009500008000020EC01002004000020C4AC0808BE
:100960005C02002012A808082DE970434FF4FA60D9
:1009700088B005F0D1FC294802F03CFA044627482B
:1009800002F0FEF921460546204608F0A7FA20B9F4
:100990002946284608F0A2FA48B1214B1B68002BD3
:1009A00038DA06F0E3F91F4904F0ABFA32E003F05D
:1009B000D9FB1D4E3368C01A1C4B1A684EF66023D3
:1009C0005343984226D9164B1B681B0722D528464D
:1009D00007F014FC80462046894607F00FFC42468B
:1009E000CDE900014B46124904A804F029FA114B45
:1009F000049A1B7810498DF8003002A83C2305F0BA
:100A00007DFF03A8FFF7A8FC04A804F0BFF803F0DB
:100A1000A9FB306008B0BDE8708300BF84020020ED
:100A2000080000201BA808082C0200201400002049
:100A30003BA808085C0200204FA8080808B5114828
:100A400000F094FF104801F071FC104801F05EFACC
:100A50000F4801F0B1FD0F4801F084F9FFF70CFFDA
:100A6000FFF76EFEFFF726FEFFF77EFF0A4B1B68BF
:100A70001B0106D506F07AF9BDE80840074904F0E5
:100A800040BA08BD0C020020980100203C02002062
:100A900098020020D001002008000020A0A808082B
:100AA0002DE9F04FA1B018AE9C490546304604F040
:100AB000B4F89B4802F008F81590994801F06AFFD5
:100AC0008346974801F06CFF8246954801F06EFF1F
:100AD0008146934801F07CFF8046914801F07EFFFB
:100AE00007468F4801F06EFF14908D4801F064FFB7
:100AF00002908B4801F0FEFE0390894801F000FF50
:100B00000490874801F002FF0590854801F004FF3A
:100B10000690834801F07AFF0790814801F07CFF3E
:100B200008907F4801F06CFF09907D4801F062FF5A
:100B30000A907B4801F058FF0B90794801F0FAFECB
:100B40000C90774801F0FCFE0D90754801F0FEFE18
:100B50000E90734801F000FF0F90714801F002FF02
:100B600010906F4801F010FF11906D4801F000FFE8
:100B700012906B4801F002FF6A491390284604F076
:100B8000E4F81CAC159A28B96749284604F0DDF84A
:100B900060B15A466549204604F052F92146304674
:100BA00004F085F8204603F0F1FF0CE16049284687
:100BB00004F0CBF808B15246ECE75E49284604F051
:100BC000C4F808B14A46E5E75B49284604F0BDF899
:100BD00008B14246DEE75949284604F0B6F808B1A4
:100BE0003A46D7E75649284604F0AFF808B1149AB8
:100BF000D0E75449284604F0A8F810B1BDF8082001
:100C0000C8E75149284604F0A0F848B1039807F016
:100C1000F5FA02460B4620464C4904F011F9BDE7AF
:100C20004B49284604F091F8B046274608B104988D
:100C300005E04849284604F088F848B1059807F0CF
:100C4000DDFA02460B463846404904F0F9F840E028
:100C50004149284604F079F80DF1600808B106987A
:100C6000EDE73E49284604F070F81CAF08B107983C
:100C7000E5E73B49284604F068F808B10898DEE744
:100C80003849284604F061F808B10998D7E7364991
:100C9000284604F05AF8C246B94608B10A9A05E057
:100CA0003249284604F051F810B10B9A1F490DE063
:100CB0002F49284604F049F808B10C9A05E02D495F
:100CC000284604F042F850B10D9A2B49384604F0FA
:100CD000B7F83946404603F0EAFF384663E727494C
:100CE000284604F032F808B10E9A05E02449284657
:100CF00004F02BF810B10F9A224957E022492846F8
:100D000004F023F808B1109AF6E72049284604F0C9
:100D10001CF800283CD0119A47E000BFC4AC08087A
:100D20005D020020B7A80808C4A808080BB7080887
:100D3000C9A80808E0A80808D0A8080809B8080841
:100D4000D6A80808DBA80808E8A808085FAE0808C5
:100D5000F1A80808FBA808080BA908081CA908089E
:100D600028A9080831A9080837A9080842A90808CD
:100D70004DA9080859A9080855A9080861A9080833
:100D80006AA9080866A908086FA9080874A90808CC
:100D90001E49284603F0D9FF08B1129A05E01C4904
:100DA000284603F0D2FF50B1139A1A49484604F07E
:100DB00047F84946504603F07AFF4846F3E616499D
:100DC000404603F07CFF2946204603F065FF1349A7
:100DD000204603F0A8FF314603F099FF104B02684C
:100DE0001B7810498DF8003016A83C2305F086FDCD
:100DF00017A8FFF7B1FA204603F0C8FE304603F00B
:100E0000C5FE012021B0BDE8F08F00BF7BA9080816
:100E100083A9080855A908088CA90808ADB20808D4
:100E20005C020020B1A9080870B505460468436853
:100E3000142606FB0346A64204D0204603F0A6FE75
:100E40001434F8E7286803F07BFC284670BD0000E6
:100E50000246014805F042BC6D66080800230222E4
:100E600003F00EBC10B586B005F080FF4FF41651AC
:100E700005F06CFF42F2107005F04EFA674801F081
:100E8000F3FC674801F0BFFE664801F021FD6548AC
:100E900001F0E2FD644902A803F0BFFE02A8FFF7DB
:100EA000C5F902A803F072FE604801F03DFC6048FD
:100EB00000F05AFD5F4801F053FA5F4800F0CCFFA4
:100EC0005E4800F0E7FD5E495E48FFF7C1FF5E4BFC
:100ED000102002935D4B05935D4B0493FFF7DFF801
:100EE000044678B100238360049B33B1022202A937
:100EF0009847059BE360049BA360564A21465648E9
:100F000005F0ECFB02A8FFF7E1F954495448FFF75C
:100F10009FFF54495448FFF79BFF54495448FFF73B
:100F200097FF54495448FFF793FF54495448FFF73B
:100F30008FFF54495448FFF78BFF54495448FFF73B
:100F400087FF54495448FFF783FF54495448FFF73B
:100F50007FFF54495448FFF77BFF54495448FFF73B
:100F600077FF54495448FFF773FF54495448FFF73B
:100F70006FFF002301225349534803F081FB53497B
:100F80005348FFF76BFF53495348FFF767FF534937
:100F90005348FFF763FF53495348FFF75FFF534937
:100FA0005348FFF75BFF53495348FFF757FF534937
:100FB0005348FFF753FF53495348FFF74FFF0023B0
:100FC00001225249524803F05BFB524C0023524A23
:100FD00000214FF4805003F0BDFA03F069FB0022BA
:100FE00011462046FFF77BF9A06840B100236FF05F
:100FF00000428DE80C0019461A4603F02BF94FF415
:10100000FA6005F089F9334B1B685B0104D505F0E4
:10101000ADFE424903F075FF06B010BD300200205E
:10102000840200205D02002089A7080898020020A1
:101030000C020020980100203C020020D00100207A
:10104000C101080859AA08082D0208081901080852
:10105000F3000808C8AA080899660808F9050808EE
:10106000BAA9080871010808C1A90808850108087B
:10107000CBA9080899010808D5A90808AD010808F6
:10108000DFA9080815150808E9A90808D501080806
:10109000F1A9080885110808FAA90808A10A080892
:1010A00002AA0808813D08080CAA0808F93D0808AA
:1010B00018AA0808BD3E080825AA0808393F0808EC
:1010C00030AA0808100000203CAA080800000020F0
:1010D00046AA08080800002052AA0808CC010020EF
:1010E0005FAA0808EC0100206AAA08082C02002068
:1010F00075AA08080C00002080AA08080400002037
:101100008CAA08081400002098AA080811000020E2
:10111000A4AA0808F001002035010808B0AA0808B0
:1011200038B505461AB903689B68984702E0D2B201
:1011300003F0F1FE0446284603F0D7FE204438BDF4
:10114000F8B506460C4617462AB90368C9B29B682B
:101150009847054610E0002907DA0A2A05D12D2113
:1011600003F0C0FE6142054601E021460025FAB2C7
:10117000304603F0D0FE0544304603F0B6FE284466
:10118000F8BD00002DE9F04FC84C93B0204601F0A7
:101190009BFC1190204601F0FDFB8346204601F0A8
:1011A000FFFB8246204601F001FC8146204601F00B
:1011B0000FFC8046204601F011FC0746204601F056
:1011C00001FC0646204601F0F7FB0546204601F0EB
:1011D00091FB0090204601F093FB0190204601F026
:1011E00095FB0290204601F097FB0390204601F00A
:1011F0000DFC0490204601F00FFC0590204601F004
:10120000FFFB0690204601F0F5FB0F90204601F011
:10121000EBFB1090204601F08DFB0790204601F07B
:101220008FFB0890204601F091FB0990204601F0C9
:1012300093FB0A90204601F095FB0B90204601F0AD
:10124000A3FB0C90204601F093FB0D90204601F08B
:1012500095FB0E9005F08AFD954903F03FFE05F0E1
:1012600085FD0446119B0A22194603F054FE2046D0
:1012700003F03BFE05F07AFD8E4903F02FFE05F0EA
:1012800075FD0A225946FFF74BFF05F06FFD8A49AD
:1012900003F024FE05F06AFD0A225146FFF740FFE5
:1012A00005F064FD854903F019FE05F05FFD0A2293
:1012B0004946FFF735FF05F059FD814903F00EFE61
:1012C00005F054FD0A224146FFF72AFF05F04EFDC6
:1012D0007C4903F003FE05F049FD0A223946FFF779
:1012E0001FFF05F043FD784903F0F8FD05F03EFDD2
:1012F00004460A22314603F00EFE204603F0F5FDB7
:1013000005F034FD714903F0E9FD05F02FFD0446B9
:101310000A22A9B203F0FFFD204603F0E6FD05F026
:1013200025FD6B4903F0DAFD05F020FD022200994E
:1013300003F0D8FE05F01AFD664903F0CFFD05F075
:1013400015FD0222019903F0CDFE05F00FFD624963
:1013500003F0C4FD05F00AFD0222029903F0C2FE6B
:1013600005F004FD5D4903F0B9FD05F0FFFC022224
:10137000039903F0B7FE05F0F9FC594903F0AEFDFF
:1013800005F0F4FC0222049903F0ACFE05F0EEFC3B
:10139000544903F0A3FD05F0E9FC0222059903F08E
:1013A000A1FE05F0E3FC504903F098FD05F0DEFCDA
:1013B0000222069903F096FE05F0D8FC4B4903F093
:1013C0008DFD05F0D3FC0A220F99FFF7A9FE05F069
:1013D000CDFC474903F082FD05F0C8FC0A221099B4
:1013E000FFF79EFE05F0C2FC424903F077FD05F0D1
:1013F000BDFC04460A22079903F08DFD204603F048
:1014000074FD05F0B3FC3C4903F068FD05F0AEFC4B
:1014100004460A22089903F07EFD204603F065FD8C
:1014200005F0A4FC354903F059FD05F09FFC0A22A4
:101430000999FFF785FE05F099FC314903F04EFD4F
:1014400005F094FC0A220A99FFF77AFE05F08EFC5B
:101450002C4903F043FD05F089FC0A220B99FFF7A4
:101460006FFE05F083FC284903F038FD05F07EFC93
:101470000A220C99FFF764FE05F078FC234903F07B
:101480002DFD05F073FC0A220D99FFF759FE05F0BA
:101490006DFC1F4903F022FD05F068FC0A220E993D
:1014A000FFF74EFE012013B0BDE8F08F5D02002073
:1014B000D2AA0808E1AA0808E8AA08080BAB08089D
:1014C000F1AA0808F9AA0808FFAA080806AB080844
:1014D00015AB080820AB08082CAB08083EAB080881
:1014E00051AB08085FAB0808C6B008086AAB08082B
:1014F00077AB080884AB08088EAB080898AB0808DF
:101500009FAB0808A6AB0808ADAB0808B6AB080847
:10151000C0AB080830B5044685B0006807F056FD3A
:10152000202185B2204603F05AFC21460246684637
:1015300003F07AFC009807F049FD0446684603F082
:1015400025FB114B1B68DB0015D505F00FFC0F497F
:1015500003F0C4FC05F00AFC0A22294603F0DBFC78
:1015600005F004FC0A4903F0B9FC05F0FFFB0A2270
:101570002146FFF7E5FD22462946064801F0D6FA46
:10158000012005B030BD00BF08000020CBAB08082B
:10159000D2AB08085D0200208842F8B506460C462A
:1015A000154616D9904215D2A2F114056C1AA1F174
:1015B00014070444AF421CD02CB12946204603F046
:1015C000D5FA2B7C2374284603F0E0FA143D143C32
:1015D000F0E70ED0AC420CD02EB12146304603F0DD
:1015E000C5FA237C3374204603F0D0FA1434143641
:1015F000F0E7F8BD2DE9F04100230360436083600C
:101600004E6804469E420F4624DD4FF0140808FB46
:1016100006F003F08DF80546E0B194E8060008FBFB
:101620000212FFF7B9FF206803F08AF82560A66070
:101630003E687B6808FB0368464509D02DB13146FA
:10164000284603F029FB337C2B7414361435F3E75A
:101650007B6863602046BDE8F08100002DE9F0471B
:101660007A4B90B000244FF0010983F8009002F00B
:10167000B9FC03940494059405F078FB744E8246FB
:1016800035460DF1240803A906A8FFF7B3FF06A904
:101690004046FFF7AFFF6F4B0CAF45F8043B4146A8
:1016A0003846FFF7A7FF3A461E21284604F015FAF0
:1016B0003846FFF7B9FB4046FFF7B6FB664BC6F866
:1016C00020A0336006A8FFF7AFFB644B644D336086
:1016D00005F04CFB4FF4165105F038FB03F090FE7B
:1016E000314604F08EF903A8FFF79EFB2A465D49B8
:1016F000304606F091F92146484602F033FF4FF696
:10170000FF73594E022073813460B480B471348108
:1017100002F008FF3046554E2A46554906F07CF93E
:101720005449304600F03CFF3046534E2A46534958
:1017300006F072F9524A4FF46161304600F0B6FD8E
:101740003046504E2A46504906F066F9304600F0C1
:101750005DFB30464D4E2A464D4906F05DF90222AA
:101760004C49304600F088F930464B4E2A464B49EA
:1017700006F052F94FF461624949304600F0C0F872
:101780003046484E2A46484906F046F94EF6602152
:10179000304600F0C5FC2A4644493046444E06F027
:1017A0003BF9444801F093F82146304604F0F4FD3B
:1017B0003046414E2A46414906F02EF9304601F0A6
:1017C00043F82A463E4930463E4E06F025F90623A8
:1017D000162203213C4801F00FFA3C49304603F041
:1017E0001CFA2A463A49304606F016F9394B3A4E69
:1017F0000C9397E80300394B88E80300336006F147
:101800000C0393E8030087E8030098E8030083E8EB
:101810000300334B34717361B369B4600F93314B80
:10182000314AB361322133460194009406F1080035
:101830000E9402F0F7FC3846FEF748FD2A462B4985
:10184000304606F0E9F810B0BDE8F0875C020020F1
:10185000600200203CA7080808B3080854A708083D
:1018600080010020850208088401002098020020E1
:1018700075020808D9AB08089801002091250808CE
:10188000E8AB08083C02002079220808D0010020BB
:10189000CD1D0808F5AB08080C020020E91908085E
:1018A00000007041A4020020F1180808C1200808B7
:1018B000900100205D02002030020020B76308087C
:1018C000C52708081C02002084020020C4AC0808B8
:1018D0008D4B08080D010808F001002028A7080812
:1018E000DB000808D7000808F1010808FD02080815
:1018F000704710B50446102106F09CF8204610BD34
:1019000010B5034C8260002204604160C26010BDCB
:1019100008AC080837B50446104804F093FD0021D0
:10192000054607F0A9FAB0B96168284607F0AEFA93
:1019300088B10B4802F0A3FF68B9284607F0E4FA23
:1019400001460D2000F01CFF064BA2681B68012118
:10195000684603F07BF803B030BD00BFC002002032
:10196000CC020020C8020020FFF7D4BF10B5044607
:1019700002F0F8FBE368C01A4EF65F23984207D9DD
:1019800002F0F0FBE0602046BDE81040FFF7C2BF68
:1019900010BD000070B50E4B0E4D00241C600E4EA5
:1019A00002F020FB2146284604F0F6FC28460B4DA9
:1019B00032460B4906F030F82146284602F017FF60
:1019C00032462846BDE87040064906F025B800BFFB
:1019D000C8020020C002002080010020CC020020AC
:1019E000B76308080D480808704710B504461C2165
:1019F00006F020F8204610BD30B5026885B0536867
:101A0000946813F0010F4FEA6303156818BFE2589A
:101A100068461C4418BF555903F0A8F8694620468B
:101A2000A8470446684603F0B1F8204605B030BD2B
:101A300010B50446086807F057FCE060002010BDB0
:101A4000022A38B5044605D0032A0FD0012A11D145
:101A50000B6809E00C200D68FEF721FB034618B166
:101A600095E8070083E80700236003E00C21006885
:101A700005F0E0FF002038BD10B5054C8260002263
:101A800004604160C26002614261826110BD00BFBA
:101A900018AC08087FB50546466800240C2002945F
:101AA000FEF7FDFA10B1164B80E83800154B009098
:101AB0000393154B10200293FEF7F1FA044678B118
:101AC00000238360029B33B1022269469847039B3F
:101AD000E360029BA360324621460C4804F0FEFD01
:101AE000029B1BB10322694668469847A8680028F4
:101AF00003DB022180B205F047FE04B070BD00BFD9
:101B0000311A0808F9190808411A080899660808DE
:101B1000F0B506468FB008467F4908F059F9002411
:101B200050B1052C0BD009AB43F824007A490020B2
:101B300008F04EF90134F3E7002C00F0EA804FF48E
:101B4000FA7004F0E9FB099D7449284607F0BAFBD6
:101B500030B900210A2000F013FE02F073FFD8E034
:101B60006F49284607F0AEFB014650B96D4C23681B
:101B7000002BEED0112000F003FE206800F08EF95B
:101B8000C7E06949284607F09DFB014628BB1020A5
:101B900000F0F6FD654B664A1B7866498DF800300B
:101BA00007A83C2304F0AAFE089C002C00F0B1809A
:101BB0006368013B6360002B40F0AB8023682046E4
:101BC0009B689847A368013BA360002B40F0A1806D
:101BD00023682046DB6898479BE05749284607F072
:101BE00071FB074638B90146132000F0C9FD38469D
:101BF00002F0D0FA8DE05149284607F063FB014618
:101C000018B90B2000F0BCFDFEE74D49284607F04F
:101C100059FB002861D1012C5FD0022C01D11E2478
:101C200005E00B9807F0D2F904460028F7D02146CA
:101C30000C2000F0A5FD0A9D4249284607F042FB12
:101C400008B9414B05E04149284607F03BFB38B94C
:101C50003F4B1B682246012107A802F0F7FE58E01F
:101C60003C49284607F02EFB0746A8B9B368002B6D
:101C70004FDB354AADF81830126802230292012278
:101C80008DF8163006A9019400920DF1160307A8ED
:101C900002F01AFF39461CE028462F4907F012FBD4
:101CA0000546002835D1B368002B32DB284AADF851
:101CB0001A3012680223029201228DF817300DF1BA
:101CC0001A01019400920DF1170307A802F0FCFE1F
:101CD0002946152000F054FD1BE02049284607F056
:101CE000F1FAB0B9012C14D00A9D1D49284607F01D
:101CF000E9FA40B9022C03D00B9807F067F907E026
:101D00001E23736105E01349284607F0DBFA00B98A
:101D100070610FB0F0BD00BFA9B2080820AC080880
:101D200026AC0808DC02002031AC0808CD020020F7
:101D3000C4AC08083EAC080857AC080860AC0808FA
:101D40006CAC080872AC0808D002002077AC080818
:101D5000D402002083AC080888AC080894AC0808BA
:101D600099AC080810B5C168044631B1FFF7D0FE40
:101D7000E06802F0E5FC0023E3606369002B14DDFA
:101D800002F0F0F923696269C01A4FF47A73534381
:101D900098420AD302F0E6F9A16920610131A161FC
:101DA0001420BDE8104000F0EBBC10BD044B002235
:101DB0001A60044A01231360034A137002F012B937
:101DC000D0020020D4020020CD020020704710B5C0
:101DD0000446202105F02EFE204610BD0EB400B5AD
:101DE0008CB00DAA52F8041B20238DE80600039244
:101DF00004930168002304AA1E20059302F072FBDD
:101E00000CB05DF804EB03B0704700000D4B10B54B
:101E1000036047F2305343600B4B0C4A836042F23D
:101E2000107310600A4A0B491468C3608C424FF06B
:101E3000000318BF82E80A000361037543758361DC
:101E4000C36110BDA8AC080820BF0200DC0200205E
:101E50000040024094C54E2E7047000010B500218E
:101E6000C26804460B4B084602F0ECFA0146072014
:101E700000F086FC0021E268074B084602F0E2FA17
:101E800004460146082000F07BFCA01C18BF01207E
:101E900010BD00BFB0AC0808C5AC080837B517497D
:101EA0001748FFF79BFF0021042000F069FC02F0B7
:101EB00007FC02F057F943F69725044602F008FCA8
:101EC00040B102F04FF9001BA84203D8642004F08F
:101ED00023FAF3E700210B4B47F23052084602F099
:101EE000B1FA4FF47A7004F017FA074B0A221B6814
:101EF0000121684602F0AAFD03B030BDE2AC08083B
:101F000014040020F2AC0808D802002037B5454D73
:101F1000044600221146686802F07AFB237D0146E0
:101F200083420DD02075012000F02AFC217D3E4B1C
:101F30003E4A3F48002908BF1A463E49FFF74EFF78
:101F400002F0C6FB637D0146834216D06075022015
:101F500000F016FC617D344B344A3548002908BF37
:101F60001A463549FFF73AFF637D1BB1334B002218
:101F70005A6002E002F0F6F8E061637DD3B9A3682D
:101F8000C3B102F0EFF8E369C01AA368984211D315
:101F9000237D13B12046FFF761FF284A53680133C0
:101FA000536022696ABB0620002100F0E9FB20464D
:101FB000FFF774FF00221146686802F049FB70B316
:101FC000A5695DB902F0CEF82946A061032000F0B2
:101FD000D7FB1B491648FFF701FF20E06368F3B108
:101FE00002F0C0F8A369C01A6368984217D30021B1
:101FF000052000F0C5FB204603B0BDE83040FFF7E8
:102000004DBF012BCFD90021162000F0B9FB0D4B9D
:1020100022691B680121684602F018FDC3E703B07E
:1020200030BD00BF2C05002002AD0808FFAC080839
:102030001404002007AD080813AD08080040024052
:1020400027AD0808D8020020024B00221A6001F0D8
:10205000C9BF00BFD802002010B5012303748368F4
:1020600004460BB1C06806E0006828B183680BB96C
:1020700005F0F3FCC3689847012363740020BDE8B2
:10208000104002F00FB908B50021092000F078FBDC
:10209000BDE8084002F0D6BC38B5044670B105680A
:1020A00035B12846FEF712F91021284605F0C2FC8A
:1020B0002046BDE83840142105F0BCBC38BD000006
:1020C00010B5114B044603608369BBB1586802F038
:1020D00081F878B9A3695A7C12B9586802F08AF875
:1020E000A369586802F08EF8A0690023A36128B1A3
:1020F000FFF7D2FFA06908B1FFF7CEFF04F1080097
:10210000FEF7E4F8204610BD50AD080810B50446AF
:10211000FFF7D6FF20461C2105F08CFC204610BDA1
:1021200070B506460446254B86B046F8043B244B62
:1021300000250293234B41600593234B056102A9BF
:10214000022208300493FDF7C8FF059B1F49636115
:10215000049B1420236105F071FC28B1057405600F
:1021600045608560C5604574A061B0B1184B092217
:102170008360A3691749DE60A0694FF4E1638DE8CD
:102180000900154B043002F01DF830B9A3691B7C1F
:102190004BB9012001F0D6FFF8E7A0690023A36145
:1021A00008B1FFF779FF01F0DDFF0C4B186002A8C2
:1021B000FEF78CF8204606B070BD00BF50AD080891
:1021C00087200808D7000808DB000808B6B408080C
:1021D000F57808083EAD0808592008088405002055
:1021E00001F000BF0123037770474268036812F0D3
:1021F000010F4FEA620018BF0A58084418BFD358AD
:10220000184730B40368126858689C6810F0010FD2
:102210004FEA600018BF25581B68204418BFEB58D0
:10222000096830BC1847012A034601D1016005E066
:10223000022A03D110B103C983E8030000207047CC
:10224000022A38B5044605D0032A0FD0012A11D13D
:102250000B6809E00C200D68FDF721FF034618B15B
:1022600095E8070083E80700236003E00C2100687D
:1022700005F0E0FB002038BD10B50446054B40F8E2
:10228000243BFEF723F804F1080002F07FFC20460F
:1022900010BD00BF84AD080810B50446FFF7ECFF81
:1022A0002046342105F0C6FB204610BD70B504461B
:1022B0001646184B00F1080588B0036041601649C6
:1022C000284602F0AAFC0023A36123772362A362BD
:1022D000124B134A2363134B6262E36204A802F0B9
:1022E000FFF904A9684602F0D7FC0F49684602F0DE
:1022F0001AFD314602F017FD0146284602F0BDFCEA
:10230000684602F043FC04A802F040FC204608B0F6
:1023100070BD00BF84AD0808C4AC0808EB210808F4
:10232000992408082722080858AD080810B5C36A80
:1023300001460BB905F091FB036BBDE8104024305A
:10234000184738B5002383608B6804460D462BB1CF
:1023500002229847EB68E360AB68A360204638BD73
:1023600070B51E4B1E4A19688AB0914218BF1A6098
:10237000044618BF002286684FF000054FF00C009D
:1023800018BF5A600495FDF78AFE18B1154B84609A
:1023900080E82800144B02900593144B02A906A86C
:1023A0000493FFF7CEFF089B7BB11020FDF777FE6B
:1023B000044650B106A9FFF7C4FF00230193009320
:1023C00022460B49304602F09BF906A8FDF77EFF36
:1023D00002A8FDF77BFF0AB070BD00BF08400240B5
:1023E000FE49684AE5210808032208084122080836
:1023F000C166080810B5044691E80C0086B0029248
:10240000A268039302AB93E803008DE8030094E80D
:10241000030083E803009DE803000492064A84E871
:102420000300A260E26818460592044AE260FDF7E4
:102430004DFF204606B010BD27220808EB210808F2
:102440001FB500230F4A0446037702A924300393E3
:102450000292FFF7CFFF01F085FEA268A0610A4952
:102460000A48FFF7BBFC0A4BA1681B78094A8DF8A4
:10247000003002A83C2304F041FA03A8FDF76CFFEA
:1024800004B010BDE52408085AAD08081404002063
:10249000E0020020C4AC080810B5044601F062FE5A
:1024A000A369C01A47F22F53984218D901F05AFE77
:1024B000A06103F0FFFE90B102F00AF978B103F0D9
:1024C0001AFF074A61685368C31A8B4207DB00236F
:1024D000506023622046BDE81040FFF7B1BF10BD39
:1024E000084002401FB5037F044653B11F4B02A9A9
:1024F0000293243000230393FFF77CFF01F032FEA8
:10250000A06101F02FFEA369C01A4AF6C773984272
:1025100029D900210E2000F033F9236A0133012B61
:10252000236203DC2046FFF78BFF1CE000210F2015
:1025300000F026F90E4B0F4A1B780F498DF800303A
:1025400002A83C2304F0DAF903A8FDF705FF4FF4D5
:10255000FA6003F0E1FE094B186810B1FFF79EFC2A
:1025600001E002F06FFA04B010BD00BF9924080822
:10257000E0020020C4AC08083EAC0808DC020020E1
:10258000024B01221A7001F02DBD00BFE0020020B5
:10259000704710B504460C2105F04CFA204610BDDA
:1025A000034A4160026000228260024A1060704764
:1025B00044AE0808E40200202DE9F043384DD5B0C0
:1025C0006B680746002B67D002F082F8002863D0C2
:1025D00001F0C8FDBB68C01A40F2F13398425BD9E4
:1025E0004FF000082E4644466B689C421BD273692C
:1025F0002C4A0293336940210193F36804A80093A5
:10260000B36802F0BDF800EB0809B9F1FF0F06F15D
:10261000100608D814AB03EB080004A906F05CFE12
:102620000134C846E0E76A681D4E121B6A607AB141
:102630001D491E48FFF7D2FB736806EB04114FF4E7
:1026400002725A43083106F1080006F0D8FD04E092
:10265000224617491548FFF7C1FB164B14AA1B78F1
:1026600004A88DF8003079683C2304F047F9059CF4
:102670007CB16368013B63605BB9236820469B685B
:102680009847A368013BA3601BB923682046DB6819
:10269000984701F067FDB86055B0BDE8F08300BF12
:1026A000104002408CAD08089BAD080814040020BF
:1026B000C9AD0808E10200202DE9F041164C0F4693
:1026C000636890461F2B0FD914491548FFF786FB06
:1026D00063684FF40272013B5A4304F1180104F19C
:1026E0000800636006F08BFD6668751C656003F08A
:1026F00002FE04EB0616B06001F034FD2D016319F3
:10270000F060C3F80480675143463A4605490448DF
:10271000FFF764FBBDE8F08110400240D8AD080827
:1027200014040020EDAD080873B5114C114B22685C
:1027300006469A421D4602D16368202B04D90E49F1
:102740000E48FFF74BFB2560002211463046FFF78D
:10275000B3FF002202A840F8042D114601F02AFD23
:10276000019A1AB112213046FFF7A6FF02B070BDE0
:102770001040024016D4395C0EAE08081404002044
:10278000044B0A461B681BB101461846FFF794BF6D
:10279000704700BFE4020020024B01221A7001F0D2
:1027A00021BC00BFE102002003685A68986812F05B
:1027B000010F4FEA620218BF81581B68104418BF0E
:1027C000CB58184710B50446034B40F8043B02F0C1
:1027D0001DF8204610BD00BF54AE080810B50446D1
:1027E000FFF7F0FF20460C2105F024F9204610BD2C
:1027F00010B5044601F0B6FCA368C01A632894BF64
:1028000000230123637101F0ADFCA06010BD022A1A
:1028100038B5044605D0032A0FD0012A11D10B6820
:1028200009E00C200D68FDF73AFC034618B195E865
:10283000070083E80700236003E00C21006805F02F
:10284000F9F8002038BD000010B50446054B002102
:1028500040F8043B01F0CBFF012363710023A36028
:10286000204610BD54AE080830B5054687B0002498
:102870000C200494FDF713FC10B10C4B80E83800D9
:102880000B4B029005930B4B022204930023009301
:1028900002A94FF0FF332E2004F0F6FA049B1BB17F
:1028A00002A903220846984707B030BDF12708085F
:1028B000A92708080F28080808B5043001F0E6FF2A
:1028C000C0F3800008BD01F08DBB704770477047B2
:1028D00010B5074C1821204600F0DDFB20460921E9
:1028E00000F0C8FB2046BDE81040012100F0AABB63
:1028F000E8020020014B5869704700BF1403002014
:10290000014B9869704700BF14030020014BD86940
:10291000704700BF14030020014B186A704700BFC6
:102920001403002008B5024BD86B06F0B9F808BDB7
:1029300014030020014BD86B704700BF1403002024
:10294000014B186C704700BF14030020014B586CFA
:10295000704700BF14030020014B986C704700BF04
:1029600014030020014BD86C704700BF14030020F3
:10297000014B586D704700BF14030020014B986D48
:10298000704700BF14030020014B186D704700BF53
:1029900014030020014B5878704700BF1403002037
:1029A000014B9878704700BF14030020014BD87882
:1029B000704700BF14030020014B9868704700BFA8
:1029C00014030020014BD888704700BF1403002077
:1029D000014B1879704700BF14030020014B587950
:1029E000704700BF14030020014B93F83B00704771
:1029F00014030020014B93F83A00704714030020A1
:102A0000014BD86A704700BF14030020014B586A7D
:102A1000704700BF14030020014B986A704700BF45
:102A200014030020F7B50A4D0446E86905F0E6FBFB
:102A30000646286A0F4605F0E1FB3246CDE9000163
:102A40003B462046034902F0FBF9204603B0F0BDA7
:102A5000140300205CAE080838B50121062004F0FC
:102A600093FE0021062004F0A0FE04F011FB4FF4B9
:102A7000165104F003FB0A2003F04EFC0F4801F04E
:102A800031F9044690B1012CF8D004F06FF90C49EB
:102A900002F024FA04F06AF9054621460A2202F0FF
:102AA0003AFA2846BDE8384002F01FBA04F05EF951
:102AB000BDE83840034902F024BA00BF14030020E7
:102AC00062AE080875AE0808014B1878704700BF61
:102AD00014030020014B93F83900704714030020C1
:102AE00038B5064D002404F0D3FA0368295D9B68CD
:102AF000013498470C2CF6D1012038BD1800002075
:102B000038B5064D002404F0C3FA0368295D9B68BC
:102B1000013498470C2CF6D1012038BD2400002048
:102B2000014800F08BBF00BF14030020014801F0F2
:102B30004BB800BF14030020014801F03FB800BFAC
:102B40001403002010B5034C204600F0F5FAB4F948
:102B5000060010BDE802002010B5034C204600F02E
:102B6000EBFAB4F9080010BDE802002010B5034CE0
:102B7000204600F0E1FAB4F90A0010BDE802002096
:102B800010B50B4C204600F0D7FAB4F90820B4F980
:102B90000630524303FB0323B4F90A0000FB003064
:102BA00005F01AFB05F0A4F805F02CFE10BD00BFDF
:102BB000E802002010B504462C2104F03BFF20461B
:102BC00010BD000010B5084C01F00CFA074800F0E9
:102BD000B1FB0C21204600F039F92046BDE8104039
:102BE000034A044904F018BFE8020020140300203F
:102BF00080010020CD28080810B5037201238171DF
:102C0000C271037410BD10B504460021807904F030
:102C1000BBFD0121A07904F0C8FD0023E36010BDD5
:102C20002DE9F843044601F09DFAE368834284BF2E
:102C30000023E360237C3BB9E368C01AB0F5FA6F68
:102C400002D20120BDE8F8830025257401F08AFA3C
:102C50000121E0602571A079E570A570657025708F
:102C600004F0A3FDFA2003F057FB0121A07904F042
:102C70008BFD2946A07904F098FD142003F04CFB4D
:102C800004F0D1F80121A07904F08FFD282001F093
:102C900061FA2946A07904F077FD2E4601274FF00E
:102CA0000008A07904F09AFDB8425FFA88F908D1CB
:102CB000012008F1010801F04DFAB8F1FF0FF0D141
:102CC000C146A07904F08AFDB9F1FF0FC7B214D054
:102CD000032D0ED9EB070CD4F208A35C01365B0080
:102CE000DBB2A354217AF6B249453CBF43F001035D
:102CF000A3540135EDB2552DD1D104F096F8272E0D
:102D00000AD92278637821791344A2781344E278AF
:102D10001344DBB2994294D00020BDE8F883000050
:102D200070B50446FFF77CFF18B3E3790B2B04D092
:102D30001FD3153B012B04D91BE0A07805F0B0FE92
:102D400070BDA57805F07F0005F0AEFE4FF087411D
:102D500005F0FEFE0646E07805F0A6FE314605F0D9
:102D6000EFFD054905F0A8FF2B0603D500F1004053
:102D700070BD024870BD00BF000020410000C07F50
:102D800008B5FFF7CDFF054905F0E2FE044905F05F
:102D900093FF4FF0844105F0D3FD08BD00001041C2
:102DA0000000A04038B50446FFF73AFFE0B1E379F0
:102DB0000B2B15D018D3153B012B15D8207805F017
:102DC0006FFE4FF0874105F0C3FE0546607805F0C1
:102DD0006BFE294605F0B4FD044905F06DFF38BDD2
:102DE000207805F05DFE38BD014838BD0000204167
:102DF0000000C07FFFF7D6BF01F0F4B810B504465D
:102E0000806808B101F036FA204610BD38B50C468E
:102E1000054628220021204606F00CFA0B2208491C
:102E2000204606F0AEFF00230122E372E260A969AA
:102E30006362002321616261A361E361236238BDA3
:102E400081AE08080368C9B29B681847064A4177F3
:102E500002604FF0FF3282618277FF2180F82020EC
:102E60001122C1774262704790AE080838B50B4D09
:102E7000296811F001040FD12846FDF71FF958B158
:102E80002146074801F00BFD2846FDF71CF9054ACD
:102E90000549034804F0C0FD014838BD780300200F
:102EA0007C03002080010020FD2D08082DE9F04161
:102EB00090F92030054601330F4606D1FFF7D6FFC3
:102EC0003946BDE8F04101F070BD072600244FF0FF
:102ED000010895F92000002180B204F066FC95F904
:102EE0001E0008FA06F1394080B204F05EFC95F944
:102EF0002000012180B204F058FC95F91F00640005
:102F000080B2E4B204F06AFC08B144F0010416F1A6
:102F1000FF36DED22046BDE8F081000008B5FFF79D
:102F2000A5FF012101F0DAFCFFF7A0FF054901220E
:102F300001F00AFDFFF79AFFBDE80840002101F00B
:102F4000DDBC00BF20A1070070B590F91D3004461C
:102F500001330E46154616D104F012FD217F04F010
:102F600060F904F00DFD036831469B68984704F052
:102F700007FD036829469B68984704F001FDBDE8FA
:102F8000704004F059B990F92030013301D1FFF7B6
:102F9000C5FF94F91D00002180B204F006FC06F084
:102FA0007F012046FFF782FF29462046FFF77EFF7C
:102FB00094F91D00012180B2BDE8704004F0F5BB1A
:102FC00038B590F91D30044601330D461CD104F08C
:102FD000D7FC94F91C1004F028F904F0D1FC036824
:102FE00029469B68984704F0CBFC04F025F904F0CF
:102FF000C7FC0122217F04F011F904F0C1FC036831
:103000005B699847C5B21BE090F92030013301D1CC
:10301000FFF784FF94F91D00002180B204F0C5FB86
:1030200045F080012046FFF741FF00212046FFF7D1
:103030003DFF054694F91D00012180B204F0B5FB67
:10304000284638BD38B50D4623210446FFF7B8FFA2
:1030500020F0300040EA0512D2B22046BDE83840E8
:103060002321FFF771BF08B52321FFF7A9FFC0F3A4
:10307000011008BD38B50D4620210446FFF7A0FF1A
:1030800000F00F0040EA0512D2B22046BDE83840F9
:103090002021FFF759BF10B50446017790F91D00B4
:1030A000421C04D104F06CFC04F084F822E00121FD
:1030B00080B204F07AFB94F91D00012180B204F083
:1030C00063FB94F92000431C04D1FFF7CFFE01F00D
:1030D000F5FB0FE0012180B204F056FB94F91E00CD
:1030E000012180B204F050FB94F91F00002180B24E
:1030F00004F04AFB0F212046FFF762FF332819D165
:10310000072220462021FFF71FFF20460721FFF757
:10311000B1FF204688222321FFF716FF2046102208
:103120002221FFF711FF204680221F21FFF70CFF0D
:10313000012010BD002010BD38B590F91D300446A7
:10314000013342D104F01CFC94F91C1004F06DF81A
:1031500004F016FCA821FFF775FE04F011FC04F042
:103160006BF804F00DFC0622217F04F057F804F000
:1031700007FC03685B699847E08004F001FC036882
:103180005B699847E38843EA0020E08004F0F8FB9D
:1031900003685B699847208104F0F2FB03685B6970
:1031A0009847238943EA0020208104F0E9FB036863
:1031B0005B699847608104F0E3FB03685B699847AB
:1031C000638943EA002060813CE090F920300133BC
:1031D00001D1FFF7A3FE94F91D00002180B204F095
:1031E000E4FAE8212046FFF761FEFF212046FFF7C1
:1031F0005DFEFF21E0802046FFF758FEE388FF21B7
:1032000043EA0020E0802046FFF750FEFF212081A6
:103210002046FFF74BFE2389FF2143EA002020814F
:103220002046FFF743FEFF2160812046FFF73EFE68
:103230006389012143EA0020608194F91D0080B276
:1032400004F0B3FA2046FFF70EFF032809D0022846
:103250000AD001280BD0002843F6FC7018BF0120CB
:1032600007E04FF4006004E04FF4805001E041F6C5
:10327000FE7005F019FC0546B4F9060005F014FCD3
:10328000294605F019FDE060B4F9080005F00CFCD2
:10329000294605F011FD2061B4F90A0005F004FC8F
:1032A000294605F009FD606138BD70B50C4605463C
:1032B000242632460021204605F0BCFF2660AB697B
:1032C00001266360002323612846A660FFF734FFD0
:1032D000EB68304663612B69A3616B69E36170BD84
:1032E00000F080BE00230022037043710371C3709D
:1032F00083704370C380C3608360037443748261CE
:1033000042610262C26182624262C26242630263DD
:1033100080F8383080F8393080F83B3080F83A3027
:103320000364C363C3648364436403654365836563
:10333000C365704708B5FFF7D5FF08BD70B500201D
:10334000107018704D790C79013104EB05250335A7
:10335000A8420ADC167811F8014F01303444E4B277
:1033600014701E7834441C70F2E770BD0A4610B425
:103370000B794C7903EB0424E31D063422440B44FF
:1033800010BCFFF7DBBF000070B50D460E464C7950
:103390000B7903EB04240734731B9C420CDB03F012
:1033A000E5FC16F8011B102201F0B5FD03F0DEFC70
:1033B000054901F093FDEFE703F0D8FCBDE870404C
:1033C000024901F09EBD00BFA4AE0808A9B20808DA
:1033D0008B78C87803EB00204B7803EB0023087848
:1033E00000EB032070478B78C87803EB00204B7804
:1033F00003EB0023087800EB032070470000000077
:1034000038B50D460A310446FFF7E2FF05F04CFBE4
:1034100004F0F4FE1CA3D3E9002304F043FF05F0FD
:1034200039FA05F10E012062A0612046FFF7D0FFB6
:1034300005F03AFB04F0E2FE13A3D3E9002304F005
:1034400031FF05F027FA05F11201E06160612046C5
:10345000FFF7BEFF05F028FB05F11601606220466C
:10346000FFF7C1FF05F01CFB05F11A01A062204621
:10347000FFF7B9FF05F11E01E0632046FFF7B3FF38
:10348000206438BDAFF3008048AFBC9AF2D77A3ED3
:10349000F8B50D4606310446FFF7A5FFE060EB7E68
:1034A000DB0740F1C6806B7C13F001020BD00122D8
:1034B0002274E97AAA7A02EB0122E2802A7B227145
:1034C0006A7B627100E0227403F0020303F0FF02E2
:1034D00043B101236374AB7B6370EB7BA3702B7CE4
:1034E000E37000E0627405F116012046FFF770FFFB
:1034F0000028C5BF4FF47A7390FBF3F00023A0605F
:10350000D8BFA360AB7E05F11E0184F83A30023BC0
:10351000012B8CBF0023012384F839306B7F2046B8
:1035200084F83B30FFF754FF05F0BEFA04F066FE66
:1035300041A3D3E9002304F0B5FE05F0ABF905F192
:1035400022012062A0612046FFF742FF05F0ACFA9D
:1035500004F054FE38A3D3E9002304F0A3FE05F0E1
:1035600099F905F12601E06160612046FFF730FF1F
:1035700005F09AFA05F12A0160622046FFF733FF51
:1035800005F08EFA05F12E01A0622046FFF72BFF11
:1035900005F13201E0632046FFF725FF05F1360112
:1035A00020642046FFF714FF05F13A0160642046CD
:1035B000FFF70EFF05F13E01A0642046FFF708FF6C
:1035C00005F14201E0642046FFF702FF05F14607DE
:1035D0002065394606462046FFF7FAFE04F0FCFD5A
:1035E00017A3D3E9002304F087FF05F053F9394608
:1035F00020632046FFF7ECFE04F0EEFD10A3D3E9B4
:10360000002304F079FF05F045F96063EB7E03F0D9
:10361000200303F0FF021BB1012384F8383001E0DE
:1036200084F83820304605F03FFA074905F044FB9E
:10363000E062F8BDAFF3008048AFBC9AF2D77A3EA3
:1036400000000000006AF84000007A4410B50C4603
:103650000E310246FFF7C7FE04F112015065104615
:10366000FFF7C1FE04F1160190651046FFF7BBFE9F
:10367000D06510BD38B5002403F00AFD03681B694E
:10368000984760B9092CF7DD03F002FD0B4901F002
:1036900025FCBDE838404FF4FA6002F03DBE03F06F
:1036A000F7FC03685B699847C5B20A2D08BF01346F
:1036B00003F05CFB294601F015FCDDE7A6AE080827
:1036C000031F00F12402002143F8041F9342FBD1A1
:1036D0007047002350F8232012B940F8231004E06B
:1036E00001330A2BF6D14FF0FF321046704710B568
:1036F000031F0022243053F8044F8C4208BF1A6085
:103700008342F8D110BD031F243053F8042F8A429E
:1037100003D08342F9D100207047012070472DE982
:10372000F04107460C4615462AB9BDE8F04103684A
:10373000C9B29B681847002907DA0A2A05D12D214A
:1037400001F0D0FB6142064601E021460026EAB2C4
:10375000384601F0E0FB3044BDE8F08138B505465D
:10376000FFF7DDFF0446284601F0BFFB204438BDCB
:1037700040F209139A4270B506460D46144642D0EF
:10378000B2F5857F0ADAB2F5817F38D040F20713AF
:103790009A423CD1BDE87040FFF77ABEB2F5A06F07
:1037A00014D040F201539A4231D1CB798C79204820
:1037B00043EA04242146FFF78CFF03F0D7FA1D49A2
:1037C00001F08CFB03F0D2FA1B490FE0CB798C7926
:1037D000174843EA04242146FFF789FF03F0C6FA9D
:1037E000164901F07BFB03F0C1FA154901F076FBA5
:1037F00003F0BCFA10222146FFF7B0FF70BDBDE810
:103800007040FFF7FDBDBDE87040FFF71FBF03F03C
:10381000ADFA0C4901F062FB03F0A8FA2146102230
:10382000FFF79CFF29463046BDE87040FFF7ACBD6E
:10383000AC030020C1AE0808D3AE0808E3AE080808
:10384000F5AE080805AF08082DE9F743724E1C468F
:10385000337880460D469146032B00F2D880DFE88E
:1038600003F0024C809B6D4C23782BB100F07AFC66
:103870006B4B18600023237003F00AFC03681B697C
:103880009847C8B103F004FC03685B699847C0B26D
:10389000B528287005D1634A012313603370237063
:1038A0000AE003F063FA604901F018FB03F05EFAE6
:1038B0001022297801F02FFB00F054FC3478002C02
:1038C00040F0A580564B1B68C01A584B1B689842A5
:1038D00040F29D8003F04AFA554901F012FB4FF483
:1038E000FA6002F019FD0121062003F05EFF4FF49B
:1038F000FA6002F011FDA04789E003F0C9FB0368FC
:10390000484F1B69984758B1D7F8008003F0C0FBB7
:1039100003685B6998473B6805F8080001333B6022
:103920003B68062B73D16A792B7903EB0223F82BC2
:1039300023600EDD03F01AFA3E4901F0CFFA03F0DE
:1039400015FA0A222168FFF709FF002333700220CD
:103950005EE0AA78EB7843EA0223C9F8003002233C
:1039600018E003F095FB03682E4F1B69984758B188
:10397000D7F8008003F08CFB03685B6998473B68CD
:1039800005F8080001333B6023683A680633934228
:103990003DD1032333703AE003F07AFB0368DFF88C
:1039A00084901B69984760B1D9F8007003F070FBF0
:1039B00003685B699847D9F80030E8550133C9F8C6
:1039C00000302768D9F8003008379F421FD10DF129
:1039D00007030DF106022946002440463D44347099
:1039E000FFF7ACFC15F8022C9DF806309A4205D181
:1039F00015F8012C9DF807309A4206D003F0B6F96D
:103A00000D4901F07EFA032002E0204600E001208B
:103A100003B0BDE8F08300BF90030020AB0000209E
:103A200088030020A80300201BAF080830000020F6
:103A30001DAF08085DAF080875AF080870B590F8AD
:103A40006030C0B0044623B3134E03F021FB03687B
:103A50001B699847E8B1114D0F4B2A46694620462D
:103A6000FFF7F2FE022803D103F080F90C4904E0CD
:103A7000032805D103F07AF90A4901F042FAE4E794
:103A80000028E2D133682A6869462046FFF770FEB5
:103A9000DBE740B070BD00BF8C0300209403002022
:103AA0008FAF0808AAAF08082DE9F0412B4D8046DA
:103AB0002B780C462E462A4F002B33D1E378897899
:103AC000284843EA01213960FFF711FE21464046AC
:103AD000FFF74CFC03F04AF9234901F0FFF903F02A
:103AE00045F9396827461022FFF738FE214640463F
:103AF000FFF74AFC6579237903EB052507353B1B66
:103B00009D4207DB03F0C4FA036817F8011B9B68AA
:103B10009847F4E700F026FB144B18600120307042
:103B2000BDE8F081FFF78AFF39680E48FFF7EBFD2B
:103B3000044658B900F016FB0C4B1B68C01AB0F5D0
:103B4000FA6F07D92C700420BDE8F081002028709E
:103B5000BDE8F0810120BDE8F08100BF980300209E
:103B6000A0030020AC030020C8AF08089C0300207D
:103B700038B504460D4629462046FFF795FF012833
:103B8000F9D0022803D103F0F1F809490AE003282B
:103B900003D103F0EBF8074904E0042806D103F051
:103BA000E5F80549BDE8384001F0ABB938BD00BFC4
:103BB000D9AF0808FBAF080820B008080149FFF793
:103BC000D7BF00BFA300002009292DE9F041074617
:103BD0000C46154605D803F0C9F8284901F091F9BB
:103BE0000A24002D06DC03F0C1F8254901F089F90B
:103BF000012507E07F2D05DD03F0B8F8214901F02C
:103C000080F97F2505FB04F31F4E03EB830333602C
:103C100003F0ACF81D4901F061F903F0A7F8804604
:103C20000A22214601F077F9404601F05EF903F0DF
:103C30009DF8174901F052F903F098F80A22294635
:103C4000FFF78CFD03F092F8124901F047F903F0F9
:103C50008DF8804631680A2201F05DF9404601F096
:103C600044F90D4900238C71240ACC710D724B72FA
:103C70003846BDE8F041FFF77BBF00BFE4B008085D
:103C800012B108083EB10808300000206CB10808E5
:103C900083B108089CB108085000002038B50C46D4
:103CA000154603F063F80D4901F018F903F05EF8CA
:103CB0000A222146FFF733FD03F058F8084901F0C6
:103CC0000DF903F053F8044629460A2201F023F9BE
:103CD0002046BDE8384001F008B900BFB3B108087C
:103CE000C9B1080870B51B4D06462B68052B2BD8AB
:103CF000DFE803F0030B0D0F1719FFF7BBFC0123DF
:103D000086F860302B6801332B60134902E01349B9
:103D100000E013493046FFF7C7FE0128044604D1EE
:103D200007E01049F6E71049F4E720B92B680133A2
:103D30002B60012070BD024629683046FFF7AEFFB8
:103D400000232B60204670BD0123037000202860F3
:103D500070BD00BFA40300205E000020AC00002066
:103D60006C000020340000209800002008B500F00E
:103D700039F9BDE808400148FFF7A2BCAC030020B8
:103D8000F0B5012185B0064601F019F8A0F1300523
:103D9000072D044625D81649684600F03EFF6946BF
:103DA000304600F0FAFF0746684600F0EFFE0FB11C
:103DB000ACB20EE00F49684600F02FFF694630466E
:103DC00000F0EBFF0546684600F0E0FE65B1263CDA
:103DD000A4B22046032103F0D7FC204603F0FEFCEA
:103DE00004E04FF0FF3001E06FF0010005B0F0BDDE
:103DF00072A90808D2B10808F0B5012185B00646BD
:103E000000F0DDFFA0F13004072C45D80723032282
:103E10003146684600F0E6FF2449684600F095FF09
:103E20000546684600F0B2FE7DB9062303223146FE
:103E3000684600F0D7FF1E49684600F086FF074637
:103E4000684600F0A3FE0FB929E00125194968462C
:103E500000F0E3FE6946304600F09FFF07466846E3
:103E600000F094FE6FB91449684600F0D6FE304663
:103E7000694600F092FF0646684600F087FE8EB164
:103E80000A34A4B20121204603F07EFC20462946D4
:103E900003F08BFC012007E04FF0FF3004E06FF0EF
:103EA000010001E06FF0020005B0F0BDD4B10808D8
:103EB000D9B1080872A90808D2B10808F0B50121E3
:103EC00085B0074600F07BFFA0F13005072D0446C2
:103ED00026D81749684600F0A0FE6946384600F02B
:103EE0005CFF0646684600F051FE16B1ACB20021F8
:103EF0000FE01049684600F090FE6946384600F031
:103F00004CFF0546684600F041FE65B13146263C4F
:103F1000A4B2204603F038FC204603F072FC04E013
:103F20004FF0FF3001E06FF0010005B0F0BD00BFC1
:103F300072A90808D2B10808F0B5012189B0064677
:103F400000F03DFFA0F13005072D04463ED80322C6
:103F50003146684600F068FF1F4904A800F05DFE86
:103F600004A9304600F019FF074604A800F00EFE31
:103F700057B1ADB20121284603F006FC684600F0B7
:103F80005AFF0146284617E0144904A800F045FEF0
:103F900004A9304600F001FF054604A800F0F6FD34
:103FA00075B1263CA4B20121204603F0EDFB684622
:103FB00000F041FF0146204603F03AFC012401E0F5
:103FC0006FF00104684600F0E1FD01E04FF0FF34BE
:103FD000204609B0F0BD00BF72A90808D2B1080898
:103FE00000F000B808B5024B1B681B68019308BDC0
:103FF000B001040808B5024B1B685B68019308BD5B
:10400000B001040808B5024B1B689B68019308BD0A
:10401000B001040808B5024B1B68DB68019308BDBA
:10402000B001040808B5024B1B681B69019308BD69
:10403000B001040808B5024B1B685B69019308BD19
:10404000B001040808B5024B1B689B69019308BDC9
:10405000B001040808B5024B1B68DB69019308BD79
:10406000B001040808B5024B1B681B6A019308BD28
:10407000B001040808B5024B1B685B6A019308BDD8
:10408000B001040808B5024B1B689B6A019308BD88
:10409000B001040808B5024B1B681B6B019308BDF7
:1040A000B001040808B5024B1B689B6F019308BD63
:1040B000B001040808B5024B1B681B68019308BDDA
:1040C000B401040808B5024B1B689B68019308BD46
:1040D000B401040808B5024B1B68DB68019308BDF6
:1040E000B401040808B5024B1B681B69019308BDA5
:1040F000B401040808B5024B1B685B69019308BD55
:10410000B401040808B5024B1B68DB69019308BDC4
:10411000B401040808B5024B1B681B6A019308BD73
:10412000B401040808B5024B1B685B6A019308BD23
:10413000B401040808B5024B1B685B68019308BD15
:104140009C01040808B5024B1B689B68019308BDDD
:104150009C01040808B5024B1B68DB68019308BD8D
:104160009C01040808B5024B1B685B69019308BDFC
:104170009C01040808B5024B1B68DB69019308BD6C
:104180009C01040808B5024B1B689B6D019308BD98
:104190009C01040808B5024B1B68DB6D019308BD48
:1041A000B801040808B5024B1B689B6E019308BD5B
:1041B000B801040808B5024B1B68DB6E019308BD0B
:1041C000B801040808B5024B1B685B68019308BD81
:1041D000D001040808B5024B1B689B68019308BD19
:1041E000D001040808B5024B1B68DB68019308BDC9
:1041F000D001040808B5024B1B681B69019308BD78
:10420000D001040808B5024B1B685B69019308BD27
:10421000D001040808B5024B1B68DB69019308BD97
:10422000D001040808B5024B1B681B6A019308BD46
:10423000D001040808B5024B1B685B6A019308BDF6
:10424000D001040808B5024B1B689B6A019308BDA6
:10425000D001040808B5024B1B68DB6A019308BD56
:10426000D001040808B5024B1B685B6C019308BDC4
:10427000D001040808B5024B1B689B6C019308BD74
:10428000D001040808B5024B1B68DB6C019308BD24
:10429000D001040808B5024B1B685B6D019308BD93
:1042A000D001040808B5024B1B68DB6E019308BD02
:1042B000D001040808B5024B1B681B6F019308BDB1
:1042C000D001040808B5024B1B689B69019308BD27
:1042D000C401040808B5024B1B681B6A019308BDA2
:1042E000C401040808B5024B1B685B6A019308BD52
:1042F000C401040808B5024B1B689B6A019308BD02
:10430000C401040808B5024B1B68DB6A019308BDB1
:10431000C401040808B5024B1B681B6B019308BD60
:10432000C401040808B5024B1B685B6B019308BD10
:10433000C401040808B5024B1B689B6B019308BDC0
:10434000C401040808B5024B1B681B6C019308BD2F
:10435000C401040808B5024B1B68DB6C019308BD5F
:10436000C401040808B5024B1B68DB68019308BD53
:10437000AC01040808B5024B1B689B69019308BD9A
:10438000AC01040808B5024B1B68DB69019308BD4A
:10439000AC01040808B5024B1B681B6A019308BDF9
:1043A000AC01040808B5024B1B685B6A019308BDA9
:1043B000AC01040808B5024B1B689B6A019308BD59
:1043C000AC01040808B5024B1B68DB6A019308BD09
:1043D000AC01040808B5024B1B681B6B019308BDB8
:1043E000AC01040808B5024B1B685B6B019308BD68
:1043F000AC01040808B5024B1B681B6C019308BD97
:10440000AC01040808B5024B1B689B6C019308BD06
:10441000AC01040808B5024B1B68DB6C019308BDB6
:10442000AC01040808B5024B1B681B6D019308BD65
:10443000AC01040808B5024B1B68DB6B019308BD97
:104440002000060808B5024B1B689B6C019308BD51
:104450002000060808B5024B1B681B68019308BDC5
:104460001C00060808B5024B1B685B68019308BD79
:104470001C00060808B5024B1B689B68019308BD29
:104480001C00060808B5024B1B681B69019308BD98
:104490001C00060808B5024B1B685B69019308BD48
:1044A0001C00060808B5024B1B689B69019308BDF8
:1044B0001C00060808B5024B1B68DB69019308BDA8
:1044C0001C00060808B5024B1B681B6A019308BD57
:1044D0001C00060808B5024B1B685B6B019308BD06
:1044E000A001020808B5024B1B685B6D019308BD73
:1044F000A001020808B5024B1B68DB6E019308BDE2
:10450000A001020808B5024B1B681B6F019308BD90
:10451000A001020808B5024B1B681B68019308BD87
:10452000A401040808B5024B1B685B68019308BD31
:10453000A401040808B5024B1B685B69019308BD20
:10454000A401040808B5024B1B689B69019308BDD0
:10455000A401040808B5024B1B681B6A019308BD3F
:10456000A401040808B5024B1B68DB6A019308BD6F
:10457000A401040808B5024B1B68DB6C019308BD5D
:10458000A401040808B5024B1B685B6D019308BDCC
:10459000A401040808B5024B1B689B6D019308BD7C
:1045A000A401040808B5034B1B68D3F890300193AD
:1045B00008BD0000A401040808B5034B1B68D3F82C
:1045C0009C30019308BD0000A401040808B5034B0A
:1045D0001B68D3F8A830019308BD0000A4010408AB
:1045E00008B5024B1B685B68019308BDC80104084D
:1045F00008B5024B1B689B68019308BDC8010408FD
:1046000008B5024B1B68DB68019308BDC8010408AC
:1046100008B5024B1B681B69019308BDC80104085B
:1046200008B5024B1B685B69019308BDC80104080B
:1046300008B5024B1B689B69019308BDC8010408BB
:1046400008B5024B1B68DB69019308BDC80104086B
:1046500008B5024B1B681B6A019308BDC80104081A
:1046600008B5024B1B681B6B019308BDC801040809
:1046700008B5024B1B685B6B019308BDC8010408B9
:1046800008B5024B1B681B68019308BDCC010408E8
:1046900008B5024B1B685B68019308BDCC01040898
:1046A00008B5024B1B689B68019308BDCC01040848
:1046B00008B5024B1B68DB68019308BDCC010408F8
:1046C00008B5024B1B681B69019308BDCC010408A7
:1046D00008B5024B1B685B69019308BDCC01040857
:1046E00008B5024B1B68DB69019308BDCC010408C7
:1046F00008B5024B1B681B6A019308BDCC01040876
:1047000008B5024B1B685B6A019308BDCC01040825
:1047100008B5024B1B681B6B019308BDCC01040854
:1047200008B5024B1B68DB6B019308BDCC01040884
:1047300008B5024B1B681B68019308BDA001040863
:1047400008B5024B1B685B68019308BDA001040813
:1047500008B5024B1B689B68019308BDA0010408C3
:1047600008B5024B1B681B69019308BDA001040832
:1047700008B5024B1B689B69019308BDA0010408A2
:1047800008B5024B1B68DB69019308BDA001040852
:1047900008B5024B1B681B6A019308BDA001040801
:1047A00008B5024B1B685B6A019308BDA0010408B1
:1047B00008B5024B1B68DB6A019308BDA001040821
:1047C00008B5024B1B681B6B019308BDA0010408D0
:1047D00008B5024B1B68DB6B019308BDA001040800
:1047E00008B503F0F3F8BDE8084002F02CBD10B5A1
:1047F0000446017009B1FFF7F3FF204610BD08B56C
:1048000003F0E4F8BDE8084002F026BD10B50378D7
:1048100004460BB1FFF7F3FF204610BD10B5044668
:104820000068FFF7ECFF204610BD37B502AC0D461F
:1048300044F8040DFFF7D4FF03F0C8F86B2102F031
:10484000F4FC03F0C3F8036829469B68984703F01B
:10485000BDF8012102F0ECFC03F0B8F801231A4680
:104860006B2102F0C9FC03F0B1F803685B6998475B
:1048700005462046FFF7D2FFE8B203B030BD08B5C9
:104880000821FFF7D2FFC0F3800008BD0821FFF721
:10489000CCBF0068FFF7F6BC0068FFF7FBBC70B543
:1048A00004460E46002540F8085FFFF7DBFC304663
:1048B0002670FFF727FC6560204670BD38B50546B9
:1048C00000F108042046FFF7E4FF28784FF6FF7157
:1048D000FFF7F0FB2046FFF7DFFF38BD70B5054658
:1048E0000E4600F108042046FFF7D3FF2878314632
:1048F000FFF7E8FB2046FFF7CFFF70BD70B5054618
:104900000E4600F108042046FFF7C3FF2878314621
:10491000FFF7E0FB2046FFF7BFFF70BD400830B552
:10492000186000241868E5B2884206D90134082CC2
:1049300002D040081860F5E70725024B5B5D137055
:1049400030BD00BFDDB108082DE9F041054600F19A
:10495000080688B0002402FB01F730460294FFF7F6
:1049600098FF95F800802146142203A804F062FC09
:104970000B23224603A94046ADF80C30FFF7D2FBCB
:1049800002AB0DF10702394604988DF80740FFF796
:10499000C5FF9DF807102878FFF7A4FB3046FFF706
:1049A0007BFF029808B0BDE8F08108B50078FFF7FA
:1049B000A1FBC0B208BD0078FFF7ACBB10B5044640
:1049C000006818B1FFF7BCFE0023236010BD38B5A6
:1049D000B1F904300D4683800B4653F8062F044688
:1049E000C0F806209B884381FFF7E8FF2B6813B1CE
:1049F000236000232B60204638BDB1F9043010B588
:104A00000BB90A689AB10C685CB1A288012A03D07C
:104A1000042A06D1022205E0A4898A710B814C8107
:104A200005E004220B814FF6FF738A714B8151F828
:104A3000063F03608B88838010BD014600228C20D6
:104A4000FFF7B0BB0020FFF7F8BF000030B5044609
:104A500085B0084611461A460023FFF773FD002370
:104A60000193ADF808308DF80A304FF6FF73094D09
:104A700001A9ADF80C002846ADF80E30FFF7A7FFEE
:104A800001A8FFF79BFF20462946FFF7B6FF204607
:104A900005B030BDD403002010B50024047044805C
:104AA0004FF6FF740029848007DD0139994209D24D
:104AB00032F811308380012301E002D10223037018
:104AC00010BD418010BD0000F0B50E4617468BB0FA
:104AD0001A46129B00240193119B054602940093F1
:104AE0003946109B3046FFF771FD3B463246014682
:104AF00005A8FFF7D1FF9DF814100794ADF82040EA
:104B00000C4CBDF91620BDF818308DF82210204647
:104B100007A9ADF82420ADF82630FFF758FF07A805
:104B2000FFF74CFF28462146FFF767FF28460BB0EA
:104B3000F0BD00BFD40300204FF6FF7310B5084C42
:104B400000202060A080A07120816381FFF7EAFC33
:104B50002046BDE81040034A034902F05DBF00BF94
:104B6000D4030020800100207502080800230360A0
:104B700043608360037310B50C6804604C68446044
:104B80008C6884600B604B608B6010BD10B5044670
:104B90000068FFF7D5FD204610BD10B5044600683B
:104BA00008B1FFF7CDFD00232360A360636010BD53
:104BB00038B504460D4600680131FFF7C9FD10B154
:104BC00084E82100012038BD10B50368044613B104
:104BD00043688B4207D22046FFF7EAFF20B1A36863
:104BE0000BB922681370012010BD70B50E46114636
:104BF00004461546FFF7E8FF18B92046FFF7CDFF3A
:104C000009E02A463146A560206804F0EDFA2268E2
:104C1000A3680021D154204670BD38B50023044656
:104C200003604360836003730D4639B1084605F0A5
:104C30008BF8294602462046FFF7D7FF204638BDAD
:104C400038B5054600680C4660B16A688B689A42C0
:104C500006D3096804F040FBA368AB6000230AE0B8
:104C6000FFF76EFD23682B6063686B60A368AB6021
:104C7000002323606360A36038BD884210B50B46F3
:104C8000044607D0096819B19A68FFF7AEFF01E042
:104C9000FFF783FF204610BD10B5044600230360D4
:104CA000436083600373FFF7E8FF204610BD88422E
:104CB00010B5044601D0FFF7C3FF204610BD38B53C
:104CC00005460C4641B1084605F03EF8214602462D
:104CD0002846FFF78AFF01E0FFF75FFF284638BD4F
:104CE00070B504460E4609B9002070BD6AB18368EC
:104CF000D5182946FFF768FF0028F5D02068A3687B
:104D00003146184404F0E8FAA560012070BD10B5E2
:104D10008A6809680446FFF7E3FF10B92046FFF7E9
:104D20003CFF204610BD38B504460D4641B108464B
:104D300005F00AF8294602462046FFF7D1FF10B9D0
:104D40002046FFF72AFF204638BD08B582680B468B
:104D500012B919B9012008BD11B90368187802E029
:104D6000006804F0AFFAB0FA80F0400908BD10B551
:104D7000144683688A689B1AA3420AD3006858B114
:104D8000096841B1204404F0E7FFB0FA80F040091F
:104D900010BD002010BD084610BD82688B689A4285
:104DA00002D30022FFF7E3BF0020704783688B42E5
:104DB00003D9006810B1405C704700207047FFF7CE
:104DC000F5BF10B58368934206D90468A01804F0B3
:104DD00061FA08B1001B10BD4FF0FF3010BD00227A
:104DE000FFF7EFBFF8B51D469A4288BF13460F463E
:104DF000144688BF2C460B4988BF1D460646FFF760
:104E00000CFFBA6894420AD83968954294BFC4EB43
:104E10000502C4EB020221443046FFF7E6FE3046AD
:104E2000F8BD00BFC4AC080810B504468B68FFF796
:104E3000D9FF204610BD006808B104F0CBB8704718
:104E40000EB4FFB509AC54F8047B054623463A4638
:104E5000052102A80194FFF7A3FC06460B4928464A
:104E6000FFF7DBFE31462846FFF7AEFE286830B17B
:104E700023463A46711C0194FFF792FCA86028462D
:104E800004B0BDE8F04003B0704700BFC4AC0808F0
:104E9000F8B506460D468F180024BD420CD0336885
:104EA00015F8011B9B6830469847002801DB044435
:104EB000F3E7002C08BF04462046F8BD70B5054650
:104EC0000C46084649B104F03FFF2B6802462146D4
:104ED0002846BDE87040DB68184770BD08B5FFF78D
:104EE000EDFF08BD03689B68184738B50D210546DE
:104EF000FFF7F8FF0A2104462846FFF7F3FF204496
:104F000038BD38B50546FFF7D9FF04462846FFF7F8
:104F1000ECFF204438BD012A98BF0A2230B50B4669
:104F20008BB000218DF824100DF12304B3FBF2F5B2
:104F300005FB1233DBB2092B94BF30333733DBB2BE
:104F4000214604F801392B46002DEFD1FFF7B6FFBB
:104F50000BB030BD2DE9F047194680461046174684
:104F60001E469DF8205003F037FC08B14D4912E071
:104F700026F000444FF0FF324B4B3846214603F0F9
:104F80002BFC68B94FF0FF32474B3846214603F0FF
:104F900005FC28B945494046FFF790FFBDE8F0877A
:104FA0004FF06042424B3846314603F00BFC08B1EB
:104FB0004049F0E74FF060423F4B3846314603F03E
:104FC000E3FB0028F4D1002200233846314603F0E9
:104FD000DBFB38B12D214046FFF784FF06F1004688
:104FE000044600E0044635494FF0000900205FFA0E
:104FF00089F39D4206D90022314B03F07DFA09F175
:105000000109F4E73A46334602F09AFF0F46064696
:1050100003F020FC0A22014681464046FFF77BFF51
:105020000444E5B3484603F0C7F802460B46304651
:10503000394602F083FF06460F4640462149FFF7F6
:105040003DFF044400221E4B3046394603F02AF946
:1050500006460F4603F0D6FBB0F1000A07DA2D2111
:105060004046FFF73FFFCAF10001814602E051468A
:105070004FF000090A224046FFF74DFF4844044420
:10508000504603F0A9F802460B463046394602F076
:1050900055FF013D15F0FF0506460F46D2D12046CB
:1050A000BDE8F087E5B10808FFFFEF7FEDB1080824
:1050B000FFFFEF41E9B10808FFFFEFC10000E03F4B
:1050C00000002440AFA9080837B59DF81810054620
:1050D0000091FFF73FFF04462846FFF706FF2044F4
:1050E00003B030BD37B504460846154603F086F8D0
:1050F000009502460B462046FFF7E6FF03B030BDA1
:105100000CB42DE9F04387B000AF07F1380454F830
:10511000049B05460E4623464A461421381D3C6032
:10512000FFF73EFB132805D8391D2846FFF7C6FEBA
:10513000044613E000F1080323F00703E846ADEB53
:10514000030D411C23464A4668463C60FFF728FB96
:1051500069462846FFF7B2FE0446C5461EB12846FA
:10516000FFF7C3FE044420461C37BD46BDE8F043AC
:1051700002B0704780680368DB681847704719B150
:105180000B6808465B681847704719B10B680846FA
:105190005B681847704770477047704738B50446DA
:1051A0000D4600682E2104F083F82368C31A2B6093
:1051B00023B1037803B1013023682060184638BD5D
:1051C00010B504460C2102F035FC204610BD10B588
:1051D0000446042102F02EFC204610BD10B5044602
:1051E000042102F027FC204610BD38B50C460546C8
:1051F00001F0BCFD844202D101F0B8FD05E001F0F0
:10520000E3FD844205D101F0DFFDBDE8384001F047
:10521000A1BD01F03DFF844205D101F039FFBDE899
:10522000384001F02EBF21462846FFF7AEFF38BDBB
:1052300008B504F047F8B0FA80F0400908BD38B569
:10524000054608460C4604F07FFD214602462846E6
:10525000BDE8384002F0E1B970B5044608460D4695
:1052600004F072FD2368024629462046BDE87040DE
:10527000DB68184713B5026802AB03F8011DD46858
:1052800019460122A04702B010BD00002DE9F04FE1
:1052900007688B463C46456891461422554385B0C5
:1052A0000193AB10184D02925D430123002D03932F
:1052B00023DD029B6E1003FB06F004EB0008B8F838
:1052C00004A04A46D14528BF52465946205804F00A
:1052D00043FD039B48B9D14503D1019A137035466C
:1052E000E4E78CBF0120002000E0C00F0028F6D0CA
:1052F000AE1B08F11404013EF1E7E41B0248A410C0
:10530000604305B0BDE8F08FCDCCCCCCF0B50369DF
:1053100085B00191067E13B309B300231D4604AF87
:1053200000F10C0447F8043D394601A8FFF736FFA9
:105330000146A0B104AB03F8055D039A2046FFF7D0
:10534000A5FF9DF80B3053B12368142404FB0034EF
:10535000B4F906300834002BA8BFDEB2E4E73046CB
:1053600005B0F0BD10B5094C2368DB070BD420460F
:10537000FAF7A4FE38B12046FAF7A5FE044A05491B
:10538000054802F049FB044810BD00BFE0030020BF
:105390008001002099510808BC00002010B5094C7C
:1053A0002368DB070BD42046FAF788FE38B1204685
:1053B000FAF789FE044A0549054802F02DFB044826
:1053C00010BD00BF10040020800100209751080884
:1053D000B800002038B500250446056045608560AA
:1053E00005614561856140F8245FFEF73BFFFFF7EB
:1053F000B9FFE061FFF7D2FF25732062204638BD78
:1054000010B50A4C2368DB070ED42046FAF756FE87
:1054100050B10748FFF7DEFF2046FAF754FE054A71
:105420000549034802F0F8FA014810BDE4030020E2
:10543000E803002080010020995808080023024A50
:1054400002490348FFF75EB87D5708080D57080862
:105450009556080800231A4619461846FFF752B811
:105460000B68036013B15A6801325A60704773B514
:1054700005468E6851F8043B02AC44F8083D01A88B
:10548000FFF7EEFF22463146284602F013F901A845
:10549000FAF762FF284602B070BD73B505460E6983
:1054A00051F8043B02AC44F8083D01A8FFF7D8FFCF
:1054B00022463146284602F018F901A8FAF74CFFB7
:1054C000284602B070BD73B50546CE6851F8043B5E
:1054D00002AC44F8083D01A8FFF7C2FF224631465E
:1054E000284602F0BFF801A8FAF736FF284602B0B6
:1054F00070BD000030B58BB00D46014604A8FFF723
:10550000B6FF04A801F0CBFFE8B104A96846FFF795
:10551000DAFF0F490298FFF78BFE044610B12C1CEE
:1055200018BF012401A8FAF717FF002CE9D004A93D
:105530006846FFF7B2FF684601F091FF286001A8B6
:10554000FAF70AFFDDE705A8FAF706FF0BB030BD52
:1055500024B2080837B50C461A492046154603F010
:10556000B1FE40B901F002FC4FF4165101F0EEFB20
:1055700001F0FCFB23E01449204603F0A3FE40B9F0
:1055800001F022FC4FF4165101F0E0FB01F01CFC8D
:1055900015E00E49204603F095FE78B902A94FF4B4
:1055A000165341F8043D2846FFF7A4FF01F070FDB3
:1055B000019901F063FD01F06BFD00E0002003B0F4
:1055C00030BD00BF29B2080830B2080833B208085D
:1055D00070B5054604684368142606FB0346A642D8
:1055E00005D004F10800FFF7F3FF1434F7E728684B
:1055F000FFF7A6F8284670BD70B5054604684368F5
:1056000004EB0316A64204D02046FFF7BFFA10347D
:10561000F8E72868FFF794F8284670BD10B50446EF
:105620000C30FFF7D5FF2046FFF7E6FF204610BD00
:1056300010B50446034B40F8043BFFF7EFFF20464C
:1056400010BD00BF3CA7080810B50446FFF7F0FFE7
:105650002046242102F0EEF9204610BD10B5044684
:10566000024B0360FFF7E4FF204610BD14B20808A8
:1056700010B50446FFF7F2FF2046242102F0DAF9C4
:10568000204610BD10B5044603681868FEF702FEF8
:10569000204610BD2DE9F04F9B461B4B85B05B6843
:1056A0008246C3F308030E46904653BBFFF7A8FE9D
:1056B000044624300390FFF7ECF8237BF3B9012371
:1056C000237325686368F6B205EB83094D4513D053
:1056D00055F8047B4146381DFFF718FE8642F5D386
:1056E0003B68CDF800B09B6838469E46324643463C
:1056F00051467746B847E9E70023237303A8FFF72D
:10570000C1FF05B0BDE8F08F00ED00E02DE9F74FD7
:105710009946194B07465B688846C3F3080316464B
:1057200033BBFFF76DFE044624300190FFF7B1F85C
:10573000237BD3B901232373256863685FFA86FB53
:1057400005EB830A55450ED055F8046B4946301DCC
:10575000FFF7DCFD8345F5D333684246DB68394605
:1057600030469847EEE70023237301A8FFF78AFF2E
:1057700003B0BDE8F08F00BF00ED00E02DE9F3417C
:10578000154B04465B688846C3F30803FBB9FFF773
:1057900037FE064624300190FFF77BF896E8A0001C
:1057A000462605EB8707AF4207D101A8FFF76AFF3E
:1057B000B442B4BF002001200AE055F8040B414672
:1057C0000430FFF7A3FD8642A8BF0646EBE70020A2
:1057D00002B0BDE8F08100BF00ED00E070B5044606
:1057E0000368426803EB82029A4218460DD00668AD
:1057F0000D680433AE42F7D1011D521A03F0FFFCCD
:1058000063680120013B636070BD002070BD1FB55F
:105810000446243001910390FFF73BF801A920468C
:10582000FFF7DCFF20B903A8FFF72CFF04B010BD81
:105830006368002BF7D1FFF70DFEF4E770B504465F
:1058400005694369182606FB0356AE4215D005F1DB
:1058500010012046FFF7C2FF63680BB9FFF7FAFD9E
:10586000E06929690368DB689847696919B1206AAA
:105870000368DB6898471835E7E7256963691826E8
:1058800006FB0356B54204D02846FFF77FF91835CA
:10589000F8E70023636170BD73B5044602ADFFF7FE
:1058A000D9FD04F1240045F8040DFEF7F2FF20466F
:1058B000FFF7C4FF2846FFF7E5FE606A08B1FEF770
:1058C000D9FC25696369182606FB0356B54204D046
:1058D0002846FFF75BF91835F8E72069FEF730FF37
:1058E0002068FEF72DFF204602B070BD03680A68ED
:1058F00002600B6043684A6842604B6083688A6854
:1059000082608B60704710B50446002303604360DB
:105910008360FFF7EBFF204610BD8842F8B50446D0
:10592000164625D9904224D2551A143D2C44A1F193
:105930001407A2F10C050026A5F108039F4237D0F9
:1059400084B155F8083C2946236035F8043C04F13D
:105950000800A38035F9023CA660E380E66026617A
:10596000FFF7C4FF2846FFF733FE143C143DE3E77E
:105970001ED001F108050027A5F108039E4217D0AB
:1059800084B155F8083C2946236035F8043C04F1FD
:105990000800A38035F9023CA760E380E760276137
:1059A000FFF7A4FF2846FFF713FE14341435E3E78E
:1059B000F8BDF8B54568836804469D420E46174613
:1059C0000EDB0135002D05DDA9000068FEF7C0FEE5
:1059D00020B9F8BD0068FEF7B3FE00202060A56086
:1059E0002568626805EB860105EB8202521A081DE4
:1059F00003F005FC45F826706368012001336360FD
:105A0000F8BD37B5044624300D460190FEF741FF3E
:105A10002368616803EB810083421A4608D012684C
:105A20000433AA42F8D101A8FFF72CFE00250EE0AE
:105A30002A462046FFF7BDFF05460028F3D06368DD
:105A4000012B01D1FFF7FAFC01A8FFF71BFE284646
:105A500003B030BD8842F8B506460C46154614D949
:105A6000904213D2A2F110056C1AA1F11007044460
:105A7000AF4218D01CB129462046FFF777F82846D8
:105A8000FFF784F8103D103CF2E70CD0AC420AD08E
:105A90001EB121463046FFF769F82046FFF776F839
:105AA00010341036F2E7F8BD70B50E1E05460BDD5A
:105AB0003001FEF73DFE044670B195E8060001EBAB
:105AC0000212FFF7C7FF00E000242868FEF738FE47
:105AD0002C60AE60012070BD70BD2DE9F04F924684
